{"abi":[{"type":"function","name":"CODESEP_POS","inputs":[],"outputs":[{"name":"","type":"bytes","internalType":"bytes"}],"stateMutability":"view"},{"type":"function","name":"EPOCH","inputs":[],"outputs":[{"name":"","type":"bytes","internalType":"bytes"}],"stateMutability":"view"},{"type":"function","name":"INPUT_INDEX","inputs":[],"outputs":[{"name":"","type":"bytes","internalType":"bytes"}],"stateMutability":"view"},{"type":"function","name":"KEY_VERSION","inputs":[],"outputs":[{"name":"","type":"bytes","internalType":"bytes"}],"stateMutability":"view"},{"type":"function","name":"LIGHT_CLIENT","inputs":[],"outputs":[{"name":"","type":"address","internalType":"contract BitcoinLightClient"}],"stateMutability":"view"},{"type":"function","name":"SAT_TO_WEI","inputs":[],"outputs":[{"name":"","type":"uint256","internalType":"uint256"}],"stateMutability":"view"},{"type":"function","name":"SCHNORR_VERIFIER_PRECOMPILE","inputs":[],"outputs":[{"name":"","type":"address","internalType":"address"}],"stateMutability":"view"},{"type":"function","name":"SIGHASH_ALL_HASH_TYPE","inputs":[],"outputs":[{"name":"","type":"bytes","internalType":"bytes"}],"stateMutability":"view"},{"type":"function","name":"SIGHASH_SINGLE_ANYONECANPAY_HASH_TYPE","inputs":[],"outputs":[{"name":"","type":"bytes","internalType":"bytes"}],"stateMutability":"view"},{"type":"function","name":"SPEND_TYPE_EXT","inputs":[],"outputs":[{"name":"","type":"bytes","internalType":"bytes"}],"stateMutability":"view"},{"type":"function","name":"SPEND_TYPE_NO_EXT","inputs":[],"outputs":[{"name":"","type":"bytes","internalType":"bytes"}],"stateMutability":"view"},{"type":"function","name":"SYSTEM_CALLER","inputs":[],"outputs":[{"name":"","type":"address","internalType":"address"}],"stateMutability":"view"},{"type":"function","name":"acceptOwnership","inputs":[],"outputs":[],"stateMutability":"nonpayable"},{"type":"function","name":"batchWithdraw","inputs":[{"name":"txIds","type":"bytes32[]","internalType":"bytes32[]"},{"name":"outputIds","type":"bytes4[]","internalType":"bytes4[]"}],"outputs":[],"stateMutability":"payable"},{"type":"function","name":"deposit","inputs":[{"name":"moveTx","type":"tuple","internalType":"struct Bridge.Transaction","components":[{"name":"version","type":"bytes4","internalType":"bytes4"},{"name":"flag","type":"bytes2","internalType":"bytes2"},{"name":"vin","type":"bytes","internalType":"bytes"},{"name":"vout","type":"bytes","internalType":"bytes"},{"name":"witness","type":"bytes","internalType":"bytes"},{"name":"locktime","type":"bytes4","internalType":"bytes4"}]},{"name":"proof","type":"tuple","internalType":"struct Bridge.MerkleProof","components":[{"name":"intermediateNodes","type":"bytes","internalType":"bytes"},{"name":"blockHeight","type":"uint256","internalType":"uint256"},{"name":"index","type":"uint256","internalType":"uint256"}]},{"name":"shaScriptPubkeys","type":"bytes32","internalType":"bytes32"}],"outputs":[],"stateMutability":"nonpayable"},{"type":"function","name":"depositAmount","inputs":[],"outputs":[{"name":"","type":"uint256","internalType":"uint256"}],"stateMutability":"view"},{"type":"function","name":"depositPrefix","inputs":[],"outputs":[{"name":"","type":"bytes","internalType":"bytes"}],"stateMutability":"view"},{"type":"function","name":"depositSuffix","inputs":[],"outputs":[{"name":"","type":"bytes","internalType":"bytes"}],"stateMutability":"view"},{"type":"function","name":"depositTxIds","inputs":[{"name":"","type":"uint256","internalType":"uint256"}],"outputs":[{"name":"","type":"bytes32","internalType":"bytes32"}],"stateMutability":"view"},{"type":"function","name":"failedDepositVault","inputs":[],"outputs":[{"name":"","type":"address","internalType":"address"}],"stateMutability":"view"},{"type":"function","name":"getAggregatedKey","inputs":[],"outputs":[{"name":"","type":"bytes","internalType":"bytes"}],"stateMutability":"view"},{"type":"function","name":"getWithdrawalCount","inputs":[],"outputs":[{"name":"","type":"uint256","internalType":"uint256"}],"stateMutability":"view"},{"type":"function","name":"initialize","inputs":[{"name":"_depositPrefix","type":"bytes","internalType":"bytes"},{"name":"_depositSuffix","type":"bytes","internalType":"bytes"},{"name":"_depositAmount","type":"uint256","internalType":"uint256"}],"outputs":[],"stateMutability":"nonpayable"},{"type":"function","name":"initialized","inputs":[],"outputs":[{"name":"","type":"bool","internalType":"bool"}],"stateMutability":"view"},{"type":"function","name":"operator","inputs":[],"outputs":[{"name":"","type":"address","internalType":"address"}],"stateMutability":"view"},{"type":"function","name":"owner","inputs":[],"outputs":[{"name":"","type":"address","internalType":"address"}],"stateMutability":"view"},{"type":"function","name":"pendingOwner","inputs":[],"outputs":[{"name":"","type":"address","internalType":"address"}],"stateMutability":"view"},{"type":"function","name":"processedTxIds","inputs":[{"name":"","type":"bytes32","internalType":"bytes32"}],"outputs":[{"name":"","type":"bool","internalType":"bool"}],"stateMutability":"view"},{"type":"function","name":"renounceOwnership","inputs":[],"outputs":[],"stateMutability":"nonpayable"},{"type":"function","name":"replaceDeposit","inputs":[{"name":"replaceTx","type":"tuple","internalType":"struct Bridge.Transaction","components":[{"name":"version","type":"bytes4","internalType":"bytes4"},{"name":"flag","type":"bytes2","internalType":"bytes2"},{"name":"vin","type":"bytes","internalType":"bytes"},{"name":"vout","type":"bytes","internalType":"bytes"},{"name":"witness","type":"bytes","internalType":"bytes"},{"name":"locktime","type":"bytes4","internalType":"bytes4"}]},{"name":"proof","type":"tuple","internalType":"struct Bridge.MerkleProof","components":[{"name":"intermediateNodes","type":"bytes","internalType":"bytes"},{"name":"blockHeight","type":"uint256","internalType":"uint256"},{"name":"index","type":"uint256","internalType":"uint256"}]},{"name":"idToReplace","type":"uint256","internalType":"uint256"},{"name":"shaScriptPubkeys","type":"bytes32","internalType":"bytes32"}],"outputs":[],"stateMutability":"nonpayable"},{"type":"function","name":"replacePrefix","inputs":[],"outputs":[{"name":"","type":"bytes","internalType":"bytes"}],"stateMutability":"view"},{"type":"function","name":"replaceSuffix","inputs":[],"outputs":[{"name":"","type":"bytes","internalType":"bytes"}],"stateMutability":"view"},{"type":"function","name":"safeWithdraw","inputs":[{"name":"prepareTx","type":"tuple","internalType":"struct Bridge.Transaction","components":[{"name":"version","type":"bytes4","internalType":"bytes4"},{"name":"flag","type":"bytes2","internalType":"bytes2"},{"name":"vin","type":"bytes","internalType":"bytes"},{"name":"vout","type":"bytes","internalType":"bytes"},{"name":"witness","type":"bytes","internalType":"bytes"},{"name":"locktime","type":"bytes4","internalType":"bytes4"}]},{"name":"prepareProof","type":"tuple","internalType":"struct Bridge.MerkleProof","components":[{"name":"intermediateNodes","type":"bytes","internalType":"bytes"},{"name":"blockHeight","type":"uint256","internalType":"uint256"},{"name":"index","type":"uint256","internalType":"uint256"}]},{"name":"payoutTx","type":"tuple","internalType":"struct Bridge.Transaction","components":[{"name":"version","type":"bytes4","internalType":"bytes4"},{"name":"flag","type":"bytes2","internalType":"bytes2"},{"name":"vin","type":"bytes","internalType":"bytes"},{"name":"vout","type":"bytes","internalType":"bytes"},{"name":"witness","type":"bytes","internalType":"bytes"},{"name":"locktime","type":"bytes4","internalType":"bytes4"}]},{"name":"blockHeader","type":"bytes","internalType":"bytes"},{"name":"withdrawalAddressPubKey","type":"bytes","internalType":"bytes"}],"outputs":[],"stateMutability":"payable"},{"type":"function","name":"setDepositScript","inputs":[{"name":"_depositPrefix","type":"bytes","internalType":"bytes"},{"name":"_depositSuffix","type":"bytes","internalType":"bytes"}],"outputs":[],"stateMutability":"nonpayable"},{"type":"function","name":"setFailedDepositVault","inputs":[{"name":"_failedDepositVault","type":"address","internalType":"address"}],"outputs":[],"stateMutability":"nonpayable"},{"type":"function","name":"setOperator","inputs":[{"name":"_operator","type":"address","internalType":"address"}],"outputs":[],"stateMutability":"nonpayable"},{"type":"function","name":"setReplaceScript","inputs":[{"name":"_replacePrefix","type":"bytes","internalType":"bytes"},{"name":"_replaceSuffix","type":"bytes","internalType":"bytes"}],"outputs":[],"stateMutability":"nonpayable"},{"type":"function","name":"transferOwnership","inputs":[{"name":"newOwner","type":"address","internalType":"address"}],"outputs":[],"stateMutability":"nonpayable"},{"type":"function","name":"withdraw","inputs":[{"name":"txId","type":"bytes32","internalType":"bytes32"},{"name":"outputId","type":"bytes4","internalType":"bytes4"}],"outputs":[],"stateMutability":"payable"},{"type":"function","name":"withdrawalUTXOs","inputs":[{"name":"","type":"uint256","internalType":"uint256"}],"outputs":[{"name":"txId","type":"bytes32","internalType":"bytes32"},{"name":"outputId","type":"bytes4","internalType":"bytes4"}],"stateMutability":"view"},{"type":"event","name":"Deposit","inputs":[{"name":"wtxId","type":"bytes32","indexed":false,"internalType":"bytes32"},{"name":"txId","type":"bytes32","indexed":false,"internalType":"bytes32"},{"name":"recipient","type":"address","indexed":false,"internalType":"address"},{"name":"timestamp","type":"uint256","indexed":false,"internalType":"uint256"},{"name":"depositId","type":"uint256","indexed":false,"internalType":"uint256"}],"anonymous":false},{"type":"event","name":"DepositReplaced","inputs":[{"name":"index","type":"uint256","indexed":false,"internalType":"uint256"},{"name":"oldTxId","type":"bytes32","indexed":false,"internalType":"bytes32"},{"name":"newTxId","type":"bytes32","indexed":false,"internalType":"bytes32"}],"anonymous":false},{"type":"event","name":"DepositScriptUpdate","inputs":[{"name":"depositPrefix","type":"bytes","indexed":false,"internalType":"bytes"},{"name":"depositSuffix","type":"bytes","indexed":false,"internalType":"bytes"}],"anonymous":false},{"type":"event","name":"DepositTransferFailed","inputs":[{"name":"wtxId","type":"bytes32","indexed":false,"internalType":"bytes32"},{"name":"txId","type":"bytes32","indexed":false,"internalType":"bytes32"},{"name":"recipient","type":"address","indexed":false,"internalType":"address"},{"name":"timestamp","type":"uint256","indexed":false,"internalType":"uint256"},{"name":"depositId","type":"uint256","indexed":false,"internalType":"uint256"}],"anonymous":false},{"type":"event","name":"FailedDepositVaultUpdated","inputs":[{"name":"oldVault","type":"address","indexed":false,"internalType":"address"},{"name":"newVault","type":"address","indexed":false,"internalType":"address"}],"anonymous":false},{"type":"event","name":"Initialized","inputs":[{"name":"version","type":"uint64","indexed":false,"internalType":"uint64"}],"anonymous":false},{"type":"event","name":"OperatorUpdated","inputs":[{"name":"oldOperator","type":"address","indexed":false,"internalType":"address"},{"name":"newOperator","type":"address","indexed":false,"internalType":"address"}],"anonymous":false},{"type":"event","name":"OwnershipTransferStarted","inputs":[{"name":"previousOwner","type":"address","indexed":true,"internalType":"address"},{"name":"newOwner","type":"address","indexed":true,"internalType":"address"}],"anonymous":false},{"type":"event","name":"OwnershipTransferred","inputs":[{"name":"previousOwner","type":"address","indexed":true,"internalType":"address"},{"name":"newOwner","type":"address","indexed":true,"internalType":"address"}],"anonymous":false},{"type":"event","name":"ReplaceScriptUpdate","inputs":[{"name":"replacePrefix","type":"bytes","indexed":false,"internalType":"bytes"},{"name":"replaceSuffix","type":"bytes","indexed":false,"internalType":"bytes"}],"anonymous":false},{"type":"event","name":"SafeWithdrawal","inputs":[{"name":"payoutTx","type":"tuple","indexed":false,"internalType":"struct Bridge.Transaction","components":[{"name":"version","type":"bytes4","internalType":"bytes4"},{"name":"flag","type":"bytes2","internalType":"bytes2"},{"name":"vin","type":"bytes","internalType":"bytes"},{"name":"vout","type":"bytes","internalType":"bytes"},{"name":"witness","type":"bytes","internalType":"bytes"},{"name":"locktime","type":"bytes4","internalType":"bytes4"}]},{"name":"spentUtxo","type":"tuple","indexed":false,"internalType":"struct Bridge.UTXO","components":[{"name":"txId","type":"bytes32","internalType":"bytes32"},{"name":"outputId","type":"bytes4","internalType":"bytes4"}]},{"name":"index","type":"uint256","indexed":false,"internalType":"uint256"}],"anonymous":false},{"type":"event","name":"Withdrawal","inputs":[{"name":"utxo","type":"tuple","indexed":false,"internalType":"struct Bridge.UTXO","components":[{"name":"txId","type":"bytes32","internalType":"bytes32"},{"name":"outputId","type":"bytes4","internalType":"bytes4"}]},{"name":"index","type":"uint256","indexed":false,"internalType":"uint256"},{"name":"timestamp","type":"uint256","indexed":false,"internalType":"uint256"}],"anonymous":false},{"type":"error","name":"InvalidInitialization","inputs":[]},{"type":"error","name":"NotInitializing","inputs":[]},{"type":"error","name":"OwnableInvalidOwner","inputs":[{"name":"owner","type":"address","internalType":"address"}]},{"type":"error","name":"OwnableUnauthorizedAccount","inputs":[{"name":"account","type":"address","internalType":"address"}]}],"bytecode":{"object":"0x608080604052346015576149f7908161001a8239f35b5f80fdfe60806040526004361015610011575f80fd5b5f3560e01c80630659216714610285578063092ac5d4146102085780630bd89ab7146102085780631369ac3e14610208578063158ef93e14610280578063198546231461027b57806323dacd29146102765780632594f107146102715780633c918b6c1461026c5780634126013714610267578063419759f514610262578063428bcd351461025d5780634379caa514610258578063471ba1e314610253578063570ca7351461024e5780635b4f894d146102495780636b0b5a94146102445780636cf7d6411461023f578063715018a61461023a578063781952a81461023557806379ba5097146102305780637ec9732a1461022b57806385fb7151146102265780638752b6b2146102215780638786dba71461021c5780638da5cb5b146102175780639072f747146102125780639a4f308d1461020d578063a0dc275814610208578063a670e7ed14610203578063b2497e70146101fe578063b3ab15fb146101f9578063d761753e146101f4578063e30c3978146101ef578063e613ae00146101ea578063f2fde38b146101e5578063f42cb4fc146101e0578063f8e655d2146101db578063fb11d7b9146101d65763fdecdf53146101d1575f80fd5b611981565b611890565b611744565b611729565b6116b0565b61168e565b61165a565b61162c565b6115a9565b61158e565b611543565b6103ba565b611527565b611474565b6113ec565b6113c7565b61138f565b6112d7565b611111565b611017565b610ffa565b610f7d565b610f62565b610f28565b610f0d565b610c36565b610bdf565b610bb0565b610b95565b610b5d565b61093a565b6108ea565b6105ca565b610593565b610436565b6103e5565b6102bb565b634e487b7160e01b5f52603260045260245ffd5b6008548110156102b65760085f5260205f2001905f90565b61028a565b3461030b57602036600319011261030b5760043560085481101561030b5760209060085f527ff3f7a9fe364faab93b216da50a3214154f22a0a2b415b23a84c8169e8b636ee30154604051908152f35b5f80fd5b634e487b7160e01b5f52604160045260245ffd5b90601f801991011681019081106001600160401b0382111761034457604052565b61030f565b60405190610358604083610323565b565b6001600160401b03811161034457601f01601f191660200190565b60405190610384604083610323565b600182525f6020830152565b602060409281835280519182918282860152018484015e5f828201840152601f01601f1916010190565b3461030b575f36600319011261030b576103e16103d5610375565b60405191829182610390565b0390f35b3461030b575f36600319011261030b57602060ff5f54166040519015158152f35b9181601f8401121561030b578235916001600160401b03831161030b576020808501948460051b01011161030b57565b604036600319011261030b576004356001600160401b03811161030b57610461903690600401610406565b6024356001600160401b03811161030b57610480903690600401610406565b929083830361053d5761049f610498846001546119b4565b34146119cc565b600754935f5b8481106104ae57005b807f3311a04a346a103ac115cca33028a2bc82f1964805860d0d3fc84a2772496ada6104dd6001938888611a18565b356105106104f46104ef85888a611a18565b611a28565b6104fc610349565b9283526001600160e01b0319166020830152565b61051981611a32565b610523838a611ad1565b610534604051928392429184611ade565b0390a1016104a5565b60405162461bcd60e51b815260206004820152600f60248201526e098cadccee8d040dad2e6dac2e8c6d608b1b6044820152606490fd5b60405190610583604083610323565b60018252600160f91b6020830152565b3461030b575f36600319011261030b576103e16103d5610574565b908160c091031261030b5790565b9081606091031261030b5790565b3461030b57608036600319011261030b576004356001600160401b03811161030b576105fa9036906004016105ae565b6024356001600160401b03811161030b576106199036906004016105bc565b906044356064355f5490929060081c6001600160a01b031633036108a55761075e6108a09161068b7f4d7c644a48da4c7857af62a00bad9806f0388564f22955ed846d938c244047f0966106706008548710611b0f565b61068561067e600554610c61565b1515611b4b565b826132f0565b5050604081016107486107586106b36106ae6106a78587611b97565b3691611420565b6134e3565b9761075060608601956107226106e96106cf6106a78a85611b97565b6106e36106dc8b86611b97565b9050611bc9565b906135b4565b936107026106fd6106a76080860186611b97565b6138ff565b9c8d61070d85611a28565b9060a086019761071c89611a28565b93613a30565b61074061073861073183611a28565b9783611b97565b989092611b97565b959093611a28565b963691611420565b923691611420565b91613cc3565b610789610784610780610779845f52600960205260405f2090565b5460ff1690565b1590565b611bf3565b6107ab61079e825f52600960205260405f2090565b805460ff19166001179055565b61088361087b6107f96107ca6107c08761029e565b90549060031b1c90565b966107de856107d88961029e565b90611c3f565b6107f460036107ec83614640565b905014611c5c565b613d54565b61087661087161086961080d600554610c61565b610858610853610845610821600654610c61565b9361083f89516108398761083485611a99565b611ad1565b14611ca0565b8861363c565b61084d610c99565b90613ee2565b611ce4565b610863818651611be6565b85613881565b61084d610d4e565b611d30565b613f8d565b948514611d7c565b604051938493846040919493926060820195825260208201520152565b0390a1005b60405162461bcd60e51b815260206004820152601a60248201527f63616c6c6572206973206e6f7420746865206f70657261746f720000000000006044820152606490fd5b3461030b575f36600319011261030b576103e16103d5610908610de3565b61368a565b9181601f8401121561030b578235916001600160401b03831161030b576020838186019501011161030b57565b3461030b57606036600319011261030b576004356001600160401b03811161030b5761096a90369060040161090d565b6024356001600160401b03811161030b5761098990369060040161090d565b9092906044359073deaddeaddeaddeaddeaddeaddeaddeaddeaddead3303610b18577f80bd1fdfe157286ce420ee763f91748455b249605748e5df12dad9844402bafc94610a3a610ad6936109ea6109e560ff5f541615151590565b611dd2565b6109f5811515611e1e565b610a00871515611e6a565b610a116402540be400820615611eb6565b610a21600160ff195f5416175f55565b610a2b8787612006565b610a3584846120e7565b600155565b5f8054610100600160a81b03191674deaddeaddeaddeaddeaddeaddeaddeaddeaddead00179055600280546001600160a01b0319166007603160981b011790557ffbe5b6cbafb274f445d7fed869dc77a838d8243a22c460de156560e8857cad0360405180610ac7819073deaddeaddeaddeaddeaddeaddeaddeaddeaddead602060408401935f81520152565b0390a1604051948594856122b1565b0390a1604080515f81526007603160981b0160208201527f79250b96878fd457364d1c1b77a660973c4f4ab67bda5e2fdb42caaa4d515f9d91819081016108a0565b60405162461bcd60e51b815260206004820152601f60248201527f63616c6c6572206973206e6f74207468652073797374656d2063616c6c6572006044820152606490fd5b3461030b575f36600319011261030b576020600154604051908152f35b60405190610b89604083610323565b600482525f6020830152565b3461030b575f36600319011261030b576103e16103d5610b7a565b3461030b57602036600319011261030b576004355f526009602052602060ff60405f2054166040519015158152f35b3461030b57602036600319011261030b5760043560075481101561030b576007548110156102b65760409060075f5260205f209060011b016001815491015460e01b825191825263ffffffff60e01b166020820152f35b3461030b575f36600319011261030b575f5460405160089190911c6001600160a01b03168152602090f35b90600182811c92168015610c8f575b6020831014610c7b57565b634e487b7160e01b5f52602260045260245ffd5b91607f1691610c70565b604051905f8260055491610cac83610c61565b8083529260018116908115610d2f5750600114610cd0575b61035892500383610323565b5060055f90815290917f036b6384b5eca791c62761152d0c79bb0604c104a5fb6f4eb0703f3154bb3db05b818310610d1357505090602061035892820101610cc4565b6020919350806001915483858901015201910190918492610cfb565b6020925061035894915060ff191682840152151560051b820101610cc4565b604051905f8260065491610d6183610c61565b8083529260018116908115610d2f5750600114610d845761035892500383610323565b5060065f90815290917ff652222313e28459528d920b65115c16c04f3efc82aaedc97be59f3f377c0d3f5b818310610dc757505090602061035892820101610cc4565b6020919350806001915483858901015201910190918492610daf565b604051905f8260035491610df683610c61565b8083529260018116908115610d2f5750600114610e195761035892500383610323565b5060035f90815290917fc2575a0e9e593c00f959f8c92f12db2869c3395a3b0502d05e2516446f71f85b5b818310610e5c57505090602061035892820101610cc4565b6020919350806001915483858901015201910190918492610e44565b604051905f8260045491610e8b83610c61565b8083529260018116908115610d2f5750600114610eae5761035892500383610323565b5060045f90815290917f8a35acfbc15ff81a39ae7d344fd709f28e8600b4aa8c65c6b64bfe7fe36bd19b5b818310610ef157505090602061035892820101610cc4565b6020919350806001915483858901015201910190918492610ed9565b3461030b575f36600319011261030b576103e16103d5610de3565b3461030b575f36600319011261030b576103e16103d5610c99565b60405190610f52604083610323565b60018252608360f81b6020830152565b3461030b575f36600319011261030b576103e16103d5610f43565b3461030b575f36600319011261030b57610f95614000565b5f5160206149d75f395f51905f5280546001600160a01b03199081169091555f5160206149b75f395f51905f52805491821690555f906001600160a01b03167f8be0079c531659141344cd1fd0a4f28419497f9722a3daafe3b4186f6b6457e08280a3005b3461030b575f36600319011261030b576020600754604051908152f35b3461030b575f36600319011261030b575f5160206149d75f395f51905f5254336001600160a01b03909116036110ae575f5160206149d75f395f51905f5280546001600160a01b03199081169091555f5160206149b75f395f51905f5280543392811683179091556001600160a01b03167f8be0079c531659141344cd1fd0a4f28419497f9722a3daafe3b4186f6b6457e05f80a3005b63118cdaa760e01b5f523360045260245ffd5b604060031982011261030b576004356001600160401b03811161030b57816110eb9160040161090d565b92909291602435906001600160401b03821161030b5761110d9160040161090d565b9091565b3461030b5761111f366110c1565b61112a939193614000565b8215611270576001600160401b038311610344576111528361114d600554610c61565b611f17565b5f93601f84116001146111ca57906108a0916111a585807f6c9ac69a5e351d3e7ac9be95040d29a264d1ce6a409ca9f042c64c66c3f2a23a985f916111bf575b508160011b915f199060031b1c19161790565b6005555b6111b382826121bc565b604051948594856122b1565b90508601355f611192565b60055f52601f1984167f036b6384b5eca791c62761152d0c79bb0604c104a5fb6f4eb0703f3154bb3db0905f5b8181106112585750907f6c9ac69a5e351d3e7ac9be95040d29a264d1ce6a409ca9f042c64c66c3f2a23a96866108a09594931061123f575b5050600185811b016005556111a9565b8501355f19600388901b60f8161c191690555f8061122f565b858801358355602097880197600190930192016111f7565b60405162461bcd60e51b815260206004820152601e60248201527f5265706c616365207363726970742063616e6e6f7420626520656d70747900006044820152606490fd5b602090600319011261030b576004356001600160a01b038116810361030b5790565b3461030b576112e5366112b5565b6112ed614000565b6001600160a01b03811690811561135857600280546001600160a01b031981169093179055604080516001600160a01b0393841681529290911660208301527f79250b96878fd457364d1c1b77a660973c4f4ab67bda5e2fdb42caaa4d515f9d9190819081016108a0565b60405162461bcd60e51b815260206004820152600f60248201526e496e76616c6964206164647265737360881b6044820152606490fd5b3461030b575f36600319011261030b576103e16103d5610e78565b6001600160e01b031981160361030b57565b3590610358826113aa565b604036600319011261030b576113ea6024356004356113e5826113aa565b6122d8565b005b3461030b575f36600319011261030b575f5160206149b75f395f51905f52546040516001600160a01b039091168152602090f35b92919261142c8261035a565b9161143a6040519384610323565b82948184528183011161030b578281602093845f960137010152565b9080601f8301121561030b5781602061147193359101611420565b90565b60a036600319011261030b576004356001600160401b03811161030b5761149f9036906004016105ae565b6024356001600160401b03811161030b576114be9036906004016105bc565b906044356001600160401b03811161030b576114de9036906004016105ae565b6064356001600160401b03811161030b576114fd90369060040161090d565b91608435946001600160401b03861161030b576115216113ea963690600401611456565b94612a5a565b3461030b575f36600319011261030b5760206040516102008152f35b3461030b575f36600319011261030b576002546040516001600160a01b039091168152602090f35b6040519061157a604083610323565b600482526001600160e01b03196020830152565b3461030b575f36600319011261030b576103e16103d561156b565b3461030b577ffbe5b6cbafb274f445d7fed869dc77a838d8243a22c460de156560e8857cad036115d8366112b5565b6115e0614000565b5f8054610100600160a81b031916600883811b610100600160a81b03169190911791829055604080519290911c6001600160a01b039081168352909216602082015290819081016108a0565b3461030b575f36600319011261030b57602060405173deaddeaddeaddeaddeaddeaddeaddeaddeaddead8152f35b3461030b575f36600319011261030b575f5160206149d75f395f51905f52546040516001600160a01b039091168152602090f35b3461030b575f36600319011261030b576040516001603160981b018152602090f35b3461030b576116be366112b5565b6116c6614000565b5f5160206149d75f395f51905f5280546001600160a01b0319166001600160a01b039283169081179091555f5160206149b75f395f51905f52549091167f38d16b8cac22d99fc7c124b9cd0de2d3fa1faef420bfe791d8c362d765e227005f80a3005b3461030b575f36600319011261030b576103e16103d5610d4e565b3461030b57611752366110c1565b61175d939193614000565b611768831515611e6a565b6001600160401b0383116103445761178a83611785600354610c61565b611f67565b5f93601f84116001146117ea57906108a0916117dc85807f80bd1fdfe157286ce420ee763f91748455b249605748e5df12dad9844402bafc985f916111bf57508160011b915f199060031b1c19161790565b6003555b6111b382826120e7565b60035f52601f1984167fc2575a0e9e593c00f959f8c92f12db2869c3395a3b0502d05e2516446f71f85b905f5b8181106118785750907f80bd1fdfe157286ce420ee763f91748455b249605748e5df12dad9844402bafc96866108a09594931061185f575b5050600185811b016003556117e0565b8501355f19600388901b60f8161c191690555f8061184f565b85880135835560209788019760019093019201611817565b3461030b57606036600319011261030b576004356001600160401b03811161030b576118c09036906004016105ae565b6024356001600160401b03811161030b576118df9036906004016105bc565b6044359073deaddeaddeaddeaddeaddeaddeaddeaddeaddead33148015611968575b1561190f576113ea926130b8565b60405162461bcd60e51b815260206004820152602b60248201527f63616c6c6572206973206e6f74207468652073797374656d2063616c6c65722060448201526a37b91037b832b930ba37b960a91b6064820152608490fd5b505f543360089190911c6001600160a01b031614611901565b3461030b575f36600319011261030b5760206040516402540be4008152f35b634e487b7160e01b5f52601160045260245ffd5b818102929181159184041417156119c757565b6119a0565b156119d357565b60405162461bcd60e51b815260206004820152601760248201527f496e76616c696420776974686472617720616d6f756e740000000000000000006044820152606490fd5b91908110156102b65760051b0190565b35611471816113aa565b600754600160401b81101561034457600181016007556007548110156102b65760075f5260011b7fa66cc928b5edb82af9bd49922954155ab7b0942694bea4ce44661d9a8736c688016001602091835181550191015160e01c63ffffffff19825416179055565b90602082018092116119c757565b90601482018092116119c757565b90600182018092116119c757565b60010190816001116119c757565b919082018092116119c757565b606091949392611b06826080810197602090805183528163ffffffff60e01b91015116910152565b60408201520152565b15611b1657565b60405162461bcd60e51b815260206004820152600d60248201526c092dcecc2d8d2c840d2dcc8caf609b1b6044820152606490fd5b15611b5257565b60405162461bcd60e51b815260206004820152601960248201527f5265706c61636520736372697074206973206e6f7420736574000000000000006044820152606490fd5b903590601e198136030182121561030b57018035906001600160401b03821161030b5760200191813603831361030b57565b5f198101919082116119c757565b601f198101919082116119c757565b919082039182116119c757565b15611bfa57565b60405162461bcd60e51b815260206004820152601c60248201527f7478496420616c7265616479207573656420746f207265706c616365000000006044820152606490fd5b91611c589183549060031b91821b915f19901b19161790565b9055565b15611c6357565b60405162461bcd60e51b8152602060048201526015602482015274496e76616c6964207769746e657373206974656d7360581b6044820152606490fd5b15611ca757565b60405162461bcd60e51b8152602060048201526015602482015274092dcecc2d8d2c840e6c6e4d2e0e840d8cadccee8d605b1b6044820152606490fd5b15611ceb57565b60405162461bcd60e51b815260206004820152601d60248201527f496e76616c6964207265706c61636520736372697074207072656669780000006044820152606490fd5b15611d3757565b60405162461bcd60e51b815260206004820152601d60248201527f496e76616c6964207265706c61636520736372697074207375666669780000006044820152606490fd5b15611d8357565b606460405162461bcd60e51b815260206004820152602060248201527f496e76616c6964207478496420746f207265706c6163652070726f76696465646044820152fd5b611471610908610de3565b15611dd957565b60405162461bcd60e51b815260206004820152601f60248201527f436f6e747261637420697320616c726561647920696e697469616c697a6564006044820152606490fd5b15611e2557565b60405162461bcd60e51b815260206004820152601a60248201527f4465706f73697420616d6f756e742063616e6e6f7420626520300000000000006044820152606490fd5b15611e7157565b60405162461bcd60e51b815260206004820152601e60248201527f4465706f736974207363726970742063616e6e6f7420626520656d70747900006044820152606490fd5b15611ebd57565b60405162461bcd60e51b815260206004820152602c60248201527f4465706f73697420616d6f756e74206d75737420686176652076616c6964207360448201526b61746f7368692076616c756560a01b6064820152608490fd5b601f8111611f23575050565b60055f5260205f20906020601f840160051c83019310611f5d575b601f0160051c01905b818110611f52575050565b5f8155600101611f47565b9091508190611f3e565b601f8111611f73575050565b60035f5260205f20906020601f840160051c83019310611fad575b601f0160051c01905b818110611fa2575050565b5f8155600101611f97565b9091508190611f8e565b601f8211611fc457505050565b5f5260205f20906020601f840160051c83019310611ffc575b601f0160051c01905b818110611ff1575050565b5f8155600101611fe6565b9091508190611fdd565b91906001600160401b0381116103445761202c81612025600354610c61565b6003611fb7565b5f601f821160011461206a57819061205a93945f9261205f575b50508160011b915f199060031b1c19161790565b600355565b013590505f80612046565b60035f52601f198216937fc2575a0e9e593c00f959f8c92f12db2869c3395a3b0502d05e2516446f71f85b915f5b8681106120cf57508360019596106120b6575b505050811b01600355565b01355f19600384901b60f8161c191690555f80806120ab565b90926020600181928686013581550194019101612098565b91906001600160401b0381116103445761210d81612106600454610c61565b6004611fb7565b5f601f821160011461213f57819061213a93945f9261205f5750508160011b915f199060031b1c19161790565b600455565b60045f52601f198216937f8a35acfbc15ff81a39ae7d344fd709f28e8600b4aa8c65c6b64bfe7fe36bd19b915f5b8681106121a4575083600195961061218b575b505050811b01600455565b01355f19600384901b60f8161c191690555f8080612180565b9092602060018192868601358155019401910161216d565b91906001600160401b038111610344576121e2816121db600654610c61565b6006611fb7565b5f601f821160011461221457819061220f93945f9261205f5750508160011b915f199060031b1c19161790565b600655565b60065f52601f198216937ff652222313e28459528d920b65115c16c04f3efc82aaedc97be59f3f377c0d3f915f5b8681106122795750836001959610612260575b505050811b01600655565b01355f19600384901b60f8161c191690555f8080612255565b90926020600181928686013581550194019101612242565b908060209392818452848401375f828201840152601f01601f1916010190565b92906122ca906114719593604086526040860191612291565b926020818503910152612291565b906122e660015434146119cc565b6040519060408201928284106001600160401b03851117610344577f3311a04a346a103ac115cca33028a2bc82f1964805860d0d3fc84a2772496ada93604052825263ffffffff60e01b16602082015260075461234282611a32565b612353604051928392429184611ade565b0390a1565b1561235f57565b60405162461bcd60e51b815260206004820152601d60248201527f56696e206973206e6f742070726f7065726c7920666f726d61747465640000006044820152606490fd5b156123ab57565b60405162461bcd60e51b815260206004820152601e60248201527f566f7574206973206e6f742070726f7065726c7920666f726d617474656400006044820152606490fd5b9081602091031261030b5751801515810361030b5790565b979695919261243f9460809694612431938b5260208b015260a060408b015260a08a0191612291565b918783036060890152612291565b930152565b6040513d5f823e3d90fd5b1561245657565b60405162461bcd60e51b815260206004820152601b60248201527f5472616e73616374696f6e206973206e6f7420696e20626c6f636b00000000006044820152606490fd5b156124a257565b60405162461bcd60e51b8152602060048201526024808201527f5061796f75742076696e206973206e6f742070726f7065726c7920666f726d616044820152631d1d195960e21b6064820152608490fd5b156124fa57565b60405162461bcd60e51b815260206004820152602860248201527f5061796f75742076696e2073686f756c6420686176652065786163746c79206f6044820152671b99481a5b9c1d5d60c21b6064820152608490fd5b1561255757565b60405162461bcd60e51b815260206004820152602a60248201527f5061796f757420766f75742073686f756c6420686176652065786163746c79206044820152691bdb99481bdd5d1c1d5d60b21b6064820152608490fd5b156125b657565b60405162461bcd60e51b815260206004820152602560248201527f5061796f757420766f7574206973206e6f742070726f7065726c7920666f726d604482015264185d1d195960da1b6064820152608490fd5b1561261057565b60405162461bcd60e51b815260206004820152602860248201527f5061796f7574207769746e657373206973206e6f742070726f7065726c7920666044820152671bdc9b585d1d195960c21b6064820152608490fd5b1561266d57565b60405162461bcd60e51b815260206004820152602360248201527f496e76616c6964207061796f7574206f757470757420736372697074207075626044820152626b657960e81b6064820152608490fd5b156126c557565b60405162461bcd60e51b8152602060048201526012602482015271125b9d985b1a59081cdc195b9d081d1e125960721b6044820152606490fd5b1561270657565b60405162461bcd60e51b815260206004820152601b60248201527f496e76616c6964207370656e74206f7574707574206c656e67746800000000006044820152606490fd5b6040519061275a604083610323565b60018252601160f91b6020830152565b1561277157565b60405162461bcd60e51b815260206004820152602960248201527f496e76616c6964207370656e74206f757470757420736372697074207075626b6044820152680caf240d8cadccee8d60bb1b6064820152608490fd5b604051906127d7604083610323565b6002825261028960f51b6020830152565b156127ef57565b60405162461bcd60e51b815260206004820152602160248201527f5370656e74206f7574707574206973206e6f7420612050325452206f757470756044820152601d60fa1b6064820152608490fd5b805191908290602001825e015f815290565b6128ac979360249b999795612877612893956128718f9a969560089661283e565b9061283e565b6001600160e01b0319928316815291166004820152019061283e565b9182526001600160e01b0319166020820152019061283e565b6001600160e01b0319909216825260048201520190565b604051906128d2604083610323565b600a8252690a8c2e0a6d2ced0c2e6d60b31b6020830152565b156128f257565b60405162461bcd60e51b8152602060048201526011602482015270496e76616c6964207369676e617475726560781b6044820152606490fd5b6001600160f01b031981160361030b57565b9035601e198236030181121561030b5701602081359101916001600160401b03821161030b57813603831361030b57565b612a5660609295949395608083528035612987816113aa565b6001600160e01b031916608084015260208101356129a48161292b565b61ffff60f01b1660a0840152612a36612a2460a0612a1d6129fd6129df6129ce604088018861293d565b60c0808c01526101408b0191612291565b6129eb8a88018861293d565b8a8303607f190160e08c015290612291565b612a0a608087018761293d565b898303607f19016101008b015290612291565b93016113bc565b6001600160e01b031916610120850152565b8651602084810191909152909601516001600160e01b0319166040830152565b0152565b94919092602061075095612b1695612ae1612ad88a612a90612a8b612a866106a7604085018095611b97565b614020565b612358565b60a06107588d606081019d8e612ab9612ab4612aaf6106a78487611b97565b614098565b6123a4565b610748612acf612ac885611a28565b9785611b97565b98909285611b97565b96909401611a28565b96879260408584013593612af58180611b97565b929091013592604051988997889763cd4cc08f60e01b895260048901612408565b03816001603160981b015afa8015612ea257612b39915f91612ea7575b5061244f565b60408101612b478183611b97565b3690612b5292611420565b612b5b90614020565b612b649061249b565b612b6e8183611b97565b3690612b7992611420565b612b8290614640565b60608401979150612b938885611b97565b3690612b9e92611420565b612ba790614640565b91612bb591506001146124f3565b600114612bc190612550565b612bcb8784611b97565b3690612bd692611420565b612bdf90614098565b612be8906125af565b6080830191612bf78385611b97565b3690612c0292611420565b612c0b90614107565b612c1490612609565b612c1e9084611b97565b3690612c2992611420565b612c32906134e3565b96612c3d9084611b97565b3690612c4892611420565b612c51906141e2565b91612c5c9084611b97565b3690612c6792611420565b612c70906138ff565b93612c7a836136d3565b90612c8491613ee2565b612c8d90612666565b6020870151948514612c9e906126be565b60408701516001600160e01b03191695612cb791611b97565b3690612cc292611420565b8560e01c612cf490600881811c62ff00ff1691901b63ff00ff001617601081811b63ffff00001691901c61ffff161790565b63ffffffff16612d039161426f565b8051602b14612d11906126ff565b612d1a8161371c565b612d2261274b565b612d2b91613ee2565b612d349061276a565b612d3d81613765565b612d456127c8565b612d4e91613ee2565b612d57906127e8565b612d60816137ae565b6045909701516001600160e01b03191691604051809160208201612d839161283e565b03601f1981018252612d959082610323565b604051612da381809361283e565b03905a915f916002602094fa15612ea257610358967fd77102e5369b5b1a9db1972cb3de26ee79abc69de5cde41eeaa67fe3939c1c5594612e61612e57612e5187612e448b612e368e612e6c9b612e679b5f5192612dff610375565b95612e08610f43565b98612e1e60a0612e1783611a28565b9201611a28565b612e26610375565b916040519b8c9a60208c01612850565b03601f198101835282610323565b612e4c6128c3565b6142db565b92613e04565b6106e38151611bc9565b91614343565b6128eb565b612e74610349565b8381526001600160e01b03198516602082015290612e9a6007546040519384938461296e565b0390a16122d8565b612444565b612ec9915060203d602011612ecf575b612ec18183610323565b8101906123f0565b5f612b33565b503d612eb7565b15612edd57565b60405162461bcd60e51b815260206004820152601660248201527513db9b1e481bdb99481a5b9c1d5d08185b1b1bddd95960521b6044820152606490fd5b15612f2257565b60405162461bcd60e51b81526020600482015260126024820152711d1e125908185b1c9958591e481cdc195b9d60721b6044820152606490fd5b600854600160401b81101561034457600181016008556008548110156102b65760085f527ff3f7a9fe364faab93b216da50a3214154f22a0a2b415b23a84c8169e8b636ee30155565b15612fac57565b60405162461bcd60e51b8152602060048201526016602482015275125b9d985b1a590819195c1bdcda5d081cd8dc9a5c1d60521b6044820152606490fd5b15612ff157565b60405162461bcd60e51b8152602060048201526015602482015274092dcecc2d8d2c840e6c6e4d2e0e840e6eaccccd2f605b1b6044820152606490fd5b3d15613058573d9061303f8261035a565b9161304d6040519384610323565b82523d5f602084013e565b606090565b1561306457565b60405162461bcd60e51b815260206004820152602660248201527f4661696c656420746f2073656e6420746f206661696c6564206465706f736974604482015265081d985d5b1d60d21b6064820152608490fd5b6131336130f461318d926130da6130d260019796836132f0565b909714612ed6565b604081016107486107586106b36106ae6106a78587611b97565b92613115613110610780610779875f52600960205260405f2090565b612f1b565b61312a61079e855f52600960205260405f2090565b6107de84612f5c565b61318861318361317b613147600354610c61565b61085861317661316e61315b600454610c61565b9361083f89516108398761083485611aa7565b61084d610de3565b612fa5565b61084d610e78565b612fea565b61441b565b905f808080600154865af16131a061302e565b5061323d5761320e7fabd361bc68da04a386a8de9d0fb3044cca0856cbd86e9e4a63237e015b3e4bb9936131d5600854611bc9565b6040805192835260208301949094526001600160a01b0390941692810192909252426060830152608082019290925290819060a0820190565b0390a16103585f80808061322960025460018060a01b031690565b600154905af161323761302e565b5061305d565b6123537fa82453ca34121b3ecb910d957824e27c5dc6465315949facd15fb72886490058936131d5600854611bc9565b356114718161292b565b1561327e57565b60405162461bcd60e51b815260206004820152602160248201527f5769746e657373206973206e6f742070726f7065726c7920666f726d617474656044820152601960fa1b6064820152608490fd5b95949361243f926060949288526020880152608060408801526080870191612291565b91906132fb83611a28565b906133086020850161326d565b93604081016133178183611b97565b94909660608401956133298786611b97565b608087019a916133398c89611b97565b94909361334860a08b01611a28565b96613352986144c8565b9361335d8284611b97565b369061336892611420565b61337190614020565b61337a90612358565b6133849083611b97565b369061338f92611420565b61339890614098565b6133a1906123a4565b6133ab9082611b97565b36906133b692611420565b6133bf90614640565b956133cc91508692611b97565b36906133d792611420565b906133e191614147565b6133ea90613277565b6020810135906133fa8180611b97565b604080516327fe9a2560e11b8152948594613420949201359291908790600487016132cd565b6001603160981b0191839103815a93602094fa8015612ea257613449915f91612ea7575061244f565b9190565b1561345457565b60405162461bcd60e51b815260206004820152602260248201527f52656164206f76657272756e20647572696e6720566172496e742070617273696044820152616e6760f01b6064820152608490fd5b156134ab57565b60405162461bcd60e51b815260206004820152601060248201526f2b34b7103932b0b21037bb32b9393ab760811b6044820152606490fd5b6135066134ef82614640565b9091906134ff5f1984141561344d565b15156134a4565b600101806001116119c75761351b8183614539565b905f19821461352d5761147192613881565b60405162461bcd60e51b815260206004820152601760248201527f42616420566172496e7420696e207363726970745369670000000000000000006044820152606490fd5b1561357957565b60405162461bcd60e51b8152602060048201526013602482015272536c696365206f7574206f6620626f756e647360681b6044820152606490fd5b91909182156136255782600101806001116119c7578060016135de92119081613619575b50613572565b60405192604081850101604052808452602182850391818401930101915b82811061360857505050565b80518282015f1901526020016135fc565b9050825110155f6135d8565b509050604051613636602082610323565b5f815290565b9190918215613625576136528382511015613572565b60405192604081850101604052808452602082850391818401930101915b82811061367c57505050565b805182820152602001613670565b90613699602283511015613572565b6040519160608301604052602083528083036042602283019201915b8281106136c157505050565b805182820160011901526020016136b5565b906136e2602b83511015613572565b604051916062830160405260228352808303604b602983019201915b82811061370a57505050565b805182820160081901526020016136fe565b9061372b600983511015613572565b6040519160418301604052600183528083036029602883019201915b82811061375357505050565b80518282016007190152602001613747565b90613774600b83511015613572565b604051916042830160405260028352808303602b602983019201915b82811061379c57505050565b80518282016008190152602001613790565b906137bd602b83511015613572565b604051916060830160405260208352808303604b602b83019201915b8281106137e557505050565b8051828201600a1901526020016137d9565b90613806604083511015613572565b6040519160808301604052604083528083036060602083019201915b82811061382e57505050565b805182820152602001613822565b9061384b602483511015613572565b6040519160648301604052602483528083036044602083019201915b82811061387357505050565b805182820152602001613867565b92919081156138ed578181018082116119c75780826138a7921190816138e15750613572565b604051936040838601016040528285520190602082850391818401930101915b8281106138d357505050565b8051828201526020016138c7565b9050855110155f6135d8565b50509050604051613636602082610323565b6139095f82614578565b5f19811461391b575f61147192613881565b60405162461bcd60e51b815260206004820152601560248201527442616420566172496e7420696e207769746e65737360581b6044820152606490fd5b8051600110156102b65760210190565b8051601f10156102b657603f0190565b9081518110156102b6570160200190565b600190611471939260ff60f81b168152019061283e565b604051906139af604083610323565b60078252662a30b82632b0b360c91b6020830152565b96612871966114719f9e9c989660a8966128719f9c956139f19060209f9a61287190613a269f9861283e565b6001600160e01b031997881681529616600487015260088601526028850152604884015260688301526088820152019061283e565b908152019061283e565b91949390929360205f613a51613a458661383c565b6040519182809261283e565b039060025afa15612ea2575f519060205f613b38612e36613a45613b1a613b0a613a91613a856001546402540be400900490565b6001600160401b031690565b65ffff0000ffff67ffffffffffff000067ff00ff00ff00ff008360081c9360081b169264ff000000ff65ffff0000ff0065ffffffffffff67ffffffffffffff00871666ff00ff00ff00ff85161760101c16951691161760101b1691161767ffffffff0000000063ffffffff8260201c169160201b161790565b60c01b6001600160c01b03191690565b6040519283918783016008916001600160401b0360c01b1681520190565b039060025afa15612ea25760205f613b81612e36613a45613b66845199604563ffffffff60e01b9101511690565b60405192839187830160049163ffffffff60e01b1681520190565b039060025afa15612ea25760205f613baa612e36613a458351996040519283918783019061283e565b039060025afa15612ea2575f5193613bc188613d54565b607f60f91b613bcf8a613e4a565b613bd890613958565b516001600160f81b031916604051928392613bf7921660208401613989565b03601f1981018252613c099082610323565b613c116139a0565b90613c1b916142db565b91613c24610375565b95613c2d610375565b97613c36610574565b92613c3f610b7a565b94613c48610375565b97613c5161156b565b996040519d8e9d60208f019d613c669e6139c5565b03601f1981018252613c789082610323565b613c806128c3565b90613c8a916142db565b90613c9490613e04565b8051613c9f90611bc9565b613ca8916135b4565b613cb0611dc7565b91613cba92614343565b610358906128eb565b60049061147194613cf3613d0e949561287160405197889563ffffffff60e01b166020870152602486019061283e565b9063ffffffff60e01b16815203601b19810184520182610323565b614612565b15613d1a57565b60405162461bcd60e51b815260206004820152601260248201527142616420566172496e7420696e206974656d60701b6044820152606490fd5b90613d79613d6183614640565b909190613d715f1984141561344d565b6001106134a4565b600101806001116119c757915f925b60018410613dbe57611471929350613db8613db3613da6838561479c565b6108345f19821415613d13565b611ab5565b91613881565b613dc8818361479c565b9190613dd75f19841415613d13565b8060010192836001116119c75760019101018092116119c757600191613dfc91611ad1565b930192613d88565b613e106134ef82614640565b60010190816001116119c757613e26828261479c565b9290613e355f19851415613d13565b83018093116119c757613db861147193611ab5565b90613e6f613e5783614640565b909190613e675f1984141561344d565b6002106134a4565b600101806001116119c757915f925b60028410613e9c57611471929350613db8613db3613da6838561479c565b613ea6818361479c565b9190613eb55f19841415613d13565b8060010192836001116119c75760019101018092116119c757600191613eda91611ad1565b930192613e7e565b9081519181518303613f865760205b83811115613f6b57613f0290611bd7565b838110613f125750505050600190565b613f2d613f1f8284613978565b516001600160f81b03191690565b613f4a613f3d613f1f8487613978565b6001600160f81b03191690565b6001600160f81b031990911603613f6357600101613f02565b505050505f90565b818101518382015160209092019114613ef157505050505f90565b5050505f90565b613f98600554610c61565b602081018082116119c7578082613fb692119081613ff45750613572565b604051916060830160405260208352018082036040602083019201915b828110613fe6575050506114719061485d565b805182820152602001613fd3565b9050835110155f6135d8565b5f5160206149b75f395f51905f52546001600160a01b031633036110ae57565b61402981614640565b91908215801561408e575b613f8657600101806001116119c757915f905b808210614055575050511490565b90928251811015613f635761406a8184614539565b5f1981146140855781018091116119c7579260010190614047565b50505050505f90565b505f198114614034565b6140a181614640565b9190821580156140fd575b613f8657600101806001116119c757915f905b8082106140cd575050511490565b90928251811015613f63576140e281846148cd565b5f1981146140855781018091116119c75792600101906140bf565b505f1981146140ac565b5f905f5b600181106141195750511490565b918151811015613f865761412d8183614578565b5f198114613f635781018091116119c7579160010161410b565b8115614190575f915f905b808210614160575050511490565b90928251811015613f63576141758184614578565b5f1981146140855781018091116119c7579260010190614152565b50505f90565b1561419d57565b60405162461bcd60e51b815260206004820152601a60248201527f42616420566172496e7420696e207363726970745075626b65790000000000006044820152606490fd5b6141eb81614640565b9091906141fb5f1984141561344d565b1561423657600161420e61147193611ac3565b90614231575b61421e81836148cd565b9161422c5f19841415614196565b613881565b614214565b60405162461bcd60e51b81526020600482015260116024820152702b37baba103932b0b21037bb32b9393ab760791b6044820152606490fd5b91909161427b81614640565b6142885f1983141561344d565b8410156142365761429890611ac3565b5f935b8085106142b3575061147192935061421e81836148cd565b906142d2816142c4600193866148cd565b906108345f19831415614196565b9401939061429b565b5f6142ee6020926040519182809261283e565b039060025afa15612ea2575f614322602092613a458351612e3660405193828593898501526040840152606083019061283e565b039060025afa15612ea2575f5190565b91613a26611471949360209361283e565b919091815160408114908115614410575b50156143cb575f9261437e61436985946137f7565b91612e36604051938492602084019687614332565b51906102005afa61438d61302e565b816143bf575b8161439c575090565b600160f81b91506001600160f81b0319906143ba90613f1f90613968565b161490565b80516020149150614393565b60405162461bcd60e51b815260206004820152601860248201527f496e76616c6964207369676e6174757265206c656e67746800000000000000006044820152606490fd5b60419150145f614354565b614426600354610c61565b601481018082116119c757808261444492119081613ff45750613572565b604051916054830160405260148352018082036034602083019201915b8281106144ba5750505060208151910151906bffffffffffffffffffffffff1982169160148210614495575b505060601c90565b6bffffffffffffffffffffffff1960149290920360031b82901b161690505f8061448d565b805182820152602001614461565b969483869482949a9896939a6040519b8c9b63ffffffff60e01b1660208d015261ffff60f01b1660248c015260268b0137880191602683015f81523701602601915f83528237019063ffffffff60e01b16815203601b19810182526004016145309082610323565b61147190614612565b906145439161491b565b5f198214614571578160250191826025116119c75701602581018092116119c7576029018091116119c75790565b50505f1990565b90614583818361479c565b92905f19811461460957600101806001116119c7579291905f915b8383106145ac575050505090565b909192938082018083116119c7576145c4908461479c565b91905f1983146145fd578060010192836001116119c75760019101018092116119c7576001916145f391611ad1565b949301919061459e565b505050505050505f1990565b505050505f1990565b5f602091828151910160025afa5060205f818160025afa505f5190565b60ff166001019060ff82116119c757565b9061464b5f8361494d565b9160ff83169283156147795761466f5f61083461466985519461462f565b60ff1690565b11614770575f600284036146c657506146bf6146ac6146a6611471936146945f611ac3565b01602001516001600160f01b03191690565b60f01c90565b61ff0060ff8260081c169160081b161790565b61ffff1690565b6004840361473057506147276146fd6146f7611471936146e55f611ac3565b01602001516001600160e01b03191690565b60e01c90565b600881811c62ff00ff1691901b63ff00ff001617601081811b63ffff00001691901c61ffff161790565b63ffffffff1690565b92906008821461473f57509190565b611471919350613a9161476a613a85926147585f611ac3565b01602001516001600160c01b03191690565b60c01c90565b505f1991505f90565b50614793919250613f1f5f61478d92613978565b60f81c90565b9060ff5f921690565b9190916147a9838261494d565b9260ff8416938415614849576147c78261083461466986519461462f565b1161483e575f600285036147ec57506146ac6146a6611471936146946146bf94611ac3565b6004850361480b57506146fd6146f7611471936146e561472794611ac3565b9391906008831461481d575b50509190565b61483692945061476a613a8592614758613a9193611ac3565b915f80614817565b505f1992505f919050565b50614793929350613f1f9061478d92613978565b8051908115614190576020821161487d57602001519060200360031b1c90565b60405162461bcd60e51b815260206004820152602260248201527f42797465732063616e6e6f74206265206d6f7265207468616e20333220627974604482015261657360f01b6064820152608490fd5b9081518160090190816009116119c7571061457157600801806008116119c7576148f69161479c565b905f198114614571578060090191826009116119c75760099101018091116119c75790565b9081518160250190816025116119c7571061494457602481018091116119c75761110d9161479c565b505f19915f9150565b9060ff61495a8284613978565b5160f81c146149af5760fe60ff6149718385613978565b8160f81b90511660f81c16146149a85761498f60ff9160fd93613978565b8160f81b90511660f81c16146149a3575f90565b600290565b5050600490565b505060089056fe9016d09d72d40fdae2fd8ceac6b6234c7706214fd39c1cd1e609a0528c199300237e158222e3e6968b72b9db0d8043aacf074ad9f650f0d1606b4d82ee432c00","linkReferences":{}},"methodIdentifiers":{"CODESEP_POS()":"b2497e70","EPOCH()":"a0dc2758","INPUT_INDEX()":"428bcd35","KEY_VERSION()":"1369ac3e","LIGHT_CLIENT()":"e613ae00","SAT_TO_WEI()":"fdecdf53","SCHNORR_VERIFIER_PRECOMPILE()":"9a4f308d","SIGHASH_ALL_HASH_TYPE()":"0bd89ab7","SIGHASH_SINGLE_ANYONECANPAY_HASH_TYPE()":"6cf7d641","SPEND_TYPE_EXT()":"23dacd29","SPEND_TYPE_NO_EXT()":"092ac5d4","SYSTEM_CALLER()":"d761753e","acceptOwnership()":"79ba5097","batchWithdraw(bytes32[],bytes4[])":"19854623","deposit((bytes4,bytes2,bytes,bytes,bytes,bytes4),(bytes,uint256,uint256),bytes32)":"fb11d7b9","depositAmount()":"419759f5","depositPrefix()":"5b4f894d","depositSuffix()":"8752b6b2","depositTxIds(uint256)":"06592167","failedDepositVault()":"a670e7ed","getAggregatedKey()":"3c918b6c","getWithdrawalCount()":"781952a8","initialize(bytes,bytes,uint256)":"41260137","initialized()":"158ef93e","operator()":"570ca735","owner()":"8da5cb5b","pendingOwner()":"e30c3978","processedTxIds(bytes32)":"4379caa5","renounceOwnership()":"715018a6","replaceDeposit((bytes4,bytes2,bytes,bytes,bytes,bytes4),(bytes,uint256,uint256),uint256,bytes32)":"2594f107","replacePrefix()":"6b0b5a94","replaceSuffix()":"f42cb4fc","safeWithdraw((bytes4,bytes2,bytes,bytes,bytes,bytes4),(bytes,uint256,uint256),(bytes4,bytes2,bytes,bytes,bytes,bytes4),bytes,bytes)":"9072f747","setDepositScript(bytes,bytes)":"f8e655d2","setFailedDepositVault(address)":"85fb7151","setOperator(address)":"b3ab15fb","setReplaceScript(bytes,bytes)":"7ec9732a","transferOwnership(address)":"f2fde38b","withdraw(bytes32,bytes4)":"8786dba7","withdrawalUTXOs(uint256)":"471ba1e3"},"id":45}