{"abi":[{"type":"function","name":"CODESEP_POS","inputs":[],"outputs":[{"name":"","type":"bytes","internalType":"bytes"}],"stateMutability":"view"},{"type":"function","name":"EPOCH","inputs":[],"outputs":[{"name":"","type":"bytes","internalType":"bytes"}],"stateMutability":"view"},{"type":"function","name":"INPUT_INDEX","inputs":[],"outputs":[{"name":"","type":"bytes","internalType":"bytes"}],"stateMutability":"view"},{"type":"function","name":"KEY_VERSION","inputs":[],"outputs":[{"name":"","type":"bytes","internalType":"bytes"}],"stateMutability":"view"},{"type":"function","name":"LIGHT_CLIENT","inputs":[],"outputs":[{"name":"","type":"address","internalType":"contract BitcoinLightClient"}],"stateMutability":"view"},{"type":"function","name":"SCHNORR_VERIFIER_PRECOMPILE","inputs":[],"outputs":[{"name":"","type":"address","internalType":"address"}],"stateMutability":"view"},{"type":"function","name":"SIGHASH_ALL_HASH_TYPE","inputs":[],"outputs":[{"name":"","type":"bytes","internalType":"bytes"}],"stateMutability":"view"},{"type":"function","name":"SIGHASH_SINGLE_ANYONECANPAY_HASH_TYPE","inputs":[],"outputs":[{"name":"","type":"bytes","internalType":"bytes"}],"stateMutability":"view"},{"type":"function","name":"SPEND_TYPE_EXT","inputs":[],"outputs":[{"name":"","type":"bytes","internalType":"bytes"}],"stateMutability":"view"},{"type":"function","name":"SPEND_TYPE_NO_EXT","inputs":[],"outputs":[{"name":"","type":"bytes","internalType":"bytes"}],"stateMutability":"view"},{"type":"function","name":"SYSTEM_CALLER","inputs":[],"outputs":[{"name":"","type":"address","internalType":"address"}],"stateMutability":"view"},{"type":"function","name":"acceptOwnership","inputs":[],"outputs":[],"stateMutability":"nonpayable"},{"type":"function","name":"batchWithdraw","inputs":[{"name":"txIds","type":"bytes32[]","internalType":"bytes32[]"},{"name":"outputIds","type":"bytes4[]","internalType":"bytes4[]"}],"outputs":[],"stateMutability":"payable"},{"type":"function","name":"deposit","inputs":[{"name":"moveTx","type":"tuple","internalType":"struct Bridge.Transaction","components":[{"name":"version","type":"bytes4","internalType":"bytes4"},{"name":"flag","type":"bytes2","internalType":"bytes2"},{"name":"vin","type":"bytes","internalType":"bytes"},{"name":"vout","type":"bytes","internalType":"bytes"},{"name":"witness","type":"bytes","internalType":"bytes"},{"name":"locktime","type":"bytes4","internalType":"bytes4"}]},{"name":"proof","type":"tuple","internalType":"struct Bridge.MerkleProof","components":[{"name":"intermediateNodes","type":"bytes","internalType":"bytes"},{"name":"blockHeight","type":"uint256","internalType":"uint256"},{"name":"index","type":"uint256","internalType":"uint256"}]},{"name":"shaScriptPubkeys","type":"bytes32","internalType":"bytes32"}],"outputs":[],"stateMutability":"nonpayable"},{"type":"function","name":"depositAmount","inputs":[],"outputs":[{"name":"","type":"uint256","internalType":"uint256"}],"stateMutability":"view"},{"type":"function","name":"depositPrefix","inputs":[],"outputs":[{"name":"","type":"bytes","internalType":"bytes"}],"stateMutability":"view"},{"type":"function","name":"depositSuffix","inputs":[],"outputs":[{"name":"","type":"bytes","internalType":"bytes"}],"stateMutability":"view"},{"type":"function","name":"depositTxIds","inputs":[{"name":"","type":"uint256","internalType":"uint256"}],"outputs":[{"name":"","type":"bytes32","internalType":"bytes32"}],"stateMutability":"view"},{"type":"function","name":"failedDepositVault","inputs":[],"outputs":[{"name":"","type":"address","internalType":"address"}],"stateMutability":"view"},{"type":"function","name":"getAggregatedKey","inputs":[],"outputs":[{"name":"","type":"bytes","internalType":"bytes"}],"stateMutability":"view"},{"type":"function","name":"getWithdrawalCount","inputs":[],"outputs":[{"name":"","type":"uint256","internalType":"uint256"}],"stateMutability":"view"},{"type":"function","name":"initialize","inputs":[{"name":"_depositPrefix","type":"bytes","internalType":"bytes"},{"name":"_depositSuffix","type":"bytes","internalType":"bytes"},{"name":"_depositAmount","type":"uint256","internalType":"uint256"}],"outputs":[],"stateMutability":"nonpayable"},{"type":"function","name":"initialized","inputs":[],"outputs":[{"name":"","type":"bool","internalType":"bool"}],"stateMutability":"view"},{"type":"function","name":"operator","inputs":[],"outputs":[{"name":"","type":"address","internalType":"address"}],"stateMutability":"view"},{"type":"function","name":"owner","inputs":[],"outputs":[{"name":"","type":"address","internalType":"address"}],"stateMutability":"view"},{"type":"function","name":"pendingOwner","inputs":[],"outputs":[{"name":"","type":"address","internalType":"address"}],"stateMutability":"view"},{"type":"function","name":"processedTxIds","inputs":[{"name":"","type":"bytes32","internalType":"bytes32"}],"outputs":[{"name":"","type":"bool","internalType":"bool"}],"stateMutability":"view"},{"type":"function","name":"renounceOwnership","inputs":[],"outputs":[],"stateMutability":"nonpayable"},{"type":"function","name":"replaceDeposit","inputs":[{"name":"replaceTx","type":"tuple","internalType":"struct Bridge.Transaction","components":[{"name":"version","type":"bytes4","internalType":"bytes4"},{"name":"flag","type":"bytes2","internalType":"bytes2"},{"name":"vin","type":"bytes","internalType":"bytes"},{"name":"vout","type":"bytes","internalType":"bytes"},{"name":"witness","type":"bytes","internalType":"bytes"},{"name":"locktime","type":"bytes4","internalType":"bytes4"}]},{"name":"proof","type":"tuple","internalType":"struct Bridge.MerkleProof","components":[{"name":"intermediateNodes","type":"bytes","internalType":"bytes"},{"name":"blockHeight","type":"uint256","internalType":"uint256"},{"name":"index","type":"uint256","internalType":"uint256"}]},{"name":"idToReplace","type":"uint256","internalType":"uint256"},{"name":"shaScriptPubkeys","type":"bytes32","internalType":"bytes32"}],"outputs":[],"stateMutability":"nonpayable"},{"type":"function","name":"replacePrefix","inputs":[],"outputs":[{"name":"","type":"bytes","internalType":"bytes"}],"stateMutability":"view"},{"type":"function","name":"replaceSuffix","inputs":[],"outputs":[{"name":"","type":"bytes","internalType":"bytes"}],"stateMutability":"view"},{"type":"function","name":"safeWithdraw","inputs":[{"name":"prepareTx","type":"tuple","internalType":"struct Bridge.Transaction","components":[{"name":"version","type":"bytes4","internalType":"bytes4"},{"name":"flag","type":"bytes2","internalType":"bytes2"},{"name":"vin","type":"bytes","internalType":"bytes"},{"name":"vout","type":"bytes","internalType":"bytes"},{"name":"witness","type":"bytes","internalType":"bytes"},{"name":"locktime","type":"bytes4","internalType":"bytes4"}]},{"name":"prepareProof","type":"tuple","internalType":"struct Bridge.MerkleProof","components":[{"name":"intermediateNodes","type":"bytes","internalType":"bytes"},{"name":"blockHeight","type":"uint256","internalType":"uint256"},{"name":"index","type":"uint256","internalType":"uint256"}]},{"name":"payoutTx","type":"tuple","internalType":"struct Bridge.Transaction","components":[{"name":"version","type":"bytes4","internalType":"bytes4"},{"name":"flag","type":"bytes2","internalType":"bytes2"},{"name":"vin","type":"bytes","internalType":"bytes"},{"name":"vout","type":"bytes","internalType":"bytes"},{"name":"witness","type":"bytes","internalType":"bytes"},{"name":"locktime","type":"bytes4","internalType":"bytes4"}]},{"name":"blockHeader","type":"bytes","internalType":"bytes"},{"name":"scriptPubKey","type":"bytes","internalType":"bytes"}],"outputs":[],"stateMutability":"payable"},{"type":"function","name":"setDepositScript","inputs":[{"name":"_depositPrefix","type":"bytes","internalType":"bytes"},{"name":"_depositSuffix","type":"bytes","internalType":"bytes"}],"outputs":[],"stateMutability":"nonpayable"},{"type":"function","name":"setFailedDepositVault","inputs":[{"name":"_failedDepositVault","type":"address","internalType":"address"}],"outputs":[],"stateMutability":"nonpayable"},{"type":"function","name":"setOperator","inputs":[{"name":"_operator","type":"address","internalType":"address"}],"outputs":[],"stateMutability":"nonpayable"},{"type":"function","name":"setReplaceScript","inputs":[{"name":"_replacePrefix","type":"bytes","internalType":"bytes"},{"name":"_replaceSuffix","type":"bytes","internalType":"bytes"}],"outputs":[],"stateMutability":"nonpayable"},{"type":"function","name":"transferOwnership","inputs":[{"name":"newOwner","type":"address","internalType":"address"}],"outputs":[],"stateMutability":"nonpayable"},{"type":"function","name":"withdraw","inputs":[{"name":"txId","type":"bytes32","internalType":"bytes32"},{"name":"outputId","type":"bytes4","internalType":"bytes4"}],"outputs":[],"stateMutability":"payable"},{"type":"function","name":"withdrawalUTXOs","inputs":[{"name":"","type":"uint256","internalType":"uint256"}],"outputs":[{"name":"txId","type":"bytes32","internalType":"bytes32"},{"name":"outputId","type":"bytes4","internalType":"bytes4"}],"stateMutability":"view"},{"type":"event","name":"Deposit","inputs":[{"name":"wtxId","type":"bytes32","indexed":false,"internalType":"bytes32"},{"name":"txId","type":"bytes32","indexed":false,"internalType":"bytes32"},{"name":"recipient","type":"address","indexed":false,"internalType":"address"},{"name":"timestamp","type":"uint256","indexed":false,"internalType":"uint256"},{"name":"depositId","type":"uint256","indexed":false,"internalType":"uint256"}],"anonymous":false},{"type":"event","name":"DepositReplaced","inputs":[{"name":"index","type":"uint256","indexed":false,"internalType":"uint256"},{"name":"oldTxId","type":"bytes32","indexed":false,"internalType":"bytes32"},{"name":"newTxId","type":"bytes32","indexed":false,"internalType":"bytes32"}],"anonymous":false},{"type":"event","name":"DepositScriptUpdate","inputs":[{"name":"depositPrefix","type":"bytes","indexed":false,"internalType":"bytes"},{"name":"depositSuffix","type":"bytes","indexed":false,"internalType":"bytes"}],"anonymous":false},{"type":"event","name":"DepositTransferFailed","inputs":[{"name":"wtxId","type":"bytes32","indexed":false,"internalType":"bytes32"},{"name":"txId","type":"bytes32","indexed":false,"internalType":"bytes32"},{"name":"recipient","type":"address","indexed":false,"internalType":"address"},{"name":"timestamp","type":"uint256","indexed":false,"internalType":"uint256"},{"name":"depositId","type":"uint256","indexed":false,"internalType":"uint256"}],"anonymous":false},{"type":"event","name":"FailedDepositVaultUpdated","inputs":[{"name":"oldVault","type":"address","indexed":false,"internalType":"address"},{"name":"newVault","type":"address","indexed":false,"internalType":"address"}],"anonymous":false},{"type":"event","name":"Initialized","inputs":[{"name":"version","type":"uint64","indexed":false,"internalType":"uint64"}],"anonymous":false},{"type":"event","name":"OperatorUpdated","inputs":[{"name":"oldOperator","type":"address","indexed":false,"internalType":"address"},{"name":"newOperator","type":"address","indexed":false,"internalType":"address"}],"anonymous":false},{"type":"event","name":"OwnershipTransferStarted","inputs":[{"name":"previousOwner","type":"address","indexed":true,"internalType":"address"},{"name":"newOwner","type":"address","indexed":true,"internalType":"address"}],"anonymous":false},{"type":"event","name":"OwnershipTransferred","inputs":[{"name":"previousOwner","type":"address","indexed":true,"internalType":"address"},{"name":"newOwner","type":"address","indexed":true,"internalType":"address"}],"anonymous":false},{"type":"event","name":"ReplaceScriptUpdate","inputs":[{"name":"replacePrefix","type":"bytes","indexed":false,"internalType":"bytes"},{"name":"replaceSuffix","type":"bytes","indexed":false,"internalType":"bytes"}],"anonymous":false},{"type":"event","name":"SafeWithdrawal","inputs":[{"name":"payoutTx","type":"tuple","indexed":false,"internalType":"struct Bridge.Transaction","components":[{"name":"version","type":"bytes4","internalType":"bytes4"},{"name":"flag","type":"bytes2","internalType":"bytes2"},{"name":"vin","type":"bytes","internalType":"bytes"},{"name":"vout","type":"bytes","internalType":"bytes"},{"name":"witness","type":"bytes","internalType":"bytes"},{"name":"locktime","type":"bytes4","internalType":"bytes4"}]},{"name":"spentUtxo","type":"tuple","indexed":false,"internalType":"struct Bridge.UTXO","components":[{"name":"txId","type":"bytes32","internalType":"bytes32"},{"name":"outputId","type":"bytes4","internalType":"bytes4"}]},{"name":"index","type":"uint256","indexed":false,"internalType":"uint256"}],"anonymous":false},{"type":"event","name":"Withdrawal","inputs":[{"name":"utxo","type":"tuple","indexed":false,"internalType":"struct Bridge.UTXO","components":[{"name":"txId","type":"bytes32","internalType":"bytes32"},{"name":"outputId","type":"bytes4","internalType":"bytes4"}]},{"name":"index","type":"uint256","indexed":false,"internalType":"uint256"},{"name":"timestamp","type":"uint256","indexed":false,"internalType":"uint256"}],"anonymous":false},{"type":"error","name":"InvalidInitialization","inputs":[]},{"type":"error","name":"NotInitializing","inputs":[]},{"type":"error","name":"OwnableInvalidOwner","inputs":[{"name":"owner","type":"address","internalType":"address"}]},{"type":"error","name":"OwnableUnauthorizedAccount","inputs":[{"name":"account","type":"address","internalType":"address"}]}],"bytecode":{"object":"0x608080604052346015576149c7908161001a8239f35b5f80fdfe60806040526004361015610011575f80fd5b5f3560e01c80630659216714610275578063092ac5d4146101f85780630bd89ab7146101f85780631369ac3e146101f8578063158ef93e14610270578063198546231461026b57806323dacd29146102665780632594f107146102615780633c918b6c1461025c5780634126013714610257578063419759f514610252578063428bcd351461024d5780634379caa514610248578063471ba1e314610243578063570ca7351461023e5780635b4f894d146102395780636b0b5a94146102345780636cf7d6411461022f578063715018a61461022a578063781952a81461022557806379ba5097146102205780637ec9732a1461021b57806385fb7151146102165780638752b6b2146102115780638786dba71461020c5780638da5cb5b146102075780639072f747146102025780639a4f308d146101fd578063a0dc2758146101f8578063a670e7ed146101f3578063b2497e70146101ee578063b3ab15fb146101e9578063d761753e146101e4578063e30c3978146101df578063e613ae00146101da578063f2fde38b146101d5578063f42cb4fc146101d0578063f8e655d2146101cb5763fb11d7b9146101c6575f80fd5b611a4e565b611915565b611870565b6117f7565b6117d5565b6117a1565b611773565b6116f0565b6116d5565b61168a565b6103aa565b61166e565b6115bb565b611533565b61150e565b6114d6565b61141e565b611258565b61115e565b611141565b6110c4565b6110a9565b610fc0565b610fa5565b610ce1565b610c8a565b610c5b565b610c40565b610c08565b6109be565b6108da565b6105ba565b610583565b610426565b6103d5565b6102ab565b634e487b7160e01b5f52603260045260245ffd5b6008548110156102a65760085f5260205f2001905f90565b61027a565b346102fb5760203660031901126102fb576004356008548110156102fb5760209060085f527ff3f7a9fe364faab93b216da50a3214154f22a0a2b415b23a84c8169e8b636ee30154604051908152f35b5f80fd5b634e487b7160e01b5f52604160045260245ffd5b90601f801991011681019081106001600160401b0382111761033457604052565b6102ff565b60405190610348604083610313565b565b6001600160401b03811161033457601f01601f191660200190565b60405190610374604083610313565b600182525f6020830152565b602060409281835280519182918282860152018484015e5f828201840152601f01601f1916010190565b346102fb575f3660031901126102fb576103d16103c5610365565b60405191829182610380565b0390f35b346102fb575f3660031901126102fb57602060ff5f54166040519015158152f35b9181601f840112156102fb578235916001600160401b0383116102fb576020808501948460051b0101116102fb57565b60403660031901126102fb576004356001600160401b0381116102fb576104519036906004016103f6565b6024356001600160401b0381116102fb576104709036906004016103f6565b929083830361052d5761048f61048884600154611b53565b3414611b6b565b600754935f5b84811061049e57005b807f3311a04a346a103ac115cca33028a2bc82f1964805860d0d3fc84a2772496ada6104cd6001938888611bb7565b356105006104e46104df85888a611bb7565b611bc7565b6104ec610339565b9283526001600160e01b0319166020830152565b61050981611bd1565b610513838a611c70565b610524604051928392429184611c7d565b0390a101610495565b60405162461bcd60e51b815260206004820152600f60248201526e098cadccee8d040dad2e6dac2e8c6d608b1b6044820152606490fd5b60405190610573604083610313565b60018252600160f91b6020830152565b346102fb575f3660031901126102fb576103d16103c5610564565b908160c09103126102fb5790565b908160609103126102fb5790565b346102fb5760803660031901126102fb576004356001600160401b0381116102fb576105ea90369060040161059e565b6024356001600160401b0381116102fb576106099036906004016105ac565b906044356064355f5490929060081c6001600160a01b031633036108955761074e6108909161067b7f4d7c644a48da4c7857af62a00bad9806f0388564f22955ed846d938c244047f0966106606008548710611cae565b61067561066e600554610d0c565b1515611cea565b82613328565b5050604081016107386107486106a361069e6106978587611d36565b3691611567565b61351b565b9761074060608601956107126106d96106bf6106978a85611d36565b6106d36106cc8b86611d36565b9050611d68565b906135ec565b936106f26106ed6106976080860186611d36565b613937565b9c8d6106fd85611bc7565b9060a086019761070c89611bc7565b93613a58565b61073061072861072183611bc7565b9783611d36565b989092611d36565b959093611bc7565b963691611567565b923691611567565b91613ceb565b610779610774610770610769845f52600960205260405f2090565b5460ff1690565b1590565b611d92565b61079b61078e825f52600960205260405f2090565b805460ff19166001179055565b61087361086b6107e96107ba6107b08761028e565b90549060031b1c90565b966107ce856107c88961028e565b90611dde565b6107e460036107dc836145f0565b905014611dfb565b613d7c565b6108666108616108596107fd600554610d0c565b610848610843610835610811600654610d0c565b9361082f89516108298761082485611c38565b611c70565b14611e3f565b88613674565b61083d610d44565b90613f0a565b611e83565b610853818651611d85565b856138b9565b61083d610df9565b611ecf565b613fb5565b948514611f1b565b604051938493846040919493926060820195825260208201520152565b0390a1005b60405162461bcd60e51b815260206004820152601a60248201527f63616c6c6572206973206e6f7420746865206f70657261746f720000000000006044820152606490fd5b346102fb575f3660031901126102fb576040515f6003546108fa81610d0c565b808452906001811690811561096f575060011461092a575b6103d16103c58461092581860382610313565b6136c2565b60035f90815291505f5160206149675f395f51905f525b818310610955575050810160200181610912565b600181602092949394548385880101520191019190610941565b60ff191660208086019190915291151560051b84019091019150829050610912565b9181601f840112156102fb578235916001600160401b0383116102fb57602083818601950101116102fb57565b346102fb5760603660031901126102fb576004356001600160401b0381116102fb576109ee903690600401610991565b6024356001600160401b0381116102fb57610a0d903690600401610991565b9092906044359073deaddeaddeaddeaddeaddeaddeaddeaddeaddead3303610bc35760ff5f5416610b7e577f80bd1fdfe157286ce420ee763f91748455b249605748e5df12dad9844402bafc94610aa083610a6c610b3c951515611f71565b610a77871515611fbd565b610a87600160ff195f5416175f55565b610a9187876120f8565b610a9b84846121c6565b600155565b5f8054610100600160a81b03191674deaddeaddeaddeaddeaddeaddeaddeaddeaddead00179055600280546001600160a01b0319166007603160981b011790557ffbe5b6cbafb274f445d7fed869dc77a838d8243a22c460de156560e8857cad0360405180610b2d819073deaddeaddeaddeaddeaddeaddeaddeaddeaddead602060408401935f81520152565b0390a160405194859485612390565b0390a1604080515f81526007603160981b0160208201527f79250b96878fd457364d1c1b77a660973c4f4ab67bda5e2fdb42caaa4d515f9d9181908101610890565b60405162461bcd60e51b815260206004820152601f60248201527f436f6e747261637420697320616c726561647920696e697469616c697a6564006044820152606490fd5b60405162461bcd60e51b815260206004820152601f60248201527f63616c6c6572206973206e6f74207468652073797374656d2063616c6c6572006044820152606490fd5b346102fb575f3660031901126102fb576020600154604051908152f35b60405190610c34604083610313565b600482525f6020830152565b346102fb575f3660031901126102fb576103d16103c5610c25565b346102fb5760203660031901126102fb576004355f526009602052602060ff60405f2054166040519015158152f35b346102fb5760203660031901126102fb576004356007548110156102fb576007548110156102a65760409060075f5260205f209060011b016001815491015460e01b825191825263ffffffff60e01b166020820152f35b346102fb575f3660031901126102fb575f5460405160089190911c6001600160a01b03168152602090f35b90600182811c92168015610d3a575b6020831014610d2657565b634e487b7160e01b5f52602260045260245ffd5b91607f1691610d1b565b604051905f8260055491610d5783610d0c565b8083529260018116908115610dda5750600114610d7b575b61034892500383610313565b5060055f90815290917f036b6384b5eca791c62761152d0c79bb0604c104a5fb6f4eb0703f3154bb3db05b818310610dbe57505090602061034892820101610d6f565b6020919350806001915483858901015201910190918492610da6565b6020925061034894915060ff191682840152151560051b820101610d6f565b604051905f8260065491610e0c83610d0c565b8083529260018116908115610dda5750600114610e2f5761034892500383610313565b5060065f90815290917ff652222313e28459528d920b65115c16c04f3efc82aaedc97be59f3f377c0d3f5b818310610e7257505090602061034892820101610d6f565b6020919350806001915483858901015201910190918492610e5a565b604051905f8260035491610ea183610d0c565b8083529260018116908115610dda5750600114610ec45761034892500383610313565b5060035f90815290915f5160206149675f395f51905f525b818310610ef457505090602061034892820101610d6f565b6020919350806001915483858901015201910190918492610edc565b604051905f8260045491610f2383610d0c565b8083529260018116908115610dda5750600114610f465761034892500383610313565b5060045f90815290917f8a35acfbc15ff81a39ae7d344fd709f28e8600b4aa8c65c6b64bfe7fe36bd19b5b818310610f8957505090602061034892820101610d6f565b6020919350806001915483858901015201910190918492610f71565b346102fb575f3660031901126102fb576103d16103c5610e8e565b346102fb575f3660031901126102fb576040515f600554610fe081610d0c565b80845290600181169081156110665750600114611008575b6103d1836103c581850382610313565b60055f9081527f036b6384b5eca791c62761152d0c79bb0604c104a5fb6f4eb0703f3154bb3db0939250905b80821061104c575090915081016020016103c5610ff8565b919260018160209254838588010152019101909291611034565b60ff191660208086019190915291151560051b840190910191506103c59050610ff8565b60405190611099604083610313565b60018252608360f81b6020830152565b346102fb575f3660031901126102fb576103d16103c561108a565b346102fb575f3660031901126102fb576110dc614028565b5f5160206149a75f395f51905f5280546001600160a01b03199081169091555f5160206149875f395f51905f52805491821690555f906001600160a01b03167f8be0079c531659141344cd1fd0a4f28419497f9722a3daafe3b4186f6b6457e08280a3005b346102fb575f3660031901126102fb576020600754604051908152f35b346102fb575f3660031901126102fb575f5160206149a75f395f51905f5254336001600160a01b03909116036111f5575f5160206149a75f395f51905f5280546001600160a01b03199081169091555f5160206149875f395f51905f5280543392811683179091556001600160a01b03167f8be0079c531659141344cd1fd0a4f28419497f9722a3daafe3b4186f6b6457e05f80a3005b63118cdaa760e01b5f523360045260245ffd5b60406003198201126102fb576004356001600160401b0381116102fb578161123291600401610991565b92909291602435906001600160401b0382116102fb5761125491600401610991565b9091565b346102fb5761126636611208565b611271939193614028565b82156113b7576001600160401b0383116103345761129983611294600554610d0c565b612009565b5f93601f84116001146113115790610890916112ec85807f6c9ac69a5e351d3e7ac9be95040d29a264d1ce6a409ca9f042c64c66c3f2a23a985f91611306575b508160011b915f199060031b1c19161790565b6005555b6112fa828261229b565b60405194859485612390565b90508601355f6112d9565b60055f52601f1984167f036b6384b5eca791c62761152d0c79bb0604c104a5fb6f4eb0703f3154bb3db0905f5b81811061139f5750907f6c9ac69a5e351d3e7ac9be95040d29a264d1ce6a409ca9f042c64c66c3f2a23a968661089095949310611386575b5050600185811b016005556112f0565b8501355f19600388901b60f8161c191690555f80611376565b8588013583556020978801976001909301920161133e565b60405162461bcd60e51b815260206004820152601e60248201527f5265706c616365207363726970742063616e6e6f7420626520656d70747900006044820152606490fd5b60209060031901126102fb576004356001600160a01b03811681036102fb5790565b346102fb5761142c366113fc565b611434614028565b6001600160a01b03811690811561149f57600280546001600160a01b031981169093179055604080516001600160a01b0393841681529290911660208301527f79250b96878fd457364d1c1b77a660973c4f4ab67bda5e2fdb42caaa4d515f9d919081908101610890565b60405162461bcd60e51b815260206004820152600f60248201526e496e76616c6964206164647265737360881b6044820152606490fd5b346102fb575f3660031901126102fb576103d16103c5610f10565b6001600160e01b03198116036102fb57565b3590610348826114f1565b60403660031901126102fb5761153160243560043561152c826114f1565b6123b7565b005b346102fb575f3660031901126102fb575f5160206149875f395f51905f52546040516001600160a01b039091168152602090f35b9291926115738261034a565b916115816040519384610313565b8294818452818301116102fb578281602093845f960137010152565b9080601f830112156102fb578160206115b893359101611567565b90565b60a03660031901126102fb576004356001600160401b0381116102fb576115e690369060040161059e565b6024356001600160401b0381116102fb576116059036906004016105ac565b906044356001600160401b0381116102fb5761162590369060040161059e565b6064356001600160401b0381116102fb57611644903690600401610991565b91608435946001600160401b0386116102fb5761166861153196369060040161159d565b94612ad9565b346102fb575f3660031901126102fb5760206040516102008152f35b346102fb575f3660031901126102fb576002546040516001600160a01b039091168152602090f35b604051906116c1604083610313565b600482526001600160e01b03196020830152565b346102fb575f3660031901126102fb576103d16103c56116b2565b346102fb577ffbe5b6cbafb274f445d7fed869dc77a838d8243a22c460de156560e8857cad0361171f366113fc565b611727614028565b5f8054610100600160a81b031916600883811b610100600160a81b03169190911791829055604080519290911c6001600160a01b03908116835290921660208201529081908101610890565b346102fb575f3660031901126102fb57602060405173deaddeaddeaddeaddeaddeaddeaddeaddeaddead8152f35b346102fb575f3660031901126102fb575f5160206149a75f395f51905f52546040516001600160a01b039091168152602090f35b346102fb575f3660031901126102fb576040516001603160981b018152602090f35b346102fb57611805366113fc565b61180d614028565b5f5160206149a75f395f51905f5280546001600160a01b0319166001600160a01b039283169081179091555f5160206149875f395f51905f52549091167f38d16b8cac22d99fc7c124b9cd0de2d3fa1faef420bfe791d8c362d765e227005f80a3005b346102fb575f3660031901126102fb576040515f60065461189081610d0c565b808452906001811690811561106657506001146118b7576103d1836103c581850382610313565b60065f9081527ff652222313e28459528d920b65115c16c04f3efc82aaedc97be59f3f377c0d3f939250905b8082106118fb575090915081016020016103c5610ff8565b9192600181602092548385880101520191019092916118e3565b346102fb5761192336611208565b61192e939193614028565b611939831515611fbd565b6001600160401b0383116103345761195b83611956600354610d0c565b612059565b5f93601f84116001146119bb5790610890916119ad85807f80bd1fdfe157286ce420ee763f91748455b249605748e5df12dad9844402bafc985f9161130657508160011b915f199060031b1c19161790565b6003555b6112fa82826121c6565b60035f52601f1984165f5160206149675f395f51905f52905f5b818110611a365750907f80bd1fdfe157286ce420ee763f91748455b249605748e5df12dad9844402bafc968661089095949310611a1d575b5050600185811b016003556119b1565b8501355f19600388901b60f8161c191690555f80611a0d565b858801358355602097880197600190930192016119d5565b346102fb5760603660031901126102fb576004356001600160401b0381116102fb57611a7e90369060040161059e565b6024356001600160401b0381116102fb57611a9d9036906004016105ac565b6044359073deaddeaddeaddeaddeaddeaddeaddeaddeaddead33148015611b26575b15611acd57611531926130f0565b60405162461bcd60e51b815260206004820152602b60248201527f63616c6c6572206973206e6f74207468652073797374656d2063616c6c65722060448201526a37b91037b832b930ba37b960a91b6064820152608490fd5b505f543360089190911c6001600160a01b031614611abf565b634e487b7160e01b5f52601160045260245ffd5b81810292918115918404141715611b6657565b611b3f565b15611b7257565b60405162461bcd60e51b815260206004820152601760248201527f496e76616c696420776974686472617720616d6f756e740000000000000000006044820152606490fd5b91908110156102a65760051b0190565b356115b8816114f1565b600754600160401b81101561033457600181016007556007548110156102a65760075f5260011b7fa66cc928b5edb82af9bd49922954155ab7b0942694bea4ce44661d9a8736c688016001602091835181550191015160e01c63ffffffff19825416179055565b9060208201809211611b6657565b9060148201809211611b6657565b9060018201809211611b6657565b6001019081600111611b6657565b91908201809211611b6657565b606091949392611ca5826080810197602090805183528163ffffffff60e01b91015116910152565b60408201520152565b15611cb557565b60405162461bcd60e51b815260206004820152600d60248201526c092dcecc2d8d2c840d2dcc8caf609b1b6044820152606490fd5b15611cf157565b60405162461bcd60e51b815260206004820152601960248201527f5265706c61636520736372697074206973206e6f7420736574000000000000006044820152606490fd5b903590601e19813603018212156102fb57018035906001600160401b0382116102fb576020019181360383136102fb57565b5f19810191908211611b6657565b601f19810191908211611b6657565b91908203918211611b6657565b15611d9957565b60405162461bcd60e51b815260206004820152601c60248201527f7478496420616c7265616479207573656420746f207265706c616365000000006044820152606490fd5b91611df79183549060031b91821b915f19901b19161790565b9055565b15611e0257565b60405162461bcd60e51b8152602060048201526015602482015274496e76616c6964207769746e657373206974656d7360581b6044820152606490fd5b15611e4657565b60405162461bcd60e51b8152602060048201526015602482015274092dcecc2d8d2c840e6c6e4d2e0e840d8cadccee8d605b1b6044820152606490fd5b15611e8a57565b60405162461bcd60e51b815260206004820152601d60248201527f496e76616c6964207265706c61636520736372697074207072656669780000006044820152606490fd5b15611ed657565b60405162461bcd60e51b815260206004820152601d60248201527f496e76616c6964207265706c61636520736372697074207375666669780000006044820152606490fd5b15611f2257565b606460405162461bcd60e51b815260206004820152602060248201527f496e76616c6964207478496420746f207265706c6163652070726f76696465646044820152fd5b6115b8610925610e8e565b15611f7857565b60405162461bcd60e51b815260206004820152601a60248201527f4465706f73697420616d6f756e742063616e6e6f7420626520300000000000006044820152606490fd5b15611fc457565b60405162461bcd60e51b815260206004820152601e60248201527f4465706f736974207363726970742063616e6e6f7420626520656d70747900006044820152606490fd5b601f8111612015575050565b60055f5260205f20906020601f840160051c8301931061204f575b601f0160051c01905b818110612044575050565b5f8155600101612039565b9091508190612030565b601f8111612065575050565b60035f5260205f20906020601f840160051c8301931061209f575b601f0160051c01905b818110612094575050565b5f8155600101612089565b9091508190612080565b601f82116120b657505050565b5f5260205f20906020601f840160051c830193106120ee575b601f0160051c01905b8181106120e3575050565b5f81556001016120d8565b90915081906120cf565b91906001600160401b0381116103345761211e81612117600354610d0c565b60036120a9565b5f601f821160011461215c57819061214c93945f92612151575b50508160011b915f199060031b1c19161790565b600355565b013590505f80612138565b60035f52601f198216935f5160206149675f395f51905f52915f5b8681106121ae5750836001959610612195575b505050811b01600355565b01355f19600384901b60f8161c191690555f808061218a565b90926020600181928686013581550194019101612177565b91906001600160401b038111610334576121ec816121e5600454610d0c565b60046120a9565b5f601f821160011461221e57819061221993945f926121515750508160011b915f199060031b1c19161790565b600455565b60045f52601f198216937f8a35acfbc15ff81a39ae7d344fd709f28e8600b4aa8c65c6b64bfe7fe36bd19b915f5b868110612283575083600195961061226a575b505050811b01600455565b01355f19600384901b60f8161c191690555f808061225f565b9092602060018192868601358155019401910161224c565b91906001600160401b038111610334576122c1816122ba600654610d0c565b60066120a9565b5f601f82116001146122f35781906122ee93945f926121515750508160011b915f199060031b1c19161790565b600655565b60065f52601f198216937ff652222313e28459528d920b65115c16c04f3efc82aaedc97be59f3f377c0d3f915f5b868110612358575083600195961061233f575b505050811b01600655565b01355f19600384901b60f8161c191690555f8080612334565b90926020600181928686013581550194019101612321565b908060209392818452848401375f828201840152601f01601f1916010190565b92906123a9906115b89593604086526040860191612370565b926020818503910152612370565b906123c56001543414611b6b565b6040519060408201928284106001600160401b03851117610334577f3311a04a346a103ac115cca33028a2bc82f1964805860d0d3fc84a2772496ada93604052825263ffffffff60e01b16602082015260075461242182611bd1565b612432604051928392429184611c7d565b0390a1565b1561243e57565b60405162461bcd60e51b815260206004820152601d60248201527f56696e206973206e6f742070726f7065726c7920666f726d61747465640000006044820152606490fd5b1561248a57565b60405162461bcd60e51b815260206004820152601e60248201527f566f7574206973206e6f742070726f7065726c7920666f726d617474656400006044820152606490fd5b908160209103126102fb575180151581036102fb5790565b979695919261251e9460809694612510938b5260208b015260a060408b015260a08a0191612370565b918783036060890152612370565b930152565b6040513d5f823e3d90fd5b1561253557565b60405162461bcd60e51b815260206004820152601b60248201527f5472616e73616374696f6e206973206e6f7420696e20626c6f636b00000000006044820152606490fd5b1561258157565b60405162461bcd60e51b8152602060048201526024808201527f5061796f75742076696e206973206e6f742070726f7065726c7920666f726d616044820152631d1d195960e21b6064820152608490fd5b156125d957565b60405162461bcd60e51b815260206004820152602860248201527f5061796f75742076696e2073686f756c6420686176652065786163746c79206f6044820152671b99481a5b9c1d5d60c21b6064820152608490fd5b1561263657565b60405162461bcd60e51b815260206004820152602560248201527f5061796f757420766f7574206973206e6f742070726f7065726c7920666f726d604482015264185d1d195960da1b6064820152608490fd5b1561269057565b60405162461bcd60e51b815260206004820152602860248201527f5061796f7574207769746e657373206973206e6f742070726f7065726c7920666044820152671bdc9b585d1d195960c21b6064820152608490fd5b156126ed57565b60405162461bcd60e51b8152602060048201526012602482015271125b9d985b1a59081cdc195b9d081d1e125960721b6044820152606490fd5b1561272e57565b60405162461bcd60e51b815260206004820152601b60248201527f496e76616c6964207370656e74206f7574707574206c656e67746800000000006044820152606490fd5b60405190612782604083610313565b60018252601160f91b6020830152565b1561279957565b60405162461bcd60e51b815260206004820152602960248201527f496e76616c6964207370656e74206f757470757420736372697074207075626b6044820152680caf240d8cadccee8d60bb1b6064820152608490fd5b604051906127ff604083610313565b6002825261028960f51b6020830152565b1561281757565b60405162461bcd60e51b815260206004820152602160248201527f5370656e74206f7574707574206973206e6f7420612050325452206f757470756044820152601d60fa1b6064820152608490fd5b1561286d57565b60405162461bcd60e51b815260206004820152602260248201527f496e76616c6964207370656e74206f757470757420736372697074207075626b604482015261657960f01b6064820152608490fd5b805191908290602001825e015f815290565b61292b979360249b9997956128f6612912956128f08f9a96956008966128bd565b906128bd565b6001600160e01b031992831681529116600482015201906128bd565b9182526001600160e01b031916602082015201906128bd565b6001600160e01b0319909216825260048201520190565b60405190612951604083610313565b600a8252690a8c2e0a6d2ced0c2e6d60b31b6020830152565b1561297157565b60405162461bcd60e51b8152602060048201526011602482015270496e76616c6964207369676e617475726560781b6044820152606490fd5b6001600160f01b03198116036102fb57565b9035601e19823603018112156102fb5701602081359101916001600160401b0382116102fb5781360383136102fb57565b612ad560609295949395608083528035612a06816114f1565b6001600160e01b03191660808401526020810135612a23816129aa565b61ffff60f01b1660a0840152612ab5612aa360a0612a9c612a7c612a5e612a4d60408801886129bc565b60c0808c01526101408b0191612370565b612a6a8a8801886129bc565b8a8303607f190160e08c015290612370565b612a8960808701876129bc565b898303607f19016101008b015290612370565b9301611503565b6001600160e01b031916610120850152565b8651602084810191909152909601516001600160e01b0319166040830152565b0152565b919092602061074095612b9395612b5e612b5560408801612b0d612b08612b03610697848d611d36565b614048565b612437565b60a06107488a606081019d8e612b36612b31612b2c6106978487611d36565b6140c0565b612483565b610738612b4c612b4585611bc7565b9785611d36565b98909285611d36565b96909401611bc7565b96879260408584013593612b728180611d36565b929091013592604051988997889763cd4cc08f60e01b8952600489016124e7565b03816001603160981b015afa8015612eda57612bb6915f91612edf575b5061252e565b60408101612bc48183611d36565b3690612bcf92611567565b612bd890614048565b612be19061257a565b612beb8183611d36565b3690612bf692611567565b612bff906145f0565b612c0c91506001146125d2565b6060820195612c1b8784611d36565b3690612c2692611567565b612c2f906140c0565b612c389061262f565b6080830191612c478385611d36565b3690612c5292611567565b612c5b9061412f565b612c6490612689565b612c6e9084611d36565b3690612c7992611567565b612c829061351b565b96612c8d8185611d36565b3690612c9892611567565b90612ca39085611d36565b612cad9150611d68565b612cb6916135ec565b91612cc19084611d36565b3690612ccc92611567565b612cd590613937565b93612ce1886020015190565b958614612ced906126e6565b60408801516001600160e01b03191696612d0691611d36565b3690612d1192611567565b8660e01c612d1e9161420a565b908151602b14612d2d90612727565b612d368261370b565b612d3e612773565b612d4791613f0a565b612d5090612792565b612d5982613754565b612d616127f0565b612d6a91613f0a565b612d7390612810565b612d7c8261379d565b90612d8691613f0a565b612d8f90612866565b612d98816137e6565b6045909701516001600160e01b03191691604051809160208201612dbb916128bd565b03601f1981018252612dcd9082610313565b604051612ddb8180936128bd565b03905a915f916002602094fa15612eda57610348967fd77102e5369b5b1a9db1972cb3de26ee79abc69de5cde41eeaa67fe3939c1c5594612e99612e8f612e8987612e7c8b612e6e8e612ea49b612e9f9b5f5192612e37610365565b95612e4061108a565b98612e5660a0612e4f83611bc7565b9201611bc7565b612e5e610365565b916040519b8c9a60208c016128cf565b03601f198101835282610313565b612e84612942565b6142c2565b92613e2c565b6106d38151611d68565b9161432a565b61296a565b612eac610339565b8381526001600160e01b03198516602082015290612ed2600754604051938493846129ed565b0390a16123b7565b612523565b612f01915060203d602011612f07575b612ef98183610313565b8101906124cf565b5f612bb0565b503d612eef565b15612f1557565b60405162461bcd60e51b815260206004820152601660248201527513db9b1e481bdb99481a5b9c1d5d08185b1b1bddd95960521b6044820152606490fd5b15612f5a57565b60405162461bcd60e51b81526020600482015260126024820152711d1e125908185b1c9958591e481cdc195b9d60721b6044820152606490fd5b600854600160401b81101561033457600181016008556008548110156102a65760085f527ff3f7a9fe364faab93b216da50a3214154f22a0a2b415b23a84c8169e8b636ee30155565b15612fe457565b60405162461bcd60e51b8152602060048201526016602482015275125b9d985b1a590819195c1bdcda5d081cd8dc9a5c1d60521b6044820152606490fd5b1561302957565b60405162461bcd60e51b8152602060048201526015602482015274092dcecc2d8d2c840e6c6e4d2e0e840e6eaccccd2f605b1b6044820152606490fd5b3d15613090573d906130778261034a565b916130856040519384610313565b82523d5f602084013e565b606090565b1561309c57565b60405162461bcd60e51b815260206004820152602660248201527f4661696c656420746f2073656e6420746f206661696c6564206465706f736974604482015265081d985d5b1d60d21b6064820152608490fd5b61316b61312c6131c59261311261310a6001979683613328565b909714612f0e565b604081016107386107486106a361069e6106978587611d36565b9261314d613148610770610769875f52600960205260405f2090565b612f53565b61316261078e855f52600960205260405f2090565b6107ce84612f94565b6131c06131bb6131b361317f600354610d0c565b6108486131ae6131a6613193600454610d0c565b9361082f89516108298761082485611c46565b61083d610e8e565b612fdd565b61083d610f10565b613022565b6143cb565b905f808080600154865af16131d8613066565b50613275576132467fabd361bc68da04a386a8de9d0fb3044cca0856cbd86e9e4a63237e015b3e4bb99361320d600854611d68565b6040805192835260208301949094526001600160a01b0390941692810192909252426060830152608082019290925290819060a0820190565b0390a16103485f80808061326160025460018060a01b031690565b600154905af161326f613066565b50613095565b6124327fa82453ca34121b3ecb910d957824e27c5dc6465315949facd15fb728864900589361320d600854611d68565b356115b8816129aa565b156132b657565b60405162461bcd60e51b815260206004820152602160248201527f5769746e657373206973206e6f742070726f7065726c7920666f726d617474656044820152601960fa1b6064820152608490fd5b95949361251e926060949288526020880152608060408801526080870191612370565b919061333383611bc7565b90613340602085016132a5565b936040810161334f8183611d36565b94909660608401956133618786611d36565b608087019a916133718c89611d36565b94909361338060a08b01611bc7565b9661338a98614478565b936133958284611d36565b36906133a092611567565b6133a990614048565b6133b290612437565b6133bc9083611d36565b36906133c792611567565b6133d0906140c0565b6133d990612483565b6133e39082611d36565b36906133ee92611567565b6133f7906145f0565b9561340491508692611d36565b369061340f92611567565b906134199161416f565b613422906132af565b6020810135906134328180611d36565b604080516327fe9a2560e11b815294859461345894920135929190879060048701613305565b6001603160981b0191839103815a93602094fa8015612eda57613481915f91612edf575061252e565b9190565b1561348c57565b60405162461bcd60e51b815260206004820152602260248201527f52656164206f76657272756e20647572696e6720566172496e742070617273696044820152616e6760f01b6064820152608490fd5b156134e357565b60405162461bcd60e51b815260206004820152601060248201526f2b34b7103932b0b21037bb32b9393ab760811b6044820152606490fd5b61353e613527826145f0565b9091906135375f19841415613485565b15156134dc565b60010180600111611b665761355381836144e9565b905f198214613565576115b8926138b9565b60405162461bcd60e51b815260206004820152601760248201527f42616420566172496e7420696e207363726970745369670000000000000000006044820152606490fd5b156135b157565b60405162461bcd60e51b8152602060048201526013602482015272536c696365206f7574206f6620626f756e647360681b6044820152606490fd5b919091821561365d578260010180600111611b665780600161361692119081613651575b506135aa565b60405192604081850101604052808452602182850391818401930101915b82811061364057505050565b80518282015f190152602001613634565b9050825110155f613610565b50905060405161366e602082610313565b5f815290565b919091821561365d5761368a83825110156135aa565b60405192604081850101604052808452602082850391818401930101915b8281106136b457505050565b8051828201526020016136a8565b906136d16022835110156135aa565b6040519160608301604052602083528083036042602283019201915b8281106136f957505050565b805182820160011901526020016136ed565b9061371a6009835110156135aa565b6040519160418301604052600183528083036029602883019201915b82811061374257505050565b80518282016007190152602001613736565b90613763600b835110156135aa565b604051916042830160405260028352808303602b602983019201915b82811061378b57505050565b8051828201600819015260200161377f565b906137ac602b835110156135aa565b604051916062830160405260228352808303604b602983019201915b8281106137d457505050565b805182820160081901526020016137c8565b906137f5602b835110156135aa565b604051916060830160405260208352808303604b602b83019201915b82811061381d57505050565b8051828201600a190152602001613811565b9061383e6040835110156135aa565b6040519160808301604052604083528083036060602083019201915b82811061386657505050565b80518282015260200161385a565b906138836024835110156135aa565b6040519160648301604052602483528083036044602083019201915b8281106138ab57505050565b80518282015260200161389f565b929190811561392557818101808211611b665780826138df9211908161391957506135aa565b604051936040838601016040528285520190602082850391818401930101915b82811061390b57505050565b8051828201526020016138ff565b9050855110155f613610565b5050905060405161366e602082610313565b6139415f82614528565b5f198114613953575f6115b8926138b9565b60405162461bcd60e51b815260206004820152601560248201527442616420566172496e7420696e207769746e65737360581b6044820152606490fd5b8051600110156102a65760210190565b9081518110156102a6570160200190565b6001906115b8939260ff60f81b16815201906128bd565b604051906139d7604083610313565b60078252662a30b82632b0b360c91b6020830152565b966128f0966115b89f9e9c989660a8966128f09f9c95613a199060209f9a6128f090613a4e9f986128bd565b6001600160e01b03199788168152961660048701526008860152602885015260488401526068830152608882015201906128bd565b90815201906128bd565b91949390929360205f613a79613a6d86613874565b604051918280926128bd565b039060025afa15612eda575f519060205f613b60612e6e613a6d613b42613b32613ab9613aad6001546402540be400900490565b6001600160401b031690565b65ffff0000ffff67ffffffffffff000067ff00ff00ff00ff008360081c9360081b169264ff000000ff65ffff0000ff0065ffffffffffff67ffffffffffffff00871666ff00ff00ff00ff85161760101c16951691161760101b1691161767ffffffff0000000063ffffffff8260201c169160201b161790565b60c01b6001600160c01b03191690565b6040519283918783016008916001600160401b0360c01b1681520190565b039060025afa15612eda5760205f613ba9612e6e613a6d613b8e845199604563ffffffff60e01b9101511690565b60405192839187830160049163ffffffff60e01b1681520190565b039060025afa15612eda5760205f613bd2612e6e613a6d835199604051928391878301906128bd565b039060025afa15612eda575f5193613be988613d7c565b607f60f91b613bf78a613e72565b613c0090613990565b516001600160f81b031916604051928392613c1f9216602084016139b1565b03601f1981018252613c319082610313565b613c396139c8565b90613c43916142c2565b91613c4c610365565b95613c55610365565b97613c5e610564565b92613c67610c25565b94613c70610365565b97613c796116b2565b996040519d8e9d60208f019d613c8e9e6139ed565b03601f1981018252613ca09082610313565b613ca8612942565b90613cb2916142c2565b90613cbc90613e2c565b8051613cc790611d68565b613cd0916135ec565b613cd8611f66565b91613ce29261432a565b6103489061296a565b6004906115b894613d1b613d3694956128f060405197889563ffffffff60e01b16602087015260248601906128bd565b9063ffffffff60e01b16815203601b19810184520182610313565b6145c2565b15613d4257565b60405162461bcd60e51b815260206004820152601260248201527142616420566172496e7420696e206974656d60701b6044820152606490fd5b90613da1613d89836145f0565b909190613d995f19841415613485565b6001106134dc565b60010180600111611b6657915f925b60018410613de6576115b8929350613de0613ddb613dce838561474c565b6108245f19821415613d3b565b611c54565b916138b9565b613df0818361474c565b9190613dff5f19841415613d3b565b806001019283600111611b66576001910101809211611b6657600191613e2491611c70565b930192613db0565b613e38613527826145f0565b6001019081600111611b6657613e4e828261474c565b9290613e5d5f19851415613d3b565b8301809311611b6657613de06115b893611c54565b90613e97613e7f836145f0565b909190613e8f5f19841415613485565b6002106134dc565b60010180600111611b6657915f925b60028410613ec4576115b8929350613de0613ddb613dce838561474c565b613ece818361474c565b9190613edd5f19841415613d3b565b806001019283600111611b66576001910101809211611b6657600191613f0291611c70565b930192613ea6565b9081519181518303613fae5760205b83811115613f9357613f2a90611d76565b838110613f3a5750505050600190565b613f55613f4782846139a0565b516001600160f81b03191690565b613f72613f65613f4784876139a0565b6001600160f81b03191690565b6001600160f81b031990911603613f8b57600101613f2a565b505050505f90565b818101518382015160209092019114613f1957505050505f90565b5050505f90565b613fc0600554610d0c565b60208101808211611b66578082613fde9211908161401c57506135aa565b604051916060830160405260208352018082036040602083019201915b82811061400e575050506115b89061480d565b805182820152602001613ffb565b9050835110155f613610565b5f5160206149875f395f51905f52546001600160a01b031633036111f557565b614051816145f0565b9190821580156140b6575b613fae5760010180600111611b6657915f905b80821061407d575050511490565b90928251811015613f8b5761409281846144e9565b5f1981146140ad578101809111611b6657926001019061406f565b50505050505f90565b505f19811461405c565b6140c9816145f0565b919082158015614125575b613fae5760010180600111611b6657915f905b8082106140f5575050511490565b90928251811015613f8b5761410a818461487d565b5f1981146140ad578101809111611b665792600101906140e7565b505f1981146140d4565b5f905f5b600181106141415750511490565b918151811015613fae576141558183614528565b5f198114613f8b578101809111611b665791600101614133565b81156141b8575f915f905b808210614188575050511490565b90928251811015613f8b5761419d8184614528565b5f1981146140ad578101809111611b6657926001019061417a565b50505f90565b156141c557565b60405162461bcd60e51b815260206004820152601a60248201527f42616420566172496e7420696e207363726970745075626b65790000000000006044820152606490fd5b919091614216816145f0565b6142235f19831415613485565b8410156142895761423390611c62565b5f935b80851061426157506115b892935061424e818361487d565b9161425c5f198414156141be565b6138b9565b90614280816142726001938661487d565b906108245f198314156141be565b94019390614236565b60405162461bcd60e51b81526020600482015260116024820152702b37baba103932b0b21037bb32b9393ab760791b6044820152606490fd5b5f6142d5602092604051918280926128bd565b039060025afa15612eda575f614309602092613a6d8351612e6e6040519382859389850152604084015260608301906128bd565b039060025afa15612eda575f5190565b91613a4e6115b894936020936128bd565b9190918151604081149081156143c0575b501561437b575f92614365614350859461382f565b91612e6e604051938492602084019687614319565b51906102005afa50614375613066565b51151590565b60405162461bcd60e51b815260206004820152601860248201527f496e76616c6964207369676e6174757265206c656e67746800000000000000006044820152606490fd5b60419150145f61433b565b6143d6600354610d0c565b60148101808211611b665780826143f49211908161401c57506135aa565b604051916054830160405260148352018082036034602083019201915b82811061446a5750505060208151910151906bffffffffffffffffffffffff1982169160148210614445575b505060601c90565b6bffffffffffffffffffffffff1960149290920360031b82901b161690505f8061443d565b805182820152602001614411565b969483869482949a9896939a6040519b8c9b63ffffffff60e01b1660208d015261ffff60f01b1660248c015260268b0137880191602683015f81523701602601915f83528237019063ffffffff60e01b16815203601b19810182526004016144e09082610313565b6115b8906145c2565b906144f3916148cb565b5f19821461452157816025019182602511611b66570160258101809211611b6657602901809111611b665790565b50505f1990565b90614533818361474c565b92905f1981146145b95760010180600111611b66579291905f915b83831061455c575050505090565b90919293808201808311611b6657614574908461474c565b91905f1983146145ad57806001019283600111611b66576001910101809211611b66576001916145a391611c70565b949301919061454e565b505050505050505f1990565b505050505f1990565b5f602091828151910160025afa5060205f818160025afa505f5190565b60ff166001019060ff8211611b6657565b906145fb5f836148fd565b9160ff83169283156147295761461f5f6108246146198551946145df565b60ff1690565b11614720575f60028403614676575061466f61465c6146566115b8936146445f611c62565b01602001516001600160f01b03191690565b60f01c90565b61ff0060ff8260081c169160081b161790565b61ffff1690565b600484036146e057506146d76146ad6146a76115b8936146955f611c62565b01602001516001600160e01b03191690565b60e01c90565b600881811c62ff00ff1691901b63ff00ff001617601081811b63ffff00001691901c61ffff161790565b63ffffffff1690565b9290600882146146ef57509190565b6115b8919350613ab961471a613aad926147085f611c62565b01602001516001600160c01b03191690565b60c01c90565b505f1991505f90565b50614743919250613f475f61473d926139a0565b60f81c90565b9060ff5f921690565b91909161475983826148fd565b9260ff84169384156147f957614777826108246146198651946145df565b116147ee575f6002850361479c575061465c6146566115b89361464461466f94611c62565b600485036147bb57506146ad6146a76115b8936146956146d794611c62565b939190600883146147cd575b50509190565b6147e692945061471a613aad92614708613ab993611c62565b915f806147c7565b505f1992505f919050565b50614743929350613f479061473d926139a0565b80519081156141b8576020821161482d57602001519060200360031b1c90565b60405162461bcd60e51b815260206004820152602260248201527f42797465732063616e6e6f74206265206d6f7265207468616e20333220627974604482015261657360f01b6064820152608490fd5b908151816009019081600911611b6657106145215760080180600811611b66576148a69161474c565b905f19811461452157806009019182600911611b66576009910101809111611b665790565b908151816025019081602511611b6657106148f45760248101809111611b66576112549161474c565b505f19915f9150565b9060ff61490a82846139a0565b5160f81c1461495f5760fe60ff61492183856139a0565b8160f81b90511660f81c16146149585761493f60ff9160fd936139a0565b8160f81b90511660f81c1614614953575f90565b600290565b5050600490565b505060089056fec2575a0e9e593c00f959f8c92f12db2869c3395a3b0502d05e2516446f71f85b9016d09d72d40fdae2fd8ceac6b6234c7706214fd39c1cd1e609a0528c199300237e158222e3e6968b72b9db0d8043aacf074ad9f650f0d1606b4d82ee432c00","linkReferences":{}},"methodIdentifiers":{"CODESEP_POS()":"b2497e70","EPOCH()":"a0dc2758","INPUT_INDEX()":"428bcd35","KEY_VERSION()":"1369ac3e","LIGHT_CLIENT()":"e613ae00","SCHNORR_VERIFIER_PRECOMPILE()":"9a4f308d","SIGHASH_ALL_HASH_TYPE()":"0bd89ab7","SIGHASH_SINGLE_ANYONECANPAY_HASH_TYPE()":"6cf7d641","SPEND_TYPE_EXT()":"23dacd29","SPEND_TYPE_NO_EXT()":"092ac5d4","SYSTEM_CALLER()":"d761753e","acceptOwnership()":"79ba5097","batchWithdraw(bytes32[],bytes4[])":"19854623","deposit((bytes4,bytes2,bytes,bytes,bytes,bytes4),(bytes,uint256,uint256),bytes32)":"fb11d7b9","depositAmount()":"419759f5","depositPrefix()":"5b4f894d","depositSuffix()":"8752b6b2","depositTxIds(uint256)":"06592167","failedDepositVault()":"a670e7ed","getAggregatedKey()":"3c918b6c","getWithdrawalCount()":"781952a8","initialize(bytes,bytes,uint256)":"41260137","initialized()":"158ef93e","operator()":"570ca735","owner()":"8da5cb5b","pendingOwner()":"e30c3978","processedTxIds(bytes32)":"4379caa5","renounceOwnership()":"715018a6","replaceDeposit((bytes4,bytes2,bytes,bytes,bytes,bytes4),(bytes,uint256,uint256),uint256,bytes32)":"2594f107","replacePrefix()":"6b0b5a94","replaceSuffix()":"f42cb4fc","safeWithdraw((bytes4,bytes2,bytes,bytes,bytes,bytes4),(bytes,uint256,uint256),(bytes4,bytes2,bytes,bytes,bytes,bytes4),bytes,bytes)":"9072f747","setDepositScript(bytes,bytes)":"f8e655d2","setFailedDepositVault(address)":"85fb7151","setOperator(address)":"b3ab15fb","setReplaceScript(bytes,bytes)":"7ec9732a","transferOwnership(address)":"f2fde38b","withdraw(bytes32,bytes4)":"8786dba7","withdrawalUTXOs(uint256)":"471ba1e3"},"id":45}