{"abi":[{"type":"function","name":"LIGHT_CLIENT","inputs":[],"outputs":[{"name":"","type":"address","internalType":"contract BitcoinLightClient"}],"stateMutability":"view"},{"type":"function","name":"SYSTEM_CALLER","inputs":[],"outputs":[{"name":"","type":"address","internalType":"address"}],"stateMutability":"view"},{"type":"function","name":"acceptOwnership","inputs":[],"outputs":[],"stateMutability":"nonpayable"},{"type":"function","name":"batchWithdraw","inputs":[{"name":"txIds","type":"bytes32[]","internalType":"bytes32[]"},{"name":"outputIds","type":"bytes4[]","internalType":"bytes4[]"}],"outputs":[],"stateMutability":"payable"},{"type":"function","name":"deposit","inputs":[{"name":"moveTp","type":"tuple","internalType":"struct Bridge.TransactionParams","components":[{"name":"version","type":"bytes4","internalType":"bytes4"},{"name":"flag","type":"bytes2","internalType":"bytes2"},{"name":"vin","type":"bytes","internalType":"bytes"},{"name":"vout","type":"bytes","internalType":"bytes"},{"name":"witness","type":"bytes","internalType":"bytes"},{"name":"locktime","type":"bytes4","internalType":"bytes4"},{"name":"intermediate_nodes","type":"bytes","internalType":"bytes"},{"name":"block_height","type":"uint256","internalType":"uint256"},{"name":"index","type":"uint256","internalType":"uint256"}]}],"outputs":[],"stateMutability":"nonpayable"},{"type":"function","name":"depositAmount","inputs":[],"outputs":[{"name":"","type":"uint256","internalType":"uint256"}],"stateMutability":"view"},{"type":"function","name":"depositTxIds","inputs":[{"name":"","type":"uint256","internalType":"uint256"}],"outputs":[{"name":"","type":"bytes32","internalType":"bytes32"}],"stateMutability":"view"},{"type":"function","name":"getWithdrawalCount","inputs":[],"outputs":[{"name":"","type":"uint256","internalType":"uint256"}],"stateMutability":"view"},{"type":"function","name":"initialize","inputs":[{"name":"_scriptPrefix","type":"bytes","internalType":"bytes"},{"name":"_scriptSuffix","type":"bytes","internalType":"bytes"},{"name":"_depositAmount","type":"uint256","internalType":"uint256"}],"outputs":[],"stateMutability":"nonpayable"},{"type":"function","name":"initialized","inputs":[],"outputs":[{"name":"","type":"bool","internalType":"bool"}],"stateMutability":"view"},{"type":"function","name":"operator","inputs":[],"outputs":[{"name":"","type":"address","internalType":"address"}],"stateMutability":"view"},{"type":"function","name":"owner","inputs":[],"outputs":[{"name":"","type":"address","internalType":"address"}],"stateMutability":"view"},{"type":"function","name":"pendingOwner","inputs":[],"outputs":[{"name":"","type":"address","internalType":"address"}],"stateMutability":"view"},{"type":"function","name":"processedTxIds","inputs":[{"name":"","type":"bytes32","internalType":"bytes32"}],"outputs":[{"name":"","type":"bool","internalType":"bool"}],"stateMutability":"view"},{"type":"function","name":"renounceOwnership","inputs":[],"outputs":[],"stateMutability":"nonpayable"},{"type":"function","name":"scriptPrefix","inputs":[],"outputs":[{"name":"","type":"bytes","internalType":"bytes"}],"stateMutability":"view"},{"type":"function","name":"scriptSuffix","inputs":[],"outputs":[{"name":"","type":"bytes","internalType":"bytes"}],"stateMutability":"view"},{"type":"function","name":"setDepositScript","inputs":[{"name":"_scriptPrefix","type":"bytes","internalType":"bytes"},{"name":"_scriptSuffix","type":"bytes","internalType":"bytes"}],"outputs":[],"stateMutability":"nonpayable"},{"type":"function","name":"setOperator","inputs":[{"name":"_operator","type":"address","internalType":"address"}],"outputs":[],"stateMutability":"nonpayable"},{"type":"function","name":"transferOwnership","inputs":[{"name":"newOwner","type":"address","internalType":"address"}],"outputs":[],"stateMutability":"nonpayable"},{"type":"function","name":"withdraw","inputs":[{"name":"txId","type":"bytes32","internalType":"bytes32"},{"name":"outputId","type":"bytes4","internalType":"bytes4"}],"outputs":[],"stateMutability":"payable"},{"type":"function","name":"withdrawalUTXOs","inputs":[{"name":"","type":"uint256","internalType":"uint256"}],"outputs":[{"name":"txId","type":"bytes32","internalType":"bytes32"},{"name":"outputId","type":"bytes4","internalType":"bytes4"}],"stateMutability":"view"},{"type":"event","name":"Deposit","inputs":[{"name":"wtxId","type":"bytes32","indexed":false,"internalType":"bytes32"},{"name":"txId","type":"bytes32","indexed":false,"internalType":"bytes32"},{"name":"recipient","type":"address","indexed":false,"internalType":"address"},{"name":"timestamp","type":"uint256","indexed":false,"internalType":"uint256"},{"name":"depositId","type":"uint256","indexed":false,"internalType":"uint256"}],"anonymous":false},{"type":"event","name":"DepositScriptUpdate","inputs":[{"name":"scriptPrefix","type":"bytes","indexed":false,"internalType":"bytes"},{"name":"scriptSuffix","type":"bytes","indexed":false,"internalType":"bytes"}],"anonymous":false},{"type":"event","name":"Initialized","inputs":[{"name":"version","type":"uint64","indexed":false,"internalType":"uint64"}],"anonymous":false},{"type":"event","name":"OperatorUpdated","inputs":[{"name":"oldOperator","type":"address","indexed":false,"internalType":"address"},{"name":"newOperator","type":"address","indexed":false,"internalType":"address"}],"anonymous":false},{"type":"event","name":"OwnershipTransferStarted","inputs":[{"name":"previousOwner","type":"address","indexed":true,"internalType":"address"},{"name":"newOwner","type":"address","indexed":true,"internalType":"address"}],"anonymous":false},{"type":"event","name":"OwnershipTransferred","inputs":[{"name":"previousOwner","type":"address","indexed":true,"internalType":"address"},{"name":"newOwner","type":"address","indexed":true,"internalType":"address"}],"anonymous":false},{"type":"event","name":"Withdrawal","inputs":[{"name":"utxo","type":"tuple","indexed":false,"internalType":"struct Bridge.UTXO","components":[{"name":"txId","type":"bytes32","internalType":"bytes32"},{"name":"outputId","type":"bytes4","internalType":"bytes4"}]},{"name":"index","type":"uint256","indexed":false,"internalType":"uint256"},{"name":"timestamp","type":"uint256","indexed":false,"internalType":"uint256"}],"anonymous":false},{"type":"error","name":"InvalidInitialization","inputs":[]},{"type":"error","name":"NotInitializing","inputs":[]},{"type":"error","name":"OwnableInvalidOwner","inputs":[{"name":"owner","type":"address","internalType":"address"}]},{"type":"error","name":"OwnableUnauthorizedAccount","inputs":[{"name":"account","type":"address","internalType":"address"}]}],"bytecode":{"object":"0x6080604052348015600e575f5ffd5b506126df8061001c5f395ff3fe608060405260043610610131575f3560e01c80638786dba7116100a8578063d761753e1161006d578063d761753e14610335578063dd95c7c61461035c578063e30c39781461037b578063e613ae001461038f578063f2fde38b146103a9578063f8e655d2146103c8575f5ffd5b80638786dba7146102ba57806387f8bf56146102cd5780638da5cb5b146102ee578063a41c5cf314610302578063b3ab15fb14610316575f5ffd5b80634379caa5116100f95780634379caa5146101d8578063471ba1e314610206578063570ca73514610243578063715018a61461027e578063781952a81461029257806379ba5097146102a6575f5ffd5b80630659216714610135578063158ef93e14610167578063198546231461018f57806341260137146101a4578063419759f5146101c3575b5f5ffd5b348015610140575f5ffd5b5061015461014f36600461200e565b6103e7565b6040519081526020015b60405180910390f35b348015610172575f5ffd5b505f5461017f9060ff1681565b604051901515815260200161015e565b6101a261019d366004612065565b610406565b005b3480156101af575f5ffd5b506101a26101be36600461210c565b6105dc565b3480156101ce575f5ffd5b5061015460015481565b3480156101e3575f5ffd5b5061017f6101f236600461200e565b60076020525f908152604090205460ff1681565b348015610211575f5ffd5b5061022561022036600461200e565b610814565b604080519283526001600160e01b031990911660208301520161015e565b34801561024e575f5ffd5b505f546102669061010090046001600160a01b031681565b6040516001600160a01b03909116815260200161015e565b348015610289575f5ffd5b506101a2610843565b34801561029d575f5ffd5b50600554610154565b3480156102b1575f5ffd5b506101a2610856565b6101a26102c8366004612199565b61089e565b3480156102d8575f5ffd5b506102e16109c4565b60405161015e91906121c3565b3480156102f9575f5ffd5b50610266610a50565b34801561030d575f5ffd5b506102e1610a84565b348015610321575f5ffd5b506101a26103303660046121f8565b610a91565b348015610340575f5ffd5b5061026673deaddeaddeaddeaddeaddeaddeaddeaddeaddead81565b348015610367575f5ffd5b506101a261037636600461221e565b610b01565b348015610386575f5ffd5b50610266611034565b34801561039a575f5ffd5b506102666001603160981b0181565b3480156103b4575f5ffd5b506101a26103c33660046121f8565b61105c565b3480156103d3575f5ffd5b506101a26103e2366004612255565b6110e1565b600681815481106103f6575f80fd5b5f91825260209091200154905081565b82811461044c5760405162461bcd60e51b815260206004820152600f60248201526e098cadccee8d040dad2e6dac2e8c6d608b1b60448201526064015b60405180910390fd5b60015461045a9084906122c7565b34146104a25760405162461bcd60e51b8152602060048201526017602482015276125b9d985b1a59081dda5d1a191c985dc8185b5bdd5b9d604a1b6044820152606401610443565b6005545f5b848110156105d4575f60405180604001604052808888858181106104cd576104cd6122de565b9050602002013581526020018686858181106104eb576104eb6122de565b905060200201602081019061050091906122f2565b6001600160e01b0319169052600580546001810182555f9190915281517f036b6384b5eca791c62761152d0c79bb0604c104a5fb6f4eb0703f3154bb3db060029092029182015560208201517f036b6384b5eca791c62761152d0c79bb0604c104a5fb6f4eb0703f3154bb3db1909101805463ffffffff191660e09290921c91909117905590507f3311a04a346a103ac115cca33028a2bc82f1964805860d0d3fc84a2772496ada816105b3848661230b565b426040516105c39392919061231e565b60405180910390a1506001016104a7565b505050505050565b3373deaddeaddeaddeaddeaddeaddeaddeaddeaddead1461063f5760405162461bcd60e51b815260206004820152601f60248201527f63616c6c6572206973206e6f74207468652073797374656d2063616c6c6572006044820152606401610443565b5f5460ff16156106915760405162461bcd60e51b815260206004820152601f60248201527f436f6e747261637420697320616c726561647920696e697469616c697a6564006044820152606401610443565b805f036106e05760405162461bcd60e51b815260206004820152601a60248201527f4465706f73697420616d6f756e742063616e6e6f7420626520300000000000006044820152606401610443565b5f8490036107305760405162461bcd60e51b815260206004820152601e60248201527f4465706f736974207363726970742063616e6e6f7420626520656d70747900006044820152606401610443565b5f805460ff1916600117905560036107498587836123e4565b5060046107578385836123e4565b5060018190555f8054610100600160a81b03191674deaddeaddeaddeaddeaddeaddeaddeaddeaddead001781556040805191825273deaddeaddeaddeaddeaddeaddeaddeaddeaddead60208301527ffbe5b6cbafb274f445d7fed869dc77a838d8243a22c460de156560e8857cad03910160405180910390a17f80bd1fdfe157286ce420ee763f91748455b249605748e5df12dad9844402bafc8585858560405161080594939291906124c5565b60405180910390a15050505050565b60058181548110610823575f80fd5b5f9182526020909120600290910201805460019091015490915060e01b82565b61084b61118a565b6108545f6111bc565b565b3380610860611034565b6001600160a01b0316146108925760405163118cdaa760e01b81526001600160a01b0382166004820152602401610443565b61089b816111bc565b50565b60015434146108e95760405162461bcd60e51b8152602060048201526017602482015276125b9d985b1a59081dda5d1a191c985dc8185b5bdd5b9d604a1b6044820152606401610443565b6040805180820182528381526001600160e01b0319831660208201908152600580546001810182555f9190915282517f036b6384b5eca791c62761152d0c79bb0604c104a5fb6f4eb0703f3154bb3db0600283029081019190915591517f036b6384b5eca791c62761152d0c79bb0604c104a5fb6f4eb0703f3154bb3db1909201805463ffffffff191660e09390931c9290921790915591519091907f3311a04a346a103ac115cca33028a2bc82f1964805860d0d3fc84a2772496ada906109b69084908490429061231e565b60405180910390a150505050565b600480546109d190612360565b80601f01602080910402602001604051908101604052809291908181526020018280546109fd90612360565b8015610a485780601f10610a1f57610100808354040283529160200191610a48565b820191905f5260205f20905b815481529060010190602001808311610a2b57829003601f168201915b505050505081565b5f807f9016d09d72d40fdae2fd8ceac6b6234c7706214fd39c1cd1e609a0528c1993005b546001600160a01b031692915050565b600380546109d190612360565b610a9961118a565b5f8054610100600160a81b0319166101006001600160a01b038481168281029390931793849055604080519290940416815260208101919091527ffbe5b6cbafb274f445d7fed869dc77a838d8243a22c460de156560e8857cad03910160405180910390a150565b5f5461010090046001600160a01b03163314610b5f5760405162461bcd60e51b815260206004820152601a60248201527f63616c6c6572206973206e6f7420746865206f70657261746f720000000000006044820152606401610443565b5f5f610b6a836111f8565b9150915080600114610bb75760405162461bcd60e51b815260206004820152601660248201527513db9b1e481bdb99481a5b9c1d5d08185b1b1bddd95960521b6044820152606401610443565b5f610c5f610bc860208601866122f2565b610bd560408701876124eb565b8080601f0160208091040260200160405190810160405280939291908181526020018383808284375f92019190915250610c169250505060608801886124eb565b8080601f0160208091040260200160405190810160405280939291908181526020018383808284375f92019190915250610c5a9250505060c0890160a08a016122f2565b61154d565b5f8181526007602052604090205490915060ff1615610cb55760405162461bcd60e51b81526020600482015260126024820152711d1e125908185b1c9958591e481cdc195b9d60721b6044820152606401610443565b5f818152600760205260408120805460ff1916600190811790915560068054918201815582527ff652222313e28459528d920b65115c16c04f3efc82aaedc97be59f3f377c0d3f01829055610d49610d1060808701876124eb565b8080601f0160208091040260200160405190810160405280939291908181526020018383808284375f9201829052509250611585915050565b90505f610d5582611666565b91505080600314610da05760405162461bcd60e51b8152602060048201526015602482015274496e76616c6964207769746e657373206974656d7360581b6044820152606401610443565b5f610dac83600161167b565b90505f60038054610dbc90612360565b91505f9050610dcc838284611842565b9050610e608160038054610ddf90612360565b80601f0160208091040260200160405190810160405280929190818152602001828054610e0b90612360565b8015610e565780601f10610e2d57610100808354040283529160200191610e56565b820191905f5260205f20905b815481529060010190602001808311610e3957829003601f168201915b5050505050611903565b610ea55760405162461bcd60e51b8152602060048201526016602482015275125b9d985b1a590819195c1bdcda5d081cd8dc9a5c1d60521b6044820152606401610443565b5f610ed860048054610eb690612360565b8651610ec2925061252d565b60048054610ecf90612360565b87929150611842565b9050610eeb8160048054610ddf90612360565b610f2f5760405162461bcd60e51b8152602060048201526015602482015274092dcecc2d8d2c840e6c6e4d2e0e840e6eaccccd2f605b1b6044820152606401610443565b5f610f39856119d4565b600254604080518d8152602081018c90526001600160a01b038416818301524260608201526080810192909252519192507fa82453ca34121b3ecb910d957824e27c5dc6465315949facd15fb72886490058919081900360a00190a16001546040515f916001600160a01b038416918381818185875af1925050503d805f8114610fde576040519150601f19603f3d011682016040523d82523d5f602084013e610fe3565b606091505b50509050806110265760405162461bcd60e51b815260206004820152600f60248201526e151c985b9cd9995c8819985a5b1959608a1b6044820152606401610443565b505050505050505050505050565b5f807f237e158222e3e6968b72b9db0d8043aacf074ad9f650f0d1606b4d82ee432c00610a74565b61106461118a565b7f237e158222e3e6968b72b9db0d8043aacf074ad9f650f0d1606b4d82ee432c0080546001600160a01b0319166001600160a01b03831690811782556110a8610a50565b6001600160a01b03167f38d16b8cac22d99fc7c124b9cd0de2d3fa1faef420bfe791d8c362d765e2270060405160405180910390a35050565b6110e961118a565b5f8390036111395760405162461bcd60e51b815260206004820152601e60248201527f4465706f736974207363726970742063616e6e6f7420626520656d70747900006044820152606401610443565b60036111468486836123e4565b5060046111548284836123e4565b507f80bd1fdfe157286ce420ee763f91748455b249605748e5df12dad9844402bafc848484846040516109b694939291906124c5565b33611193610a50565b6001600160a01b0316146108545760405163118cdaa760e01b8152336004820152602401610443565b7f237e158222e3e6968b72b9db0d8043aacf074ad9f650f0d1606b4d82ee432c0080546001600160a01b03191681556111f482611a08565b5050565b5f808061125761120b60208601866122f2565b61121b6040870160208801612540565b61122860408801886124eb565b61123560608a018a6124eb565b61124260808c018c6124eb565b61125260c08e0160a08f016122f2565b611a78565b90506112a261126960408601866124eb565b8080601f0160208091040260200160405190810160405280939291908181526020018383808284375f92019190915250611aab92505050565b6112ee5760405162461bcd60e51b815260206004820152601d60248201527f56696e206973206e6f742070726f7065726c7920666f726d61747465640000006044820152606401610443565b6113376112fe60608601866124eb565b8080601f0160208091040260200160405190810160405280939291908181526020018383808284375f92019190915250611b4592505050565b6113835760405162461bcd60e51b815260206004820152601e60248201527f566f7574206973206e6f742070726f7065726c7920666f726d617474656400006044820152606401610443565b5f6113cd61139460408701876124eb565b8080601f0160208091040260200160405190810160405280939291908181526020018383808284375f9201919091525061166692505050565b915061141c90506113e160808701876124eb565b8080601f0160208091040260200160405190810160405280939291908181526020018383808284375f92019190915250859250611bd2915050565b6114725760405162461bcd60e51b815260206004820152602160248201527f5769746e657373206973206e6f742070726f7065726c7920666f726d617474656044820152601960fa1b6064820152608401610443565b6001603160981b01634ffd344a60e08701358461149260c08a018a6124eb565b8a61010001356040518663ffffffff1660e01b81526004016114b8959493929190612567565b602060405180830381865afa1580156114d3573d5f5f3e3d5ffd5b505050506040513d601f19601f820116820180604052508101906114f79190612598565b6115435760405162461bcd60e51b815260206004820152601b60248201527f5472616e73616374696f6e206973206e6f7420696e20626c6f636b00000000006044820152606401610443565b9094909350915050565b5f61157c8585858560405160200161156894939291906125ce565b604051602081830303815290604052611c3f565b95945050505050565b60605f80805b848110156115fb5761159d8683611c61565b92505f1983036115e75760405162461bcd60e51b815260206004820152601560248201527442616420566172496e7420696e207769746e65737360581b6044820152606401610443565b6115f1838361230b565b915060010161158b565b506116068582611c61565b91505f1982036116505760405162461bcd60e51b815260206004820152601560248201527442616420566172496e7420696e207769746e65737360581b6044820152606401610443565b61165b858284611842565b925050505b92915050565b5f5f611672835f611d02565b91509150915091565b60605f5f61168885611666565b9092509050600182016116e85760405162461bcd60e51b815260206004820152602260248201527f52656164206f76657272756e20647572696e6720566172496e742070617273696044820152616e6760f01b6064820152608401610443565b80841061172a5760405162461bcd60e51b815260206004820152601060248201526f2b34b7103932b0b21037bb32b9393ab760811b6044820152606401610443565b5f8061173784600161230b565b90505f5b868110156117c15761174d8883611d02565b9095509250600183016117975760405162461bcd60e51b815260206004820152601260248201527142616420566172496e7420696e206974656d60701b6044820152606401610443565b826117a386600161230b565b6117ad919061230b565b6117b7908361230b565b915060010161173b565b506117cc8782611d02565b9094509150600182016118165760405162461bcd60e51b815260206004820152601260248201527142616420566172496e7420696e206974656d60701b6044820152606401610443565b61183781611824868561230b565b61182f90600161230b565b899190611842565b979650505050505050565b6060815f0361185f575060408051602081019091525f81526118fc565b5f61186a838561230b565b9050838111801561187c575080855110155b6118be5760405162461bcd60e51b8152602060048201526013602482015272536c696365206f7574206f6620626f756e647360681b6044820152606401610443565b604051915082604083010160405282825283850182038460208701018481015b808210156118f7578151838301526020820191506118de565b505050505b9392505050565b815181515f91908114611919575f915050611660565b60205f805b83831161194d5750508481015184820151602090920191808214611948575f945050505050611660565b61191e565b5f61195960208561252d565b90505b848110156119c657868181518110611976576119766122de565b602001015160f81c60f81b6001600160f81b03191688828151811061199d5761199d6122de565b01602001516001600160f81b031916146119be575f95505050505050611660565b60010161195c565b506001979650505050505050565b5f5f600380546119e390612360565b91505f90506119f484836014611842565b6119fd9061260d565b60601c949350505050565b7f9016d09d72d40fdae2fd8ceac6b6234c7706214fd39c1cd1e609a0528c19930080546001600160a01b031981166001600160a01b03848116918217845560405192169182907f8be0079c531659141344cd1fd0a4f28419497f9722a3daafe3b4186f6b6457e0905f90a3505050565b5f611a9d8a8a8a8a8a8a8a8a8a60405160200161156899989796959493929190612660565b9a9950505050505050505050565b5f5f5f611ab784611666565b9092509050801580611ac957505f1982145b15611ad757505f9392505050565b5f611ae383600161230b565b90505f5b82811015611b385785518210611b0257505f95945050505050565b5f611b0d8784611e9d565b90505f198103611b2357505f9695505050505050565b611b2d818461230b565b925050600101611ae7565b5093519093149392505050565b5f5f5f611b5184611666565b9092509050801580611b6357505f1982145b15611b7157505f9392505050565b5f611b7d83600161230b565b90505f5b82811015611b385785518210611b9c57505f95945050505050565b5f611ba78784611ee3565b90505f198103611bbd57505f9695505050505050565b611bc7818461230b565b925050600101611b81565b5f815f03611be157505f611660565b5f805b83811015611c335784518210611bfe575f92505050611660565b5f611c098684611c61565b90505f198103611c1e575f9350505050611660565b611c28818461230b565b925050600101611be4565b50835114905092915050565b5f60205f83516020850160025afa5060205f60205f60025afa50505f51919050565b5f5f5f611c6e8585611d02565b909250905060018201611c86575f1992505050611660565b5f80611c9384600161230b565b90505f5b83811015611cf757611cb288611cad848a61230b565b611d02565b909550925060018301611ccd575f1995505050505050611660565b82611cd986600161230b565b611ce3919061230b565b611ced908361230b565b9150600101611c97565b509695505050505050565b5f5f5f611d0f8585611f3e565b90508060ff165f03611d42575f858581518110611d2e57611d2e6122de565b016020015190935060f81c9150611e969050565b83611d4e8260016126c6565b60ff16611d5b919061230b565b85511015611d70575f195f9250925050611e96565b5f8160ff16600203611db357611da8611d94611d8d87600161230b565b8890611fc2565b62ffff0060e882901c1660f89190911c1790565b61ffff169050611e8c565b8160ff16600403611e0257611df5611dcf611d8d87600161230b565b60d881901c63ff00ff001662ff00ff60e89290921c9190911617601081811b91901c1790565b63ffffffff169050611e8c565b8160ff16600803611e8c57611e80611e1e611d8d87600161230b565b60c01c64ff000000ff600882811c91821665ff000000ff009390911b92831617601090811b6001600160401b031666ff00ff00ff00ff9290921667ff00ff00ff00ff009093169290921790911c65ffff0000ffff1617602081811c91901b1790565b6001600160401b031690505b60ff909116925090505b9250929050565b5f5f5f611eaa8585611fd0565b909250905060018201611ec2575f1992505050611660565b80611ece83602561230b565b611ed8919061230b565b61165b90600461230b565b5f611eef82600961230b565b83511015611eff57505f19611660565b5f80611f1085611cad86600861230b565b909250905060018201611f28575f1992505050611660565b80611f3483600961230b565b61165b919061230b565b5f828281518110611f5157611f516122de565b016020015160f81c60ff03611f6857506008611660565b828281518110611f7a57611f7a6122de565b016020015160f81c60fe03611f9157506004611660565b828281518110611fa357611fa36122de565b016020015160f81c60fd03611fba57506002611660565b505f92915050565b5f6118fc8383016020015190565b5f80611fdd83602561230b565b84511015611ff057505f1990505f611e96565b5f8061200186611cad87602461230b565b9097909650945050505050565b5f6020828403121561201e575f5ffd5b5035919050565b5f5f83601f840112612035575f5ffd5b5081356001600160401b0381111561204b575f5ffd5b6020830191508360208260051b8501011115611e96575f5ffd5b5f5f5f5f60408587031215612078575f5ffd5b84356001600160401b0381111561208d575f5ffd5b61209987828801612025565b90955093505060208501356001600160401b038111156120b7575f5ffd5b6120c387828801612025565b95989497509550505050565b5f5f83601f8401126120df575f5ffd5b5081356001600160401b038111156120f5575f5ffd5b602083019150836020828501011115611e96575f5ffd5b5f5f5f5f5f60608688031215612120575f5ffd5b85356001600160401b03811115612135575f5ffd5b612141888289016120cf565b90965094505060208601356001600160401b0381111561215f575f5ffd5b61216b888289016120cf565b96999598509660400135949350505050565b80356001600160e01b031981168114612194575f5ffd5b919050565b5f5f604083850312156121aa575f5ffd5b823591506121ba6020840161217d565b90509250929050565b602081525f82518060208401528060208501604085015e5f604082850101526040601f19601f83011684010191505092915050565b5f60208284031215612208575f5ffd5b81356001600160a01b03811681146118fc575f5ffd5b5f6020828403121561222e575f5ffd5b81356001600160401b03811115612243575f5ffd5b820161012081850312156118fc575f5ffd5b5f5f5f5f60408587031215612268575f5ffd5b84356001600160401b0381111561227d575f5ffd5b612289878288016120cf565b90955093505060208501356001600160401b038111156122a7575f5ffd5b6120c3878288016120cf565b634e487b7160e01b5f52601160045260245ffd5b8082028115828204841417611660576116606122b3565b634e487b7160e01b5f52603260045260245ffd5b5f60208284031215612302575f5ffd5b6118fc8261217d565b80820180821115611660576116606122b3565b835181526020938401516001600160e01b031916938101939093526040830191909152606082015260800190565b634e487b7160e01b5f52604160045260245ffd5b600181811c9082168061237457607f821691505b60208210810361239257634e487b7160e01b5f52602260045260245ffd5b50919050565b601f8211156123df57805f5260205f20601f840160051c810160208510156123bd5750805b601f840160051c820191505b818110156123dc575f81556001016123c9565b50505b505050565b6001600160401b038311156123fb576123fb61234c565b61240f836124098354612360565b83612398565b5f601f841160018114612440575f85156124295750838201355b5f19600387901b1c1916600186901b1783556123dc565b5f83815260208120601f198716915b8281101561246f578685013582556020948501946001909201910161244f565b508682101561248b575f1960f88860031b161c19848701351681555b505060018560011b0183555050505050565b81835281816020850137505f828201602090810191909152601f909101601f19169091010190565b604081525f6124d860408301868861249d565b828103602084015261183781858761249d565b5f5f8335601e19843603018112612500575f5ffd5b8301803591506001600160401b03821115612519575f5ffd5b602001915036819003821315611e96575f5ffd5b81810381811115611660576116606122b3565b5f60208284031215612550575f5ffd5b81356001600160f01b0319811681146118fc575f5ffd5b858152846020820152608060408201525f61258660808301858761249d565b90508260608301529695505050505050565b5f602082840312156125a8575f5ffd5b815180151581146118fc575f5ffd5b5f81518060208401855e5f93019283525090919050565b6001600160e01b0319851681525f6125f26125ec60048401876125b7565b856125b7565b6001600160e01b031993909316835250506004019392505050565b805160208201516bffffffffffffffffffffffff19811691906014821015612659576bffffffffffffffffffffffff196bffffffffffffffffffffffff198360140360031b1b82161692505b5050919050565b6001600160e01b03198a1681526001600160f01b031989166004820152868860068301375f878201600681015f815287898237505f908701600601908152848682376001600160e01b031993909316929093019182525060040198975050505050505050565b60ff8181168382160190811115611660576116606122b356","linkReferences":{}},"methodIdentifiers":{"LIGHT_CLIENT()":"e613ae00","SYSTEM_CALLER()":"d761753e","acceptOwnership()":"79ba5097","batchWithdraw(bytes32[],bytes4[])":"19854623","deposit((bytes4,bytes2,bytes,bytes,bytes,bytes4,bytes,uint256,uint256))":"dd95c7c6","depositAmount()":"419759f5","depositTxIds(uint256)":"06592167","getWithdrawalCount()":"781952a8","initialize(bytes,bytes,uint256)":"41260137","initialized()":"158ef93e","operator()":"570ca735","owner()":"8da5cb5b","pendingOwner()":"e30c3978","processedTxIds(bytes32)":"4379caa5","renounceOwnership()":"715018a6","scriptPrefix()":"a41c5cf3","scriptSuffix()":"87f8bf56","setDepositScript(bytes,bytes)":"f8e655d2","setOperator(address)":"b3ab15fb","transferOwnership(address)":"f2fde38b","withdraw(bytes32,bytes4)":"8786dba7","withdrawalUTXOs(uint256)":"471ba1e3"},"id":45}