{"abi":[{"type":"function","name":"LIGHT_CLIENT","inputs":[],"outputs":[{"name":"","type":"address","internalType":"contract BitcoinLightClient"}],"stateMutability":"view"},{"type":"function","name":"SYSTEM_CALLER","inputs":[],"outputs":[{"name":"","type":"address","internalType":"address"}],"stateMutability":"view"},{"type":"function","name":"acceptOwnership","inputs":[],"outputs":[],"stateMutability":"nonpayable"},{"type":"function","name":"batchWithdraw","inputs":[{"name":"txIds","type":"bytes32[]","internalType":"bytes32[]"},{"name":"outputIds","type":"bytes4[]","internalType":"bytes4[]"}],"outputs":[],"stateMutability":"payable"},{"type":"function","name":"declareWithdrawFiller","inputs":[{"name":"withdrawTp","type":"tuple","internalType":"struct Bridge.TransactionParams","components":[{"name":"version","type":"bytes4","internalType":"bytes4"},{"name":"flag","type":"bytes2","internalType":"bytes2"},{"name":"vin","type":"bytes","internalType":"bytes"},{"name":"vout","type":"bytes","internalType":"bytes"},{"name":"witness","type":"bytes","internalType":"bytes"},{"name":"locktime","type":"bytes4","internalType":"bytes4"},{"name":"intermediate_nodes","type":"bytes","internalType":"bytes"},{"name":"block_height","type":"uint256","internalType":"uint256"},{"name":"index","type":"uint256","internalType":"uint256"}]},{"name":"inputIndex","type":"uint256","internalType":"uint256"},{"name":"withdrawId","type":"uint256","internalType":"uint256"}],"outputs":[],"stateMutability":"nonpayable"},{"type":"function","name":"deposit","inputs":[{"name":"moveTp","type":"tuple","internalType":"struct Bridge.TransactionParams","components":[{"name":"version","type":"bytes4","internalType":"bytes4"},{"name":"flag","type":"bytes2","internalType":"bytes2"},{"name":"vin","type":"bytes","internalType":"bytes"},{"name":"vout","type":"bytes","internalType":"bytes"},{"name":"witness","type":"bytes","internalType":"bytes"},{"name":"locktime","type":"bytes4","internalType":"bytes4"},{"name":"intermediate_nodes","type":"bytes","internalType":"bytes"},{"name":"block_height","type":"uint256","internalType":"uint256"},{"name":"index","type":"uint256","internalType":"uint256"}]}],"outputs":[],"stateMutability":"nonpayable"},{"type":"function","name":"depositAmount","inputs":[],"outputs":[{"name":"","type":"uint256","internalType":"uint256"}],"stateMutability":"view"},{"type":"function","name":"getWithdrawalCount","inputs":[],"outputs":[{"name":"","type":"uint256","internalType":"uint256"}],"stateMutability":"view"},{"type":"function","name":"initialize","inputs":[{"name":"_scriptPrefix","type":"bytes","internalType":"bytes"},{"name":"_scriptSuffix","type":"bytes","internalType":"bytes"},{"name":"_depositAmount","type":"uint256","internalType":"uint256"}],"outputs":[],"stateMutability":"nonpayable"},{"type":"function","name":"initialized","inputs":[],"outputs":[{"name":"","type":"bool","internalType":"bool"}],"stateMutability":"view"},{"type":"function","name":"isOperatorMalicious","inputs":[{"name":"","type":"uint256","internalType":"uint256"}],"outputs":[{"name":"","type":"bool","internalType":"bool"}],"stateMutability":"view"},{"type":"function","name":"markMaliciousOperator","inputs":[{"name":"slashOrTakeTp","type":"tuple","internalType":"struct Bridge.TransactionParams","components":[{"name":"version","type":"bytes4","internalType":"bytes4"},{"name":"flag","type":"bytes2","internalType":"bytes2"},{"name":"vin","type":"bytes","internalType":"bytes"},{"name":"vout","type":"bytes","internalType":"bytes"},{"name":"witness","type":"bytes","internalType":"bytes"},{"name":"locktime","type":"bytes4","internalType":"bytes4"},{"name":"intermediate_nodes","type":"bytes","internalType":"bytes"},{"name":"block_height","type":"uint256","internalType":"uint256"},{"name":"index","type":"uint256","internalType":"uint256"}]}],"outputs":[],"stateMutability":"nonpayable"},{"type":"function","name":"operator","inputs":[],"outputs":[{"name":"","type":"address","internalType":"address"}],"stateMutability":"view"},{"type":"function","name":"owner","inputs":[],"outputs":[{"name":"","type":"address","internalType":"address"}],"stateMutability":"view"},{"type":"function","name":"pendingOwner","inputs":[],"outputs":[{"name":"","type":"address","internalType":"address"}],"stateMutability":"view"},{"type":"function","name":"renounceOwnership","inputs":[],"outputs":[],"stateMutability":"nonpayable"},{"type":"function","name":"scriptPrefix","inputs":[],"outputs":[{"name":"","type":"bytes","internalType":"bytes"}],"stateMutability":"view"},{"type":"function","name":"scriptSuffix","inputs":[],"outputs":[{"name":"","type":"bytes","internalType":"bytes"}],"stateMutability":"view"},{"type":"function","name":"setDepositScript","inputs":[{"name":"_scriptPrefix","type":"bytes","internalType":"bytes"},{"name":"_scriptSuffix","type":"bytes","internalType":"bytes"}],"outputs":[],"stateMutability":"nonpayable"},{"type":"function","name":"setOperator","inputs":[{"name":"_operator","type":"address","internalType":"address"}],"outputs":[],"stateMutability":"nonpayable"},{"type":"function","name":"setSlashOrTakeScript","inputs":[{"name":"_slashOrTakeScript","type":"bytes","internalType":"bytes"}],"outputs":[],"stateMutability":"nonpayable"},{"type":"function","name":"slashOrTakeScript","inputs":[],"outputs":[{"name":"","type":"bytes","internalType":"bytes"}],"stateMutability":"view"},{"type":"function","name":"transferOwnership","inputs":[{"name":"newOwner","type":"address","internalType":"address"}],"outputs":[],"stateMutability":"nonpayable"},{"type":"function","name":"txIdToDepositId","inputs":[{"name":"","type":"bytes32","internalType":"bytes32"}],"outputs":[{"name":"","type":"uint256","internalType":"uint256"}],"stateMutability":"view"},{"type":"function","name":"withdraw","inputs":[{"name":"txId","type":"bytes32","internalType":"bytes32"},{"name":"outputId","type":"bytes4","internalType":"bytes4"}],"outputs":[],"stateMutability":"payable"},{"type":"function","name":"withdrawFillers","inputs":[{"name":"","type":"uint256","internalType":"uint256"}],"outputs":[{"name":"","type":"uint256","internalType":"uint256"}],"stateMutability":"view"},{"type":"function","name":"withdrawalUTXOs","inputs":[{"name":"","type":"uint256","internalType":"uint256"}],"outputs":[{"name":"txId","type":"bytes32","internalType":"bytes32"},{"name":"outputId","type":"bytes4","internalType":"bytes4"}],"stateMutability":"view"},{"type":"event","name":"Deposit","inputs":[{"name":"wtxId","type":"bytes32","indexed":false,"internalType":"bytes32"},{"name":"txId","type":"bytes32","indexed":false,"internalType":"bytes32"},{"name":"recipient","type":"address","indexed":false,"internalType":"address"},{"name":"timestamp","type":"uint256","indexed":false,"internalType":"uint256"},{"name":"depositId","type":"uint256","indexed":false,"internalType":"uint256"}],"anonymous":false},{"type":"event","name":"DepositScriptUpdate","inputs":[{"name":"scriptPrefix","type":"bytes","indexed":false,"internalType":"bytes"},{"name":"scriptSuffix","type":"bytes","indexed":false,"internalType":"bytes"}],"anonymous":false},{"type":"event","name":"Initialized","inputs":[{"name":"version","type":"uint64","indexed":false,"internalType":"uint64"}],"anonymous":false},{"type":"event","name":"MaliciousOperatorMarked","inputs":[{"name":"operatorId","type":"uint256","indexed":false,"internalType":"uint256"}],"anonymous":false},{"type":"event","name":"OperatorUpdated","inputs":[{"name":"oldOperator","type":"address","indexed":false,"internalType":"address"},{"name":"newOperator","type":"address","indexed":false,"internalType":"address"}],"anonymous":false},{"type":"event","name":"OwnershipTransferStarted","inputs":[{"name":"previousOwner","type":"address","indexed":true,"internalType":"address"},{"name":"newOwner","type":"address","indexed":true,"internalType":"address"}],"anonymous":false},{"type":"event","name":"OwnershipTransferred","inputs":[{"name":"previousOwner","type":"address","indexed":true,"internalType":"address"},{"name":"newOwner","type":"address","indexed":true,"internalType":"address"}],"anonymous":false},{"type":"event","name":"SlashOrTakeScriptUpdate","inputs":[{"name":"slashOrTakeScript","type":"bytes","indexed":false,"internalType":"bytes"}],"anonymous":false},{"type":"event","name":"WithdrawFillerDeclared","inputs":[{"name":"withdrawId","type":"uint256","indexed":false,"internalType":"uint256"},{"name":"withdrawFillerId","type":"uint256","indexed":false,"internalType":"uint256"}],"anonymous":false},{"type":"event","name":"Withdrawal","inputs":[{"name":"utxo","type":"tuple","indexed":false,"internalType":"struct Bridge.UTXO","components":[{"name":"txId","type":"bytes32","internalType":"bytes32"},{"name":"outputId","type":"bytes4","internalType":"bytes4"}]},{"name":"index","type":"uint256","indexed":false,"internalType":"uint256"},{"name":"timestamp","type":"uint256","indexed":false,"internalType":"uint256"}],"anonymous":false},{"type":"error","name":"InvalidInitialization","inputs":[]},{"type":"error","name":"NotInitializing","inputs":[]},{"type":"error","name":"OwnableInvalidOwner","inputs":[{"name":"owner","type":"address","internalType":"address"}]},{"type":"error","name":"OwnableUnauthorizedAccount","inputs":[{"name":"account","type":"address","internalType":"address"}]}],"bytecode":{"object":"0x6080604052348015600e575f5ffd5b506131348061001c5f395ff3fe608060405260043610610195575f3560e01c80638786dba7116100e7578063d761753e11610087578063e613ae0011610062578063e613ae001461046d578063f119a9bd14610487578063f2fde38b146104a6578063f8e655d2146104c5575f5ffd5b8063d761753e14610413578063dd95c7c61461043a578063e30c397814610459575f5ffd5b8063a41c5cf3116100c2578063a41c5cf314610396578063b3ab15fb146103aa578063bafa9eb2146103c9578063c045577b146103e8575f5ffd5b80638786dba71461035b57806387f8bf561461036e5780638da5cb5b14610382575f5ffd5b8063570ca73511610152578063715018a61161012d578063715018a61461030057806374ab4a8314610314578063781952a81461033357806379ba509714610347575f5ffd5b8063570ca735146102855780635d3e3176146102c05780635e3cc740146102e1575f5ffd5b806311e53a0114610199578063158ef93e146101d757806319854623146101ff5780634126013714610214578063419759f514610233578063471ba1e314610248575b5f5ffd5b3480156101a4575f5ffd5b506101c46101b336600461291a565b60276020525f908152604090205481565b6040519081526020015b60405180910390f35b3480156101e2575f5ffd5b505f546101ef9060ff1681565b60405190151581526020016101ce565b61021261020d366004612971565b6104e4565b005b34801561021f575f5ffd5b5061021261022e366004612a18565b6106ba565b34801561023e575f5ffd5b506101c460215481565b348015610253575f5ffd5b5061026761026236600461291a565b6108c2565b604080519283526001600160e01b03199091166020830152016101ce565b348015610290575f5ffd5b505f546102a89061010090046001600160a01b031681565b6040516001600160a01b0390911681526020016101ce565b3480156102cb575f5ffd5b506102d46108f1565b6040516101ce9190612a89565b3480156102ec575f5ffd5b506102126102fb366004612ad5565b61097d565b34801561030b575f5ffd5b50610212610d21565b34801561031f575f5ffd5b5061021261032e366004612b0e565b610d34565b34801561033e575f5ffd5b506026546101c4565b348015610352575f5ffd5b50610212610efc565b610212610369366004612b73565b610f44565b348015610379575f5ffd5b506102d461106a565b34801561038d575f5ffd5b506102a8611077565b3480156103a1575f5ffd5b506102d46110ab565b3480156103b5575f5ffd5b506102126103c4366004612b9d565b6110b8565b3480156103d4575f5ffd5b506101ef6103e336600461291a565b611128565b3480156103f3575f5ffd5b506101c461040236600461291a565b60286020525f908152604090205481565b34801561041e575f5ffd5b506102a873deaddeaddeaddeaddeaddeaddeaddeaddeaddead81565b348015610445575f5ffd5b50610212610454366004612ad5565b611152565b348015610464575f5ffd5b506102a86115a1565b348015610478575f5ffd5b506102a86001603160981b0181565b348015610492575f5ffd5b506102126104a1366004612bc3565b6115c9565b3480156104b1575f5ffd5b506102126104c0366004612b9d565b61163c565b3480156104d0575f5ffd5b506102126104df366004612c01565b6116c1565b82811461052a5760405162461bcd60e51b815260206004820152600f60248201526e098cadccee8d040dad2e6dac2e8c6d608b1b60448201526064015b60405180910390fd5b602154610538908490612c73565b34146105805760405162461bcd60e51b8152602060048201526017602482015276125b9d985b1a59081dda5d1a191c985dc8185b5bdd5b9d604a1b6044820152606401610521565b6026545f5b848110156106b2575f60405180604001604052808888858181106105ab576105ab612c8a565b9050602002013581526020018686858181106105c9576105c9612c8a565b90506020020160208101906105de9190612c9e565b6001600160e01b0319169052602680546001810182555f9190915281517f744a2cf8fd7008e3d53b67916e73460df9fa5214e3ef23dd4259ca09493a359460029092029182015560208201517f744a2cf8fd7008e3d53b67916e73460df9fa5214e3ef23dd4259ca09493a3595909101805463ffffffff191660e09290921c91909117905590507f3311a04a346a103ac115cca33028a2bc82f1964805860d0d3fc84a2772496ada816106918486612cb7565b426040516106a193929190612cca565b60405180910390a150600101610585565b505050505050565b3373deaddeaddeaddeaddeaddeaddeaddeaddeaddead1461071d5760405162461bcd60e51b815260206004820152601f60248201527f63616c6c6572206973206e6f74207468652073797374656d2063616c6c6572006044820152606401610521565b5f5460ff161561076f5760405162461bcd60e51b815260206004820152601f60248201527f436f6e747261637420697320616c726561647920696e697469616c697a6564006044820152606401610521565b805f036107be5760405162461bcd60e51b815260206004820152601a60248201527f4465706f73697420616d6f756e742063616e6e6f7420626520300000000000006044820152606401610521565b5f8490036107de5760405162461bcd60e51b815260040161052190612cf8565b5f805460ff1916600117905560236107f7858783612dc1565b506024610805838583612dc1565b5060218190555f8054610100600160a81b03191674deaddeaddeaddeaddeaddeaddeaddeaddeaddead001781556040805191825273deaddeaddeaddeaddeaddeaddeaddeaddeaddead60208301527ffbe5b6cbafb274f445d7fed869dc77a838d8243a22c460de156560e8857cad03910160405180910390a17f80bd1fdfe157286ce420ee763f91748455b249605748e5df12dad9844402bafc858585856040516108b39493929190612ea2565b60405180910390a15050505050565b602681815481106108d1575f80fd5b5f9182526020909120600290910201805460019091015490915060e01b82565b602580546108fe90612d43565b80601f016020809104026020016040519081016040528092919081815260200182805461092a90612d43565b80156109755780601f1061094c57610100808354040283529160200191610975565b820191905f5260205f20905b81548152906001019060200180831161095857829003601f168201915b505050505081565b6109868161173a565b505f90506109d361099a6060840184612ed3565b8080601f0160208091040260200160405190810160405280939291908181526020018383808284375f92019190915250611a5692505050565b91505f9050610a2e6109e86060850185612ed3565b8080601f0160208091040260200160405190810160405280939291908181526020018383808284375f92019190915250610a29925060019150869050612f15565b611a6b565b90505f610a3a82611bde565b90505f610a51610a4c83836020611c5e565b611d1e565b90505f610a71610a4c6020808651610a699190612f15565b869190611c5e565b5f83815260276020526040812054919250819003610ac85760405162461bcd60e51b815260206004820152601460248201527311195c1bdcda5d08191bc81b9bdd08195e1a5cdd60621b6044820152606401610521565b5f610b12610ad960808a018a612ed3565b8080601f0160208091040260200160405190810160405280939291908181526020018383808284375f9201829052509250611da0915050565b90505f610b20826001611e7f565b90505f60258054610b3090612d43565b91505f9050610b40838284611c5e565b9050610bd48160258054610b5390612d43565b80601f0160208091040260200160405190810160405280929190818152602001828054610b7f90612d43565b8015610bca5780601f10610ba157610100808354040283529160200191610bca565b820191905f5260205f20905b815481529060010190602001808311610bad57829003601f168201915b5050505050612000565b610c205760405162461bcd60e51b815260206004820152601a60248201527f496e76616c696420736c6173684f7254616b65207363726970740000000000006044820152606401610521565b5f602881610c2f600189612f15565b81526020019081526020015f205490505f815f1480610c565750610c52886120d1565b8214155b905080610ca55760405162461bcd60e51b815260206004820152601960248201527f4f70657261746f72206973206e6f74206d616c6963696f7573000000000000006044820152606401610521565b600180896103e88110610cba57610cba612c8a565b602091828204019190066101000a81548160ff0219169083151502179055507ff918cdaebea74c5a8c3b02d7404c162f507551b158202cedcba9b6a74eabdff288604051610d0a91815260200190565b60405180910390a150505050505050505050505050565b610d296120dd565b610d325f61210f565b565b610d3d8361173a565b505f9050610d8c610d516040860186612ed3565b8080601f0160208091040260200160405190810160405280939291908181526020018383808284375f9201919091525087925061214b915050565b90505f610d9882612299565b90505f610da4836122a5565b90505f60268581548110610dba57610dba612c8a565b5f9182526020918290206040805180820190915260029290920201805480835260019091015460e01b6001600160e01b03191692820192909252915083148015610e1b5750816001600160e01b03191681602001516001600160e01b031916145b610e5b5760405162461bcd60e51b81526020600482015260116024820152706e6f74206d61746368696e67205554584f60781b6044820152606401610521565b5f610e6c61099a60608a018a612ed3565b91505f9050610e816109e860608b018b612ed3565b90505f610e8d82611bde565b90505f610e9982611d1e565b9050610ea4816120d1565b5f8a8152602860209081526040918290209290925580518b81529182018390527feedf47c2f61b040827944fd45e44ef6d742354b34e1af7dd99a56f444ec79347910160405180910390a15050505050505050505050565b3380610f066115a1565b6001600160a01b031614610f385760405163118cdaa760e01b81526001600160a01b0382166004820152602401610521565b610f418161210f565b50565b6021543414610f8f5760405162461bcd60e51b8152602060048201526017602482015276125b9d985b1a59081dda5d1a191c985dc8185b5bdd5b9d604a1b6044820152606401610521565b6040805180820182528381526001600160e01b0319831660208201908152602680546001810182555f9190915282517f744a2cf8fd7008e3d53b67916e73460df9fa5214e3ef23dd4259ca09493a3594600283029081019190915591517f744a2cf8fd7008e3d53b67916e73460df9fa5214e3ef23dd4259ca09493a3595909201805463ffffffff191660e09390931c9290921790915591519091907f3311a04a346a103ac115cca33028a2bc82f1964805860d0d3fc84a2772496ada9061105c90849084904290612cca565b60405180910390a150505050565b602480546108fe90612d43565b5f807f9016d09d72d40fdae2fd8ceac6b6234c7706214fd39c1cd1e609a0528c1993005b546001600160a01b031692915050565b602380546108fe90612d43565b6110c06120dd565b5f8054610100600160a81b0319166101006001600160a01b038481168281029390931793849055604080519290940416815260208101919091527ffbe5b6cbafb274f445d7fed869dc77a838d8243a22c460de156560e8857cad03910160405180910390a150565b6001816103e88110611138575f80fd5b60209182820401919006915054906101000a900460ff1681565b5f5461010090046001600160a01b031633146111b05760405162461bcd60e51b815260206004820152601a60248201527f63616c6c6572206973206e6f7420746865206f70657261746f720000000000006044820152606401610521565b5f5f6111bb8361173a565b91509150806001146112085760405162461bcd60e51b815260206004820152601660248201527513db9b1e481bdb99481a5b9c1d5d08185b1b1bddd95960521b6044820152606401610521565b5f6112b06112196020860186612c9e565b6112266040870187612ed3565b8080601f0160208091040260200160405190810160405280939291908181526020018383808284375f92019190915250611267925050506060880188612ed3565b8080601f0160208091040260200160405190810160405280939291908181526020018383808284375f920191909152506112ab9250505060c0890160a08a01612c9e565b6122b1565b5f81815260276020526040902054909150156113035760405162461bcd60e51b81526020600482015260126024820152711d1e125908185b1c9958591e481cdc195b9d60721b6044820152606401610521565b60225f815461131190612f28565b91829055505f82815260276020526040812091909155611337610ad96080870187612ed3565b90505f61134382611a56565b9150508060031461138e5760405162461bcd60e51b8152602060048201526015602482015274496e76616c6964207769746e657373206974656d7360581b6044820152606401610521565b5f61139a836001611e7f565b90505f602380546113aa90612d43565b91505f90506113ba838284611c5e565b90506113cd8160238054610b5390612d43565b6114125760405162461bcd60e51b8152602060048201526016602482015275125b9d985b1a590819195c1bdcda5d081cd8dc9a5c1d60521b6044820152606401610521565b5f6114456024805461142390612d43565b865161142f9250612f15565b6024805461143c90612d43565b87929150611c5e565b90506114588160248054610b5390612d43565b61149c5760405162461bcd60e51b8152602060048201526015602482015274092dcecc2d8d2c840e6c6e4d2e0e840e6eaccccd2f605b1b6044820152606401610521565b5f6114a6856122e0565b602254604080518d8152602081018c90526001600160a01b038416818301524260608201526080810192909252519192507fa82453ca34121b3ecb910d957824e27c5dc6465315949facd15fb72886490058919081900360a00190a16021546040515f916001600160a01b038416918381818185875af1925050503d805f811461154b576040519150601f19603f3d011682016040523d82523d5f602084013e611550565b606091505b50509050806115935760405162461bcd60e51b815260206004820152600f60248201526e151c985b9cd9995c8819985a5b1959608a1b6044820152606401610521565b505050505050505050505050565b5f807f237e158222e3e6968b72b9db0d8043aacf074ad9f650f0d1606b4d82ee432c0061109b565b6115d16120dd565b5f8190036115f15760405162461bcd60e51b815260040161052190612cf8565b60256115fe828483612dc1565b507f8578c80bdea3ff51431011ed88db9cb415de2cf64f9ed5e7137288268cbdeb2c8282604051611630929190612f40565b60405180910390a15050565b6116446120dd565b7f237e158222e3e6968b72b9db0d8043aacf074ad9f650f0d1606b4d82ee432c0080546001600160a01b0319166001600160a01b0383169081178255611688611077565b6001600160a01b03167f38d16b8cac22d99fc7c124b9cd0de2d3fa1faef420bfe791d8c362d765e2270060405160405180910390a35050565b6116c96120dd565b5f8390036116e95760405162461bcd60e51b815260040161052190612cf8565b60236116f6848683612dc1565b506024611704828483612dc1565b507f80bd1fdfe157286ce420ee763f91748455b249605748e5df12dad9844402bafc8484848460405161105c9493929190612ea2565b5f808061179961174d6020860186612c9e565b61175d6040870160208801612f53565b61176a6040880188612ed3565b61177760608a018a612ed3565b61178460808c018c612ed3565b61179460c08e0160a08f01612c9e565b612314565b90506117e46117ab6040860186612ed3565b8080601f0160208091040260200160405190810160405280939291908181526020018383808284375f9201919091525061234792505050565b6118305760405162461bcd60e51b815260206004820152601d60248201527f56696e206973206e6f742070726f7065726c7920666f726d61747465640000006044820152606401610521565b6118796118406060860186612ed3565b8080601f0160208091040260200160405190810160405280939291908181526020018383808284375f920191909152506123e192505050565b6118c55760405162461bcd60e51b815260206004820152601e60248201527f566f7574206973206e6f742070726f7065726c7920666f726d617474656400006044820152606401610521565b5f6118d661099a6040870187612ed3565b915061192590506118ea6080870187612ed3565b8080601f0160208091040260200160405190810160405280939291908181526020018383808284375f9201919091525085925061246e915050565b61197b5760405162461bcd60e51b815260206004820152602160248201527f5769746e657373206973206e6f742070726f7065726c7920666f726d617474656044820152601960fa1b6064820152608401610521565b6001603160981b01634ffd344a60e08701358461199b60c08a018a612ed3565b8a61010001356040518663ffffffff1660e01b81526004016119c1959493929190612f7a565b602060405180830381865afa1580156119dc573d5f5f3e3d5ffd5b505050506040513d601f19601f82011682018060405250810190611a009190612fab565b611a4c5760405162461bcd60e51b815260206004820152601b60248201527f5472616e73616374696f6e206973206e6f7420696e20626c6f636b00000000006044820152606401610521565b9094909350915050565b5f5f611a62835f6124db565b91509150915091565b60605f5f611a7885611a56565b909250905060018201611a9d5760405162461bcd60e51b815260040161052190612fca565b808410611ae05760405162461bcd60e51b81526020600482015260116024820152702b37baba103932b0b21037bb32b9393ab760791b6044820152606401610521565b5f80611aed846001612cb7565b90505f5b86811015611b6957611b038883612676565b92505f198303611b555760405162461bcd60e51b815260206004820152601a60248201527f42616420566172496e7420696e207363726970745075626b65790000000000006044820152606401610521565b611b5f8383612cb7565b9150600101611af1565b50611b748782612676565b91505f198203611bc65760405162461bcd60e51b815260206004820152601a60248201527f42616420566172496e7420696e207363726970745075626b65790000000000006044820152606401610521565b611bd1878284611c5e565b9450505050505b92915050565b606081600981518110611bf357611bf3612c8a565b6020910101516001600160f81b031916603560f91b14611c2057505060408051602081019091525f815290565b5f82600a81518110611c3457611c34612c8a565b01602001516001600160f81b031981169150611c57908490600b9060f81c611c5e565b9392505050565b6060815f03611c7b575060408051602081019091525f8152611c57565b5f611c868385612cb7565b90508381118015611c98575080855110155b611cda5760405162461bcd60e51b8152602060048201526013602482015272536c696365206f7574206f6620626f756e647360681b6044820152606401610521565b604051915082604083010160405282825283850182038460208701018481015b80821015611d1357815183830152602082019150611cfa565b505050509392505050565b5f81515f03611d2e57505f919050565b81516020811115611d8c5760405162461bcd60e51b815260206004820152602260248201527f42797465732063616e6e6f74206265206d6f7265207468616e20333220627974604482015261657360f01b6064820152608401610521565b60209283015192036008029190911c919050565b60605f80805b84811015611e1657611db886836126d6565b92505f198303611e025760405162461bcd60e51b815260206004820152601560248201527442616420566172496e7420696e207769746e65737360581b6044820152606401610521565b611e0c8383612cb7565b9150600101611da6565b50611e2185826126d6565b91505f198203611e6b5760405162461bcd60e51b815260206004820152601560248201527442616420566172496e7420696e207769746e65737360581b6044820152606401610521565b611e76858284611c5e565b95945050505050565b60605f5f611e8c85611a56565b909250905060018201611eb15760405162461bcd60e51b815260040161052190612fca565b808410611ef35760405162461bcd60e51b815260206004820152601060248201526f2b34b7103932b0b21037bb32b9393ab760811b6044820152606401610521565b5f80611f00846001612cb7565b90505f5b86811015611f8a57611f1688836124db565b909550925060018301611f605760405162461bcd60e51b815260206004820152601260248201527142616420566172496e7420696e206974656d60701b6044820152606401610521565b82611f6c866001612cb7565b611f769190612cb7565b611f809083612cb7565b9150600101611f04565b50611f9587826124db565b909450915060018201611fdf5760405162461bcd60e51b815260206004820152601260248201527142616420566172496e7420696e206974656d60701b6044820152606401610521565b611bd181611fed8685612cb7565b611ff8906001612cb7565b899190611c5e565b815181515f91908114612016575f915050611bd8565b60205f805b83831161204a5750508481015184820151602090920191808214612045575f945050505050611bd8565b61201b565b5f612056602085612f15565b90505b848110156120c35786818151811061207357612073612c8a565b602001015160f81c60f81b6001600160f81b03191688828151811061209a5761209a612c8a565b01602001516001600160f81b031916146120bb575f95505050505050611bd8565b600101612059565b506001979650505050505050565b5f611bd8826001612cb7565b336120e6611077565b6001600160a01b031614610d325760405163118cdaa760e01b8152336004820152602401610521565b7f237e158222e3e6968b72b9db0d8043aacf074ad9f650f0d1606b4d82ee432c0080546001600160a01b031916815561214782612772565b5050565b60605f5f61215885611a56565b90925090506001820161217d5760405162461bcd60e51b815260040161052190612fca565b8084106121bf5760405162461bcd60e51b815260206004820152601060248201526f2b34b7103932b0b21037bb32b9393ab760811b6044820152606401610521565b5f806121cc846001612cb7565b90505f5b86811015612242576121e288836127e2565b92505f19830361222e5760405162461bcd60e51b815260206004820152601760248201527642616420566172496e7420696e2073637269707453696760481b6044820152606401610521565b6122388383612cb7565b91506001016121d0565b5061224d87826127e2565b91505f198203611bc65760405162461bcd60e51b815260206004820152601760248201527642616420566172496e7420696e2073637269707453696760481b6044820152606401610521565b60208101515f90611bd8565b5f611bd8826020612828565b5f611e76858585856040516020016122cc9493929190613023565b604051602081830303815290604052612836565b5f5f602380546122ef90612d43565b91505f905061230084836014611c5e565b61230990613062565b60601c949350505050565b5f6123398a8a8a8a8a8a8a8a8a6040516020016122cc999897969594939291906130b5565b9a9950505050505050505050565b5f5f5f61235384611a56565b909250905080158061236557505f1982145b1561237357505f9392505050565b5f61237f836001612cb7565b90505f5b828110156123d4578551821061239e57505f95945050505050565b5f6123a987846127e2565b90505f1981036123bf57505f9695505050505050565b6123c98184612cb7565b925050600101612383565b5093519093149392505050565b5f5f5f6123ed84611a56565b90925090508015806123ff57505f1982145b1561240d57505f9392505050565b5f612419836001612cb7565b90505f5b828110156123d4578551821061243857505f95945050505050565b5f6124438784612676565b90505f19810361245957505f9695505050505050565b6124638184612cb7565b92505060010161241d565b5f815f0361247d57505f611bd8565b5f805b838110156124cf578451821061249a575f92505050611bd8565b5f6124a586846126d6565b90505f1981036124ba575f9350505050611bd8565b6124c48184612cb7565b925050600101612480565b50835114905092915050565b5f5f5f6124e88585612858565b90508060ff165f0361251b575f85858151811061250757612507612c8a565b016020015190935060f81c915061266f9050565b8361252782600161311b565b60ff166125349190612cb7565b85511015612549575f195f925092505061266f565b5f8160ff1660020361258c5761258161256d612566876001612cb7565b8890612828565b62ffff0060e882901c1660f89190911c1790565b61ffff169050612665565b8160ff166004036125db576125ce6125a8612566876001612cb7565b60d881901c63ff00ff001662ff00ff60e89290921c9190911617601081811b91901c1790565b63ffffffff169050612665565b8160ff16600803612665576126596125f7612566876001612cb7565b60c01c64ff000000ff600882811c91821665ff000000ff009390911b92831617601090811b6001600160401b031666ff00ff00ff00ff9290921667ff00ff00ff00ff009093169290921790911c65ffff0000ffff1617602081811c91901b1790565b6001600160401b031690505b60ff909116925090505b9250929050565b5f612682826009612cb7565b8351101561269257505f19611bd8565b5f806126a8856126a3866008612cb7565b6124db565b9092509050600182016126c0575f1992505050611bd8565b806126cc836009612cb7565b611e769190612cb7565b5f5f5f6126e385856124db565b9092509050600182016126fb575f1992505050611bd8565b5f80612708846001612cb7565b90505f5b8381101561276757612722886126a3848a612cb7565b90955092506001830161273d575f1995505050505050611bd8565b82612749866001612cb7565b6127539190612cb7565b61275d9083612cb7565b915060010161270c565b509695505050505050565b7f9016d09d72d40fdae2fd8ceac6b6234c7706214fd39c1cd1e609a0528c19930080546001600160a01b031981166001600160a01b03848116918217845560405192169182907f8be0079c531659141344cd1fd0a4f28419497f9722a3daafe3b4186f6b6457e0905f90a3505050565b5f5f5f6127ef85856128dc565b909250905060018201612807575f1992505050611bd8565b80612813836025612cb7565b61281d9190612cb7565b611e76906004612cb7565b5f611c578383016020015190565b5f60205f83516020850160025afa5060205f60205f60025afa50505f51919050565b5f82828151811061286b5761286b612c8a565b016020015160f81c60ff0361288257506008611bd8565b82828151811061289457612894612c8a565b016020015160f81c60fe036128ab57506004611bd8565b8282815181106128bd576128bd612c8a565b016020015160f81c60fd036128d457506002611bd8565b505f92915050565b5f806128e9836025612cb7565b845110156128fc57505f1990505f61266f565b5f8061290d866126a3876024612cb7565b9097909650945050505050565b5f6020828403121561292a575f5ffd5b5035919050565b5f5f83601f840112612941575f5ffd5b5081356001600160401b03811115612957575f5ffd5b6020830191508360208260051b850101111561266f575f5ffd5b5f5f5f5f60408587031215612984575f5ffd5b84356001600160401b03811115612999575f5ffd5b6129a587828801612931565b90955093505060208501356001600160401b038111156129c3575f5ffd5b6129cf87828801612931565b95989497509550505050565b5f5f83601f8401126129eb575f5ffd5b5081356001600160401b03811115612a01575f5ffd5b60208301915083602082850101111561266f575f5ffd5b5f5f5f5f5f60608688031215612a2c575f5ffd5b85356001600160401b03811115612a41575f5ffd5b612a4d888289016129db565b90965094505060208601356001600160401b03811115612a6b575f5ffd5b612a77888289016129db565b96999598509660400135949350505050565b602081525f82518060208401528060208501604085015e5f604082850101526040601f19601f83011684010191505092915050565b5f6101208284031215612acf575f5ffd5b50919050565b5f60208284031215612ae5575f5ffd5b81356001600160401b03811115612afa575f5ffd5b612b0684828501612abe565b949350505050565b5f5f5f60608486031215612b20575f5ffd5b83356001600160401b03811115612b35575f5ffd5b612b4186828701612abe565b9660208601359650604090950135949350505050565b80356001600160e01b031981168114612b6e575f5ffd5b919050565b5f5f60408385031215612b84575f5ffd5b82359150612b9460208401612b57565b90509250929050565b5f60208284031215612bad575f5ffd5b81356001600160a01b0381168114611c57575f5ffd5b5f5f60208385031215612bd4575f5ffd5b82356001600160401b03811115612be9575f5ffd5b612bf5858286016129db565b90969095509350505050565b5f5f5f5f60408587031215612c14575f5ffd5b84356001600160401b03811115612c29575f5ffd5b612c35878288016129db565b90955093505060208501356001600160401b03811115612c53575f5ffd5b6129cf878288016129db565b634e487b7160e01b5f52601160045260245ffd5b8082028115828204841417611bd857611bd8612c5f565b634e487b7160e01b5f52603260045260245ffd5b5f60208284031215612cae575f5ffd5b611c5782612b57565b80820180821115611bd857611bd8612c5f565b835181526020938401516001600160e01b031916938101939093526040830191909152606082015260800190565b6020808252601e908201527f4465706f736974207363726970742063616e6e6f7420626520656d7074790000604082015260600190565b634e487b7160e01b5f52604160045260245ffd5b600181811c90821680612d5757607f821691505b602082108103612acf57634e487b7160e01b5f52602260045260245ffd5b601f821115612dbc57805f5260205f20601f840160051c81016020851015612d9a5750805b601f840160051c820191505b81811015612db9575f8155600101612da6565b50505b505050565b6001600160401b03831115612dd857612dd8612d2f565b612dec83612de68354612d43565b83612d75565b5f601f841160018114612e1d575f8515612e065750838201355b5f19600387901b1c1916600186901b178355612db9565b5f83815260208120601f198716915b82811015612e4c5786850135825560209485019460019092019101612e2c565b5086821015612e68575f1960f88860031b161c19848701351681555b505060018560011b0183555050505050565b81835281816020850137505f828201602090810191909152601f909101601f19169091010190565b604081525f612eb5604083018688612e7a565b8281036020840152612ec8818587612e7a565b979650505050505050565b5f5f8335601e19843603018112612ee8575f5ffd5b8301803591506001600160401b03821115612f01575f5ffd5b60200191503681900382131561266f575f5ffd5b81810381811115611bd857611bd8612c5f565b5f60018201612f3957612f39612c5f565b5060010190565b602081525f612b06602083018486612e7a565b5f60208284031215612f63575f5ffd5b81356001600160f01b031981168114611c57575f5ffd5b858152846020820152608060408201525f612f99608083018587612e7a565b90508260608301529695505050505050565b5f60208284031215612fbb575f5ffd5b81518015158114611c57575f5ffd5b60208082526022908201527f52656164206f76657272756e20647572696e6720566172496e742070617273696040820152616e6760f01b606082015260800190565b5f81518060208401855e5f93019283525090919050565b6001600160e01b0319851681525f613047613041600484018761300c565b8561300c565b6001600160e01b031993909316835250506004019392505050565b805160208201516bffffffffffffffffffffffff198116919060148210156130ae576bffffffffffffffffffffffff196bffffffffffffffffffffffff198360140360031b1b82161692505b5050919050565b6001600160e01b03198a1681526001600160f01b031989166004820152868860068301375f878201600681015f815287898237505f908701600601908152848682376001600160e01b031993909316929093019182525060040198975050505050505050565b60ff8181168382160190811115611bd857611bd8612c5f56","linkReferences":{}},"methodIdentifiers":{"LIGHT_CLIENT()":"e613ae00","SYSTEM_CALLER()":"d761753e","acceptOwnership()":"79ba5097","batchWithdraw(bytes32[],bytes4[])":"19854623","declareWithdrawFiller((bytes4,bytes2,bytes,bytes,bytes,bytes4,bytes,uint256,uint256),uint256,uint256)":"74ab4a83","deposit((bytes4,bytes2,bytes,bytes,bytes,bytes4,bytes,uint256,uint256))":"dd95c7c6","depositAmount()":"419759f5","getWithdrawalCount()":"781952a8","initialize(bytes,bytes,uint256)":"41260137","initialized()":"158ef93e","isOperatorMalicious(uint256)":"bafa9eb2","markMaliciousOperator((bytes4,bytes2,bytes,bytes,bytes,bytes4,bytes,uint256,uint256))":"5e3cc740","operator()":"570ca735","owner()":"8da5cb5b","pendingOwner()":"e30c3978","renounceOwnership()":"715018a6","scriptPrefix()":"a41c5cf3","scriptSuffix()":"87f8bf56","setDepositScript(bytes,bytes)":"f8e655d2","setOperator(address)":"b3ab15fb","setSlashOrTakeScript(bytes)":"f119a9bd","slashOrTakeScript()":"5d3e3176","transferOwnership(address)":"f2fde38b","txIdToDepositId(bytes32)":"11e53a01","withdraw(bytes32,bytes4)":"8786dba7","withdrawFillers(uint256)":"c045577b","withdrawalUTXOs(uint256)":"471ba1e3"},"id":48}