{"abi":[{"type":"function","name":"LIGHT_CLIENT","inputs":[],"outputs":[{"name":"","type":"address","internalType":"contract BitcoinLightClient"}],"stateMutability":"view"},{"type":"function","name":"SYSTEM_CALLER","inputs":[],"outputs":[{"name":"","type":"address","internalType":"address"}],"stateMutability":"view"},{"type":"function","name":"acceptOwnership","inputs":[],"outputs":[],"stateMutability":"nonpayable"},{"type":"function","name":"batchWithdraw","inputs":[{"name":"txIds","type":"bytes32[]","internalType":"bytes32[]"},{"name":"outputIds","type":"bytes4[]","internalType":"bytes4[]"}],"outputs":[],"stateMutability":"payable"},{"type":"function","name":"deposit","inputs":[{"name":"moveTp","type":"tuple","internalType":"struct Bridge.TransactionParams","components":[{"name":"version","type":"bytes4","internalType":"bytes4"},{"name":"flag","type":"bytes2","internalType":"bytes2"},{"name":"vin","type":"bytes","internalType":"bytes"},{"name":"vout","type":"bytes","internalType":"bytes"},{"name":"witness","type":"bytes","internalType":"bytes"},{"name":"locktime","type":"bytes4","internalType":"bytes4"},{"name":"intermediate_nodes","type":"bytes","internalType":"bytes"},{"name":"block_height","type":"uint256","internalType":"uint256"},{"name":"index","type":"uint256","internalType":"uint256"}]}],"outputs":[],"stateMutability":"nonpayable"},{"type":"function","name":"depositAmount","inputs":[],"outputs":[{"name":"","type":"uint256","internalType":"uint256"}],"stateMutability":"view"},{"type":"function","name":"depositPrefix","inputs":[],"outputs":[{"name":"","type":"bytes","internalType":"bytes"}],"stateMutability":"view"},{"type":"function","name":"depositSuffix","inputs":[],"outputs":[{"name":"","type":"bytes","internalType":"bytes"}],"stateMutability":"view"},{"type":"function","name":"depositTxIds","inputs":[{"name":"","type":"uint256","internalType":"uint256"}],"outputs":[{"name":"","type":"bytes32","internalType":"bytes32"}],"stateMutability":"view"},{"type":"function","name":"getWithdrawalCount","inputs":[],"outputs":[{"name":"","type":"uint256","internalType":"uint256"}],"stateMutability":"view"},{"type":"function","name":"initialize","inputs":[{"name":"_depositPrefix","type":"bytes","internalType":"bytes"},{"name":"_depositSuffix","type":"bytes","internalType":"bytes"},{"name":"_depositAmount","type":"uint256","internalType":"uint256"}],"outputs":[],"stateMutability":"nonpayable"},{"type":"function","name":"initialized","inputs":[],"outputs":[{"name":"","type":"bool","internalType":"bool"}],"stateMutability":"view"},{"type":"function","name":"operator","inputs":[],"outputs":[{"name":"","type":"address","internalType":"address"}],"stateMutability":"view"},{"type":"function","name":"owner","inputs":[],"outputs":[{"name":"","type":"address","internalType":"address"}],"stateMutability":"view"},{"type":"function","name":"pendingOwner","inputs":[],"outputs":[{"name":"","type":"address","internalType":"address"}],"stateMutability":"view"},{"type":"function","name":"processedTxIds","inputs":[{"name":"","type":"bytes32","internalType":"bytes32"}],"outputs":[{"name":"","type":"bool","internalType":"bool"}],"stateMutability":"view"},{"type":"function","name":"renounceOwnership","inputs":[],"outputs":[],"stateMutability":"nonpayable"},{"type":"function","name":"replaceDeposit","inputs":[{"name":"replaceTp","type":"tuple","internalType":"struct Bridge.TransactionParams","components":[{"name":"version","type":"bytes4","internalType":"bytes4"},{"name":"flag","type":"bytes2","internalType":"bytes2"},{"name":"vin","type":"bytes","internalType":"bytes"},{"name":"vout","type":"bytes","internalType":"bytes"},{"name":"witness","type":"bytes","internalType":"bytes"},{"name":"locktime","type":"bytes4","internalType":"bytes4"},{"name":"intermediate_nodes","type":"bytes","internalType":"bytes"},{"name":"block_height","type":"uint256","internalType":"uint256"},{"name":"index","type":"uint256","internalType":"uint256"}]},{"name":"index","type":"uint256","internalType":"uint256"}],"outputs":[],"stateMutability":"nonpayable"},{"type":"function","name":"replacePrefix","inputs":[],"outputs":[{"name":"","type":"bytes","internalType":"bytes"}],"stateMutability":"view"},{"type":"function","name":"replaceSuffix","inputs":[],"outputs":[{"name":"","type":"bytes","internalType":"bytes"}],"stateMutability":"view"},{"type":"function","name":"setDepositScript","inputs":[{"name":"_depositPrefix","type":"bytes","internalType":"bytes"},{"name":"_depositSuffix","type":"bytes","internalType":"bytes"}],"outputs":[],"stateMutability":"nonpayable"},{"type":"function","name":"setOperator","inputs":[{"name":"_operator","type":"address","internalType":"address"}],"outputs":[],"stateMutability":"nonpayable"},{"type":"function","name":"setReplaceScript","inputs":[{"name":"_replacePrefix","type":"bytes","internalType":"bytes"},{"name":"_replaceSuffix","type":"bytes","internalType":"bytes"}],"outputs":[],"stateMutability":"nonpayable"},{"type":"function","name":"transferOwnership","inputs":[{"name":"newOwner","type":"address","internalType":"address"}],"outputs":[],"stateMutability":"nonpayable"},{"type":"function","name":"withdraw","inputs":[{"name":"txId","type":"bytes32","internalType":"bytes32"},{"name":"outputId","type":"bytes4","internalType":"bytes4"}],"outputs":[],"stateMutability":"payable"},{"type":"function","name":"withdrawalUTXOs","inputs":[{"name":"","type":"uint256","internalType":"uint256"}],"outputs":[{"name":"txId","type":"bytes32","internalType":"bytes32"},{"name":"outputId","type":"bytes4","internalType":"bytes4"}],"stateMutability":"view"},{"type":"event","name":"Deposit","inputs":[{"name":"wtxId","type":"bytes32","indexed":false,"internalType":"bytes32"},{"name":"txId","type":"bytes32","indexed":false,"internalType":"bytes32"},{"name":"recipient","type":"address","indexed":false,"internalType":"address"},{"name":"timestamp","type":"uint256","indexed":false,"internalType":"uint256"},{"name":"depositId","type":"uint256","indexed":false,"internalType":"uint256"}],"anonymous":false},{"type":"event","name":"DepositReplaced","inputs":[{"name":"index","type":"uint256","indexed":false,"internalType":"uint256"},{"name":"oldTxId","type":"bytes32","indexed":false,"internalType":"bytes32"},{"name":"newTxId","type":"bytes32","indexed":false,"internalType":"bytes32"}],"anonymous":false},{"type":"event","name":"DepositScriptUpdate","inputs":[{"name":"depositPrefix","type":"bytes","indexed":false,"internalType":"bytes"},{"name":"depositSuffix","type":"bytes","indexed":false,"internalType":"bytes"}],"anonymous":false},{"type":"event","name":"Initialized","inputs":[{"name":"version","type":"uint64","indexed":false,"internalType":"uint64"}],"anonymous":false},{"type":"event","name":"OperatorUpdated","inputs":[{"name":"oldOperator","type":"address","indexed":false,"internalType":"address"},{"name":"newOperator","type":"address","indexed":false,"internalType":"address"}],"anonymous":false},{"type":"event","name":"OwnershipTransferStarted","inputs":[{"name":"previousOwner","type":"address","indexed":true,"internalType":"address"},{"name":"newOwner","type":"address","indexed":true,"internalType":"address"}],"anonymous":false},{"type":"event","name":"OwnershipTransferred","inputs":[{"name":"previousOwner","type":"address","indexed":true,"internalType":"address"},{"name":"newOwner","type":"address","indexed":true,"internalType":"address"}],"anonymous":false},{"type":"event","name":"ReplaceScriptUpdate","inputs":[{"name":"replacePrefix","type":"bytes","indexed":false,"internalType":"bytes"},{"name":"replaceSuffix","type":"bytes","indexed":false,"internalType":"bytes"}],"anonymous":false},{"type":"event","name":"Withdrawal","inputs":[{"name":"utxo","type":"tuple","indexed":false,"internalType":"struct Bridge.UTXO","components":[{"name":"txId","type":"bytes32","internalType":"bytes32"},{"name":"outputId","type":"bytes4","internalType":"bytes4"}]},{"name":"index","type":"uint256","indexed":false,"internalType":"uint256"},{"name":"timestamp","type":"uint256","indexed":false,"internalType":"uint256"}],"anonymous":false},{"type":"error","name":"InvalidInitialization","inputs":[]},{"type":"error","name":"NotInitializing","inputs":[]},{"type":"error","name":"OwnableInvalidOwner","inputs":[{"name":"owner","type":"address","internalType":"address"}]},{"type":"error","name":"OwnableUnauthorizedAccount","inputs":[{"name":"account","type":"address","internalType":"address"}]}],"bytecode":{"object":"0x6080604052348015600e575f5ffd5b50612c798061001c5f395ff3fe60806040526004361061017b575f3560e01c806379ba5097116100cd578063d761753e11610087578063e613ae0011610062578063e613ae001461042b578063f2fde38b14610445578063f42cb4fc14610464578063f8e655d214610478575f5ffd5b8063d761753e146103d1578063dd95c7c6146103f8578063e30c397814610417575f5ffd5b806379ba5097146103445780637ec9732a146103585780638752b6b2146103775780638786dba71461038b5780638da5cb5b1461039e578063b3ab15fb146103b2575f5ffd5b80634379caa5116101385780635b4f894d116101135780635b4f894d146102e75780636b0b5a9414610308578063715018a61461031c578063781952a814610330575f5ffd5b80634379caa514610241578063471ba1e31461026f578063570ca735146102ac575f5ffd5b8063065921671461017f578063158ef93e146101b157806319854623146101d95780633f874c84146101ee578063412601371461020d578063419759f51461022c575b5f5ffd5b34801561018a575f5ffd5b5061019e61019936600461255c565b610497565b6040519081526020015b60405180910390f35b3480156101bc575f5ffd5b505f546101c99060ff1681565b60405190151581526020016101a8565b6101ec6101e73660046125b3565b6104b6565b005b3480156101f9575f5ffd5b506101ec610208366004612634565b61068c565b348015610218575f5ffd5b506101ec6102273660046126b2565b610a7d565b348015610237575f5ffd5b5061019e60015481565b34801561024c575f5ffd5b506101c961025b36600461255c565b60096020525f908152604090205460ff1681565b34801561027a575f5ffd5b5061028e61028936600461255c565b610cb5565b604080519283526001600160e01b03199091166020830152016101a8565b3480156102b7575f5ffd5b505f546102cf9061010090046001600160a01b031681565b6040516001600160a01b0390911681526020016101a8565b3480156102f2575f5ffd5b506102fb610ce4565b6040516101a89190612723565b348015610313575f5ffd5b506102fb610d70565b348015610327575f5ffd5b506101ec610d7d565b34801561033b575f5ffd5b5060075461019e565b34801561034f575f5ffd5b506101ec610d90565b348015610363575f5ffd5b506101ec610372366004612758565b610dd8565b348015610382575f5ffd5b506102fb610e8f565b6101ec6103993660046127d2565b610e9c565b3480156103a9575f5ffd5b506102cf610fb4565b3480156103bd575f5ffd5b506101ec6103cc3660046127fc565b610fe8565b3480156103dc575f5ffd5b506102cf73deaddeaddeaddeaddeaddeaddeaddeaddeaddead81565b348015610403575f5ffd5b506101ec610412366004612822565b611058565b348015610422575f5ffd5b506102cf6114c3565b348015610436575f5ffd5b506102cf6001603160981b0181565b348015610450575f5ffd5b506101ec61045f3660046127fc565b6114eb565b34801561046f575f5ffd5b506102fb611570565b348015610483575f5ffd5b506101ec610492366004612758565b61157d565b600881815481106104a6575f80fd5b5f91825260209091200154905081565b8281146104fc5760405162461bcd60e51b815260206004820152600f60248201526e098cadccee8d040dad2e6dac2e8c6d608b1b60448201526064015b60405180910390fd5b60015461050a908490612867565b34146105525760405162461bcd60e51b8152602060048201526017602482015276125b9d985b1a59081dda5d1a191c985dc8185b5bdd5b9d604a1b60448201526064016104f3565b6007545f5b84811015610684575f604051806040016040528088888581811061057d5761057d61287e565b90506020020135815260200186868581811061059b5761059b61287e565b90506020020160208101906105b09190612892565b6001600160e01b0319169052600780546001810182555f9190915281517fa66cc928b5edb82af9bd49922954155ab7b0942694bea4ce44661d9a8736c68860029092029182015560208201517fa66cc928b5edb82af9bd49922954155ab7b0942694bea4ce44661d9a8736c689909101805463ffffffff191660e09290921c91909117905590507f3311a04a346a103ac115cca33028a2bc82f1964805860d0d3fc84a2772496ada8161066384866128ab565b42604051610673939291906128be565b60405180910390a150600101610557565b505050505050565b61069582611626565b505060085481106106d85760405162461bcd60e51b815260206004820152600d60248201526c092dcecc2d8d2c840d2dcc8caf609b1b60448201526064016104f3565b5f600882815481106106ec576106ec61287e565b5f918252602082200154915061074161070860808601866128ec565b8080601f0160208091040260200160405190810160405280939291908181526020018383808284375f920182905250925061197b915050565b90505f61074f826001611a5c565b90505f6005805461075f9061292e565b91505f905061076f838284611c23565b905061080381600580546107829061292e565b80601f01602080910402602001604051908101604052809291908181526020018280546107ae9061292e565b80156107f95780601f106107d0576101008083540402835291602001916107f9565b820191905f5260205f20905b8154815290600101906020018083116107dc57829003601f168201915b5050505050611ce4565b61084f5760405162461bcd60e51b815260206004820152601d60248201527f496e76616c6964207265706c616365207363726970742070726566697800000060448201526064016104f3565b5f610882600680546108609061292e565b865161086c9250612960565b600680546108799061292e565b87929150611c23565b905061089581600680546107829061292e565b6108e15760405162461bcd60e51b815260206004820152601c60248201527f496e76616c6964207265706c616365206372697074207375666669780000000060448201526064016104f3565b5f6108eb85611db5565b905086811461093c5760405162461bcd60e51b815260206004820181905260248201527f496e76616c6964207478496420746f207265706c6163652070726f766964656460448201526064016104f3565b5f6109f561094d60208c018c612892565b61095a60408d018d6128ec565b8080601f0160208091040260200160405190810160405280939291908181526020018383808284375f9201919091525061099b9250505060608e018e6128ec565b8080601f0160208091040260200160405190810160405280939291908181526020018383808284375f81840152601f19601f820116905080830192505050505050508d60a00160208101906109f09190612892565b611de5565b90508060088a81548110610a0b57610a0b61287e565b5f9182526020808320919091019290925582815260098252604090819020805460ff1916600117905580518b815291820184905281018290527f4d7c644a48da4c7857af62a00bad9806f0388564f22955ed846d938c244047f09060600160405180910390a150505050505050505050565b3373deaddeaddeaddeaddeaddeaddeaddeaddeaddead14610ae05760405162461bcd60e51b815260206004820152601f60248201527f63616c6c6572206973206e6f74207468652073797374656d2063616c6c65720060448201526064016104f3565b5f5460ff1615610b325760405162461bcd60e51b815260206004820152601f60248201527f436f6e747261637420697320616c726561647920696e697469616c697a65640060448201526064016104f3565b805f03610b815760405162461bcd60e51b815260206004820152601a60248201527f4465706f73697420616d6f756e742063616e6e6f74206265203000000000000060448201526064016104f3565b5f849003610bd15760405162461bcd60e51b815260206004820152601e60248201527f4465706f736974207363726970742063616e6e6f7420626520656d707479000060448201526064016104f3565b5f805460ff191660011790556003610bea8587836129d3565b506004610bf88385836129d3565b5060018190555f8054610100600160a81b03191674deaddeaddeaddeaddeaddeaddeaddeaddeaddead001781556040805191825273deaddeaddeaddeaddeaddeaddeaddeaddeaddead60208301527ffbe5b6cbafb274f445d7fed869dc77a838d8243a22c460de156560e8857cad03910160405180910390a17f80bd1fdfe157286ce420ee763f91748455b249605748e5df12dad9844402bafc85858585604051610ca69493929190612ab4565b60405180910390a15050505050565b60078181548110610cc4575f80fd5b5f9182526020909120600290910201805460019091015490915060e01b82565b60038054610cf19061292e565b80601f0160208091040260200160405190810160405280929190818152602001828054610d1d9061292e565b8015610d685780601f10610d3f57610100808354040283529160200191610d68565b820191905f5260205f20905b815481529060010190602001808311610d4b57829003601f168201915b505050505081565b60058054610cf19061292e565b610d85611e1d565b610d8e5f611e4f565b565b3380610d9a6114c3565b6001600160a01b031614610dcc5760405163118cdaa760e01b81526001600160a01b03821660048201526024016104f3565b610dd581611e4f565b50565b610de0611e1d565b5f839003610e305760405162461bcd60e51b815260206004820152601e60248201527f5265706c616365207363726970742063616e6e6f7420626520656d707479000060448201526064016104f3565b6005610e3d8486836129d3565b506006610e4b8284836129d3565b507f6c9ac69a5e351d3e7ac9be95040d29a264d1ce6a409ca9f042c64c66c3f2a23a84848484604051610e819493929190612ab4565b60405180910390a150505050565b60048054610cf19061292e565b6001543414610ee75760405162461bcd60e51b8152602060048201526017602482015276125b9d985b1a59081dda5d1a191c985dc8185b5bdd5b9d604a1b60448201526064016104f3565b6040805180820182528381526001600160e01b0319831660208201908152600780546001810182555f9190915282517fa66cc928b5edb82af9bd49922954155ab7b0942694bea4ce44661d9a8736c688600283029081019190915591517fa66cc928b5edb82af9bd49922954155ab7b0942694bea4ce44661d9a8736c689909201805463ffffffff191660e09390931c9290921790915591519091907f3311a04a346a103ac115cca33028a2bc82f1964805860d0d3fc84a2772496ada90610e81908490849042906128be565b5f807f9016d09d72d40fdae2fd8ceac6b6234c7706214fd39c1cd1e609a0528c1993005b546001600160a01b031692915050565b610ff0611e1d565b5f8054610100600160a81b0319166101006001600160a01b038481168281029390931793849055604080519290940416815260208101919091527ffbe5b6cbafb274f445d7fed869dc77a838d8243a22c460de156560e8857cad03910160405180910390a150565b5f5461010090046001600160a01b031633146110b65760405162461bcd60e51b815260206004820152601a60248201527f63616c6c6572206973206e6f7420746865206f70657261746f7200000000000060448201526064016104f3565b5f5f6110c183611626565b915091508060011461110e5760405162461bcd60e51b815260206004820152601660248201527513db9b1e481bdb99481a5b9c1d5d08185b1b1bddd95960521b60448201526064016104f3565b5f6111b161111f6020860186612892565b61112c60408701876128ec565b8080601f0160208091040260200160405190810160405280939291908181526020018383808284375f9201919091525061116d9250505060608801886128ec565b8080601f0160208091040260200160405190810160405280939291908181526020018383808284375f920191909152506109f09250505060c0890160a08a01612892565b5f8181526009602052604090205490915060ff16156112075760405162461bcd60e51b81526020600482015260126024820152711d1e125908185b1c9958591e481cdc195b9d60721b60448201526064016104f3565b5f818152600960205260408120805460ff1916600190811790915560088054918201815582527ff3f7a9fe364faab93b216da50a3214154f22a0a2b415b23a84c8169e8b636ee30182905561126261070860808701876128ec565b90505f61126e82611e8b565b915050806003146112b95760405162461bcd60e51b8152602060048201526015602482015274496e76616c6964207769746e657373206974656d7360581b60448201526064016104f3565b5f6112c5836001611a5c565b90505f600380546112d59061292e565b91505f90506112e5838284611c23565b90506112f881600380546107829061292e565b61133d5760405162461bcd60e51b8152602060048201526016602482015275125b9d985b1a590819195c1bdcda5d081cd8dc9a5c1d60521b60448201526064016104f3565b5f6113676004805461134e9061292e565b865161135a9250612960565b600480546108799061292e565b905061137a81600480546107829061292e565b6113be5760405162461bcd60e51b8152602060048201526015602482015274092dcecc2d8d2c840e6c6e4d2e0e840e6eaccccd2f605b1b60448201526064016104f3565b5f6113c885611ea0565b600254604080518d8152602081018c90526001600160a01b038416818301524260608201526080810192909252519192507fa82453ca34121b3ecb910d957824e27c5dc6465315949facd15fb72886490058919081900360a00190a16001546040515f916001600160a01b038416918381818185875af1925050503d805f811461146d576040519150601f19603f3d011682016040523d82523d5f602084013e611472565b606091505b50509050806114b55760405162461bcd60e51b815260206004820152600f60248201526e151c985b9cd9995c8819985a5b1959608a1b60448201526064016104f3565b505050505050505050505050565b5f807f237e158222e3e6968b72b9db0d8043aacf074ad9f650f0d1606b4d82ee432c00610fd8565b6114f3611e1d565b7f237e158222e3e6968b72b9db0d8043aacf074ad9f650f0d1606b4d82ee432c0080546001600160a01b0319166001600160a01b0383169081178255611537610fb4565b6001600160a01b03167f38d16b8cac22d99fc7c124b9cd0de2d3fa1faef420bfe791d8c362d765e2270060405160405180910390a35050565b60068054610cf19061292e565b611585611e1d565b5f8390036115d55760405162461bcd60e51b815260206004820152601e60248201527f4465706f736974207363726970742063616e6e6f7420626520656d707479000060448201526064016104f3565b60036115e28486836129d3565b5060046115f08284836129d3565b507f80bd1fdfe157286ce420ee763f91748455b249605748e5df12dad9844402bafc84848484604051610e819493929190612ab4565b5f80806116856116396020860186612892565b6116496040870160208801612ada565b61165660408801886128ec565b61166360608a018a6128ec565b61167060808c018c6128ec565b61168060c08e0160a08f01612892565b611ed4565b90506116d061169760408601866128ec565b8080601f0160208091040260200160405190810160405280939291908181526020018383808284375f92019190915250611f0792505050565b61171c5760405162461bcd60e51b815260206004820152601d60248201527f56696e206973206e6f742070726f7065726c7920666f726d617474656400000060448201526064016104f3565b61176561172c60608601866128ec565b8080601f0160208091040260200160405190810160405280939291908181526020018383808284375f92019190915250611fa192505050565b6117b15760405162461bcd60e51b815260206004820152601e60248201527f566f7574206973206e6f742070726f7065726c7920666f726d6174746564000060448201526064016104f3565b5f6117fb6117c260408701876128ec565b8080601f0160208091040260200160405190810160405280939291908181526020018383808284375f92019190915250611e8b92505050565b915061184a905061180f60808701876128ec565b8080601f0160208091040260200160405190810160405280939291908181526020018383808284375f9201919091525085925061202e915050565b6118a05760405162461bcd60e51b815260206004820152602160248201527f5769746e657373206973206e6f742070726f7065726c7920666f726d617474656044820152601960fa1b60648201526084016104f3565b6001603160981b01634ffd344a60e0870135846118c060c08a018a6128ec565b8a61010001356040518663ffffffff1660e01b81526004016118e6959493929190612b01565b602060405180830381865afa158015611901573d5f5f3e3d5ffd5b505050506040513d601f19601f820116820180604052508101906119259190612b32565b6119715760405162461bcd60e51b815260206004820152601b60248201527f5472616e73616374696f6e206973206e6f7420696e20626c6f636b000000000060448201526064016104f3565b9094909350915050565b60605f80805b848110156119f157611993868361209b565b92505f1983036119dd5760405162461bcd60e51b815260206004820152601560248201527442616420566172496e7420696e207769746e65737360581b60448201526064016104f3565b6119e783836128ab565b9150600101611981565b506119fc858261209b565b91505f198203611a465760405162461bcd60e51b815260206004820152601560248201527442616420566172496e7420696e207769746e65737360581b60448201526064016104f3565b611a51858284611c23565b925050505b92915050565b60605f5f611a6985611e8b565b909250905060018201611ac95760405162461bcd60e51b815260206004820152602260248201527f52656164206f76657272756e20647572696e6720566172496e742070617273696044820152616e6760f01b60648201526084016104f3565b808410611b0b5760405162461bcd60e51b815260206004820152601060248201526f2b34b7103932b0b21037bb32b9393ab760811b60448201526064016104f3565b5f80611b188460016128ab565b90505f5b86811015611ba257611b2e888361213c565b909550925060018301611b785760405162461bcd60e51b815260206004820152601260248201527142616420566172496e7420696e206974656d60701b60448201526064016104f3565b82611b848660016128ab565b611b8e91906128ab565b611b9890836128ab565b9150600101611b1c565b50611bad878261213c565b909450915060018201611bf75760405162461bcd60e51b815260206004820152601260248201527142616420566172496e7420696e206974656d60701b60448201526064016104f3565b611c1881611c0586856128ab565b611c109060016128ab565b899190611c23565b979650505050505050565b6060815f03611c40575060408051602081019091525f8152611cdd565b5f611c4b83856128ab565b90508381118015611c5d575080855110155b611c9f5760405162461bcd60e51b8152602060048201526013602482015272536c696365206f7574206f6620626f756e647360681b60448201526064016104f3565b604051915082604083010160405282825283850182038460208701018481015b80821015611cd857815183830152602082019150611cbf565b505050505b9392505050565b815181515f91908114611cfa575f915050611a56565b60205f805b838311611d2e5750508481015184820151602090920191808214611d29575f945050505050611a56565b611cff565b5f611d3a602085612960565b90505b84811015611da757868181518110611d5757611d5761287e565b602001015160f81c60f81b6001600160f81b031916888281518110611d7e57611d7e61287e565b01602001516001600160f81b03191614611d9f575f95505050505050611a56565b600101611d3d565b506001979650505050505050565b5f5f60058054611dc49061292e565b91505f9050611ddd611dd885846020611c23565b6122d7565b949350505050565b5f611e1485858585604051602001611e009493929190612b68565b604051602081830303815290604052612359565b95945050505050565b33611e26610fb4565b6001600160a01b031614610d8e5760405163118cdaa760e01b81523360048201526024016104f3565b7f237e158222e3e6968b72b9db0d8043aacf074ad9f650f0d1606b4d82ee432c0080546001600160a01b0319168155611e878261237b565b5050565b5f5f611e97835f61213c565b91509150915091565b5f5f60038054611eaf9061292e565b91505f9050611ec084836014611c23565b611ec990612ba7565b60601c949350505050565b5f611ef98a8a8a8a8a8a8a8a8a604051602001611e0099989796959493929190612bfa565b9a9950505050505050505050565b5f5f5f611f1384611e8b565b9092509050801580611f2557505f1982145b15611f3357505f9392505050565b5f611f3f8360016128ab565b90505f5b82811015611f945785518210611f5e57505f95945050505050565b5f611f6987846123eb565b90505f198103611f7f57505f9695505050505050565b611f8981846128ab565b925050600101611f43565b5093519093149392505050565b5f5f5f611fad84611e8b565b9092509050801580611fbf57505f1982145b15611fcd57505f9392505050565b5f611fd98360016128ab565b90505f5b82811015611f945785518210611ff857505f95945050505050565b5f6120038784612431565b90505f19810361201957505f9695505050505050565b61202381846128ab565b925050600101611fdd565b5f815f0361203d57505f611a56565b5f805b8381101561208f578451821061205a575f92505050611a56565b5f612065868461209b565b90505f19810361207a575f9350505050611a56565b61208481846128ab565b925050600101612040565b50835114905092915050565b5f5f5f6120a8858561213c565b9092509050600182016120c0575f1992505050611a56565b5f806120cd8460016128ab565b90505f5b83811015612131576120ec886120e7848a6128ab565b61213c565b909550925060018301612107575f1995505050505050611a56565b826121138660016128ab565b61211d91906128ab565b61212790836128ab565b91506001016120d1565b509695505050505050565b5f5f5f612149858561248c565b90508060ff165f0361217c575f8585815181106121685761216861287e565b016020015190935060f81c91506122d09050565b83612188826001612c60565b60ff1661219591906128ab565b855110156121aa575f195f92509250506122d0565b5f8160ff166002036121ed576121e26121ce6121c78760016128ab565b8890612510565b62ffff0060e882901c1660f89190911c1790565b61ffff1690506122c6565b8160ff1660040361223c5761222f6122096121c78760016128ab565b60d881901c63ff00ff001662ff00ff60e89290921c9190911617601081811b91901c1790565b63ffffffff1690506122c6565b8160ff166008036122c6576122ba6122586121c78760016128ab565b60c01c64ff000000ff600882811c91821665ff000000ff009390911b92831617601090811b6001600160401b031666ff00ff00ff00ff9290921667ff00ff00ff00ff009093169290921790911c65ffff0000ffff1617602081811c91901b1790565b6001600160401b031690505b60ff909116925090505b9250929050565b5f81515f036122e757505f919050565b815160208111156123455760405162461bcd60e51b815260206004820152602260248201527f42797465732063616e6e6f74206265206d6f7265207468616e20333220627974604482015261657360f01b60648201526084016104f3565b60209283015192036008029190911c919050565b5f60205f83516020850160025afa5060205f60205f60025afa50505f51919050565b7f9016d09d72d40fdae2fd8ceac6b6234c7706214fd39c1cd1e609a0528c19930080546001600160a01b031981166001600160a01b03848116918217845560405192169182907f8be0079c531659141344cd1fd0a4f28419497f9722a3daafe3b4186f6b6457e0905f90a3505050565b5f5f5f6123f8858561251e565b909250905060018201612410575f1992505050611a56565b8061241c8360256128ab565b61242691906128ab565b611a519060046128ab565b5f61243d8260096128ab565b8351101561244d57505f19611a56565b5f8061245e856120e78660086128ab565b909250905060018201612476575f1992505050611a56565b806124828360096128ab565b611a5191906128ab565b5f82828151811061249f5761249f61287e565b016020015160f81c60ff036124b657506008611a56565b8282815181106124c8576124c861287e565b016020015160f81c60fe036124df57506004611a56565b8282815181106124f1576124f161287e565b016020015160f81c60fd0361250857506002611a56565b505f92915050565b5f611cdd8383016020015190565b5f8061252b8360256128ab565b8451101561253e57505f1990505f6122d0565b5f8061254f866120e78760246128ab565b9097909650945050505050565b5f6020828403121561256c575f5ffd5b5035919050565b5f5f83601f840112612583575f5ffd5b5081356001600160401b03811115612599575f5ffd5b6020830191508360208260051b85010111156122d0575f5ffd5b5f5f5f5f604085870312156125c6575f5ffd5b84356001600160401b038111156125db575f5ffd5b6125e787828801612573565b90955093505060208501356001600160401b03811115612605575f5ffd5b61261187828801612573565b95989497509550505050565b5f610120828403121561262e575f5ffd5b50919050565b5f5f60408385031215612645575f5ffd5b82356001600160401b0381111561265a575f5ffd5b6126668582860161261d565b95602094909401359450505050565b5f5f83601f840112612685575f5ffd5b5081356001600160401b0381111561269b575f5ffd5b6020830191508360208285010111156122d0575f5ffd5b5f5f5f5f5f606086880312156126c6575f5ffd5b85356001600160401b038111156126db575f5ffd5b6126e788828901612675565b90965094505060208601356001600160401b03811115612705575f5ffd5b61271188828901612675565b96999598509660400135949350505050565b602081525f82518060208401528060208501604085015e5f604082850101526040601f19601f83011684010191505092915050565b5f5f5f5f6040858703121561276b575f5ffd5b84356001600160401b03811115612780575f5ffd5b61278c87828801612675565b90955093505060208501356001600160401b038111156127aa575f5ffd5b61261187828801612675565b80356001600160e01b0319811681146127cd575f5ffd5b919050565b5f5f604083850312156127e3575f5ffd5b823591506127f3602084016127b6565b90509250929050565b5f6020828403121561280c575f5ffd5b81356001600160a01b0381168114611cdd575f5ffd5b5f60208284031215612832575f5ffd5b81356001600160401b03811115612847575f5ffd5b611ddd8482850161261d565b634e487b7160e01b5f52601160045260245ffd5b8082028115828204841417611a5657611a56612853565b634e487b7160e01b5f52603260045260245ffd5b5f602082840312156128a2575f5ffd5b611cdd826127b6565b80820180821115611a5657611a56612853565b835181526020938401516001600160e01b031916938101939093526040830191909152606082015260800190565b5f5f8335601e19843603018112612901575f5ffd5b8301803591506001600160401b0382111561291a575f5ffd5b6020019150368190038213156122d0575f5ffd5b600181811c9082168061294257607f821691505b60208210810361262e57634e487b7160e01b5f52602260045260245ffd5b81810381811115611a5657611a56612853565b634e487b7160e01b5f52604160045260245ffd5b601f8211156129ce57805f5260205f20601f840160051c810160208510156129ac5750805b601f840160051c820191505b818110156129cb575f81556001016129b8565b50505b505050565b6001600160401b038311156129ea576129ea612973565b6129fe836129f8835461292e565b83612987565b5f601f841160018114612a2f575f8515612a185750838201355b5f19600387901b1c1916600186901b1783556129cb565b5f83815260208120601f198716915b82811015612a5e5786850135825560209485019460019092019101612a3e565b5086821015612a7a575f1960f88860031b161c19848701351681555b505060018560011b0183555050505050565b81835281816020850137505f828201602090810191909152601f909101601f19169091010190565b604081525f612ac7604083018688612a8c565b8281036020840152611c18818587612a8c565b5f60208284031215612aea575f5ffd5b81356001600160f01b031981168114611cdd575f5ffd5b858152846020820152608060408201525f612b20608083018587612a8c565b90508260608301529695505050505050565b5f60208284031215612b42575f5ffd5b81518015158114611cdd575f5ffd5b5f81518060208401855e5f93019283525090919050565b6001600160e01b0319851681525f612b8c612b866004840187612b51565b85612b51565b6001600160e01b031993909316835250506004019392505050565b805160208201516bffffffffffffffffffffffff19811691906014821015612bf3576bffffffffffffffffffffffff196bffffffffffffffffffffffff198360140360031b1b82161692505b5050919050565b6001600160e01b03198a1681526001600160f01b031989166004820152868860068301375f878201600681015f815287898237505f908701600601908152848682376001600160e01b031993909316929093019182525060040198975050505050505050565b60ff8181168382160190811115611a5657611a5661285356","linkReferences":{}},"methodIdentifiers":{"LIGHT_CLIENT()":"e613ae00","SYSTEM_CALLER()":"d761753e","acceptOwnership()":"79ba5097","batchWithdraw(bytes32[],bytes4[])":"19854623","deposit((bytes4,bytes2,bytes,bytes,bytes,bytes4,bytes,uint256,uint256))":"dd95c7c6","depositAmount()":"419759f5","depositPrefix()":"5b4f894d","depositSuffix()":"8752b6b2","depositTxIds(uint256)":"06592167","getWithdrawalCount()":"781952a8","initialize(bytes,bytes,uint256)":"41260137","initialized()":"158ef93e","operator()":"570ca735","owner()":"8da5cb5b","pendingOwner()":"e30c3978","processedTxIds(bytes32)":"4379caa5","renounceOwnership()":"715018a6","replaceDeposit((bytes4,bytes2,bytes,bytes,bytes,bytes4,bytes,uint256,uint256),uint256)":"3f874c84","replacePrefix()":"6b0b5a94","replaceSuffix()":"f42cb4fc","setDepositScript(bytes,bytes)":"f8e655d2","setOperator(address)":"b3ab15fb","setReplaceScript(bytes,bytes)":"7ec9732a","transferOwnership(address)":"f2fde38b","withdraw(bytes32,bytes4)":"8786dba7","withdrawalUTXOs(uint256)":"471ba1e3"},"id":48}