{"abi":[{"type":"function","name":"LIGHT_CLIENT","inputs":[],"outputs":[{"name":"","type":"address","internalType":"contract BitcoinLightClient"}],"stateMutability":"view"},{"type":"function","name":"SYSTEM_CALLER","inputs":[],"outputs":[{"name":"","type":"address","internalType":"address"}],"stateMutability":"view"},{"type":"function","name":"acceptOwnership","inputs":[],"outputs":[],"stateMutability":"nonpayable"},{"type":"function","name":"batchWithdraw","inputs":[{"name":"txIds","type":"bytes32[]","internalType":"bytes32[]"},{"name":"outputIds","type":"bytes4[]","internalType":"bytes4[]"}],"outputs":[],"stateMutability":"payable"},{"type":"function","name":"deposit","inputs":[{"name":"moveTp","type":"tuple","internalType":"struct Bridge.TransactionParams","components":[{"name":"version","type":"bytes4","internalType":"bytes4"},{"name":"flag","type":"bytes2","internalType":"bytes2"},{"name":"vin","type":"bytes","internalType":"bytes"},{"name":"vout","type":"bytes","internalType":"bytes"},{"name":"witness","type":"bytes","internalType":"bytes"},{"name":"locktime","type":"bytes4","internalType":"bytes4"},{"name":"intermediate_nodes","type":"bytes","internalType":"bytes"},{"name":"block_height","type":"uint256","internalType":"uint256"},{"name":"index","type":"uint256","internalType":"uint256"}]}],"outputs":[],"stateMutability":"nonpayable"},{"type":"function","name":"depositAmount","inputs":[],"outputs":[{"name":"","type":"uint256","internalType":"uint256"}],"stateMutability":"view"},{"type":"function","name":"depositPrefix","inputs":[],"outputs":[{"name":"","type":"bytes","internalType":"bytes"}],"stateMutability":"view"},{"type":"function","name":"depositSuffix","inputs":[],"outputs":[{"name":"","type":"bytes","internalType":"bytes"}],"stateMutability":"view"},{"type":"function","name":"depositTxIds","inputs":[{"name":"","type":"uint256","internalType":"uint256"}],"outputs":[{"name":"","type":"bytes32","internalType":"bytes32"}],"stateMutability":"view"},{"type":"function","name":"getWithdrawalCount","inputs":[],"outputs":[{"name":"","type":"uint256","internalType":"uint256"}],"stateMutability":"view"},{"type":"function","name":"initialize","inputs":[{"name":"_depositPrefix","type":"bytes","internalType":"bytes"},{"name":"_depositSuffix","type":"bytes","internalType":"bytes"},{"name":"_depositAmount","type":"uint256","internalType":"uint256"}],"outputs":[],"stateMutability":"nonpayable"},{"type":"function","name":"initialized","inputs":[],"outputs":[{"name":"","type":"bool","internalType":"bool"}],"stateMutability":"view"},{"type":"function","name":"operator","inputs":[],"outputs":[{"name":"","type":"address","internalType":"address"}],"stateMutability":"view"},{"type":"function","name":"owner","inputs":[],"outputs":[{"name":"","type":"address","internalType":"address"}],"stateMutability":"view"},{"type":"function","name":"pendingOwner","inputs":[],"outputs":[{"name":"","type":"address","internalType":"address"}],"stateMutability":"view"},{"type":"function","name":"processedTxIds","inputs":[{"name":"","type":"bytes32","internalType":"bytes32"}],"outputs":[{"name":"","type":"bool","internalType":"bool"}],"stateMutability":"view"},{"type":"function","name":"renounceOwnership","inputs":[],"outputs":[],"stateMutability":"nonpayable"},{"type":"function","name":"replaceDeposit","inputs":[{"name":"replaceTp","type":"tuple","internalType":"struct Bridge.TransactionParams","components":[{"name":"version","type":"bytes4","internalType":"bytes4"},{"name":"flag","type":"bytes2","internalType":"bytes2"},{"name":"vin","type":"bytes","internalType":"bytes"},{"name":"vout","type":"bytes","internalType":"bytes"},{"name":"witness","type":"bytes","internalType":"bytes"},{"name":"locktime","type":"bytes4","internalType":"bytes4"},{"name":"intermediate_nodes","type":"bytes","internalType":"bytes"},{"name":"block_height","type":"uint256","internalType":"uint256"},{"name":"index","type":"uint256","internalType":"uint256"}]},{"name":"index","type":"uint256","internalType":"uint256"}],"outputs":[],"stateMutability":"nonpayable"},{"type":"function","name":"replacePrefix","inputs":[],"outputs":[{"name":"","type":"bytes","internalType":"bytes"}],"stateMutability":"view"},{"type":"function","name":"replaceSuffix","inputs":[],"outputs":[{"name":"","type":"bytes","internalType":"bytes"}],"stateMutability":"view"},{"type":"function","name":"setDepositScript","inputs":[{"name":"_depositPrefix","type":"bytes","internalType":"bytes"},{"name":"_depositSuffix","type":"bytes","internalType":"bytes"}],"outputs":[],"stateMutability":"nonpayable"},{"type":"function","name":"setOperator","inputs":[{"name":"_operator","type":"address","internalType":"address"}],"outputs":[],"stateMutability":"nonpayable"},{"type":"function","name":"setReplaceScript","inputs":[{"name":"_replacePrefix","type":"bytes","internalType":"bytes"},{"name":"_replaceSuffix","type":"bytes","internalType":"bytes"}],"outputs":[],"stateMutability":"nonpayable"},{"type":"function","name":"transferOwnership","inputs":[{"name":"newOwner","type":"address","internalType":"address"}],"outputs":[],"stateMutability":"nonpayable"},{"type":"function","name":"withdraw","inputs":[{"name":"txId","type":"bytes32","internalType":"bytes32"},{"name":"outputId","type":"bytes4","internalType":"bytes4"}],"outputs":[],"stateMutability":"payable"},{"type":"function","name":"withdrawalUTXOs","inputs":[{"name":"","type":"uint256","internalType":"uint256"}],"outputs":[{"name":"txId","type":"bytes32","internalType":"bytes32"},{"name":"outputId","type":"bytes4","internalType":"bytes4"}],"stateMutability":"view"},{"type":"event","name":"Deposit","inputs":[{"name":"wtxId","type":"bytes32","indexed":false,"internalType":"bytes32"},{"name":"txId","type":"bytes32","indexed":false,"internalType":"bytes32"},{"name":"recipient","type":"address","indexed":false,"internalType":"address"},{"name":"timestamp","type":"uint256","indexed":false,"internalType":"uint256"},{"name":"depositId","type":"uint256","indexed":false,"internalType":"uint256"}],"anonymous":false},{"type":"event","name":"DepositReplaced","inputs":[{"name":"index","type":"uint256","indexed":false,"internalType":"uint256"},{"name":"oldTxId","type":"bytes32","indexed":false,"internalType":"bytes32"},{"name":"newTxId","type":"bytes32","indexed":false,"internalType":"bytes32"}],"anonymous":false},{"type":"event","name":"DepositScriptUpdate","inputs":[{"name":"depositPrefix","type":"bytes","indexed":false,"internalType":"bytes"},{"name":"depositSuffix","type":"bytes","indexed":false,"internalType":"bytes"}],"anonymous":false},{"type":"event","name":"Initialized","inputs":[{"name":"version","type":"uint64","indexed":false,"internalType":"uint64"}],"anonymous":false},{"type":"event","name":"OperatorUpdated","inputs":[{"name":"oldOperator","type":"address","indexed":false,"internalType":"address"},{"name":"newOperator","type":"address","indexed":false,"internalType":"address"}],"anonymous":false},{"type":"event","name":"OwnershipTransferStarted","inputs":[{"name":"previousOwner","type":"address","indexed":true,"internalType":"address"},{"name":"newOwner","type":"address","indexed":true,"internalType":"address"}],"anonymous":false},{"type":"event","name":"OwnershipTransferred","inputs":[{"name":"previousOwner","type":"address","indexed":true,"internalType":"address"},{"name":"newOwner","type":"address","indexed":true,"internalType":"address"}],"anonymous":false},{"type":"event","name":"ReplaceScriptUpdate","inputs":[{"name":"replacePrefix","type":"bytes","indexed":false,"internalType":"bytes"},{"name":"replaceSuffix","type":"bytes","indexed":false,"internalType":"bytes"}],"anonymous":false},{"type":"event","name":"Withdrawal","inputs":[{"name":"utxo","type":"tuple","indexed":false,"internalType":"struct Bridge.UTXO","components":[{"name":"txId","type":"bytes32","internalType":"bytes32"},{"name":"outputId","type":"bytes4","internalType":"bytes4"}]},{"name":"index","type":"uint256","indexed":false,"internalType":"uint256"},{"name":"timestamp","type":"uint256","indexed":false,"internalType":"uint256"}],"anonymous":false},{"type":"error","name":"InvalidInitialization","inputs":[]},{"type":"error","name":"NotInitializing","inputs":[]},{"type":"error","name":"OwnableInvalidOwner","inputs":[{"name":"owner","type":"address","internalType":"address"}]},{"type":"error","name":"OwnableUnauthorizedAccount","inputs":[{"name":"account","type":"address","internalType":"address"}]}],"bytecode":{"object":"0x6080604052348015600e575f5ffd5b50612d5b8061001c5f395ff3fe60806040526004361061017b575f3560e01c806379ba5097116100cd578063d761753e11610087578063e613ae0011610062578063e613ae001461042b578063f2fde38b14610445578063f42cb4fc14610464578063f8e655d214610478575f5ffd5b8063d761753e146103d1578063dd95c7c6146103f8578063e30c397814610417575f5ffd5b806379ba5097146103445780637ec9732a146103585780638752b6b2146103775780638786dba71461038b5780638da5cb5b1461039e578063b3ab15fb146103b2575f5ffd5b80634379caa5116101385780635b4f894d116101135780635b4f894d146102e75780636b0b5a9414610308578063715018a61461031c578063781952a814610330575f5ffd5b80634379caa514610241578063471ba1e31461026f578063570ca735146102ac575f5ffd5b8063065921671461017f578063158ef93e146101b157806319854623146101d95780633f874c84146101ee578063412601371461020d578063419759f51461022c575b5f5ffd5b34801561018a575f5ffd5b5061019e61019936600461263e565b610497565b6040519081526020015b60405180910390f35b3480156101bc575f5ffd5b505f546101c99060ff1681565b60405190151581526020016101a8565b6101ec6101e7366004612695565b6104b6565b005b3480156101f9575f5ffd5b506101ec610208366004612716565b61068c565b348015610218575f5ffd5b506101ec610227366004612794565b610b9f565b348015610237575f5ffd5b5061019e60015481565b34801561024c575f5ffd5b506101c961025b36600461263e565b60096020525f908152604090205460ff1681565b34801561027a575f5ffd5b5061028e61028936600461263e565b610d65565b604080519283526001600160e01b03199091166020830152016101a8565b3480156102b7575f5ffd5b505f546102cf9061010090046001600160a01b031681565b6040516001600160a01b0390911681526020016101a8565b3480156102f2575f5ffd5b506102fb610d94565b6040516101a89190612805565b348015610313575f5ffd5b506102fb610e20565b348015610327575f5ffd5b506101ec610e2d565b34801561033b575f5ffd5b5060075461019e565b34801561034f575f5ffd5b506101ec610e40565b348015610363575f5ffd5b506101ec61037236600461283a565b610e88565b348015610382575f5ffd5b506102fb610f3f565b6101ec6103993660046128b4565b610f4c565b3480156103a9575f5ffd5b506102cf611064565b3480156103bd575f5ffd5b506101ec6103cc3660046128de565b611098565b3480156103dc575f5ffd5b506102cf73deaddeaddeaddeaddeaddeaddeaddeaddeaddead81565b348015610403575f5ffd5b506101ec610412366004612904565b611108565b348015610422575f5ffd5b506102cf6115a5565b348015610436575f5ffd5b506102cf6001603160981b0181565b348015610450575f5ffd5b506101ec61045f3660046128de565b6115cd565b34801561046f575f5ffd5b506102fb611652565b348015610483575f5ffd5b506101ec61049236600461283a565b61165f565b600881815481106104a6575f80fd5b5f91825260209091200154905081565b8281146104fc5760405162461bcd60e51b815260206004820152600f60248201526e098cadccee8d040dad2e6dac2e8c6d608b1b60448201526064015b60405180910390fd5b60015461050a908490612949565b34146105525760405162461bcd60e51b8152602060048201526017602482015276125b9d985b1a59081dda5d1a191c985dc8185b5bdd5b9d604a1b60448201526064016104f3565b6007545f5b84811015610684575f604051806040016040528088888581811061057d5761057d612960565b90506020020135815260200186868581811061059b5761059b612960565b90506020020160208101906105b09190612974565b6001600160e01b0319169052600780546001810182555f9190915281517fa66cc928b5edb82af9bd49922954155ab7b0942694bea4ce44661d9a8736c68860029092029182015560208201517fa66cc928b5edb82af9bd49922954155ab7b0942694bea4ce44661d9a8736c689909101805463ffffffff191660e09290921c91909117905590507f3311a04a346a103ac115cca33028a2bc82f1964805860d0d3fc84a2772496ada81610663848661298d565b42604051610673939291906129a0565b60405180910390a150600101610557565b505050505050565b5f5461010090046001600160a01b031633146106ea5760405162461bcd60e51b815260206004820152601a60248201527f63616c6c6572206973206e6f7420746865206f70657261746f7200000000000060448201526064016104f3565b6106f382611708565b505060085481106107365760405162461bcd60e51b815260206004820152600d60248201526c092dcecc2d8d2c840d2dcc8caf609b1b60448201526064016104f3565b60058054610743906129ce565b90505f036107935760405162461bcd60e51b815260206004820152601960248201527f5265706c61636520736372697074206973206e6f74207365740000000000000060448201526064016104f3565b5f600882815481106107a7576107a7612960565b5f91825260208220015491506107fc6107c36080860186612a00565b8080601f0160208091040260200160405190810160405280939291908181526020018383808284375f9201829052509250611a5d915050565b90505f61080882611b3e565b915050806003146108535760405162461bcd60e51b8152602060048201526015602482015274496e76616c6964207769746e657373206974656d7360581b60448201526064016104f3565b5f61085f836001611b53565b90505f6005805461086f906129ce565b91505f905061087f838284611d1a565b90506109138160058054610892906129ce565b80601f01602080910402602001604051908101604052809291908181526020018280546108be906129ce565b80156109095780601f106108e057610100808354040283529160200191610909565b820191905f5260205f20905b8154815290600101906020018083116108ec57829003601f168201915b5050505050611ddb565b61095f5760405162461bcd60e51b815260206004820152601d60248201527f496e76616c6964207265706c616365207363726970742070726566697800000060448201526064016104f3565b5f61099260068054610970906129ce565b865161097c9250612a42565b60068054610989906129ce565b87929150611d1a565b90506109a58160068054610892906129ce565b6109f15760405162461bcd60e51b815260206004820152601c60248201527f496e76616c6964207265706c616365206372697074207375666669780000000060448201526064016104f3565b5f6109fb85611eac565b9050878114610a4c5760405162461bcd60e51b815260206004820181905260248201527f496e76616c6964207478496420746f207265706c6163652070726f766964656460448201526064016104f3565b5f610b16610a5d60208d018d612974565b610a6a60408e018e612a00565b8080601f0160208091040260200160405190810160405280939291908181526020018383808284375f81840152601f19601f820116905080830192505050505050508d8060600190610abc9190612a00565b8080601f0160208091040260200160405190810160405280939291908181526020018383808284375f81840152601f19601f820116905080830192505050505050508e60a0016020810190610b119190612974565b611edc565b90508060088b81548110610b2c57610b2c612960565b5f9182526020808320919091019290925582815260098252604090819020805460ff1916600117905580518c815291820184905281018290527f4d7c644a48da4c7857af62a00bad9806f0388564f22955ed846d938c244047f09060600160405180910390a15050505050505050505050565b3373deaddeaddeaddeaddeaddeaddeaddeaddeaddead14610c025760405162461bcd60e51b815260206004820152601f60248201527f63616c6c6572206973206e6f74207468652073797374656d2063616c6c65720060448201526064016104f3565b5f5460ff1615610c545760405162461bcd60e51b815260206004820152601f60248201527f436f6e747261637420697320616c726561647920696e697469616c697a65640060448201526064016104f3565b805f03610ca35760405162461bcd60e51b815260206004820152601a60248201527f4465706f73697420616d6f756e742063616e6e6f74206265203000000000000060448201526064016104f3565b5f849003610cf35760405162461bcd60e51b815260206004820152601e60248201527f4465706f736974207363726970742063616e6e6f7420626520656d707479000060448201526064016104f3565b5f805460ff191660011790556003610d0c858783612ab5565b506004610d1a838583612ab5565b5060018190556040517f80bd1fdfe157286ce420ee763f91748455b249605748e5df12dad9844402bafc90610d56908790879087908790612b96565b60405180910390a15050505050565b60078181548110610d74575f80fd5b5f9182526020909120600290910201805460019091015490915060e01b82565b60038054610da1906129ce565b80601f0160208091040260200160405190810160405280929190818152602001828054610dcd906129ce565b8015610e185780601f10610def57610100808354040283529160200191610e18565b820191905f5260205f20905b815481529060010190602001808311610dfb57829003601f168201915b505050505081565b60058054610da1906129ce565b610e35611f14565b610e3e5f611f46565b565b3380610e4a6115a5565b6001600160a01b031614610e7c5760405163118cdaa760e01b81526001600160a01b03821660048201526024016104f3565b610e8581611f46565b50565b610e90611f14565b5f839003610ee05760405162461bcd60e51b815260206004820152601e60248201527f5265706c616365207363726970742063616e6e6f7420626520656d707479000060448201526064016104f3565b6005610eed848683612ab5565b506006610efb828483612ab5565b507f6c9ac69a5e351d3e7ac9be95040d29a264d1ce6a409ca9f042c64c66c3f2a23a84848484604051610f319493929190612b96565b60405180910390a150505050565b60048054610da1906129ce565b6001543414610f975760405162461bcd60e51b8152602060048201526017602482015276125b9d985b1a59081dda5d1a191c985dc8185b5bdd5b9d604a1b60448201526064016104f3565b6040805180820182528381526001600160e01b0319831660208201908152600780546001810182555f9190915282517fa66cc928b5edb82af9bd49922954155ab7b0942694bea4ce44661d9a8736c688600283029081019190915591517fa66cc928b5edb82af9bd49922954155ab7b0942694bea4ce44661d9a8736c689909201805463ffffffff191660e09390931c9290921790915591519091907f3311a04a346a103ac115cca33028a2bc82f1964805860d0d3fc84a2772496ada90610f31908490849042906129a0565b5f807f9016d09d72d40fdae2fd8ceac6b6234c7706214fd39c1cd1e609a0528c1993005b546001600160a01b031692915050565b6110a0611f14565b5f8054610100600160a81b0319166101006001600160a01b038481168281029390931793849055604080519290940416815260208101919091527ffbe5b6cbafb274f445d7fed869dc77a838d8243a22c460de156560e8857cad03910160405180910390a150565b3373deaddeaddeaddeaddeaddeaddeaddeaddeaddead148061113857505f5461010090046001600160a01b031633145b6111985760405162461bcd60e51b815260206004820152602b60248201527f63616c6c6572206973206e6f74207468652073797374656d2063616c6c65722060448201526a37b91037b832b930ba37b960a91b60648201526084016104f3565b5f5f6111a383611708565b91509150806001146111f05760405162461bcd60e51b815260206004820152601660248201527513db9b1e481bdb99481a5b9c1d5d08185b1b1bddd95960521b60448201526064016104f3565b5f6112936112016020860186612974565b61120e6040870187612a00565b8080601f0160208091040260200160405190810160405280939291908181526020018383808284375f9201919091525061124f925050506060880188612a00565b8080601f0160208091040260200160405190810160405280939291908181526020018383808284375f92019190915250610b119250505060c0890160a08a01612974565b5f8181526009602052604090205490915060ff16156112e95760405162461bcd60e51b81526020600482015260126024820152711d1e125908185b1c9958591e481cdc195b9d60721b60448201526064016104f3565b5f818152600960205260408120805460ff1916600190811790915560088054918201815582527ff3f7a9fe364faab93b216da50a3214154f22a0a2b415b23a84c8169e8b636ee3018290556113446107c36080870187612a00565b90505f61135082611b3e565b9150508060031461139b5760405162461bcd60e51b8152602060048201526015602482015274496e76616c6964207769746e657373206974656d7360581b60448201526064016104f3565b5f6113a7836001611b53565b90505f600380546113b7906129ce565b91505f90506113c7838284611d1a565b90506113da8160038054610892906129ce565b61141f5760405162461bcd60e51b8152602060048201526016602482015275125b9d985b1a590819195c1bdcda5d081cd8dc9a5c1d60521b60448201526064016104f3565b5f61144960048054611430906129ce565b865161143c9250612a42565b60048054610989906129ce565b905061145c8160048054610892906129ce565b6114a05760405162461bcd60e51b8152602060048201526015602482015274092dcecc2d8d2c840e6c6e4d2e0e840e6eaccccd2f605b1b60448201526064016104f3565b5f6114aa85611f82565b600254604080518d8152602081018c90526001600160a01b038416818301524260608201526080810192909252519192507fa82453ca34121b3ecb910d957824e27c5dc6465315949facd15fb72886490058919081900360a00190a16001546040515f916001600160a01b038416918381818185875af1925050503d805f811461154f576040519150601f19603f3d011682016040523d82523d5f602084013e611554565b606091505b50509050806115975760405162461bcd60e51b815260206004820152600f60248201526e151c985b9cd9995c8819985a5b1959608a1b60448201526064016104f3565b505050505050505050505050565b5f807f237e158222e3e6968b72b9db0d8043aacf074ad9f650f0d1606b4d82ee432c00611088565b6115d5611f14565b7f237e158222e3e6968b72b9db0d8043aacf074ad9f650f0d1606b4d82ee432c0080546001600160a01b0319166001600160a01b0383169081178255611619611064565b6001600160a01b03167f38d16b8cac22d99fc7c124b9cd0de2d3fa1faef420bfe791d8c362d765e2270060405160405180910390a35050565b60068054610da1906129ce565b611667611f14565b5f8390036116b75760405162461bcd60e51b815260206004820152601e60248201527f4465706f736974207363726970742063616e6e6f7420626520656d707479000060448201526064016104f3565b60036116c4848683612ab5565b5060046116d2828483612ab5565b507f80bd1fdfe157286ce420ee763f91748455b249605748e5df12dad9844402bafc84848484604051610f319493929190612b96565b5f808061176761171b6020860186612974565b61172b6040870160208801612bbc565b6117386040880188612a00565b61174560608a018a612a00565b61175260808c018c612a00565b61176260c08e0160a08f01612974565b611fb6565b90506117b26117796040860186612a00565b8080601f0160208091040260200160405190810160405280939291908181526020018383808284375f92019190915250611fe992505050565b6117fe5760405162461bcd60e51b815260206004820152601d60248201527f56696e206973206e6f742070726f7065726c7920666f726d617474656400000060448201526064016104f3565b61184761180e6060860186612a00565b8080601f0160208091040260200160405190810160405280939291908181526020018383808284375f9201919091525061208392505050565b6118935760405162461bcd60e51b815260206004820152601e60248201527f566f7574206973206e6f742070726f7065726c7920666f726d6174746564000060448201526064016104f3565b5f6118dd6118a46040870187612a00565b8080601f0160208091040260200160405190810160405280939291908181526020018383808284375f92019190915250611b3e92505050565b915061192c90506118f16080870187612a00565b8080601f0160208091040260200160405190810160405280939291908181526020018383808284375f92019190915250859250612110915050565b6119825760405162461bcd60e51b815260206004820152602160248201527f5769746e657373206973206e6f742070726f7065726c7920666f726d617474656044820152601960fa1b60648201526084016104f3565b6001603160981b01634ffd344a60e0870135846119a260c08a018a612a00565b8a61010001356040518663ffffffff1660e01b81526004016119c8959493929190612be3565b602060405180830381865afa1580156119e3573d5f5f3e3d5ffd5b505050506040513d601f19601f82011682018060405250810190611a079190612c14565b611a535760405162461bcd60e51b815260206004820152601b60248201527f5472616e73616374696f6e206973206e6f7420696e20626c6f636b000000000060448201526064016104f3565b9094909350915050565b60605f80805b84811015611ad357611a75868361217d565b92505f198303611abf5760405162461bcd60e51b815260206004820152601560248201527442616420566172496e7420696e207769746e65737360581b60448201526064016104f3565b611ac9838361298d565b9150600101611a63565b50611ade858261217d565b91505f198203611b285760405162461bcd60e51b815260206004820152601560248201527442616420566172496e7420696e207769746e65737360581b60448201526064016104f3565b611b33858284611d1a565b925050505b92915050565b5f5f611b4a835f61221e565b91509150915091565b60605f5f611b6085611b3e565b909250905060018201611bc05760405162461bcd60e51b815260206004820152602260248201527f52656164206f76657272756e20647572696e6720566172496e742070617273696044820152616e6760f01b60648201526084016104f3565b808410611c025760405162461bcd60e51b815260206004820152601060248201526f2b34b7103932b0b21037bb32b9393ab760811b60448201526064016104f3565b5f80611c0f84600161298d565b90505f5b86811015611c9957611c25888361221e565b909550925060018301611c6f5760405162461bcd60e51b815260206004820152601260248201527142616420566172496e7420696e206974656d60701b60448201526064016104f3565b82611c7b86600161298d565b611c85919061298d565b611c8f908361298d565b9150600101611c13565b50611ca4878261221e565b909450915060018201611cee5760405162461bcd60e51b815260206004820152601260248201527142616420566172496e7420696e206974656d60701b60448201526064016104f3565b611d0f81611cfc868561298d565b611d0790600161298d565b899190611d1a565b979650505050505050565b6060815f03611d37575060408051602081019091525f8152611dd4565b5f611d42838561298d565b90508381118015611d54575080855110155b611d965760405162461bcd60e51b8152602060048201526013602482015272536c696365206f7574206f6620626f756e647360681b60448201526064016104f3565b604051915082604083010160405282825283850182038460208701018481015b80821015611dcf57815183830152602082019150611db6565b505050505b9392505050565b815181515f91908114611df1575f915050611b38565b60205f805b838311611e255750508481015184820151602090920191808214611e20575f945050505050611b38565b611df6565b5f611e31602085612a42565b90505b84811015611e9e57868181518110611e4e57611e4e612960565b602001015160f81c60f81b6001600160f81b031916888281518110611e7557611e75612960565b01602001516001600160f81b03191614611e96575f95505050505050611b38565b600101611e34565b506001979650505050505050565b5f5f60058054611ebb906129ce565b91505f9050611ed4611ecf85846020611d1a565b6123b9565b949350505050565b5f611f0b85858585604051602001611ef79493929190612c4a565b60405160208183030381529060405261243b565b95945050505050565b33611f1d611064565b6001600160a01b031614610e3e5760405163118cdaa760e01b81523360048201526024016104f3565b7f237e158222e3e6968b72b9db0d8043aacf074ad9f650f0d1606b4d82ee432c0080546001600160a01b0319168155611f7e8261245d565b5050565b5f5f60038054611f91906129ce565b91505f9050611fa284836014611d1a565b611fab90612c89565b60601c949350505050565b5f611fdb8a8a8a8a8a8a8a8a8a604051602001611ef799989796959493929190612cdc565b9a9950505050505050505050565b5f5f5f611ff584611b3e565b909250905080158061200757505f1982145b1561201557505f9392505050565b5f61202183600161298d565b90505f5b82811015612076578551821061204057505f95945050505050565b5f61204b87846124cd565b90505f19810361206157505f9695505050505050565b61206b818461298d565b925050600101612025565b5093519093149392505050565b5f5f5f61208f84611b3e565b90925090508015806120a157505f1982145b156120af57505f9392505050565b5f6120bb83600161298d565b90505f5b8281101561207657855182106120da57505f95945050505050565b5f6120e58784612513565b90505f1981036120fb57505f9695505050505050565b612105818461298d565b9250506001016120bf565b5f815f0361211f57505f611b38565b5f805b83811015612171578451821061213c575f92505050611b38565b5f612147868461217d565b90505f19810361215c575f9350505050611b38565b612166818461298d565b925050600101612122565b50835114905092915050565b5f5f5f61218a858561221e565b9092509050600182016121a2575f1992505050611b38565b5f806121af84600161298d565b90505f5b83811015612213576121ce886121c9848a61298d565b61221e565b9095509250600183016121e9575f1995505050505050611b38565b826121f586600161298d565b6121ff919061298d565b612209908361298d565b91506001016121b3565b509695505050505050565b5f5f5f61222b858561256e565b90508060ff165f0361225e575f85858151811061224a5761224a612960565b016020015190935060f81c91506123b29050565b8361226a826001612d42565b60ff16612277919061298d565b8551101561228c575f195f92509250506123b2565b5f8160ff166002036122cf576122c46122b06122a987600161298d565b88906125f2565b62ffff0060e882901c1660f89190911c1790565b61ffff1690506123a8565b8160ff1660040361231e576123116122eb6122a987600161298d565b60d881901c63ff00ff001662ff00ff60e89290921c9190911617601081811b91901c1790565b63ffffffff1690506123a8565b8160ff166008036123a85761239c61233a6122a987600161298d565b60c01c64ff000000ff600882811c91821665ff000000ff009390911b92831617601090811b6001600160401b031666ff00ff00ff00ff9290921667ff00ff00ff00ff009093169290921790911c65ffff0000ffff1617602081811c91901b1790565b6001600160401b031690505b60ff909116925090505b9250929050565b5f81515f036123c957505f919050565b815160208111156124275760405162461bcd60e51b815260206004820152602260248201527f42797465732063616e6e6f74206265206d6f7265207468616e20333220627974604482015261657360f01b60648201526084016104f3565b60209283015192036008029190911c919050565b5f60205f83516020850160025afa5060205f60205f60025afa50505f51919050565b7f9016d09d72d40fdae2fd8ceac6b6234c7706214fd39c1cd1e609a0528c19930080546001600160a01b031981166001600160a01b03848116918217845560405192169182907f8be0079c531659141344cd1fd0a4f28419497f9722a3daafe3b4186f6b6457e0905f90a3505050565b5f5f5f6124da8585612600565b9092509050600182016124f2575f1992505050611b38565b806124fe83602561298d565b612508919061298d565b611b3390600461298d565b5f61251f82600961298d565b8351101561252f57505f19611b38565b5f80612540856121c986600861298d565b909250905060018201612558575f1992505050611b38565b8061256483600961298d565b611b33919061298d565b5f82828151811061258157612581612960565b016020015160f81c60ff0361259857506008611b38565b8282815181106125aa576125aa612960565b016020015160f81c60fe036125c157506004611b38565b8282815181106125d3576125d3612960565b016020015160f81c60fd036125ea57506002611b38565b505f92915050565b5f611dd48383016020015190565b5f8061260d83602561298d565b8451101561262057505f1990505f6123b2565b5f80612631866121c987602461298d565b9097909650945050505050565b5f6020828403121561264e575f5ffd5b5035919050565b5f5f83601f840112612665575f5ffd5b5081356001600160401b0381111561267b575f5ffd5b6020830191508360208260051b85010111156123b2575f5ffd5b5f5f5f5f604085870312156126a8575f5ffd5b84356001600160401b038111156126bd575f5ffd5b6126c987828801612655565b90955093505060208501356001600160401b038111156126e7575f5ffd5b6126f387828801612655565b95989497509550505050565b5f6101208284031215612710575f5ffd5b50919050565b5f5f60408385031215612727575f5ffd5b82356001600160401b0381111561273c575f5ffd5b612748858286016126ff565b95602094909401359450505050565b5f5f83601f840112612767575f5ffd5b5081356001600160401b0381111561277d575f5ffd5b6020830191508360208285010111156123b2575f5ffd5b5f5f5f5f5f606086880312156127a8575f5ffd5b85356001600160401b038111156127bd575f5ffd5b6127c988828901612757565b90965094505060208601356001600160401b038111156127e7575f5ffd5b6127f388828901612757565b96999598509660400135949350505050565b602081525f82518060208401528060208501604085015e5f604082850101526040601f19601f83011684010191505092915050565b5f5f5f5f6040858703121561284d575f5ffd5b84356001600160401b03811115612862575f5ffd5b61286e87828801612757565b90955093505060208501356001600160401b0381111561288c575f5ffd5b6126f387828801612757565b80356001600160e01b0319811681146128af575f5ffd5b919050565b5f5f604083850312156128c5575f5ffd5b823591506128d560208401612898565b90509250929050565b5f602082840312156128ee575f5ffd5b81356001600160a01b0381168114611dd4575f5ffd5b5f60208284031215612914575f5ffd5b81356001600160401b03811115612929575f5ffd5b611ed4848285016126ff565b634e487b7160e01b5f52601160045260245ffd5b8082028115828204841417611b3857611b38612935565b634e487b7160e01b5f52603260045260245ffd5b5f60208284031215612984575f5ffd5b611dd482612898565b80820180821115611b3857611b38612935565b835181526020938401516001600160e01b031916938101939093526040830191909152606082015260800190565b600181811c908216806129e257607f821691505b60208210810361271057634e487b7160e01b5f52602260045260245ffd5b5f5f8335601e19843603018112612a15575f5ffd5b8301803591506001600160401b03821115612a2e575f5ffd5b6020019150368190038213156123b2575f5ffd5b81810381811115611b3857611b38612935565b634e487b7160e01b5f52604160045260245ffd5b601f821115612ab057805f5260205f20601f840160051c81016020851015612a8e5750805b601f840160051c820191505b81811015612aad575f8155600101612a9a565b50505b505050565b6001600160401b03831115612acc57612acc612a55565b612ae083612ada83546129ce565b83612a69565b5f601f841160018114612b11575f8515612afa5750838201355b5f19600387901b1c1916600186901b178355612aad565b5f83815260208120601f198716915b82811015612b405786850135825560209485019460019092019101612b20565b5086821015612b5c575f1960f88860031b161c19848701351681555b505060018560011b0183555050505050565b81835281816020850137505f828201602090810191909152601f909101601f19169091010190565b604081525f612ba9604083018688612b6e565b8281036020840152611d0f818587612b6e565b5f60208284031215612bcc575f5ffd5b81356001600160f01b031981168114611dd4575f5ffd5b858152846020820152608060408201525f612c02608083018587612b6e565b90508260608301529695505050505050565b5f60208284031215612c24575f5ffd5b81518015158114611dd4575f5ffd5b5f81518060208401855e5f93019283525090919050565b6001600160e01b0319851681525f612c6e612c686004840187612c33565b85612c33565b6001600160e01b031993909316835250506004019392505050565b805160208201516bffffffffffffffffffffffff19811691906014821015612cd5576bffffffffffffffffffffffff196bffffffffffffffffffffffff198360140360031b1b82161692505b5050919050565b6001600160e01b03198a1681526001600160f01b031989166004820152868860068301375f878201600681015f815287898237505f908701600601908152848682376001600160e01b031993909316929093019182525060040198975050505050505050565b60ff8181168382160190811115611b3857611b3861293556","linkReferences":{}},"methodIdentifiers":{"LIGHT_CLIENT()":"e613ae00","SYSTEM_CALLER()":"d761753e","acceptOwnership()":"79ba5097","batchWithdraw(bytes32[],bytes4[])":"19854623","deposit((bytes4,bytes2,bytes,bytes,bytes,bytes4,bytes,uint256,uint256))":"dd95c7c6","depositAmount()":"419759f5","depositPrefix()":"5b4f894d","depositSuffix()":"8752b6b2","depositTxIds(uint256)":"06592167","getWithdrawalCount()":"781952a8","initialize(bytes,bytes,uint256)":"41260137","initialized()":"158ef93e","operator()":"570ca735","owner()":"8da5cb5b","pendingOwner()":"e30c3978","processedTxIds(bytes32)":"4379caa5","renounceOwnership()":"715018a6","replaceDeposit((bytes4,bytes2,bytes,bytes,bytes,bytes4,bytes,uint256,uint256),uint256)":"3f874c84","replacePrefix()":"6b0b5a94","replaceSuffix()":"f42cb4fc","setDepositScript(bytes,bytes)":"f8e655d2","setOperator(address)":"b3ab15fb","setReplaceScript(bytes,bytes)":"7ec9732a","transferOwnership(address)":"f2fde38b","withdraw(bytes32,bytes4)":"8786dba7","withdrawalUTXOs(uint256)":"471ba1e3"},"id":45}