{"abi":[{"type":"function","name":"CODESEP_POS","inputs":[],"outputs":[{"name":"","type":"bytes","internalType":"bytes"}],"stateMutability":"view"},{"type":"function","name":"EPOCH","inputs":[],"outputs":[{"name":"","type":"bytes","internalType":"bytes"}],"stateMutability":"view"},{"type":"function","name":"INPUT_INDEX","inputs":[],"outputs":[{"name":"","type":"bytes","internalType":"bytes"}],"stateMutability":"view"},{"type":"function","name":"KEY_VERSION","inputs":[],"outputs":[{"name":"","type":"bytes","internalType":"bytes"}],"stateMutability":"view"},{"type":"function","name":"LIGHT_CLIENT","inputs":[],"outputs":[{"name":"","type":"address","internalType":"contract BitcoinLightClient"}],"stateMutability":"view"},{"type":"function","name":"SAT_TO_WEI","inputs":[],"outputs":[{"name":"","type":"uint256","internalType":"uint256"}],"stateMutability":"view"},{"type":"function","name":"SCHNORR_VERIFIER_PRECOMPILE","inputs":[],"outputs":[{"name":"","type":"address","internalType":"address"}],"stateMutability":"view"},{"type":"function","name":"SIGHASH_ALL_HASH_TYPE","inputs":[],"outputs":[{"name":"","type":"bytes","internalType":"bytes"}],"stateMutability":"view"},{"type":"function","name":"SIGHASH_SINGLE_ANYONECANPAY_HASH_TYPE","inputs":[],"outputs":[{"name":"","type":"bytes","internalType":"bytes"}],"stateMutability":"view"},{"type":"function","name":"SPEND_TYPE_EXT","inputs":[],"outputs":[{"name":"","type":"bytes","internalType":"bytes"}],"stateMutability":"view"},{"type":"function","name":"SPEND_TYPE_NO_EXT","inputs":[],"outputs":[{"name":"","type":"bytes","internalType":"bytes"}],"stateMutability":"view"},{"type":"function","name":"SYSTEM_CALLER","inputs":[],"outputs":[{"name":"","type":"address","internalType":"address"}],"stateMutability":"view"},{"type":"function","name":"acceptOwnership","inputs":[],"outputs":[],"stateMutability":"nonpayable"},{"type":"function","name":"batchWithdraw","inputs":[{"name":"txIds","type":"bytes32[]","internalType":"bytes32[]"},{"name":"outputIds","type":"bytes4[]","internalType":"bytes4[]"}],"outputs":[],"stateMutability":"payable"},{"type":"function","name":"deposit","inputs":[{"name":"moveTx","type":"tuple","internalType":"struct Bridge.Transaction","components":[{"name":"version","type":"bytes4","internalType":"bytes4"},{"name":"flag","type":"bytes2","internalType":"bytes2"},{"name":"vin","type":"bytes","internalType":"bytes"},{"name":"vout","type":"bytes","internalType":"bytes"},{"name":"witness","type":"bytes","internalType":"bytes"},{"name":"locktime","type":"bytes4","internalType":"bytes4"}]},{"name":"proof","type":"tuple","internalType":"struct Bridge.MerkleProof","components":[{"name":"intermediateNodes","type":"bytes","internalType":"bytes"},{"name":"blockHeight","type":"uint256","internalType":"uint256"},{"name":"index","type":"uint256","internalType":"uint256"}]},{"name":"shaScriptPubkeys","type":"bytes32","internalType":"bytes32"}],"outputs":[],"stateMutability":"nonpayable"},{"type":"function","name":"depositAmount","inputs":[],"outputs":[{"name":"","type":"uint256","internalType":"uint256"}],"stateMutability":"view"},{"type":"function","name":"depositPrefix","inputs":[],"outputs":[{"name":"","type":"bytes","internalType":"bytes"}],"stateMutability":"view"},{"type":"function","name":"depositSuffix","inputs":[],"outputs":[{"name":"","type":"bytes","internalType":"bytes"}],"stateMutability":"view"},{"type":"function","name":"depositTxIds","inputs":[{"name":"","type":"uint256","internalType":"uint256"}],"outputs":[{"name":"","type":"bytes32","internalType":"bytes32"}],"stateMutability":"view"},{"type":"function","name":"failedDepositVault","inputs":[],"outputs":[{"name":"","type":"address","internalType":"address"}],"stateMutability":"view"},{"type":"function","name":"getAggregatedKey","inputs":[],"outputs":[{"name":"","type":"bytes","internalType":"bytes"}],"stateMutability":"view"},{"type":"function","name":"getWithdrawalCount","inputs":[],"outputs":[{"name":"","type":"uint256","internalType":"uint256"}],"stateMutability":"view"},{"type":"function","name":"initialize","inputs":[{"name":"_depositPrefix","type":"bytes","internalType":"bytes"},{"name":"_depositSuffix","type":"bytes","internalType":"bytes"},{"name":"_depositAmount","type":"uint256","internalType":"uint256"}],"outputs":[],"stateMutability":"nonpayable"},{"type":"function","name":"initialized","inputs":[],"outputs":[{"name":"","type":"bool","internalType":"bool"}],"stateMutability":"view"},{"type":"function","name":"operator","inputs":[],"outputs":[{"name":"","type":"address","internalType":"address"}],"stateMutability":"view"},{"type":"function","name":"owner","inputs":[],"outputs":[{"name":"","type":"address","internalType":"address"}],"stateMutability":"view"},{"type":"function","name":"pendingOwner","inputs":[],"outputs":[{"name":"","type":"address","internalType":"address"}],"stateMutability":"view"},{"type":"function","name":"processedTxIds","inputs":[{"name":"","type":"bytes32","internalType":"bytes32"}],"outputs":[{"name":"","type":"bool","internalType":"bool"}],"stateMutability":"view"},{"type":"function","name":"renounceOwnership","inputs":[],"outputs":[],"stateMutability":"nonpayable"},{"type":"function","name":"replaceDeposit","inputs":[{"name":"replaceTx","type":"tuple","internalType":"struct Bridge.Transaction","components":[{"name":"version","type":"bytes4","internalType":"bytes4"},{"name":"flag","type":"bytes2","internalType":"bytes2"},{"name":"vin","type":"bytes","internalType":"bytes"},{"name":"vout","type":"bytes","internalType":"bytes"},{"name":"witness","type":"bytes","internalType":"bytes"},{"name":"locktime","type":"bytes4","internalType":"bytes4"}]},{"name":"proof","type":"tuple","internalType":"struct Bridge.MerkleProof","components":[{"name":"intermediateNodes","type":"bytes","internalType":"bytes"},{"name":"blockHeight","type":"uint256","internalType":"uint256"},{"name":"index","type":"uint256","internalType":"uint256"}]},{"name":"idToReplace","type":"uint256","internalType":"uint256"},{"name":"shaScriptPubkeys","type":"bytes32","internalType":"bytes32"}],"outputs":[],"stateMutability":"nonpayable"},{"type":"function","name":"replacePrefix","inputs":[],"outputs":[{"name":"","type":"bytes","internalType":"bytes"}],"stateMutability":"view"},{"type":"function","name":"replaceSuffix","inputs":[],"outputs":[{"name":"","type":"bytes","internalType":"bytes"}],"stateMutability":"view"},{"type":"function","name":"safeWithdraw","inputs":[{"name":"prepareTx","type":"tuple","internalType":"struct Bridge.Transaction","components":[{"name":"version","type":"bytes4","internalType":"bytes4"},{"name":"flag","type":"bytes2","internalType":"bytes2"},{"name":"vin","type":"bytes","internalType":"bytes"},{"name":"vout","type":"bytes","internalType":"bytes"},{"name":"witness","type":"bytes","internalType":"bytes"},{"name":"locktime","type":"bytes4","internalType":"bytes4"}]},{"name":"prepareProof","type":"tuple","internalType":"struct Bridge.MerkleProof","components":[{"name":"intermediateNodes","type":"bytes","internalType":"bytes"},{"name":"blockHeight","type":"uint256","internalType":"uint256"},{"name":"index","type":"uint256","internalType":"uint256"}]},{"name":"payoutTx","type":"tuple","internalType":"struct Bridge.Transaction","components":[{"name":"version","type":"bytes4","internalType":"bytes4"},{"name":"flag","type":"bytes2","internalType":"bytes2"},{"name":"vin","type":"bytes","internalType":"bytes"},{"name":"vout","type":"bytes","internalType":"bytes"},{"name":"witness","type":"bytes","internalType":"bytes"},{"name":"locktime","type":"bytes4","internalType":"bytes4"}]},{"name":"blockHeader","type":"bytes","internalType":"bytes"},{"name":"withdrawalAddressPubKey","type":"bytes","internalType":"bytes"}],"outputs":[],"stateMutability":"payable"},{"type":"function","name":"setDepositScript","inputs":[{"name":"_depositPrefix","type":"bytes","internalType":"bytes"},{"name":"_depositSuffix","type":"bytes","internalType":"bytes"}],"outputs":[],"stateMutability":"nonpayable"},{"type":"function","name":"setFailedDepositVault","inputs":[{"name":"_failedDepositVault","type":"address","internalType":"address"}],"outputs":[],"stateMutability":"nonpayable"},{"type":"function","name":"setOperator","inputs":[{"name":"_operator","type":"address","internalType":"address"}],"outputs":[],"stateMutability":"nonpayable"},{"type":"function","name":"setReplaceScript","inputs":[{"name":"_replacePrefix","type":"bytes","internalType":"bytes"},{"name":"_replaceSuffix","type":"bytes","internalType":"bytes"}],"outputs":[],"stateMutability":"nonpayable"},{"type":"function","name":"transferOwnership","inputs":[{"name":"newOwner","type":"address","internalType":"address"}],"outputs":[],"stateMutability":"nonpayable"},{"type":"function","name":"withdraw","inputs":[{"name":"txId","type":"bytes32","internalType":"bytes32"},{"name":"outputId","type":"bytes4","internalType":"bytes4"}],"outputs":[],"stateMutability":"payable"},{"type":"function","name":"withdrawalUTXOs","inputs":[{"name":"","type":"uint256","internalType":"uint256"}],"outputs":[{"name":"txId","type":"bytes32","internalType":"bytes32"},{"name":"outputId","type":"bytes4","internalType":"bytes4"}],"stateMutability":"view"},{"type":"event","name":"Deposit","inputs":[{"name":"wtxId","type":"bytes32","indexed":false,"internalType":"bytes32"},{"name":"txId","type":"bytes32","indexed":false,"internalType":"bytes32"},{"name":"recipient","type":"address","indexed":false,"internalType":"address"},{"name":"timestamp","type":"uint256","indexed":false,"internalType":"uint256"},{"name":"depositId","type":"uint256","indexed":false,"internalType":"uint256"}],"anonymous":false},{"type":"event","name":"DepositReplaced","inputs":[{"name":"index","type":"uint256","indexed":false,"internalType":"uint256"},{"name":"oldTxId","type":"bytes32","indexed":false,"internalType":"bytes32"},{"name":"newTxId","type":"bytes32","indexed":false,"internalType":"bytes32"}],"anonymous":false},{"type":"event","name":"DepositScriptUpdate","inputs":[{"name":"depositPrefix","type":"bytes","indexed":false,"internalType":"bytes"},{"name":"depositSuffix","type":"bytes","indexed":false,"internalType":"bytes"}],"anonymous":false},{"type":"event","name":"DepositTransferFailed","inputs":[{"name":"wtxId","type":"bytes32","indexed":false,"internalType":"bytes32"},{"name":"txId","type":"bytes32","indexed":false,"internalType":"bytes32"},{"name":"recipient","type":"address","indexed":false,"internalType":"address"},{"name":"timestamp","type":"uint256","indexed":false,"internalType":"uint256"},{"name":"depositId","type":"uint256","indexed":false,"internalType":"uint256"}],"anonymous":false},{"type":"event","name":"FailedDepositVaultUpdated","inputs":[{"name":"oldVault","type":"address","indexed":false,"internalType":"address"},{"name":"newVault","type":"address","indexed":false,"internalType":"address"}],"anonymous":false},{"type":"event","name":"Initialized","inputs":[{"name":"version","type":"uint64","indexed":false,"internalType":"uint64"}],"anonymous":false},{"type":"event","name":"OperatorUpdated","inputs":[{"name":"oldOperator","type":"address","indexed":false,"internalType":"address"},{"name":"newOperator","type":"address","indexed":false,"internalType":"address"}],"anonymous":false},{"type":"event","name":"OwnershipTransferStarted","inputs":[{"name":"previousOwner","type":"address","indexed":true,"internalType":"address"},{"name":"newOwner","type":"address","indexed":true,"internalType":"address"}],"anonymous":false},{"type":"event","name":"OwnershipTransferred","inputs":[{"name":"previousOwner","type":"address","indexed":true,"internalType":"address"},{"name":"newOwner","type":"address","indexed":true,"internalType":"address"}],"anonymous":false},{"type":"event","name":"ReplaceScriptUpdate","inputs":[{"name":"replacePrefix","type":"bytes","indexed":false,"internalType":"bytes"},{"name":"replaceSuffix","type":"bytes","indexed":false,"internalType":"bytes"}],"anonymous":false},{"type":"event","name":"SafeWithdrawal","inputs":[{"name":"payoutTx","type":"tuple","indexed":false,"internalType":"struct Bridge.Transaction","components":[{"name":"version","type":"bytes4","internalType":"bytes4"},{"name":"flag","type":"bytes2","internalType":"bytes2"},{"name":"vin","type":"bytes","internalType":"bytes"},{"name":"vout","type":"bytes","internalType":"bytes"},{"name":"witness","type":"bytes","internalType":"bytes"},{"name":"locktime","type":"bytes4","internalType":"bytes4"}]},{"name":"spentUtxo","type":"tuple","indexed":false,"internalType":"struct Bridge.UTXO","components":[{"name":"txId","type":"bytes32","internalType":"bytes32"},{"name":"outputId","type":"bytes4","internalType":"bytes4"}]},{"name":"index","type":"uint256","indexed":false,"internalType":"uint256"}],"anonymous":false},{"type":"event","name":"Withdrawal","inputs":[{"name":"utxo","type":"tuple","indexed":false,"internalType":"struct Bridge.UTXO","components":[{"name":"txId","type":"bytes32","internalType":"bytes32"},{"name":"outputId","type":"bytes4","internalType":"bytes4"}]},{"name":"index","type":"uint256","indexed":false,"internalType":"uint256"},{"name":"timestamp","type":"uint256","indexed":false,"internalType":"uint256"}],"anonymous":false},{"type":"error","name":"InvalidInitialization","inputs":[]},{"type":"error","name":"NotInitializing","inputs":[]},{"type":"error","name":"OwnableInvalidOwner","inputs":[{"name":"owner","type":"address","internalType":"address"}]},{"type":"error","name":"OwnableUnauthorizedAccount","inputs":[{"name":"account","type":"address","internalType":"address"}]}],"bytecode":{"object":"0x608080604052346015576149f5908161001a8239f35b5f80fdfe60806040526004361015610011575f80fd5b5f3560e01c80630659216714610285578063092ac5d4146102085780630bd89ab7146102085780631369ac3e14610208578063158ef93e14610280578063198546231461027b57806323dacd29146102765780632594f107146102715780633c918b6c1461026c5780634126013714610267578063419759f514610262578063428bcd351461025d5780634379caa514610258578063471ba1e314610253578063570ca7351461024e5780635b4f894d146102495780636b0b5a94146102445780636cf7d6411461023f578063715018a61461023a578063781952a81461023557806379ba5097146102305780637ec9732a1461022b57806385fb7151146102265780638752b6b2146102215780638786dba71461021c5780638da5cb5b146102175780639072f747146102125780639a4f308d1461020d578063a0dc275814610208578063a670e7ed14610203578063b2497e70146101fe578063b3ab15fb146101f9578063d761753e146101f4578063e30c3978146101ef578063e613ae00146101ea578063f2fde38b146101e5578063f42cb4fc146101e0578063f8e655d2146101db578063fb11d7b9146101d65763fdecdf53146101d1575f80fd5b61197f565b61188e565b611742565b611727565b6116ae565b61168c565b611658565b61162a565b6115a9565b61158e565b611543565b6103ba565b611527565b611474565b6113ec565b6113c7565b61138f565b6112d7565b611111565b611017565b610ffa565b610f7d565b610f62565b610f28565b610f0d565b610c36565b610bdf565b610bb0565b610b95565b610b5d565b61093a565b6108ea565b6105ca565b610593565b610436565b6103e5565b6102bb565b634e487b7160e01b5f52603260045260245ffd5b6008548110156102b65760085f5260205f2001905f90565b61028a565b3461030b57602036600319011261030b5760043560085481101561030b5760209060085f527ff3f7a9fe364faab93b216da50a3214154f22a0a2b415b23a84c8169e8b636ee30154604051908152f35b5f80fd5b634e487b7160e01b5f52604160045260245ffd5b90601f801991011681019081106001600160401b0382111761034457604052565b61030f565b60405190610358604083610323565b565b6001600160401b03811161034457601f01601f191660200190565b60405190610384604083610323565b600182525f6020830152565b602060409281835280519182918282860152018484015e5f828201840152601f01601f1916010190565b3461030b575f36600319011261030b576103e16103d5610375565b60405191829182610390565b0390f35b3461030b575f36600319011261030b57602060ff5f54166040519015158152f35b9181601f8401121561030b578235916001600160401b03831161030b576020808501948460051b01011161030b57565b604036600319011261030b576004356001600160401b03811161030b57610461903690600401610406565b6024356001600160401b03811161030b57610480903690600401610406565b929083830361053d5761049f610498846001546119b2565b34146119ca565b600754935f5b8481106104ae57005b807f3311a04a346a103ac115cca33028a2bc82f1964805860d0d3fc84a2772496ada6104dd6001938888611a16565b356105106104f46104ef85888a611a16565b611a26565b6104fc610349565b9283526001600160e01b0319166020830152565b61051981611a30565b610523838a611acf565b610534604051928392429184611adc565b0390a1016104a5565b60405162461bcd60e51b815260206004820152600f60248201526e098cadccee8d040dad2e6dac2e8c6d608b1b6044820152606490fd5b60405190610583604083610323565b60018252600160f91b6020830152565b3461030b575f36600319011261030b576103e16103d5610574565b908160c091031261030b5790565b9081606091031261030b5790565b3461030b57608036600319011261030b576004356001600160401b03811161030b576105fa9036906004016105ae565b6024356001600160401b03811161030b576106199036906004016105bc565b906044356064355f5490929060081c6001600160a01b031633036108a55761075e6108a09161068b7f4d7c644a48da4c7857af62a00bad9806f0388564f22955ed846d938c244047f0966106706008548710611b0d565b61068561067e600554610c61565b1515611b49565b826132ee565b5050604081016107486107586106b36106ae6106a78587611b95565b3691611420565b6134e1565b9761075060608601956107226106e96106cf6106a78a85611b95565b6106e36106dc8b86611b95565b9050611bc7565b906135b2565b936107026106fd6106a76080860186611b95565b6138fd565b9c8d61070d85611a26565b9060a086019761071c89611a26565b93613a2e565b61074061073861073183611a26565b9783611b95565b989092611b95565b959093611a26565b963691611420565b923691611420565b91613cc1565b610789610784610780610779845f52600960205260405f2090565b5460ff1690565b1590565b611bf1565b6107ab61079e825f52600960205260405f2090565b805460ff19166001179055565b61088361087b6107f96107ca6107c08761029e565b90549060031b1c90565b966107de856107d88961029e565b90611c3d565b6107f460036107ec8361463e565b905014611c5a565b613d52565b61087661087161086961080d600554610c61565b610858610853610845610821600654610c61565b9361083f89516108398761083485611a97565b611acf565b14611c9e565b8861363a565b61084d610c99565b90613ee0565b611ce2565b610863818651611be4565b8561387f565b61084d610d4e565b611d2e565b613f8b565b948514611d7a565b604051938493846040919493926060820195825260208201520152565b0390a1005b60405162461bcd60e51b815260206004820152601a60248201527f63616c6c6572206973206e6f7420746865206f70657261746f720000000000006044820152606490fd5b3461030b575f36600319011261030b576103e16103d5610908610de3565b613688565b9181601f8401121561030b578235916001600160401b03831161030b576020838186019501011161030b57565b3461030b57606036600319011261030b576004356001600160401b03811161030b5761096a90369060040161090d565b6024356001600160401b03811161030b5761098990369060040161090d565b9092906044359073deaddeaddeaddeaddeaddeaddeaddeaddeaddead3303610b18577f80bd1fdfe157286ce420ee763f91748455b249605748e5df12dad9844402bafc94610a3a610ad6936109ea6109e560ff5f541615151590565b611dd0565b6109f5811515611e1c565b610a00871515611e68565b610a116402540be400820615611eb4565b610a21600160ff195f5416175f55565b610a2b8787612004565b610a3584846120e5565b600155565b5f8054610100600160a81b03191674deaddeaddeaddeaddeaddeaddeaddeaddeaddead00179055600280546001600160a01b0319166007603160981b011790557ffbe5b6cbafb274f445d7fed869dc77a838d8243a22c460de156560e8857cad0360405180610ac7819073deaddeaddeaddeaddeaddeaddeaddeaddeaddead602060408401935f81520152565b0390a1604051948594856122af565b0390a1604080515f81526007603160981b0160208201527f79250b96878fd457364d1c1b77a660973c4f4ab67bda5e2fdb42caaa4d515f9d91819081016108a0565b60405162461bcd60e51b815260206004820152601f60248201527f63616c6c6572206973206e6f74207468652073797374656d2063616c6c6572006044820152606490fd5b3461030b575f36600319011261030b576020600154604051908152f35b60405190610b89604083610323565b600482525f6020830152565b3461030b575f36600319011261030b576103e16103d5610b7a565b3461030b57602036600319011261030b576004355f526009602052602060ff60405f2054166040519015158152f35b3461030b57602036600319011261030b5760043560075481101561030b576007548110156102b65760409060075f5260205f209060011b016001815491015460e01b825191825263ffffffff60e01b166020820152f35b3461030b575f36600319011261030b575f5460405160089190911c6001600160a01b03168152602090f35b90600182811c92168015610c8f575b6020831014610c7b57565b634e487b7160e01b5f52602260045260245ffd5b91607f1691610c70565b604051905f8260055491610cac83610c61565b8083529260018116908115610d2f5750600114610cd0575b61035892500383610323565b5060055f90815290917f036b6384b5eca791c62761152d0c79bb0604c104a5fb6f4eb0703f3154bb3db05b818310610d1357505090602061035892820101610cc4565b6020919350806001915483858901015201910190918492610cfb565b6020925061035894915060ff191682840152151560051b820101610cc4565b604051905f8260065491610d6183610c61565b8083529260018116908115610d2f5750600114610d845761035892500383610323565b5060065f90815290917ff652222313e28459528d920b65115c16c04f3efc82aaedc97be59f3f377c0d3f5b818310610dc757505090602061035892820101610cc4565b6020919350806001915483858901015201910190918492610daf565b604051905f8260035491610df683610c61565b8083529260018116908115610d2f5750600114610e195761035892500383610323565b5060035f90815290917fc2575a0e9e593c00f959f8c92f12db2869c3395a3b0502d05e2516446f71f85b5b818310610e5c57505090602061035892820101610cc4565b6020919350806001915483858901015201910190918492610e44565b604051905f8260045491610e8b83610c61565b8083529260018116908115610d2f5750600114610eae5761035892500383610323565b5060045f90815290917f8a35acfbc15ff81a39ae7d344fd709f28e8600b4aa8c65c6b64bfe7fe36bd19b5b818310610ef157505090602061035892820101610cc4565b6020919350806001915483858901015201910190918492610ed9565b3461030b575f36600319011261030b576103e16103d5610de3565b3461030b575f36600319011261030b576103e16103d5610c99565b60405190610f52604083610323565b60018252608360f81b6020830152565b3461030b575f36600319011261030b576103e16103d5610f43565b3461030b575f36600319011261030b57610f95613ffe565b5f5160206149d55f395f51905f5280546001600160a01b03199081169091555f5160206149b55f395f51905f52805491821690555f906001600160a01b03167f8be0079c531659141344cd1fd0a4f28419497f9722a3daafe3b4186f6b6457e08280a3005b3461030b575f36600319011261030b576020600754604051908152f35b3461030b575f36600319011261030b575f5160206149d55f395f51905f5254336001600160a01b03909116036110ae575f5160206149d55f395f51905f5280546001600160a01b03199081169091555f5160206149b55f395f51905f5280543392811683179091556001600160a01b03167f8be0079c531659141344cd1fd0a4f28419497f9722a3daafe3b4186f6b6457e05f80a3005b63118cdaa760e01b5f523360045260245ffd5b604060031982011261030b576004356001600160401b03811161030b57816110eb9160040161090d565b92909291602435906001600160401b03821161030b5761110d9160040161090d565b9091565b3461030b5761111f366110c1565b61112a939193613ffe565b8215611270576001600160401b038311610344576111528361114d600554610c61565b611f15565b5f93601f84116001146111ca57906108a0916111a585807f6c9ac69a5e351d3e7ac9be95040d29a264d1ce6a409ca9f042c64c66c3f2a23a985f916111bf575b508160011b915f199060031b1c19161790565b6005555b6111b382826121ba565b604051948594856122af565b90508601355f611192565b60055f52601f1984167f036b6384b5eca791c62761152d0c79bb0604c104a5fb6f4eb0703f3154bb3db0905f5b8181106112585750907f6c9ac69a5e351d3e7ac9be95040d29a264d1ce6a409ca9f042c64c66c3f2a23a96866108a09594931061123f575b5050600185811b016005556111a9565b8501355f19600388901b60f8161c191690555f8061122f565b858801358355602097880197600190930192016111f7565b60405162461bcd60e51b815260206004820152601e60248201527f5265706c616365207363726970742063616e6e6f7420626520656d70747900006044820152606490fd5b602090600319011261030b576004356001600160a01b038116810361030b5790565b3461030b576112e5366112b5565b6112ed613ffe565b6001600160a01b03811690811561135857600280546001600160a01b031981169093179055604080516001600160a01b0393841681529290911660208301527f79250b96878fd457364d1c1b77a660973c4f4ab67bda5e2fdb42caaa4d515f9d9190819081016108a0565b60405162461bcd60e51b815260206004820152600f60248201526e496e76616c6964206164647265737360881b6044820152606490fd5b3461030b575f36600319011261030b576103e16103d5610e78565b6001600160e01b031981160361030b57565b3590610358826113aa565b604036600319011261030b576113ea6024356004356113e5826113aa565b6122d6565b005b3461030b575f36600319011261030b575f5160206149b55f395f51905f52546040516001600160a01b039091168152602090f35b92919261142c8261035a565b9161143a6040519384610323565b82948184528183011161030b578281602093845f960137010152565b9080601f8301121561030b5781602061147193359101611420565b90565b60a036600319011261030b576004356001600160401b03811161030b5761149f9036906004016105ae565b6024356001600160401b03811161030b576114be9036906004016105bc565b906044356001600160401b03811161030b576114de9036906004016105ae565b6064356001600160401b03811161030b576114fd90369060040161090d565b91608435946001600160401b03861161030b576115216113ea963690600401611456565b94612a58565b3461030b575f36600319011261030b5760206040516102008152f35b3461030b575f36600319011261030b576002546040516001600160a01b039091168152602090f35b6040519061157a604083610323565b600482526001600160e01b03196020830152565b3461030b575f36600319011261030b576103e16103d561156b565b3461030b577ffbe5b6cbafb274f445d7fed869dc77a838d8243a22c460de156560e8857cad036115d8366112b5565b6115e0613ffe565b5f8054610100600160a81b03600884811b91909116610100600160a81b0319831617909255604080516001600160a01b039290931c821683529216602082015290819081016108a0565b3461030b575f36600319011261030b57602060405173deaddeaddeaddeaddeaddeaddeaddeaddeaddead8152f35b3461030b575f36600319011261030b575f5160206149d55f395f51905f52546040516001600160a01b039091168152602090f35b3461030b575f36600319011261030b576040516001603160981b018152602090f35b3461030b576116bc366112b5565b6116c4613ffe565b5f5160206149d55f395f51905f5280546001600160a01b0319166001600160a01b039283169081179091555f5160206149b55f395f51905f52549091167f38d16b8cac22d99fc7c124b9cd0de2d3fa1faef420bfe791d8c362d765e227005f80a3005b3461030b575f36600319011261030b576103e16103d5610d4e565b3461030b57611750366110c1565b61175b939193613ffe565b611766831515611e68565b6001600160401b0383116103445761178883611783600354610c61565b611f65565b5f93601f84116001146117e857906108a0916117da85807f80bd1fdfe157286ce420ee763f91748455b249605748e5df12dad9844402bafc985f916111bf57508160011b915f199060031b1c19161790565b6003555b6111b382826120e5565b60035f52601f1984167fc2575a0e9e593c00f959f8c92f12db2869c3395a3b0502d05e2516446f71f85b905f5b8181106118765750907f80bd1fdfe157286ce420ee763f91748455b249605748e5df12dad9844402bafc96866108a09594931061185d575b5050600185811b016003556117de565b8501355f19600388901b60f8161c191690555f8061184d565b85880135835560209788019760019093019201611815565b3461030b57606036600319011261030b576004356001600160401b03811161030b576118be9036906004016105ae565b6024356001600160401b03811161030b576118dd9036906004016105bc565b6044359073deaddeaddeaddeaddeaddeaddeaddeaddeaddead33148015611966575b1561190d576113ea926130b6565b60405162461bcd60e51b815260206004820152602b60248201527f63616c6c6572206973206e6f74207468652073797374656d2063616c6c65722060448201526a37b91037b832b930ba37b960a91b6064820152608490fd5b505f543360089190911c6001600160a01b0316146118ff565b3461030b575f36600319011261030b5760206040516402540be4008152f35b634e487b7160e01b5f52601160045260245ffd5b818102929181159184041417156119c557565b61199e565b156119d157565b60405162461bcd60e51b815260206004820152601760248201527f496e76616c696420776974686472617720616d6f756e740000000000000000006044820152606490fd5b91908110156102b65760051b0190565b35611471816113aa565b600754600160401b81101561034457600181016007556007548110156102b65760075f5260011b7fa66cc928b5edb82af9bd49922954155ab7b0942694bea4ce44661d9a8736c688016001602091835181550191015160e01c63ffffffff19825416179055565b90602082018092116119c557565b90601482018092116119c557565b90600182018092116119c557565b60010190816001116119c557565b919082018092116119c557565b606091949392611b04826080810197602090805183528163ffffffff60e01b91015116910152565b60408201520152565b15611b1457565b60405162461bcd60e51b815260206004820152600d60248201526c092dcecc2d8d2c840d2dcc8caf609b1b6044820152606490fd5b15611b5057565b60405162461bcd60e51b815260206004820152601960248201527f5265706c61636520736372697074206973206e6f7420736574000000000000006044820152606490fd5b903590601e198136030182121561030b57018035906001600160401b03821161030b5760200191813603831361030b57565b5f198101919082116119c557565b601f198101919082116119c557565b919082039182116119c557565b15611bf857565b60405162461bcd60e51b815260206004820152601c60248201527f7478496420616c7265616479207573656420746f207265706c616365000000006044820152606490fd5b91611c569183549060031b91821b915f19901b19161790565b9055565b15611c6157565b60405162461bcd60e51b8152602060048201526015602482015274496e76616c6964207769746e657373206974656d7360581b6044820152606490fd5b15611ca557565b60405162461bcd60e51b8152602060048201526015602482015274092dcecc2d8d2c840e6c6e4d2e0e840d8cadccee8d605b1b6044820152606490fd5b15611ce957565b60405162461bcd60e51b815260206004820152601d60248201527f496e76616c6964207265706c61636520736372697074207072656669780000006044820152606490fd5b15611d3557565b60405162461bcd60e51b815260206004820152601d60248201527f496e76616c6964207265706c61636520736372697074207375666669780000006044820152606490fd5b15611d8157565b606460405162461bcd60e51b815260206004820152602060248201527f496e76616c6964207478496420746f207265706c6163652070726f76696465646044820152fd5b611471610908610de3565b15611dd757565b60405162461bcd60e51b815260206004820152601f60248201527f436f6e747261637420697320616c726561647920696e697469616c697a6564006044820152606490fd5b15611e2357565b60405162461bcd60e51b815260206004820152601a60248201527f4465706f73697420616d6f756e742063616e6e6f7420626520300000000000006044820152606490fd5b15611e6f57565b60405162461bcd60e51b815260206004820152601e60248201527f4465706f736974207363726970742063616e6e6f7420626520656d70747900006044820152606490fd5b15611ebb57565b60405162461bcd60e51b815260206004820152602c60248201527f4465706f73697420616d6f756e74206d75737420686176652076616c6964207360448201526b61746f7368692076616c756560a01b6064820152608490fd5b601f8111611f21575050565b60055f5260205f20906020601f840160051c83019310611f5b575b601f0160051c01905b818110611f50575050565b5f8155600101611f45565b9091508190611f3c565b601f8111611f71575050565b60035f5260205f20906020601f840160051c83019310611fab575b601f0160051c01905b818110611fa0575050565b5f8155600101611f95565b9091508190611f8c565b601f8211611fc257505050565b5f5260205f20906020601f840160051c83019310611ffa575b601f0160051c01905b818110611fef575050565b5f8155600101611fe4565b9091508190611fdb565b91906001600160401b0381116103445761202a81612023600354610c61565b6003611fb5565b5f601f821160011461206857819061205893945f9261205d575b50508160011b915f199060031b1c19161790565b600355565b013590505f80612044565b60035f52601f198216937fc2575a0e9e593c00f959f8c92f12db2869c3395a3b0502d05e2516446f71f85b915f5b8681106120cd57508360019596106120b4575b505050811b01600355565b01355f19600384901b60f8161c191690555f80806120a9565b90926020600181928686013581550194019101612096565b91906001600160401b0381116103445761210b81612104600454610c61565b6004611fb5565b5f601f821160011461213d57819061213893945f9261205d5750508160011b915f199060031b1c19161790565b600455565b60045f52601f198216937f8a35acfbc15ff81a39ae7d344fd709f28e8600b4aa8c65c6b64bfe7fe36bd19b915f5b8681106121a25750836001959610612189575b505050811b01600455565b01355f19600384901b60f8161c191690555f808061217e565b9092602060018192868601358155019401910161216b565b91906001600160401b038111610344576121e0816121d9600654610c61565b6006611fb5565b5f601f821160011461221257819061220d93945f9261205d5750508160011b915f199060031b1c19161790565b600655565b60065f52601f198216937ff652222313e28459528d920b65115c16c04f3efc82aaedc97be59f3f377c0d3f915f5b868110612277575083600195961061225e575b505050811b01600655565b01355f19600384901b60f8161c191690555f8080612253565b90926020600181928686013581550194019101612240565b908060209392818452848401375f828201840152601f01601f1916010190565b92906122c890611471959360408652604086019161228f565b92602081850391015261228f565b906122e460015434146119ca565b6040519060408201928284106001600160401b03851117610344577f3311a04a346a103ac115cca33028a2bc82f1964805860d0d3fc84a2772496ada93604052825263ffffffff60e01b16602082015260075461234082611a30565b612351604051928392429184611adc565b0390a1565b1561235d57565b60405162461bcd60e51b815260206004820152601d60248201527f56696e206973206e6f742070726f7065726c7920666f726d61747465640000006044820152606490fd5b156123a957565b60405162461bcd60e51b815260206004820152601e60248201527f566f7574206973206e6f742070726f7065726c7920666f726d617474656400006044820152606490fd5b9081602091031261030b5751801515810361030b5790565b979695919261243d946080969461242f938b5260208b015260a060408b015260a08a019161228f565b91878303606089015261228f565b930152565b6040513d5f823e3d90fd5b1561245457565b60405162461bcd60e51b815260206004820152601b60248201527f5472616e73616374696f6e206973206e6f7420696e20626c6f636b00000000006044820152606490fd5b156124a057565b60405162461bcd60e51b8152602060048201526024808201527f5061796f75742076696e206973206e6f742070726f7065726c7920666f726d616044820152631d1d195960e21b6064820152608490fd5b156124f857565b60405162461bcd60e51b815260206004820152602860248201527f5061796f75742076696e2073686f756c6420686176652065786163746c79206f6044820152671b99481a5b9c1d5d60c21b6064820152608490fd5b1561255557565b60405162461bcd60e51b815260206004820152602a60248201527f5061796f757420766f75742073686f756c6420686176652065786163746c79206044820152691bdb99481bdd5d1c1d5d60b21b6064820152608490fd5b156125b457565b60405162461bcd60e51b815260206004820152602560248201527f5061796f757420766f7574206973206e6f742070726f7065726c7920666f726d604482015264185d1d195960da1b6064820152608490fd5b1561260e57565b60405162461bcd60e51b815260206004820152602860248201527f5061796f7574207769746e657373206973206e6f742070726f7065726c7920666044820152671bdc9b585d1d195960c21b6064820152608490fd5b1561266b57565b60405162461bcd60e51b815260206004820152602360248201527f496e76616c6964207061796f7574206f757470757420736372697074207075626044820152626b657960e81b6064820152608490fd5b156126c357565b60405162461bcd60e51b8152602060048201526012602482015271125b9d985b1a59081cdc195b9d081d1e125960721b6044820152606490fd5b1561270457565b60405162461bcd60e51b815260206004820152601b60248201527f496e76616c6964207370656e74206f7574707574206c656e67746800000000006044820152606490fd5b60405190612758604083610323565b60018252601160f91b6020830152565b1561276f57565b60405162461bcd60e51b815260206004820152602960248201527f496e76616c6964207370656e74206f757470757420736372697074207075626b6044820152680caf240d8cadccee8d60bb1b6064820152608490fd5b604051906127d5604083610323565b6002825261028960f51b6020830152565b156127ed57565b60405162461bcd60e51b815260206004820152602160248201527f5370656e74206f7574707574206973206e6f7420612050325452206f757470756044820152601d60fa1b6064820152608490fd5b805191908290602001825e015f815290565b6128aa979360249b9997956128756128919561286f8f9a969560089661283c565b9061283c565b6001600160e01b0319928316815291166004820152019061283c565b9182526001600160e01b0319166020820152019061283c565b6001600160e01b0319909216825260048201520190565b604051906128d0604083610323565b600a8252690a8c2e0a6d2ced0c2e6d60b31b6020830152565b156128f057565b60405162461bcd60e51b8152602060048201526011602482015270496e76616c6964207369676e617475726560781b6044820152606490fd5b6001600160f01b031981160361030b57565b9035601e198236030181121561030b5701602081359101916001600160401b03821161030b57813603831361030b57565b612a5460609295949395608083528035612985816113aa565b6001600160e01b031916608084015260208101356129a281612929565b61ffff60f01b1660a0840152612a34612a2260a0612a1b6129fb6129dd6129cc604088018861293b565b60c0808c01526101408b019161228f565b6129e98a88018861293b565b8a8303607f190160e08c01529061228f565b612a08608087018761293b565b898303607f19016101008b01529061228f565b93016113bc565b6001600160e01b031916610120850152565b8651602084810191909152909601516001600160e01b0319166040830152565b0152565b94919092602061075095612b1495612adf612ad68a612a8e612a89612a846106a7604085018095611b95565b61401e565b612356565b60a06107588d606081019d8e612ab7612ab2612aad6106a78487611b95565b614096565b6123a2565b610748612acd612ac685611a26565b9785611b95565b98909285611b95565b96909401611a26565b96879260408584013593612af38180611b95565b929091013592604051988997889763cd4cc08f60e01b895260048901612406565b03816001603160981b015afa8015612ea057612b37915f91612ea5575b5061244d565b60408101612b458183611b95565b3690612b5092611420565b612b599061401e565b612b6290612499565b612b6c8183611b95565b3690612b7792611420565b612b809061463e565b60608401979150612b918885611b95565b3690612b9c92611420565b612ba59061463e565b91612bb391506001146124f1565b600114612bbf9061254e565b612bc98784611b95565b3690612bd492611420565b612bdd90614096565b612be6906125ad565b6080830191612bf58385611b95565b3690612c0092611420565b612c0990614105565b612c1290612607565b612c1c9084611b95565b3690612c2792611420565b612c30906134e1565b96612c3b9084611b95565b3690612c4692611420565b612c4f906141e0565b91612c5a9084611b95565b3690612c6592611420565b612c6e906138fd565b93612c78836136d1565b90612c8291613ee0565b612c8b90612664565b6020870151948514612c9c906126bc565b60408701516001600160e01b03191695612cb591611b95565b3690612cc092611420565b8560e01c612cf290600881811c62ff00ff1691901b63ff00ff001617601081811b63ffff00001691901c61ffff161790565b63ffffffff16612d019161426d565b8051602b14612d0f906126fd565b612d188161371a565b612d20612749565b612d2991613ee0565b612d3290612768565b612d3b81613763565b612d436127c6565b612d4c91613ee0565b612d55906127e6565b612d5e816137ac565b6045909701516001600160e01b03191691604051809160208201612d819161283c565b03601f1981018252612d939082610323565b604051612da181809361283c565b03905a915f916002602094fa15612ea057610358967fd77102e5369b5b1a9db1972cb3de26ee79abc69de5cde41eeaa67fe3939c1c5594612e5f612e55612e4f87612e428b612e348e612e6a9b612e659b5f5192612dfd610375565b95612e06610f43565b98612e1c60a0612e1583611a26565b9201611a26565b612e24610375565b916040519b8c9a60208c0161284e565b03601f198101835282610323565b612e4a6128c1565b6142d9565b92613e02565b6106e38151611bc7565b91614341565b6128e9565b612e72610349565b8381526001600160e01b03198516602082015290612e986007546040519384938461296c565b0390a16122d6565b612442565b612ec7915060203d602011612ecd575b612ebf8183610323565b8101906123ee565b5f612b31565b503d612eb5565b15612edb57565b60405162461bcd60e51b815260206004820152601660248201527513db9b1e481bdb99481a5b9c1d5d08185b1b1bddd95960521b6044820152606490fd5b15612f2057565b60405162461bcd60e51b81526020600482015260126024820152711d1e125908185b1c9958591e481cdc195b9d60721b6044820152606490fd5b600854600160401b81101561034457600181016008556008548110156102b65760085f527ff3f7a9fe364faab93b216da50a3214154f22a0a2b415b23a84c8169e8b636ee30155565b15612faa57565b60405162461bcd60e51b8152602060048201526016602482015275125b9d985b1a590819195c1bdcda5d081cd8dc9a5c1d60521b6044820152606490fd5b15612fef57565b60405162461bcd60e51b8152602060048201526015602482015274092dcecc2d8d2c840e6c6e4d2e0e840e6eaccccd2f605b1b6044820152606490fd5b3d15613056573d9061303d8261035a565b9161304b6040519384610323565b82523d5f602084013e565b606090565b1561306257565b60405162461bcd60e51b815260206004820152602660248201527f4661696c656420746f2073656e6420746f206661696c6564206465706f736974604482015265081d985d5b1d60d21b6064820152608490fd5b6131316130f261318b926130d86130d060019796836132ee565b909714612ed4565b604081016107486107586106b36106ae6106a78587611b95565b9261311361310e610780610779875f52600960205260405f2090565b612f19565b61312861079e855f52600960205260405f2090565b6107de84612f5a565b613186613181613179613145600354610c61565b61085861317461316c613159600454610c61565b9361083f89516108398761083485611aa5565b61084d610de3565b612fa3565b61084d610e78565b612fe8565b614419565b905f808080600154865af161319e61302c565b5061323b5761320c7fabd361bc68da04a386a8de9d0fb3044cca0856cbd86e9e4a63237e015b3e4bb9936131d3600854611bc7565b6040805192835260208301949094526001600160a01b0390941692810192909252426060830152608082019290925290819060a0820190565b0390a16103585f80808061322760025460018060a01b031690565b600154905af161323561302c565b5061305b565b6123517fa82453ca34121b3ecb910d957824e27c5dc6465315949facd15fb72886490058936131d3600854611bc7565b3561147181612929565b1561327c57565b60405162461bcd60e51b815260206004820152602160248201527f5769746e657373206973206e6f742070726f7065726c7920666f726d617474656044820152601960fa1b6064820152608490fd5b95949361243d92606094928852602088015260806040880152608087019161228f565b91906132f983611a26565b906133066020850161326b565b93604081016133158183611b95565b94909660608401956133278786611b95565b608087019a916133378c89611b95565b94909361334660a08b01611a26565b96613350986144c6565b9361335b8284611b95565b369061336692611420565b61336f9061401e565b61337890612356565b6133829083611b95565b369061338d92611420565b61339690614096565b61339f906123a2565b6133a99082611b95565b36906133b492611420565b6133bd9061463e565b956133ca91508692611b95565b36906133d592611420565b906133df91614145565b6133e890613275565b6020810135906133f88180611b95565b604080516327fe9a2560e11b815294859461341e949201359291908790600487016132cb565b6001603160981b0191839103815a93602094fa8015612ea057613447915f91612ea5575061244d565b9190565b1561345257565b60405162461bcd60e51b815260206004820152602260248201527f52656164206f76657272756e20647572696e6720566172496e742070617273696044820152616e6760f01b6064820152608490fd5b156134a957565b60405162461bcd60e51b815260206004820152601060248201526f2b34b7103932b0b21037bb32b9393ab760811b6044820152606490fd5b6135046134ed8261463e565b9091906134fd5f1984141561344b565b15156134a2565b600101806001116119c5576135198183614537565b905f19821461352b576114719261387f565b60405162461bcd60e51b815260206004820152601760248201527f42616420566172496e7420696e207363726970745369670000000000000000006044820152606490fd5b1561357757565b60405162461bcd60e51b8152602060048201526013602482015272536c696365206f7574206f6620626f756e647360681b6044820152606490fd5b91909182156136235782600101806001116119c5578060016135dc92119081613617575b50613570565b60405192604081850101604052808452602182850391818401930101915b82811061360657505050565b80518282015f1901526020016135fa565b9050825110155f6135d6565b509050604051613634602082610323565b5f815290565b9190918215613623576136508382511015613570565b60405192604081850101604052808452602082850391818401930101915b82811061367a57505050565b80518282015260200161366e565b90613697602283511015613570565b6040519160608301604052602083528083036042602283019201915b8281106136bf57505050565b805182820160011901526020016136b3565b906136e0602b83511015613570565b604051916062830160405260228352808303604b602983019201915b82811061370857505050565b805182820160081901526020016136fc565b90613729600983511015613570565b6040519160418301604052600183528083036029602883019201915b82811061375157505050565b80518282016007190152602001613745565b90613772600b83511015613570565b604051916042830160405260028352808303602b602983019201915b82811061379a57505050565b8051828201600819015260200161378e565b906137bb602b83511015613570565b604051916060830160405260208352808303604b602b83019201915b8281106137e357505050565b8051828201600a1901526020016137d7565b90613804604083511015613570565b6040519160808301604052604083528083036060602083019201915b82811061382c57505050565b805182820152602001613820565b90613849602483511015613570565b6040519160648301604052602483528083036044602083019201915b82811061387157505050565b805182820152602001613865565b92919081156138eb578181018082116119c55780826138a5921190816138df5750613570565b604051936040838601016040528285520190602082850391818401930101915b8281106138d157505050565b8051828201526020016138c5565b9050855110155f6135d6565b50509050604051613634602082610323565b6139075f82614576565b5f198114613919575f6114719261387f565b60405162461bcd60e51b815260206004820152601560248201527442616420566172496e7420696e207769746e65737360581b6044820152606490fd5b8051600110156102b65760210190565b8051601f10156102b657603f0190565b9081518110156102b6570160200190565b600190611471939260ff60f81b168152019061283c565b604051906139ad604083610323565b60078252662a30b82632b0b360c91b6020830152565b9661286f966114719f9e9c989660a89661286f9f9c956139ef9060209f9a61286f90613a249f9861283c565b6001600160e01b031997881681529616600487015260088601526028850152604884015260688301526088820152019061283c565b908152019061283c565b91949390929360205f613a4f613a438661383a565b6040519182809261283c565b039060025afa15612ea0575f519060205f613b36612e34613a43613b18613b08613a8f613a836001546402540be400900490565b6001600160401b031690565b65ffff0000ffff67ffffffffffff000067ff00ff00ff00ff008360081c9360081b169264ff000000ff65ffff0000ff0065ffffffffffff67ffffffffffffff00871666ff00ff00ff00ff85161760101c16951691161760101b1691161767ffffffff0000000063ffffffff8260201c169160201b161790565b60c01b6001600160c01b03191690565b6040519283918783016008916001600160401b0360c01b1681520190565b039060025afa15612ea05760205f613b7f612e34613a43613b64845199604563ffffffff60e01b9101511690565b60405192839187830160049163ffffffff60e01b1681520190565b039060025afa15612ea05760205f613ba8612e34613a438351996040519283918783019061283c565b039060025afa15612ea0575f5193613bbf88613d52565b607f60f91b613bcd8a613e48565b613bd690613956565b516001600160f81b031916604051928392613bf5921660208401613987565b03601f1981018252613c079082610323565b613c0f61399e565b90613c19916142d9565b91613c22610375565b95613c2b610375565b97613c34610574565b92613c3d610b7a565b94613c46610375565b97613c4f61156b565b996040519d8e9d60208f019d613c649e6139c3565b03601f1981018252613c769082610323565b613c7e6128c1565b90613c88916142d9565b90613c9290613e02565b8051613c9d90611bc7565b613ca6916135b2565b613cae611dc5565b91613cb892614341565b610358906128e9565b60049061147194613cf1613d0c949561286f60405197889563ffffffff60e01b166020870152602486019061283c565b9063ffffffff60e01b16815203601b19810184520182610323565b614610565b15613d1857565b60405162461bcd60e51b815260206004820152601260248201527142616420566172496e7420696e206974656d60701b6044820152606490fd5b90613d77613d5f8361463e565b909190613d6f5f1984141561344b565b6001106134a2565b600101806001116119c557915f925b60018410613dbc57611471929350613db6613db1613da4838561479a565b6108345f19821415613d11565b611ab3565b9161387f565b613dc6818361479a565b9190613dd55f19841415613d11565b8060010192836001116119c55760019101018092116119c557600191613dfa91611acf565b930192613d86565b613e0e6134ed8261463e565b60010190816001116119c557613e24828261479a565b9290613e335f19851415613d11565b83018093116119c557613db661147193611ab3565b90613e6d613e558361463e565b909190613e655f1984141561344b565b6002106134a2565b600101806001116119c557915f925b60028410613e9a57611471929350613db6613db1613da4838561479a565b613ea4818361479a565b9190613eb35f19841415613d11565b8060010192836001116119c55760019101018092116119c557600191613ed891611acf565b930192613e7c565b9081519181518303613f845760205b83811115613f6957613f0090611bd5565b838110613f105750505050600190565b613f2b613f1d8284613976565b516001600160f81b03191690565b613f48613f3b613f1d8487613976565b6001600160f81b03191690565b6001600160f81b031990911603613f6157600101613f00565b505050505f90565b818101518382015160209092019114613eef57505050505f90565b5050505f90565b613f96600554610c61565b602081018082116119c5578082613fb492119081613ff25750613570565b604051916060830160405260208352018082036040602083019201915b828110613fe4575050506114719061485b565b805182820152602001613fd1565b9050835110155f6135d6565b5f5160206149b55f395f51905f52546001600160a01b031633036110ae57565b6140278161463e565b91908215801561408c575b613f8457600101806001116119c557915f905b808210614053575050511490565b90928251811015613f61576140688184614537565b5f1981146140835781018091116119c5579260010190614045565b50505050505f90565b505f198114614032565b61409f8161463e565b9190821580156140fb575b613f8457600101806001116119c557915f905b8082106140cb575050511490565b90928251811015613f61576140e081846148cb565b5f1981146140835781018091116119c55792600101906140bd565b505f1981146140aa565b5f905f5b600181106141175750511490565b918151811015613f845761412b8183614576565b5f198114613f615781018091116119c55791600101614109565b811561418e575f915f905b80821061415e575050511490565b90928251811015613f61576141738184614576565b5f1981146140835781018091116119c5579260010190614150565b50505f90565b1561419b57565b60405162461bcd60e51b815260206004820152601a60248201527f42616420566172496e7420696e207363726970745075626b65790000000000006044820152606490fd5b6141e98161463e565b9091906141f95f1984141561344b565b1561423457600161420c61147193611ac1565b9061422f575b61421c81836148cb565b9161422a5f19841415614194565b61387f565b614212565b60405162461bcd60e51b81526020600482015260116024820152702b37baba103932b0b21037bb32b9393ab760791b6044820152606490fd5b9190916142798161463e565b6142865f1983141561344b565b8410156142345761429690611ac1565b5f935b8085106142b1575061147192935061421c81836148cb565b906142d0816142c2600193866148cb565b906108345f19831415614194565b94019390614299565b5f6142ec6020926040519182809261283c565b039060025afa15612ea0575f614320602092613a438351612e3460405193828593898501526040840152606083019061283c565b039060025afa15612ea0575f5190565b91613a24611471949360209361283c565b91909181516040811490811561440e575b50156143c9575f9261437c61436785946137f5565b91612e34604051938492602084019687614330565b51906102005afa61438b61302c565b816143bd575b8161439a575090565b600160f81b91506001600160f81b0319906143b890613f1d90613966565b161490565b80516020149150614391565b60405162461bcd60e51b815260206004820152601860248201527f496e76616c6964207369676e6174757265206c656e67746800000000000000006044820152606490fd5b60419150145f614352565b614424600354610c61565b601481018082116119c557808261444292119081613ff25750613570565b604051916054830160405260148352018082036034602083019201915b8281106144b85750505060208151910151906bffffffffffffffffffffffff1982169160148210614493575b505060601c90565b6bffffffffffffffffffffffff1960149290920360031b82901b161690505f8061448b565b80518282015260200161445f565b969483869482949a9896939a6040519b8c9b63ffffffff60e01b1660208d015261ffff60f01b1660248c015260268b0137880191602683015f81523701602601915f83528237019063ffffffff60e01b16815203601b198101825260040161452e9082610323565b61147190614610565b9061454191614919565b5f19821461456f578160250191826025116119c55701602581018092116119c5576029018091116119c55790565b50505f1990565b90614581818361479a565b92905f19811461460757600101806001116119c5579291905f915b8383106145aa575050505090565b909192938082018083116119c5576145c2908461479a565b91905f1983146145fb578060010192836001116119c55760019101018092116119c5576001916145f191611acf565b949301919061459c565b505050505050505f1990565b505050505f1990565b5f602091828151910160025afa5060205f818160025afa505f5190565b60ff166001019060ff82116119c557565b906146495f8361494b565b9160ff83169283156147775761466d5f61083461466785519461462d565b60ff1690565b1161476e575f600284036146c457506146bd6146aa6146a4611471936146925f611ac1565b01602001516001600160f01b03191690565b60f01c90565b61ff0060ff8260081c169160081b161790565b61ffff1690565b6004840361472e57506147256146fb6146f5611471936146e35f611ac1565b01602001516001600160e01b03191690565b60e01c90565b600881811c62ff00ff1691901b63ff00ff001617601081811b63ffff00001691901c61ffff161790565b63ffffffff1690565b92906008821461473d57509190565b611471919350613a8f614768613a83926147565f611ac1565b01602001516001600160c01b03191690565b60c01c90565b505f1991505f90565b50614791919250613f1d5f61478b92613976565b60f81c90565b9060ff5f921690565b9190916147a7838261494b565b9260ff8416938415614847576147c58261083461466786519461462d565b1161483c575f600285036147ea57506146aa6146a4611471936146926146bd94611ac1565b6004850361480957506146fb6146f5611471936146e361472594611ac1565b9391906008831461481b575b50509190565b614834929450614768613a8392614756613a8f93611ac1565b915f80614815565b505f1992505f919050565b50614791929350613f1d9061478b92613976565b805190811561418e576020821161487b57602001519060200360031b1c90565b60405162461bcd60e51b815260206004820152602260248201527f42797465732063616e6e6f74206265206d6f7265207468616e20333220627974604482015261657360f01b6064820152608490fd5b9081518160090190816009116119c5571061456f57600801806008116119c5576148f49161479a565b905f19811461456f578060090191826009116119c55760099101018091116119c55790565b9081518160250190816025116119c5571061494257602481018091116119c55761110d9161479a565b505f19915f9150565b9060ff6149588284613976565b5160f81c146149ad5760fe60ff61496f8385613976565b8160f81b90511660f81c16146149a65761498d60ff9160fd93613976565b8160f81b90511660f81c16146149a1575f90565b600290565b5050600490565b505060089056fe9016d09d72d40fdae2fd8ceac6b6234c7706214fd39c1cd1e609a0528c199300237e158222e3e6968b72b9db0d8043aacf074ad9f650f0d1606b4d82ee432c00","linkReferences":{}},"methodIdentifiers":{"CODESEP_POS()":"b2497e70","EPOCH()":"a0dc2758","INPUT_INDEX()":"428bcd35","KEY_VERSION()":"1369ac3e","LIGHT_CLIENT()":"e613ae00","SAT_TO_WEI()":"fdecdf53","SCHNORR_VERIFIER_PRECOMPILE()":"9a4f308d","SIGHASH_ALL_HASH_TYPE()":"0bd89ab7","SIGHASH_SINGLE_ANYONECANPAY_HASH_TYPE()":"6cf7d641","SPEND_TYPE_EXT()":"23dacd29","SPEND_TYPE_NO_EXT()":"092ac5d4","SYSTEM_CALLER()":"d761753e","acceptOwnership()":"79ba5097","batchWithdraw(bytes32[],bytes4[])":"19854623","deposit((bytes4,bytes2,bytes,bytes,bytes,bytes4),(bytes,uint256,uint256),bytes32)":"fb11d7b9","depositAmount()":"419759f5","depositPrefix()":"5b4f894d","depositSuffix()":"8752b6b2","depositTxIds(uint256)":"06592167","failedDepositVault()":"a670e7ed","getAggregatedKey()":"3c918b6c","getWithdrawalCount()":"781952a8","initialize(bytes,bytes,uint256)":"41260137","initialized()":"158ef93e","operator()":"570ca735","owner()":"8da5cb5b","pendingOwner()":"e30c3978","processedTxIds(bytes32)":"4379caa5","renounceOwnership()":"715018a6","replaceDeposit((bytes4,bytes2,bytes,bytes,bytes,bytes4),(bytes,uint256,uint256),uint256,bytes32)":"2594f107","replacePrefix()":"6b0b5a94","replaceSuffix()":"f42cb4fc","safeWithdraw((bytes4,bytes2,bytes,bytes,bytes,bytes4),(bytes,uint256,uint256),(bytes4,bytes2,bytes,bytes,bytes,bytes4),bytes,bytes)":"9072f747","setDepositScript(bytes,bytes)":"f8e655d2","setFailedDepositVault(address)":"85fb7151","setOperator(address)":"b3ab15fb","setReplaceScript(bytes,bytes)":"7ec9732a","transferOwnership(address)":"f2fde38b","withdraw(bytes32,bytes4)":"8786dba7","withdrawalUTXOs(uint256)":"471ba1e3"},"id":45}