{"abi":[{"type":"function","name":"LIGHT_CLIENT","inputs":[],"outputs":[{"name":"","type":"address","internalType":"contract BitcoinLightClient"}],"stateMutability":"view"},{"type":"function","name":"SYSTEM_CALLER","inputs":[],"outputs":[{"name":"","type":"address","internalType":"address"}],"stateMutability":"view"},{"type":"function","name":"acceptOwnership","inputs":[],"outputs":[],"stateMutability":"nonpayable"},{"type":"function","name":"batchWithdraw","inputs":[{"name":"txIds","type":"bytes32[]","internalType":"bytes32[]"},{"name":"outputIds","type":"bytes4[]","internalType":"bytes4[]"}],"outputs":[],"stateMutability":"payable"},{"type":"function","name":"deposit","inputs":[{"name":"moveTp","type":"tuple","internalType":"struct Bridge.TransactionParams","components":[{"name":"version","type":"bytes4","internalType":"bytes4"},{"name":"flag","type":"bytes2","internalType":"bytes2"},{"name":"vin","type":"bytes","internalType":"bytes"},{"name":"vout","type":"bytes","internalType":"bytes"},{"name":"witness","type":"bytes","internalType":"bytes"},{"name":"locktime","type":"bytes4","internalType":"bytes4"},{"name":"intermediate_nodes","type":"bytes","internalType":"bytes"},{"name":"block_height","type":"uint256","internalType":"uint256"},{"name":"index","type":"uint256","internalType":"uint256"}]}],"outputs":[],"stateMutability":"nonpayable"},{"type":"function","name":"depositAmount","inputs":[],"outputs":[{"name":"","type":"uint256","internalType":"uint256"}],"stateMutability":"view"},{"type":"function","name":"getWithdrawalCount","inputs":[],"outputs":[{"name":"","type":"uint256","internalType":"uint256"}],"stateMutability":"view"},{"type":"function","name":"initialize","inputs":[{"name":"_scriptPrefix","type":"bytes","internalType":"bytes"},{"name":"_scriptSuffix","type":"bytes","internalType":"bytes"},{"name":"_depositAmount","type":"uint256","internalType":"uint256"}],"outputs":[],"stateMutability":"nonpayable"},{"type":"function","name":"initialized","inputs":[],"outputs":[{"name":"","type":"bool","internalType":"bool"}],"stateMutability":"view"},{"type":"function","name":"operator","inputs":[],"outputs":[{"name":"","type":"address","internalType":"address"}],"stateMutability":"view"},{"type":"function","name":"owner","inputs":[],"outputs":[{"name":"","type":"address","internalType":"address"}],"stateMutability":"view"},{"type":"function","name":"pendingOwner","inputs":[],"outputs":[{"name":"","type":"address","internalType":"address"}],"stateMutability":"view"},{"type":"function","name":"renounceOwnership","inputs":[],"outputs":[],"stateMutability":"nonpayable"},{"type":"function","name":"scriptPrefix","inputs":[],"outputs":[{"name":"","type":"bytes","internalType":"bytes"}],"stateMutability":"view"},{"type":"function","name":"scriptSuffix","inputs":[],"outputs":[{"name":"","type":"bytes","internalType":"bytes"}],"stateMutability":"view"},{"type":"function","name":"setDepositScript","inputs":[{"name":"_scriptPrefix","type":"bytes","internalType":"bytes"},{"name":"_scriptSuffix","type":"bytes","internalType":"bytes"}],"outputs":[],"stateMutability":"nonpayable"},{"type":"function","name":"setOperator","inputs":[{"name":"_operator","type":"address","internalType":"address"}],"outputs":[],"stateMutability":"nonpayable"},{"type":"function","name":"transferOwnership","inputs":[{"name":"newOwner","type":"address","internalType":"address"}],"outputs":[],"stateMutability":"nonpayable"},{"type":"function","name":"txIdToDepositId","inputs":[{"name":"","type":"bytes32","internalType":"bytes32"}],"outputs":[{"name":"","type":"uint256","internalType":"uint256"}],"stateMutability":"view"},{"type":"function","name":"withdraw","inputs":[{"name":"txId","type":"bytes32","internalType":"bytes32"},{"name":"outputId","type":"bytes4","internalType":"bytes4"}],"outputs":[],"stateMutability":"payable"},{"type":"function","name":"withdrawalUTXOs","inputs":[{"name":"","type":"uint256","internalType":"uint256"}],"outputs":[{"name":"txId","type":"bytes32","internalType":"bytes32"},{"name":"outputId","type":"bytes4","internalType":"bytes4"}],"stateMutability":"view"},{"type":"event","name":"Deposit","inputs":[{"name":"wtxId","type":"bytes32","indexed":false,"internalType":"bytes32"},{"name":"txId","type":"bytes32","indexed":false,"internalType":"bytes32"},{"name":"recipient","type":"address","indexed":false,"internalType":"address"},{"name":"timestamp","type":"uint256","indexed":false,"internalType":"uint256"},{"name":"depositId","type":"uint256","indexed":false,"internalType":"uint256"}],"anonymous":false},{"type":"event","name":"DepositScriptUpdate","inputs":[{"name":"scriptPrefix","type":"bytes","indexed":false,"internalType":"bytes"},{"name":"scriptSuffix","type":"bytes","indexed":false,"internalType":"bytes"}],"anonymous":false},{"type":"event","name":"Initialized","inputs":[{"name":"version","type":"uint64","indexed":false,"internalType":"uint64"}],"anonymous":false},{"type":"event","name":"OperatorUpdated","inputs":[{"name":"oldOperator","type":"address","indexed":false,"internalType":"address"},{"name":"newOperator","type":"address","indexed":false,"internalType":"address"}],"anonymous":false},{"type":"event","name":"OwnershipTransferStarted","inputs":[{"name":"previousOwner","type":"address","indexed":true,"internalType":"address"},{"name":"newOwner","type":"address","indexed":true,"internalType":"address"}],"anonymous":false},{"type":"event","name":"OwnershipTransferred","inputs":[{"name":"previousOwner","type":"address","indexed":true,"internalType":"address"},{"name":"newOwner","type":"address","indexed":true,"internalType":"address"}],"anonymous":false},{"type":"event","name":"Withdrawal","inputs":[{"name":"utxo","type":"tuple","indexed":false,"internalType":"struct Bridge.UTXO","components":[{"name":"txId","type":"bytes32","internalType":"bytes32"},{"name":"outputId","type":"bytes4","internalType":"bytes4"}]},{"name":"index","type":"uint256","indexed":false,"internalType":"uint256"},{"name":"timestamp","type":"uint256","indexed":false,"internalType":"uint256"}],"anonymous":false},{"type":"error","name":"InvalidInitialization","inputs":[]},{"type":"error","name":"NotInitializing","inputs":[]},{"type":"error","name":"OwnableInvalidOwner","inputs":[{"name":"owner","type":"address","internalType":"address"}]},{"type":"error","name":"OwnableUnauthorizedAccount","inputs":[{"name":"account","type":"address","internalType":"address"}]}],"bytecode":{"object":"0x6080604052348015600e575f5ffd5b506126818061001c5f395ff3fe608060405260043610610126575f3560e01c80638786dba7116100a8578063d761753e1161006d578063d761753e14610308578063dd95c7c61461032f578063e30c39781461034e578063e613ae0014610362578063f2fde38b1461037c578063f8e655d21461039b575f5ffd5b80638786dba71461028d57806387f8bf56146102a05780638da5cb5b146102c1578063a41c5cf3146102d5578063b3ab15fb146102e9575f5ffd5b8063471ba1e3116100ee578063471ba1e3146101d9578063570ca73514610216578063715018a614610251578063781952a81461026557806379ba509714610279575f5ffd5b806311e53a011461012a578063158ef93e14610168578063198546231461019057806341260137146101a5578063419759f5146101c4575b5f5ffd5b348015610135575f5ffd5b50610155610144366004611f98565b60066020525f908152604090205481565b6040519081526020015b60405180910390f35b348015610173575f5ffd5b505f546101809060ff1681565b604051901515815260200161015f565b6101a361019e366004611fef565b6103ba565b005b3480156101b0575f5ffd5b506101a36101bf366004612096565b610590565b3480156101cf575f5ffd5b5061015560015481565b3480156101e4575f5ffd5b506101f86101f3366004611f98565b6107c8565b604080519283526001600160e01b031990911660208301520161015f565b348015610221575f5ffd5b505f546102399061010090046001600160a01b031681565b6040516001600160a01b03909116815260200161015f565b34801561025c575f5ffd5b506101a36107f7565b348015610270575f5ffd5b50600554610155565b348015610284575f5ffd5b506101a361080a565b6101a361029b366004612123565b610852565b3480156102ab575f5ffd5b506102b4610978565b60405161015f919061214d565b3480156102cc575f5ffd5b50610239610a04565b3480156102e0575f5ffd5b506102b4610a38565b3480156102f4575f5ffd5b506101a3610303366004612182565b610a45565b348015610313575f5ffd5b5061023973deaddeaddeaddeaddeaddeaddeaddeaddeaddead81565b34801561033a575f5ffd5b506101a36103493660046121a8565b610ab5565b348015610359575f5ffd5b50610239610fbe565b34801561036d575f5ffd5b506102396001603160981b0181565b348015610387575f5ffd5b506101a3610396366004612182565b610fe6565b3480156103a6575f5ffd5b506101a36103b53660046121df565b61106b565b8281146104005760405162461bcd60e51b815260206004820152600f60248201526e098cadccee8d040dad2e6dac2e8c6d608b1b60448201526064015b60405180910390fd5b60015461040e908490612251565b34146104565760405162461bcd60e51b8152602060048201526017602482015276125b9d985b1a59081dda5d1a191c985dc8185b5bdd5b9d604a1b60448201526064016103f7565b6005545f5b84811015610588575f604051806040016040528088888581811061048157610481612268565b90506020020135815260200186868581811061049f5761049f612268565b90506020020160208101906104b4919061227c565b6001600160e01b0319169052600580546001810182555f9190915281517f036b6384b5eca791c62761152d0c79bb0604c104a5fb6f4eb0703f3154bb3db060029092029182015560208201517f036b6384b5eca791c62761152d0c79bb0604c104a5fb6f4eb0703f3154bb3db1909101805463ffffffff191660e09290921c91909117905590507f3311a04a346a103ac115cca33028a2bc82f1964805860d0d3fc84a2772496ada816105678486612295565b42604051610577939291906122a8565b60405180910390a15060010161045b565b505050505050565b3373deaddeaddeaddeaddeaddeaddeaddeaddeaddead146105f35760405162461bcd60e51b815260206004820152601f60248201527f63616c6c6572206973206e6f74207468652073797374656d2063616c6c65720060448201526064016103f7565b5f5460ff16156106455760405162461bcd60e51b815260206004820152601f60248201527f436f6e747261637420697320616c726561647920696e697469616c697a65640060448201526064016103f7565b805f036106945760405162461bcd60e51b815260206004820152601a60248201527f4465706f73697420616d6f756e742063616e6e6f74206265203000000000000060448201526064016103f7565b5f8490036106e45760405162461bcd60e51b815260206004820152601e60248201527f4465706f736974207363726970742063616e6e6f7420626520656d707479000060448201526064016103f7565b5f805460ff1916600117905560036106fd85878361236e565b50600461070b83858361236e565b5060018190555f8054610100600160a81b03191674deaddeaddeaddeaddeaddeaddeaddeaddeaddead001781556040805191825273deaddeaddeaddeaddeaddeaddeaddeaddeaddead60208301527ffbe5b6cbafb274f445d7fed869dc77a838d8243a22c460de156560e8857cad03910160405180910390a17f80bd1fdfe157286ce420ee763f91748455b249605748e5df12dad9844402bafc858585856040516107b9949392919061244f565b60405180910390a15050505050565b600581815481106107d7575f80fd5b5f9182526020909120600290910201805460019091015490915060e01b82565b6107ff611114565b6108085f611146565b565b3380610814610fbe565b6001600160a01b0316146108465760405163118cdaa760e01b81526001600160a01b03821660048201526024016103f7565b61084f81611146565b50565b600154341461089d5760405162461bcd60e51b8152602060048201526017602482015276125b9d985b1a59081dda5d1a191c985dc8185b5bdd5b9d604a1b60448201526064016103f7565b6040805180820182528381526001600160e01b0319831660208201908152600580546001810182555f9190915282517f036b6384b5eca791c62761152d0c79bb0604c104a5fb6f4eb0703f3154bb3db0600283029081019190915591517f036b6384b5eca791c62761152d0c79bb0604c104a5fb6f4eb0703f3154bb3db1909201805463ffffffff191660e09390931c9290921790915591519091907f3311a04a346a103ac115cca33028a2bc82f1964805860d0d3fc84a2772496ada9061096a908490849042906122a8565b60405180910390a150505050565b60048054610985906122ea565b80601f01602080910402602001604051908101604052809291908181526020018280546109b1906122ea565b80156109fc5780601f106109d3576101008083540402835291602001916109fc565b820191905f5260205f20905b8154815290600101906020018083116109df57829003601f168201915b505050505081565b5f807f9016d09d72d40fdae2fd8ceac6b6234c7706214fd39c1cd1e609a0528c1993005b546001600160a01b031692915050565b60038054610985906122ea565b610a4d611114565b5f8054610100600160a81b0319166101006001600160a01b038481168281029390931793849055604080519290940416815260208101919091527ffbe5b6cbafb274f445d7fed869dc77a838d8243a22c460de156560e8857cad03910160405180910390a150565b5f5461010090046001600160a01b03163314610b135760405162461bcd60e51b815260206004820152601a60248201527f63616c6c6572206973206e6f7420746865206f70657261746f7200000000000060448201526064016103f7565b5f5f610b1e83611182565b9150915080600114610b6b5760405162461bcd60e51b815260206004820152601660248201527513db9b1e481bdb99481a5b9c1d5d08185b1b1bddd95960521b60448201526064016103f7565b5f610c13610b7c602086018661227c565b610b896040870187612475565b8080601f0160208091040260200160405190810160405280939291908181526020018383808284375f92019190915250610bca925050506060880188612475565b8080601f0160208091040260200160405190810160405280939291908181526020018383808284375f92019190915250610c0e9250505060c0890160a08a0161227c565b6114d7565b5f8181526006602052604090205490915015610c665760405162461bcd60e51b81526020600482015260126024820152711d1e125908185b1c9958591e481cdc195b9d60721b60448201526064016103f7565b60025f8154610c74906124b7565b91829055505f82815260066020526040812091909155610cd3610c9a6080870187612475565b8080601f0160208091040260200160405190810160405280939291908181526020018383808284375f920182905250925061150f915050565b90505f610cdf826115f0565b91505080600314610d2a5760405162461bcd60e51b8152602060048201526015602482015274496e76616c6964207769746e657373206974656d7360581b60448201526064016103f7565b5f610d36836001611605565b90505f60038054610d46906122ea565b91505f9050610d568382846117cc565b9050610dea8160038054610d69906122ea565b80601f0160208091040260200160405190810160405280929190818152602001828054610d95906122ea565b8015610de05780601f10610db757610100808354040283529160200191610de0565b820191905f5260205f20905b815481529060010190602001808311610dc357829003601f168201915b505050505061188d565b610e2f5760405162461bcd60e51b8152602060048201526016602482015275125b9d985b1a590819195c1bdcda5d081cd8dc9a5c1d60521b60448201526064016103f7565b5f610e6260048054610e40906122ea565b8651610e4c92506124cf565b60048054610e59906122ea565b879291506117cc565b9050610e758160048054610d69906122ea565b610eb95760405162461bcd60e51b8152602060048201526015602482015274092dcecc2d8d2c840e6c6e4d2e0e840e6eaccccd2f605b1b60448201526064016103f7565b5f610ec38561195e565b600254604080518d8152602081018c90526001600160a01b038416818301524260608201526080810192909252519192507fa82453ca34121b3ecb910d957824e27c5dc6465315949facd15fb72886490058919081900360a00190a16001546040515f916001600160a01b038416918381818185875af1925050503d805f8114610f68576040519150601f19603f3d011682016040523d82523d5f602084013e610f6d565b606091505b5050905080610fb05760405162461bcd60e51b815260206004820152600f60248201526e151c985b9cd9995c8819985a5b1959608a1b60448201526064016103f7565b505050505050505050505050565b5f807f237e158222e3e6968b72b9db0d8043aacf074ad9f650f0d1606b4d82ee432c00610a28565b610fee611114565b7f237e158222e3e6968b72b9db0d8043aacf074ad9f650f0d1606b4d82ee432c0080546001600160a01b0319166001600160a01b0383169081178255611032610a04565b6001600160a01b03167f38d16b8cac22d99fc7c124b9cd0de2d3fa1faef420bfe791d8c362d765e2270060405160405180910390a35050565b611073611114565b5f8390036110c35760405162461bcd60e51b815260206004820152601e60248201527f4465706f736974207363726970742063616e6e6f7420626520656d707479000060448201526064016103f7565b60036110d084868361236e565b5060046110de82848361236e565b507f80bd1fdfe157286ce420ee763f91748455b249605748e5df12dad9844402bafc8484848460405161096a949392919061244f565b3361111d610a04565b6001600160a01b0316146108085760405163118cdaa760e01b81523360048201526024016103f7565b7f237e158222e3e6968b72b9db0d8043aacf074ad9f650f0d1606b4d82ee432c0080546001600160a01b031916815561117e82611992565b5050565b5f80806111e1611195602086018661227c565b6111a560408701602088016124e2565b6111b26040880188612475565b6111bf60608a018a612475565b6111cc60808c018c612475565b6111dc60c08e0160a08f0161227c565b611a02565b905061122c6111f36040860186612475565b8080601f0160208091040260200160405190810160405280939291908181526020018383808284375f92019190915250611a3592505050565b6112785760405162461bcd60e51b815260206004820152601d60248201527f56696e206973206e6f742070726f7065726c7920666f726d617474656400000060448201526064016103f7565b6112c16112886060860186612475565b8080601f0160208091040260200160405190810160405280939291908181526020018383808284375f92019190915250611acf92505050565b61130d5760405162461bcd60e51b815260206004820152601e60248201527f566f7574206973206e6f742070726f7065726c7920666f726d6174746564000060448201526064016103f7565b5f61135761131e6040870187612475565b8080601f0160208091040260200160405190810160405280939291908181526020018383808284375f920191909152506115f092505050565b91506113a6905061136b6080870187612475565b8080601f0160208091040260200160405190810160405280939291908181526020018383808284375f92019190915250859250611b5c915050565b6113fc5760405162461bcd60e51b815260206004820152602160248201527f5769746e657373206973206e6f742070726f7065726c7920666f726d617474656044820152601960fa1b60648201526084016103f7565b6001603160981b01634ffd344a60e08701358461141c60c08a018a612475565b8a61010001356040518663ffffffff1660e01b8152600401611442959493929190612509565b602060405180830381865afa15801561145d573d5f5f3e3d5ffd5b505050506040513d601f19601f82011682018060405250810190611481919061253a565b6114cd5760405162461bcd60e51b815260206004820152601b60248201527f5472616e73616374696f6e206973206e6f7420696e20626c6f636b000000000060448201526064016103f7565b9094909350915050565b5f611506858585856040516020016114f29493929190612570565b604051602081830303815290604052611bc9565b95945050505050565b60605f80805b84811015611585576115278683611beb565b92505f1983036115715760405162461bcd60e51b815260206004820152601560248201527442616420566172496e7420696e207769746e65737360581b60448201526064016103f7565b61157b8383612295565b9150600101611515565b506115908582611beb565b91505f1982036115da5760405162461bcd60e51b815260206004820152601560248201527442616420566172496e7420696e207769746e65737360581b60448201526064016103f7565b6115e58582846117cc565b925050505b92915050565b5f5f6115fc835f611c8c565b91509150915091565b60605f5f611612856115f0565b9092509050600182016116725760405162461bcd60e51b815260206004820152602260248201527f52656164206f76657272756e20647572696e6720566172496e742070617273696044820152616e6760f01b60648201526084016103f7565b8084106116b45760405162461bcd60e51b815260206004820152601060248201526f2b34b7103932b0b21037bb32b9393ab760811b60448201526064016103f7565b5f806116c1846001612295565b90505f5b8681101561174b576116d78883611c8c565b9095509250600183016117215760405162461bcd60e51b815260206004820152601260248201527142616420566172496e7420696e206974656d60701b60448201526064016103f7565b8261172d866001612295565b6117379190612295565b6117419083612295565b91506001016116c5565b506117568782611c8c565b9094509150600182016117a05760405162461bcd60e51b815260206004820152601260248201527142616420566172496e7420696e206974656d60701b60448201526064016103f7565b6117c1816117ae8685612295565b6117b9906001612295565b8991906117cc565b979650505050505050565b6060815f036117e9575060408051602081019091525f8152611886565b5f6117f48385612295565b90508381118015611806575080855110155b6118485760405162461bcd60e51b8152602060048201526013602482015272536c696365206f7574206f6620626f756e647360681b60448201526064016103f7565b604051915082604083010160405282825283850182038460208701018481015b8082101561188157815183830152602082019150611868565b505050505b9392505050565b815181515f919081146118a3575f9150506115ea565b60205f805b8383116118d757505084810151848201516020909201918082146118d2575f9450505050506115ea565b6118a8565b5f6118e36020856124cf565b90505b848110156119505786818151811061190057611900612268565b602001015160f81c60f81b6001600160f81b03191688828151811061192757611927612268565b01602001516001600160f81b03191614611948575f955050505050506115ea565b6001016118e6565b506001979650505050505050565b5f5f6003805461196d906122ea565b91505f905061197e848360146117cc565b611987906125af565b60601c949350505050565b7f9016d09d72d40fdae2fd8ceac6b6234c7706214fd39c1cd1e609a0528c19930080546001600160a01b031981166001600160a01b03848116918217845560405192169182907f8be0079c531659141344cd1fd0a4f28419497f9722a3daafe3b4186f6b6457e0905f90a3505050565b5f611a278a8a8a8a8a8a8a8a8a6040516020016114f299989796959493929190612602565b9a9950505050505050505050565b5f5f5f611a41846115f0565b9092509050801580611a5357505f1982145b15611a6157505f9392505050565b5f611a6d836001612295565b90505f5b82811015611ac25785518210611a8c57505f95945050505050565b5f611a978784611e27565b90505f198103611aad57505f9695505050505050565b611ab78184612295565b925050600101611a71565b5093519093149392505050565b5f5f5f611adb846115f0565b9092509050801580611aed57505f1982145b15611afb57505f9392505050565b5f611b07836001612295565b90505f5b82811015611ac25785518210611b2657505f95945050505050565b5f611b318784611e6d565b90505f198103611b4757505f9695505050505050565b611b518184612295565b925050600101611b0b565b5f815f03611b6b57505f6115ea565b5f805b83811015611bbd5784518210611b88575f925050506115ea565b5f611b938684611beb565b90505f198103611ba8575f93505050506115ea565b611bb28184612295565b925050600101611b6e565b50835114905092915050565b5f60205f83516020850160025afa5060205f60205f60025afa50505f51919050565b5f5f5f611bf88585611c8c565b909250905060018201611c10575f19925050506115ea565b5f80611c1d846001612295565b90505f5b83811015611c8157611c3c88611c37848a612295565b611c8c565b909550925060018301611c57575f19955050505050506115ea565b82611c63866001612295565b611c6d9190612295565b611c779083612295565b9150600101611c21565b509695505050505050565b5f5f5f611c998585611ec8565b90508060ff165f03611ccc575f858581518110611cb857611cb8612268565b016020015190935060f81c9150611e209050565b83611cd8826001612668565b60ff16611ce59190612295565b85511015611cfa575f195f9250925050611e20565b5f8160ff16600203611d3d57611d32611d1e611d17876001612295565b8890611f4c565b62ffff0060e882901c1660f89190911c1790565b61ffff169050611e16565b8160ff16600403611d8c57611d7f611d59611d17876001612295565b60d881901c63ff00ff001662ff00ff60e89290921c9190911617601081811b91901c1790565b63ffffffff169050611e16565b8160ff16600803611e1657611e0a611da8611d17876001612295565b60c01c64ff000000ff600882811c91821665ff000000ff009390911b92831617601090811b6001600160401b031666ff00ff00ff00ff9290921667ff00ff00ff00ff009093169290921790911c65ffff0000ffff1617602081811c91901b1790565b6001600160401b031690505b60ff909116925090505b9250929050565b5f5f5f611e348585611f5a565b909250905060018201611e4c575f19925050506115ea565b80611e58836025612295565b611e629190612295565b6115e5906004612295565b5f611e79826009612295565b83511015611e8957505f196115ea565b5f80611e9a85611c37866008612295565b909250905060018201611eb2575f19925050506115ea565b80611ebe836009612295565b6115e59190612295565b5f828281518110611edb57611edb612268565b016020015160f81c60ff03611ef2575060086115ea565b828281518110611f0457611f04612268565b016020015160f81c60fe03611f1b575060046115ea565b828281518110611f2d57611f2d612268565b016020015160f81c60fd03611f44575060026115ea565b505f92915050565b5f6118868383016020015190565b5f80611f67836025612295565b84511015611f7a57505f1990505f611e20565b5f80611f8b86611c37876024612295565b9097909650945050505050565b5f60208284031215611fa8575f5ffd5b5035919050565b5f5f83601f840112611fbf575f5ffd5b5081356001600160401b03811115611fd5575f5ffd5b6020830191508360208260051b8501011115611e20575f5ffd5b5f5f5f5f60408587031215612002575f5ffd5b84356001600160401b03811115612017575f5ffd5b61202387828801611faf565b90955093505060208501356001600160401b03811115612041575f5ffd5b61204d87828801611faf565b95989497509550505050565b5f5f83601f840112612069575f5ffd5b5081356001600160401b0381111561207f575f5ffd5b602083019150836020828501011115611e20575f5ffd5b5f5f5f5f5f606086880312156120aa575f5ffd5b85356001600160401b038111156120bf575f5ffd5b6120cb88828901612059565b90965094505060208601356001600160401b038111156120e9575f5ffd5b6120f588828901612059565b96999598509660400135949350505050565b80356001600160e01b03198116811461211e575f5ffd5b919050565b5f5f60408385031215612134575f5ffd5b8235915061214460208401612107565b90509250929050565b602081525f82518060208401528060208501604085015e5f604082850101526040601f19601f83011684010191505092915050565b5f60208284031215612192575f5ffd5b81356001600160a01b0381168114611886575f5ffd5b5f602082840312156121b8575f5ffd5b81356001600160401b038111156121cd575f5ffd5b82016101208185031215611886575f5ffd5b5f5f5f5f604085870312156121f2575f5ffd5b84356001600160401b03811115612207575f5ffd5b61221387828801612059565b90955093505060208501356001600160401b03811115612231575f5ffd5b61204d87828801612059565b634e487b7160e01b5f52601160045260245ffd5b80820281158282048414176115ea576115ea61223d565b634e487b7160e01b5f52603260045260245ffd5b5f6020828403121561228c575f5ffd5b61188682612107565b808201808211156115ea576115ea61223d565b835181526020938401516001600160e01b031916938101939093526040830191909152606082015260800190565b634e487b7160e01b5f52604160045260245ffd5b600181811c908216806122fe57607f821691505b60208210810361231c57634e487b7160e01b5f52602260045260245ffd5b50919050565b601f82111561236957805f5260205f20601f840160051c810160208510156123475750805b601f840160051c820191505b81811015612366575f8155600101612353565b50505b505050565b6001600160401b03831115612385576123856122d6565b6123998361239383546122ea565b83612322565b5f601f8411600181146123ca575f85156123b35750838201355b5f19600387901b1c1916600186901b178355612366565b5f83815260208120601f198716915b828110156123f957868501358255602094850194600190920191016123d9565b5086821015612415575f1960f88860031b161c19848701351681555b505060018560011b0183555050505050565b81835281816020850137505f828201602090810191909152601f909101601f19169091010190565b604081525f612462604083018688612427565b82810360208401526117c1818587612427565b5f5f8335601e1984360301811261248a575f5ffd5b8301803591506001600160401b038211156124a3575f5ffd5b602001915036819003821315611e20575f5ffd5b5f600182016124c8576124c861223d565b5060010190565b818103818111156115ea576115ea61223d565b5f602082840312156124f2575f5ffd5b81356001600160f01b031981168114611886575f5ffd5b858152846020820152608060408201525f612528608083018587612427565b90508260608301529695505050505050565b5f6020828403121561254a575f5ffd5b81518015158114611886575f5ffd5b5f81518060208401855e5f93019283525090919050565b6001600160e01b0319851681525f61259461258e6004840187612559565b85612559565b6001600160e01b031993909316835250506004019392505050565b805160208201516bffffffffffffffffffffffff198116919060148210156125fb576bffffffffffffffffffffffff196bffffffffffffffffffffffff198360140360031b1b82161692505b5050919050565b6001600160e01b03198a1681526001600160f01b031989166004820152868860068301375f878201600681015f815287898237505f908701600601908152848682376001600160e01b031993909316929093019182525060040198975050505050505050565b60ff81811683821601908111156115ea576115ea61223d56","linkReferences":{}},"methodIdentifiers":{"LIGHT_CLIENT()":"e613ae00","SYSTEM_CALLER()":"d761753e","acceptOwnership()":"79ba5097","batchWithdraw(bytes32[],bytes4[])":"19854623","deposit((bytes4,bytes2,bytes,bytes,bytes,bytes4,bytes,uint256,uint256))":"dd95c7c6","depositAmount()":"419759f5","getWithdrawalCount()":"781952a8","initialize(bytes,bytes,uint256)":"41260137","initialized()":"158ef93e","operator()":"570ca735","owner()":"8da5cb5b","pendingOwner()":"e30c3978","renounceOwnership()":"715018a6","scriptPrefix()":"a41c5cf3","scriptSuffix()":"87f8bf56","setDepositScript(bytes,bytes)":"f8e655d2","setOperator(address)":"b3ab15fb","transferOwnership(address)":"f2fde38b","txIdToDepositId(bytes32)":"11e53a01","withdraw(bytes32,bytes4)":"8786dba7","withdrawalUTXOs(uint256)":"471ba1e3"},"id":48}