{"abi":[{"type":"function","name":"LIGHT_CLIENT","inputs":[],"outputs":[{"name":"","type":"address","internalType":"contract BitcoinLightClient"}],"stateMutability":"view"},{"type":"function","name":"SYSTEM_CALLER","inputs":[],"outputs":[{"name":"","type":"address","internalType":"address"}],"stateMutability":"view"},{"type":"function","name":"acceptOwnership","inputs":[],"outputs":[],"stateMutability":"nonpayable"},{"type":"function","name":"batchWithdraw","inputs":[{"name":"txIds","type":"bytes32[]","internalType":"bytes32[]"},{"name":"outputIds","type":"bytes4[]","internalType":"bytes4[]"}],"outputs":[],"stateMutability":"payable"},{"type":"function","name":"deposit","inputs":[{"name":"moveTp","type":"tuple","internalType":"struct Bridge.TransactionParams","components":[{"name":"version","type":"bytes4","internalType":"bytes4"},{"name":"flag","type":"bytes2","internalType":"bytes2"},{"name":"vin","type":"bytes","internalType":"bytes"},{"name":"vout","type":"bytes","internalType":"bytes"},{"name":"witness","type":"bytes","internalType":"bytes"},{"name":"locktime","type":"bytes4","internalType":"bytes4"},{"name":"intermediate_nodes","type":"bytes","internalType":"bytes"},{"name":"block_height","type":"uint256","internalType":"uint256"},{"name":"index","type":"uint256","internalType":"uint256"}]}],"outputs":[],"stateMutability":"nonpayable"},{"type":"function","name":"depositAmount","inputs":[],"outputs":[{"name":"","type":"uint256","internalType":"uint256"}],"stateMutability":"view"},{"type":"function","name":"depositTxIds","inputs":[{"name":"","type":"uint256","internalType":"uint256"}],"outputs":[{"name":"","type":"bytes32","internalType":"bytes32"}],"stateMutability":"view"},{"type":"function","name":"getWithdrawalCount","inputs":[],"outputs":[{"name":"","type":"uint256","internalType":"uint256"}],"stateMutability":"view"},{"type":"function","name":"initialize","inputs":[{"name":"_scriptPrefix","type":"bytes","internalType":"bytes"},{"name":"_scriptSuffix","type":"bytes","internalType":"bytes"},{"name":"_depositAmount","type":"uint256","internalType":"uint256"}],"outputs":[],"stateMutability":"nonpayable"},{"type":"function","name":"initialized","inputs":[],"outputs":[{"name":"","type":"bool","internalType":"bool"}],"stateMutability":"view"},{"type":"function","name":"operator","inputs":[],"outputs":[{"name":"","type":"address","internalType":"address"}],"stateMutability":"view"},{"type":"function","name":"owner","inputs":[],"outputs":[{"name":"","type":"address","internalType":"address"}],"stateMutability":"view"},{"type":"function","name":"pendingOwner","inputs":[],"outputs":[{"name":"","type":"address","internalType":"address"}],"stateMutability":"view"},{"type":"function","name":"renounceOwnership","inputs":[],"outputs":[],"stateMutability":"nonpayable"},{"type":"function","name":"scriptPrefix","inputs":[],"outputs":[{"name":"","type":"bytes","internalType":"bytes"}],"stateMutability":"view"},{"type":"function","name":"scriptSuffix","inputs":[],"outputs":[{"name":"","type":"bytes","internalType":"bytes"}],"stateMutability":"view"},{"type":"function","name":"setDepositScript","inputs":[{"name":"_scriptPrefix","type":"bytes","internalType":"bytes"},{"name":"_scriptSuffix","type":"bytes","internalType":"bytes"}],"outputs":[],"stateMutability":"nonpayable"},{"type":"function","name":"setOperator","inputs":[{"name":"_operator","type":"address","internalType":"address"}],"outputs":[],"stateMutability":"nonpayable"},{"type":"function","name":"transferOwnership","inputs":[{"name":"newOwner","type":"address","internalType":"address"}],"outputs":[],"stateMutability":"nonpayable"},{"type":"function","name":"txIdToDepositId","inputs":[{"name":"","type":"bytes32","internalType":"bytes32"}],"outputs":[{"name":"","type":"uint256","internalType":"uint256"}],"stateMutability":"view"},{"type":"function","name":"withdraw","inputs":[{"name":"txId","type":"bytes32","internalType":"bytes32"},{"name":"outputId","type":"bytes4","internalType":"bytes4"}],"outputs":[],"stateMutability":"payable"},{"type":"function","name":"withdrawalUTXOs","inputs":[{"name":"","type":"uint256","internalType":"uint256"}],"outputs":[{"name":"txId","type":"bytes32","internalType":"bytes32"},{"name":"outputId","type":"bytes4","internalType":"bytes4"}],"stateMutability":"view"},{"type":"event","name":"Deposit","inputs":[{"name":"wtxId","type":"bytes32","indexed":false,"internalType":"bytes32"},{"name":"txId","type":"bytes32","indexed":false,"internalType":"bytes32"},{"name":"recipient","type":"address","indexed":false,"internalType":"address"},{"name":"timestamp","type":"uint256","indexed":false,"internalType":"uint256"},{"name":"depositId","type":"uint256","indexed":false,"internalType":"uint256"}],"anonymous":false},{"type":"event","name":"DepositScriptUpdate","inputs":[{"name":"scriptPrefix","type":"bytes","indexed":false,"internalType":"bytes"},{"name":"scriptSuffix","type":"bytes","indexed":false,"internalType":"bytes"}],"anonymous":false},{"type":"event","name":"Initialized","inputs":[{"name":"version","type":"uint64","indexed":false,"internalType":"uint64"}],"anonymous":false},{"type":"event","name":"OperatorUpdated","inputs":[{"name":"oldOperator","type":"address","indexed":false,"internalType":"address"},{"name":"newOperator","type":"address","indexed":false,"internalType":"address"}],"anonymous":false},{"type":"event","name":"OwnershipTransferStarted","inputs":[{"name":"previousOwner","type":"address","indexed":true,"internalType":"address"},{"name":"newOwner","type":"address","indexed":true,"internalType":"address"}],"anonymous":false},{"type":"event","name":"OwnershipTransferred","inputs":[{"name":"previousOwner","type":"address","indexed":true,"internalType":"address"},{"name":"newOwner","type":"address","indexed":true,"internalType":"address"}],"anonymous":false},{"type":"event","name":"Withdrawal","inputs":[{"name":"utxo","type":"tuple","indexed":false,"internalType":"struct Bridge.UTXO","components":[{"name":"txId","type":"bytes32","internalType":"bytes32"},{"name":"outputId","type":"bytes4","internalType":"bytes4"}]},{"name":"index","type":"uint256","indexed":false,"internalType":"uint256"},{"name":"timestamp","type":"uint256","indexed":false,"internalType":"uint256"}],"anonymous":false},{"type":"error","name":"InvalidInitialization","inputs":[]},{"type":"error","name":"NotInitializing","inputs":[]},{"type":"error","name":"OwnableInvalidOwner","inputs":[{"name":"owner","type":"address","internalType":"address"}]},{"type":"error","name":"OwnableUnauthorizedAccount","inputs":[{"name":"account","type":"address","internalType":"address"}]}],"bytecode":{"object":"0x6080604052348015600e575f5ffd5b506127b58061001c5f395ff3fe608060405260043610610131575f3560e01c80638786dba7116100a8578063d761753e1161006d578063d761753e14610332578063dd95c7c614610359578063e30c397814610378578063e613ae001461038c578063f2fde38b146103a6578063f8e655d2146103c5575f5ffd5b80638786dba7146102b757806387f8bf56146102ca5780638da5cb5b146102eb578063a41c5cf3146102ff578063b3ab15fb14610313575f5ffd5b8063419759f5116100f9578063419759f5146101ee578063471ba1e314610203578063570ca73514610240578063715018a61461027b578063781952a81461028f57806379ba5097146102a3575f5ffd5b8063065921671461013557806311e53a0114610167578063158ef93e1461019257806319854623146101ba57806341260137146101cf575b5f5ffd5b348015610140575f5ffd5b5061015461014f3660046120cc565b6103e4565b6040519081526020015b60405180910390f35b348015610172575f5ffd5b506101546101813660046120cc565b60076020525f908152604090205481565b34801561019d575f5ffd5b505f546101aa9060ff1681565b604051901515815260200161015e565b6101cd6101c8366004612123565b610403565b005b3480156101da575f5ffd5b506101cd6101e93660046121ca565b6105d9565b3480156101f9575f5ffd5b5061015460015481565b34801561020e575f5ffd5b5061022261021d3660046120cc565b6108ca565b604080519283526001600160e01b031990911660208301520161015e565b34801561024b575f5ffd5b505f546102639061010090046001600160a01b031681565b6040516001600160a01b03909116815260200161015e565b348015610286575f5ffd5b506101cd6108f9565b34801561029a575f5ffd5b50600554610154565b3480156102ae575f5ffd5b506101cd61090c565b6101cd6102c5366004612257565b610954565b3480156102d5575f5ffd5b506102de610a7a565b60405161015e9190612281565b3480156102f6575f5ffd5b50610263610b06565b34801561030a575f5ffd5b506102de610b3a565b34801561031e575f5ffd5b506101cd61032d3660046122b6565b610b47565b34801561033d575f5ffd5b5061026373deaddeaddeaddeaddeaddeaddeaddeaddeaddead81565b348015610364575f5ffd5b506101cd6103733660046122dc565b610bb7565b348015610383575f5ffd5b506102636110f2565b348015610397575f5ffd5b506102636001603160981b0181565b3480156103b1575f5ffd5b506101cd6103c03660046122b6565b61111a565b3480156103d0575f5ffd5b506101cd6103df366004612313565b61119f565b600681815481106103f3575f80fd5b5f91825260209091200154905081565b8281146104495760405162461bcd60e51b815260206004820152600f60248201526e098cadccee8d040dad2e6dac2e8c6d608b1b60448201526064015b60405180910390fd5b600154610457908490612385565b341461049f5760405162461bcd60e51b8152602060048201526017602482015276125b9d985b1a59081dda5d1a191c985dc8185b5bdd5b9d604a1b6044820152606401610440565b6005545f5b848110156105d1575f60405180604001604052808888858181106104ca576104ca61239c565b9050602002013581526020018686858181106104e8576104e861239c565b90506020020160208101906104fd91906123b0565b6001600160e01b0319169052600580546001810182555f9190915281517f036b6384b5eca791c62761152d0c79bb0604c104a5fb6f4eb0703f3154bb3db060029092029182015560208201517f036b6384b5eca791c62761152d0c79bb0604c104a5fb6f4eb0703f3154bb3db1909101805463ffffffff191660e09290921c91909117905590507f3311a04a346a103ac115cca33028a2bc82f1964805860d0d3fc84a2772496ada816105b084866123c9565b426040516105c0939291906123dc565b60405180910390a1506001016104a4565b505050505050565b3373deaddeaddeaddeaddeaddeaddeaddeaddeaddead1461063c5760405162461bcd60e51b815260206004820152601f60248201527f63616c6c6572206973206e6f74207468652073797374656d2063616c6c6572006044820152606401610440565b5f5460ff161561068e5760405162461bcd60e51b815260206004820152601f60248201527f436f6e747261637420697320616c726561647920696e697469616c697a6564006044820152606401610440565b805f036106dd5760405162461bcd60e51b815260206004820152601a60248201527f4465706f73697420616d6f756e742063616e6e6f7420626520300000000000006044820152606401610440565b5f84900361072d5760405162461bcd60e51b815260206004820152601e60248201527f4465706f736974207363726970742063616e6e6f7420626520656d70747900006044820152606401610440565b5f805460ff1916600117905560036107468587836124a2565b5060046107548385836124a2565b5060018181555f8054610100600160a81b03191674deaddeaddeaddeaddeaddeaddeaddeaddeaddead00178155604080518082018252828152602080820184815260058054808801825590865292517f036b6384b5eca791c62761152d0c79bb0604c104a5fb6f4eb0703f3154bb3db0600290940293840155517f036b6384b5eca791c62761152d0c79bb0604c104a5fb6f4eb0703f3154bb3db1909201805463ffffffff191660e09390931c9290921790915560068054948501815583527ff652222313e28459528d920b65115c16c04f3efc82aaedc97be59f3f377c0d3f909301829055805191825273deaddeaddeaddeaddeaddeaddeaddeaddeaddead928201929092527ffbe5b6cbafb274f445d7fed869dc77a838d8243a22c460de156560e8857cad03910160405180910390a17f80bd1fdfe157286ce420ee763f91748455b249605748e5df12dad9844402bafc858585856040516108bb9493929190612583565b60405180910390a15050505050565b600581815481106108d9575f80fd5b5f9182526020909120600290910201805460019091015490915060e01b82565b610901611248565b61090a5f61127a565b565b33806109166110f2565b6001600160a01b0316146109485760405163118cdaa760e01b81526001600160a01b0382166004820152602401610440565b6109518161127a565b50565b600154341461099f5760405162461bcd60e51b8152602060048201526017602482015276125b9d985b1a59081dda5d1a191c985dc8185b5bdd5b9d604a1b6044820152606401610440565b6040805180820182528381526001600160e01b0319831660208201908152600580546001810182555f9190915282517f036b6384b5eca791c62761152d0c79bb0604c104a5fb6f4eb0703f3154bb3db0600283029081019190915591517f036b6384b5eca791c62761152d0c79bb0604c104a5fb6f4eb0703f3154bb3db1909201805463ffffffff191660e09390931c9290921790915591519091907f3311a04a346a103ac115cca33028a2bc82f1964805860d0d3fc84a2772496ada90610a6c908490849042906123dc565b60405180910390a150505050565b60048054610a879061241e565b80601f0160208091040260200160405190810160405280929190818152602001828054610ab39061241e565b8015610afe5780601f10610ad557610100808354040283529160200191610afe565b820191905f5260205f20905b815481529060010190602001808311610ae157829003601f168201915b505050505081565b5f807f9016d09d72d40fdae2fd8ceac6b6234c7706214fd39c1cd1e609a0528c1993005b546001600160a01b031692915050565b60038054610a879061241e565b610b4f611248565b5f8054610100600160a81b0319166101006001600160a01b038481168281029390931793849055604080519290940416815260208101919091527ffbe5b6cbafb274f445d7fed869dc77a838d8243a22c460de156560e8857cad03910160405180910390a150565b5f5461010090046001600160a01b03163314610c155760405162461bcd60e51b815260206004820152601a60248201527f63616c6c6572206973206e6f7420746865206f70657261746f720000000000006044820152606401610440565b5f5f610c20836112b6565b9150915080600114610c6d5760405162461bcd60e51b815260206004820152601660248201527513db9b1e481bdb99481a5b9c1d5d08185b1b1bddd95960521b6044820152606401610440565b5f610d15610c7e60208601866123b0565b610c8b60408701876125a9565b8080601f0160208091040260200160405190810160405280939291908181526020018383808284375f92019190915250610ccc9250505060608801886125a9565b8080601f0160208091040260200160405190810160405280939291908181526020018383808284375f92019190915250610d109250505060c0890160a08a016123b0565b61160b565b5f8181526007602052604090205490915015610d685760405162461bcd60e51b81526020600482015260126024820152711d1e125908185b1c9958591e481cdc195b9d60721b6044820152606401610440565b60025f8154610d76906125eb565b91829055505f82815260076020526040812091909155600680546001810182559082527ff652222313e28459528d920b65115c16c04f3efc82aaedc97be59f3f377c0d3f01829055610e07610dce60808701876125a9565b8080601f0160208091040260200160405190810160405280939291908181526020018383808284375f9201829052509250611643915050565b90505f610e1382611724565b91505080600314610e5e5760405162461bcd60e51b8152602060048201526015602482015274496e76616c6964207769746e657373206974656d7360581b6044820152606401610440565b5f610e6a836001611739565b90505f60038054610e7a9061241e565b91505f9050610e8a838284611900565b9050610f1e8160038054610e9d9061241e565b80601f0160208091040260200160405190810160405280929190818152602001828054610ec99061241e565b8015610f145780601f10610eeb57610100808354040283529160200191610f14565b820191905f5260205f20905b815481529060010190602001808311610ef757829003601f168201915b50505050506119c1565b610f635760405162461bcd60e51b8152602060048201526016602482015275125b9d985b1a590819195c1bdcda5d081cd8dc9a5c1d60521b6044820152606401610440565b5f610f9660048054610f749061241e565b8651610f809250612603565b60048054610f8d9061241e565b87929150611900565b9050610fa98160048054610e9d9061241e565b610fed5760405162461bcd60e51b8152602060048201526015602482015274092dcecc2d8d2c840e6c6e4d2e0e840e6eaccccd2f605b1b6044820152606401610440565b5f610ff785611a92565b600254604080518d8152602081018c90526001600160a01b038416818301524260608201526080810192909252519192507fa82453ca34121b3ecb910d957824e27c5dc6465315949facd15fb72886490058919081900360a00190a16001546040515f916001600160a01b038416918381818185875af1925050503d805f811461109c576040519150601f19603f3d011682016040523d82523d5f602084013e6110a1565b606091505b50509050806110e45760405162461bcd60e51b815260206004820152600f60248201526e151c985b9cd9995c8819985a5b1959608a1b6044820152606401610440565b505050505050505050505050565b5f807f237e158222e3e6968b72b9db0d8043aacf074ad9f650f0d1606b4d82ee432c00610b2a565b611122611248565b7f237e158222e3e6968b72b9db0d8043aacf074ad9f650f0d1606b4d82ee432c0080546001600160a01b0319166001600160a01b0383169081178255611166610b06565b6001600160a01b03167f38d16b8cac22d99fc7c124b9cd0de2d3fa1faef420bfe791d8c362d765e2270060405160405180910390a35050565b6111a7611248565b5f8390036111f75760405162461bcd60e51b815260206004820152601e60248201527f4465706f736974207363726970742063616e6e6f7420626520656d70747900006044820152606401610440565b60036112048486836124a2565b5060046112128284836124a2565b507f80bd1fdfe157286ce420ee763f91748455b249605748e5df12dad9844402bafc84848484604051610a6c9493929190612583565b33611251610b06565b6001600160a01b03161461090a5760405163118cdaa760e01b8152336004820152602401610440565b7f237e158222e3e6968b72b9db0d8043aacf074ad9f650f0d1606b4d82ee432c0080546001600160a01b03191681556112b282611ac6565b5050565b5f80806113156112c960208601866123b0565b6112d96040870160208801612616565b6112e660408801886125a9565b6112f360608a018a6125a9565b61130060808c018c6125a9565b61131060c08e0160a08f016123b0565b611b36565b905061136061132760408601866125a9565b8080601f0160208091040260200160405190810160405280939291908181526020018383808284375f92019190915250611b6992505050565b6113ac5760405162461bcd60e51b815260206004820152601d60248201527f56696e206973206e6f742070726f7065726c7920666f726d61747465640000006044820152606401610440565b6113f56113bc60608601866125a9565b8080601f0160208091040260200160405190810160405280939291908181526020018383808284375f92019190915250611c0392505050565b6114415760405162461bcd60e51b815260206004820152601e60248201527f566f7574206973206e6f742070726f7065726c7920666f726d617474656400006044820152606401610440565b5f61148b61145260408701876125a9565b8080601f0160208091040260200160405190810160405280939291908181526020018383808284375f9201919091525061172492505050565b91506114da905061149f60808701876125a9565b8080601f0160208091040260200160405190810160405280939291908181526020018383808284375f92019190915250859250611c90915050565b6115305760405162461bcd60e51b815260206004820152602160248201527f5769746e657373206973206e6f742070726f7065726c7920666f726d617474656044820152601960fa1b6064820152608401610440565b6001603160981b01634ffd344a60e08701358461155060c08a018a6125a9565b8a61010001356040518663ffffffff1660e01b815260040161157695949392919061263d565b602060405180830381865afa158015611591573d5f5f3e3d5ffd5b505050506040513d601f19601f820116820180604052508101906115b5919061266e565b6116015760405162461bcd60e51b815260206004820152601b60248201527f5472616e73616374696f6e206973206e6f7420696e20626c6f636b00000000006044820152606401610440565b9094909350915050565b5f61163a8585858560405160200161162694939291906126a4565b604051602081830303815290604052611cfd565b95945050505050565b60605f80805b848110156116b95761165b8683611d1f565b92505f1983036116a55760405162461bcd60e51b815260206004820152601560248201527442616420566172496e7420696e207769746e65737360581b6044820152606401610440565b6116af83836123c9565b9150600101611649565b506116c48582611d1f565b91505f19820361170e5760405162461bcd60e51b815260206004820152601560248201527442616420566172496e7420696e207769746e65737360581b6044820152606401610440565b611719858284611900565b925050505b92915050565b5f5f611730835f611dc0565b91509150915091565b60605f5f61174685611724565b9092509050600182016117a65760405162461bcd60e51b815260206004820152602260248201527f52656164206f76657272756e20647572696e6720566172496e742070617273696044820152616e6760f01b6064820152608401610440565b8084106117e85760405162461bcd60e51b815260206004820152601060248201526f2b34b7103932b0b21037bb32b9393ab760811b6044820152606401610440565b5f806117f58460016123c9565b90505f5b8681101561187f5761180b8883611dc0565b9095509250600183016118555760405162461bcd60e51b815260206004820152601260248201527142616420566172496e7420696e206974656d60701b6044820152606401610440565b826118618660016123c9565b61186b91906123c9565b61187590836123c9565b91506001016117f9565b5061188a8782611dc0565b9094509150600182016118d45760405162461bcd60e51b815260206004820152601260248201527142616420566172496e7420696e206974656d60701b6044820152606401610440565b6118f5816118e286856123c9565b6118ed9060016123c9565b899190611900565b979650505050505050565b6060815f0361191d575060408051602081019091525f81526119ba565b5f61192883856123c9565b9050838111801561193a575080855110155b61197c5760405162461bcd60e51b8152602060048201526013602482015272536c696365206f7574206f6620626f756e647360681b6044820152606401610440565b604051915082604083010160405282825283850182038460208701018481015b808210156119b55781518383015260208201915061199c565b505050505b9392505050565b815181515f919081146119d7575f91505061171e565b60205f805b838311611a0b5750508481015184820151602090920191808214611a06575f94505050505061171e565b6119dc565b5f611a17602085612603565b90505b84811015611a8457868181518110611a3457611a3461239c565b602001015160f81c60f81b6001600160f81b031916888281518110611a5b57611a5b61239c565b01602001516001600160f81b03191614611a7c575f9550505050505061171e565b600101611a1a565b506001979650505050505050565b5f5f60038054611aa19061241e565b91505f9050611ab284836014611900565b611abb906126e3565b60601c949350505050565b7f9016d09d72d40fdae2fd8ceac6b6234c7706214fd39c1cd1e609a0528c19930080546001600160a01b031981166001600160a01b03848116918217845560405192169182907f8be0079c531659141344cd1fd0a4f28419497f9722a3daafe3b4186f6b6457e0905f90a3505050565b5f611b5b8a8a8a8a8a8a8a8a8a60405160200161162699989796959493929190612736565b9a9950505050505050505050565b5f5f5f611b7584611724565b9092509050801580611b8757505f1982145b15611b9557505f9392505050565b5f611ba18360016123c9565b90505f5b82811015611bf65785518210611bc057505f95945050505050565b5f611bcb8784611f5b565b90505f198103611be157505f9695505050505050565b611beb81846123c9565b925050600101611ba5565b5093519093149392505050565b5f5f5f611c0f84611724565b9092509050801580611c2157505f1982145b15611c2f57505f9392505050565b5f611c3b8360016123c9565b90505f5b82811015611bf65785518210611c5a57505f95945050505050565b5f611c658784611fa1565b90505f198103611c7b57505f9695505050505050565b611c8581846123c9565b925050600101611c3f565b5f815f03611c9f57505f61171e565b5f805b83811015611cf15784518210611cbc575f9250505061171e565b5f611cc78684611d1f565b90505f198103611cdc575f935050505061171e565b611ce681846123c9565b925050600101611ca2565b50835114905092915050565b5f60205f83516020850160025afa5060205f60205f60025afa50505f51919050565b5f5f5f611d2c8585611dc0565b909250905060018201611d44575f199250505061171e565b5f80611d518460016123c9565b90505f5b83811015611db557611d7088611d6b848a6123c9565b611dc0565b909550925060018301611d8b575f199550505050505061171e565b82611d978660016123c9565b611da191906123c9565b611dab90836123c9565b9150600101611d55565b509695505050505050565b5f5f5f611dcd8585611ffc565b90508060ff165f03611e00575f858581518110611dec57611dec61239c565b016020015190935060f81c9150611f549050565b83611e0c82600161279c565b60ff16611e1991906123c9565b85511015611e2e575f195f9250925050611f54565b5f8160ff16600203611e7157611e66611e52611e4b8760016123c9565b8890612080565b62ffff0060e882901c1660f89190911c1790565b61ffff169050611f4a565b8160ff16600403611ec057611eb3611e8d611e4b8760016123c9565b60d881901c63ff00ff001662ff00ff60e89290921c9190911617601081811b91901c1790565b63ffffffff169050611f4a565b8160ff16600803611f4a57611f3e611edc611e4b8760016123c9565b60c01c64ff000000ff600882811c91821665ff000000ff009390911b92831617601090811b6001600160401b031666ff00ff00ff00ff9290921667ff00ff00ff00ff009093169290921790911c65ffff0000ffff1617602081811c91901b1790565b6001600160401b031690505b60ff909116925090505b9250929050565b5f5f5f611f68858561208e565b909250905060018201611f80575f199250505061171e565b80611f8c8360256123c9565b611f9691906123c9565b6117199060046123c9565b5f611fad8260096123c9565b83511015611fbd57505f1961171e565b5f80611fce85611d6b8660086123c9565b909250905060018201611fe6575f199250505061171e565b80611ff28360096123c9565b61171991906123c9565b5f82828151811061200f5761200f61239c565b016020015160f81c60ff036120265750600861171e565b8282815181106120385761203861239c565b016020015160f81c60fe0361204f5750600461171e565b8282815181106120615761206161239c565b016020015160f81c60fd036120785750600261171e565b505f92915050565b5f6119ba8383016020015190565b5f8061209b8360256123c9565b845110156120ae57505f1990505f611f54565b5f806120bf86611d6b8760246123c9565b9097909650945050505050565b5f602082840312156120dc575f5ffd5b5035919050565b5f5f83601f8401126120f3575f5ffd5b5081356001600160401b03811115612109575f5ffd5b6020830191508360208260051b8501011115611f54575f5ffd5b5f5f5f5f60408587031215612136575f5ffd5b84356001600160401b0381111561214b575f5ffd5b612157878288016120e3565b90955093505060208501356001600160401b03811115612175575f5ffd5b612181878288016120e3565b95989497509550505050565b5f5f83601f84011261219d575f5ffd5b5081356001600160401b038111156121b3575f5ffd5b602083019150836020828501011115611f54575f5ffd5b5f5f5f5f5f606086880312156121de575f5ffd5b85356001600160401b038111156121f3575f5ffd5b6121ff8882890161218d565b90965094505060208601356001600160401b0381111561221d575f5ffd5b6122298882890161218d565b96999598509660400135949350505050565b80356001600160e01b031981168114612252575f5ffd5b919050565b5f5f60408385031215612268575f5ffd5b823591506122786020840161223b565b90509250929050565b602081525f82518060208401528060208501604085015e5f604082850101526040601f19601f83011684010191505092915050565b5f602082840312156122c6575f5ffd5b81356001600160a01b03811681146119ba575f5ffd5b5f602082840312156122ec575f5ffd5b81356001600160401b03811115612301575f5ffd5b820161012081850312156119ba575f5ffd5b5f5f5f5f60408587031215612326575f5ffd5b84356001600160401b0381111561233b575f5ffd5b6123478782880161218d565b90955093505060208501356001600160401b03811115612365575f5ffd5b6121818782880161218d565b634e487b7160e01b5f52601160045260245ffd5b808202811582820484141761171e5761171e612371565b634e487b7160e01b5f52603260045260245ffd5b5f602082840312156123c0575f5ffd5b6119ba8261223b565b8082018082111561171e5761171e612371565b835181526020938401516001600160e01b031916938101939093526040830191909152606082015260800190565b634e487b7160e01b5f52604160045260245ffd5b600181811c9082168061243257607f821691505b60208210810361245057634e487b7160e01b5f52602260045260245ffd5b50919050565b601f82111561249d57805f5260205f20601f840160051c8101602085101561247b5750805b601f840160051c820191505b8181101561249a575f8155600101612487565b50505b505050565b6001600160401b038311156124b9576124b961240a565b6124cd836124c7835461241e565b83612456565b5f601f8411600181146124fe575f85156124e75750838201355b5f19600387901b1c1916600186901b17835561249a565b5f83815260208120601f198716915b8281101561252d578685013582556020948501946001909201910161250d565b5086821015612549575f1960f88860031b161c19848701351681555b505060018560011b0183555050505050565b81835281816020850137505f828201602090810191909152601f909101601f19169091010190565b604081525f61259660408301868861255b565b82810360208401526118f581858761255b565b5f5f8335601e198436030181126125be575f5ffd5b8301803591506001600160401b038211156125d7575f5ffd5b602001915036819003821315611f54575f5ffd5b5f600182016125fc576125fc612371565b5060010190565b8181038181111561171e5761171e612371565b5f60208284031215612626575f5ffd5b81356001600160f01b0319811681146119ba575f5ffd5b858152846020820152608060408201525f61265c60808301858761255b565b90508260608301529695505050505050565b5f6020828403121561267e575f5ffd5b815180151581146119ba575f5ffd5b5f81518060208401855e5f93019283525090919050565b6001600160e01b0319851681525f6126c86126c2600484018761268d565b8561268d565b6001600160e01b031993909316835250506004019392505050565b805160208201516bffffffffffffffffffffffff1981169190601482101561272f576bffffffffffffffffffffffff196bffffffffffffffffffffffff198360140360031b1b82161692505b5050919050565b6001600160e01b03198a1681526001600160f01b031989166004820152868860068301375f878201600681015f815287898237505f908701600601908152848682376001600160e01b031993909316929093019182525060040198975050505050505050565b60ff818116838216019081111561171e5761171e61237156","linkReferences":{}},"methodIdentifiers":{"LIGHT_CLIENT()":"e613ae00","SYSTEM_CALLER()":"d761753e","acceptOwnership()":"79ba5097","batchWithdraw(bytes32[],bytes4[])":"19854623","deposit((bytes4,bytes2,bytes,bytes,bytes,bytes4,bytes,uint256,uint256))":"dd95c7c6","depositAmount()":"419759f5","depositTxIds(uint256)":"06592167","getWithdrawalCount()":"781952a8","initialize(bytes,bytes,uint256)":"41260137","initialized()":"158ef93e","operator()":"570ca735","owner()":"8da5cb5b","pendingOwner()":"e30c3978","renounceOwnership()":"715018a6","scriptPrefix()":"a41c5cf3","scriptSuffix()":"87f8bf56","setDepositScript(bytes,bytes)":"f8e655d2","setOperator(address)":"b3ab15fb","transferOwnership(address)":"f2fde38b","txIdToDepositId(bytes32)":"11e53a01","withdraw(bytes32,bytes4)":"8786dba7","withdrawalUTXOs(uint256)":"471ba1e3"},"id":45}