{"abi":[{"type":"function","name":"LIGHT_CLIENT","inputs":[],"outputs":[{"name":"","type":"address","internalType":"contract BitcoinLightClient"}],"stateMutability":"view"},{"type":"function","name":"SYSTEM_CALLER","inputs":[],"outputs":[{"name":"","type":"address","internalType":"address"}],"stateMutability":"view"},{"type":"function","name":"acceptOwnership","inputs":[],"outputs":[],"stateMutability":"nonpayable"},{"type":"function","name":"batchWithdraw","inputs":[{"name":"txIds","type":"bytes32[]","internalType":"bytes32[]"},{"name":"outputIds","type":"bytes4[]","internalType":"bytes4[]"}],"outputs":[],"stateMutability":"payable"},{"type":"function","name":"declareWithdrawFiller","inputs":[{"name":"withdrawTp","type":"tuple","internalType":"struct Bridge.TransactionParams","components":[{"name":"version","type":"bytes4","internalType":"bytes4"},{"name":"flag","type":"bytes2","internalType":"bytes2"},{"name":"vin","type":"bytes","internalType":"bytes"},{"name":"vout","type":"bytes","internalType":"bytes"},{"name":"witness","type":"bytes","internalType":"bytes"},{"name":"locktime","type":"bytes4","internalType":"bytes4"},{"name":"intermediate_nodes","type":"bytes","internalType":"bytes"},{"name":"block_height","type":"uint256","internalType":"uint256"},{"name":"index","type":"uint256","internalType":"uint256"}]},{"name":"inputIndex","type":"uint256","internalType":"uint256"},{"name":"withdrawId","type":"uint256","internalType":"uint256"}],"outputs":[],"stateMutability":"nonpayable"},{"type":"function","name":"deposit","inputs":[{"name":"moveTp","type":"tuple","internalType":"struct Bridge.TransactionParams","components":[{"name":"version","type":"bytes4","internalType":"bytes4"},{"name":"flag","type":"bytes2","internalType":"bytes2"},{"name":"vin","type":"bytes","internalType":"bytes"},{"name":"vout","type":"bytes","internalType":"bytes"},{"name":"witness","type":"bytes","internalType":"bytes"},{"name":"locktime","type":"bytes4","internalType":"bytes4"},{"name":"intermediate_nodes","type":"bytes","internalType":"bytes"},{"name":"block_height","type":"uint256","internalType":"uint256"},{"name":"index","type":"uint256","internalType":"uint256"}]}],"outputs":[],"stateMutability":"nonpayable"},{"type":"function","name":"depositAmount","inputs":[],"outputs":[{"name":"","type":"uint256","internalType":"uint256"}],"stateMutability":"view"},{"type":"function","name":"getWithdrawalCount","inputs":[],"outputs":[{"name":"","type":"uint256","internalType":"uint256"}],"stateMutability":"view"},{"type":"function","name":"initialize","inputs":[{"name":"_scriptPrefix","type":"bytes","internalType":"bytes"},{"name":"_scriptSuffix","type":"bytes","internalType":"bytes"},{"name":"_depositAmount","type":"uint256","internalType":"uint256"}],"outputs":[],"stateMutability":"nonpayable"},{"type":"function","name":"initialized","inputs":[],"outputs":[{"name":"","type":"bool","internalType":"bool"}],"stateMutability":"view"},{"type":"function","name":"isOperatorMalicious","inputs":[{"name":"","type":"uint256","internalType":"uint256"}],"outputs":[{"name":"","type":"bool","internalType":"bool"}],"stateMutability":"view"},{"type":"function","name":"markMaliciousOperator","inputs":[{"name":"slashOrTakeTp","type":"tuple","internalType":"struct Bridge.TransactionParams","components":[{"name":"version","type":"bytes4","internalType":"bytes4"},{"name":"flag","type":"bytes2","internalType":"bytes2"},{"name":"vin","type":"bytes","internalType":"bytes"},{"name":"vout","type":"bytes","internalType":"bytes"},{"name":"witness","type":"bytes","internalType":"bytes"},{"name":"locktime","type":"bytes4","internalType":"bytes4"},{"name":"intermediate_nodes","type":"bytes","internalType":"bytes"},{"name":"block_height","type":"uint256","internalType":"uint256"},{"name":"index","type":"uint256","internalType":"uint256"}]}],"outputs":[],"stateMutability":"nonpayable"},{"type":"function","name":"operator","inputs":[],"outputs":[{"name":"","type":"address","internalType":"address"}],"stateMutability":"view"},{"type":"function","name":"owner","inputs":[],"outputs":[{"name":"","type":"address","internalType":"address"}],"stateMutability":"view"},{"type":"function","name":"pendingOwner","inputs":[],"outputs":[{"name":"","type":"address","internalType":"address"}],"stateMutability":"view"},{"type":"function","name":"renounceOwnership","inputs":[],"outputs":[],"stateMutability":"nonpayable"},{"type":"function","name":"scriptPrefix","inputs":[],"outputs":[{"name":"","type":"bytes","internalType":"bytes"}],"stateMutability":"view"},{"type":"function","name":"scriptSuffix","inputs":[],"outputs":[{"name":"","type":"bytes","internalType":"bytes"}],"stateMutability":"view"},{"type":"function","name":"setDepositScript","inputs":[{"name":"_scriptPrefix","type":"bytes","internalType":"bytes"},{"name":"_scriptSuffix","type":"bytes","internalType":"bytes"}],"outputs":[],"stateMutability":"nonpayable"},{"type":"function","name":"setOperator","inputs":[{"name":"_operator","type":"address","internalType":"address"}],"outputs":[],"stateMutability":"nonpayable"},{"type":"function","name":"setSlashOrTakeScript","inputs":[{"name":"_slashOrTakeScript","type":"bytes","internalType":"bytes"}],"outputs":[],"stateMutability":"nonpayable"},{"type":"function","name":"slashOrTakeScript","inputs":[],"outputs":[{"name":"","type":"bytes","internalType":"bytes"}],"stateMutability":"view"},{"type":"function","name":"transferOwnership","inputs":[{"name":"newOwner","type":"address","internalType":"address"}],"outputs":[],"stateMutability":"nonpayable"},{"type":"function","name":"txIdToDepositId","inputs":[{"name":"","type":"bytes32","internalType":"bytes32"}],"outputs":[{"name":"","type":"uint256","internalType":"uint256"}],"stateMutability":"view"},{"type":"function","name":"withdraw","inputs":[{"name":"txId","type":"bytes32","internalType":"bytes32"},{"name":"outputId","type":"bytes4","internalType":"bytes4"}],"outputs":[],"stateMutability":"payable"},{"type":"function","name":"withdrawFillers","inputs":[{"name":"","type":"uint256","internalType":"uint256"}],"outputs":[{"name":"","type":"uint256","internalType":"uint256"}],"stateMutability":"view"},{"type":"function","name":"withdrawalUTXOs","inputs":[{"name":"","type":"uint256","internalType":"uint256"}],"outputs":[{"name":"txId","type":"bytes32","internalType":"bytes32"},{"name":"outputId","type":"bytes4","internalType":"bytes4"}],"stateMutability":"view"},{"type":"event","name":"Deposit","inputs":[{"name":"wtxId","type":"bytes32","indexed":false,"internalType":"bytes32"},{"name":"txId","type":"bytes32","indexed":false,"internalType":"bytes32"},{"name":"recipient","type":"address","indexed":false,"internalType":"address"},{"name":"timestamp","type":"uint256","indexed":false,"internalType":"uint256"},{"name":"depositId","type":"uint256","indexed":false,"internalType":"uint256"}],"anonymous":false},{"type":"event","name":"DepositScriptUpdate","inputs":[{"name":"scriptPrefix","type":"bytes","indexed":false,"internalType":"bytes"},{"name":"scriptSuffix","type":"bytes","indexed":false,"internalType":"bytes"}],"anonymous":false},{"type":"event","name":"Initialized","inputs":[{"name":"version","type":"uint64","indexed":false,"internalType":"uint64"}],"anonymous":false},{"type":"event","name":"MaliciousOperatorMarked","inputs":[{"name":"operatorId","type":"uint256","indexed":false,"internalType":"uint256"}],"anonymous":false},{"type":"event","name":"OperatorUpdated","inputs":[{"name":"oldOperator","type":"address","indexed":false,"internalType":"address"},{"name":"newOperator","type":"address","indexed":false,"internalType":"address"}],"anonymous":false},{"type":"event","name":"OwnershipTransferStarted","inputs":[{"name":"previousOwner","type":"address","indexed":true,"internalType":"address"},{"name":"newOwner","type":"address","indexed":true,"internalType":"address"}],"anonymous":false},{"type":"event","name":"OwnershipTransferred","inputs":[{"name":"previousOwner","type":"address","indexed":true,"internalType":"address"},{"name":"newOwner","type":"address","indexed":true,"internalType":"address"}],"anonymous":false},{"type":"event","name":"SlashOrTakeScriptUpdate","inputs":[{"name":"slashOrTakeScript","type":"bytes","indexed":false,"internalType":"bytes"}],"anonymous":false},{"type":"event","name":"WithdrawFillerDeclared","inputs":[{"name":"withdrawId","type":"uint256","indexed":false,"internalType":"uint256"},{"name":"withdrawFillerId","type":"uint256","indexed":false,"internalType":"uint256"}],"anonymous":false},{"type":"event","name":"Withdrawal","inputs":[{"name":"utxo","type":"tuple","indexed":false,"internalType":"struct Bridge.UTXO","components":[{"name":"txId","type":"bytes32","internalType":"bytes32"},{"name":"outputId","type":"bytes4","internalType":"bytes4"}]},{"name":"index","type":"uint256","indexed":false,"internalType":"uint256"},{"name":"timestamp","type":"uint256","indexed":false,"internalType":"uint256"}],"anonymous":false},{"type":"error","name":"InvalidInitialization","inputs":[]},{"type":"error","name":"NotInitializing","inputs":[]},{"type":"error","name":"OwnableInvalidOwner","inputs":[{"name":"owner","type":"address","internalType":"address"}]},{"type":"error","name":"OwnableUnauthorizedAccount","inputs":[{"name":"account","type":"address","internalType":"address"}]}],"bytecode":{"object":"0x6080604052348015600e575f5ffd5b506156d88061001c5f395ff3fe60806040526004361061019b575f3560e01c80638786dba7116100eb578063d761753e11610089578063e613ae0011610063578063e613ae0014610560578063f119a9bd1461058a578063f2fde38b146105b2578063f8e655d2146105da5761019b565b8063d761753e146104e4578063dd95c7c61461050e578063e30c3978146105365761019b565b8063a41c5cf3116100c5578063a41c5cf31461041a578063b3ab15fb14610444578063bafa9eb21461046c578063c045577b146104a85761019b565b80638786dba7146103aa57806387f8bf56146103c65780638da5cb5b146103f05761019b565b8063570ca73511610158578063715018a611610132578063715018a61461032c57806374ab4a8314610342578063781952a81461036a57806379ba5097146103945761019b565b8063570ca735146102b05780635d3e3176146102da5780635e3cc740146103045761019b565b806311e53a011461019f578063158ef93e146101db57806319854623146102055780634126013714610221578063419759f514610249578063471ba1e314610273575b5f5ffd5b3480156101aa575f5ffd5b506101c560048036038101906101c091906138db565b610602565b6040516101d2919061391e565b60405180910390f35b3480156101e6575f5ffd5b506101ef610617565b6040516101fc9190613951565b60405180910390f35b61021f600480360381019061021a9190613a20565b610628565b005b34801561022c575f5ffd5b5061024760048036038101906102429190613b1d565b610804565b005b348015610254575f5ffd5b5061025d610a84565b60405161026a919061391e565b60405180910390f35b34801561027e575f5ffd5b5061029960048036038101906102949190613bae565b610a8a565b6040516102a7929190613c22565b60405180910390f35b3480156102bb575f5ffd5b506102c4610ac5565b6040516102d19190613c88565b60405180910390f35b3480156102e5575f5ffd5b506102ee610aea565b6040516102fb9190613d11565b60405180910390f35b34801561030f575f5ffd5b5061032a60048036038101906103259190613d54565b610b76565b005b348015610337575f5ffd5b50610340610f58565b005b34801561034d575f5ffd5b5061036860048036038101906103639190613d9b565b610f6b565b005b348015610375575f5ffd5b5061037e61124f565b60405161038b919061391e565b60405180910390f35b34801561039f575f5ffd5b506103a861125b565b005b6103c460048036038101906103bf9190613e31565b6112e9565b005b3480156103d1575f5ffd5b506103da611404565b6040516103e79190613d11565b60405180910390f35b3480156103fb575f5ffd5b50610404611490565b6040516104119190613c88565b60405180910390f35b348015610425575f5ffd5b5061042e6114c5565b60405161043b9190613d11565b60405180910390f35b34801561044f575f5ffd5b5061046a60048036038101906104659190613e99565b611551565b005b348015610477575f5ffd5b50610492600480360381019061048d9190613bae565b6115f6565b60405161049f9190613951565b60405180910390f35b3480156104b3575f5ffd5b506104ce60048036038101906104c99190613bae565b611620565b6040516104db919061391e565b60405180910390f35b3480156104ef575f5ffd5b506104f8611635565b6040516105059190613c88565b60405180910390f35b348015610519575f5ffd5b50610534600480360381019061052f9190613d54565b61164d565b005b348015610541575f5ffd5b5061054a611c4b565b6040516105579190613c88565b60405180910390f35b34801561056b575f5ffd5b50610574611c80565b6040516105819190613f1f565b60405180910390f35b348015610595575f5ffd5b506105b060048036038101906105ab9190613f38565b611c98565b005b3480156105bd575f5ffd5b506105d860048036038101906105d39190613e99565b611d34565b005b3480156105e5575f5ffd5b5061060060048036038101906105fb9190613f83565b611ded565b005b6027602052805f5260405f205f915090505481565b5f5f9054906101000a900460ff1681565b818190508484905014610670576040517f08c379a00000000000000000000000000000000000000000000000000000000081526004016106679061405b565b60405180910390fd5b8383905060215461068191906140a6565b34146106c2576040517f08c379a00000000000000000000000000000000000000000000000000000000081526004016106b990614131565b60405180910390fd5b5f60268054905090505f5f90505b858590508110156107fc575f60405180604001604052808888858181106106fa576106f961414f565b5b9050602002013581526020018686858181106107195761071861414f565b5b905060200201602081019061072e919061417c565b7bffffffffffffffffffffffffffffffffffffffffffffffffffffffff19168152509050602681908060018154018082558091505060019003905f5260205f2090600202015f909190919091505f820151815f01556020820151816001015f6101000a81548163ffffffff021916908360e01c021790555050507f3311a04a346a103ac115cca33028a2bc82f1964805860d0d3fc84a2772496ada8183856107d691906141a7565b426040516107e693929190614225565b60405180910390a15080806001019150506106d0565b505050505050565b73deaddeaddeaddeaddeaddeaddeaddeaddeaddead73ffffffffffffffffffffffffffffffffffffffff163373ffffffffffffffffffffffffffffffffffffffff1614610886576040517f08c379a000000000000000000000000000000000000000000000000000000000815260040161087d906142a4565b60405180910390fd5b5f5f9054906101000a900460ff16156108d4576040517f08c379a00000000000000000000000000000000000000000000000000000000081526004016108cb9061430c565b60405180910390fd5b5f8103610916576040517f08c379a000000000000000000000000000000000000000000000000000000000815260040161090d90614374565b60405180910390fd5b5f858590500361095b576040517f08c379a0000000000000000000000000000000000000000000000000000000008152600401610952906143dc565b60405180910390fd5b60015f5f6101000a81548160ff021916908315150217905550848460239182610985929190614625565b50828260249182610997929190614625565b508060218190555073deaddeaddeaddeaddeaddeaddeaddeaddeaddead5f60016101000a81548173ffffffffffffffffffffffffffffffffffffffff021916908373ffffffffffffffffffffffffffffffffffffffff1602179055507ffbe5b6cbafb274f445d7fed869dc77a838d8243a22c460de156560e8857cad035f73deaddeaddeaddeaddeaddeaddeaddeaddeaddead604051610a389291906146f2565b60405180910390a17f80bd1fdfe157286ce420ee763f91748455b249605748e5df12dad9844402bafc85858585604051610a759493929190614753565b60405180910390a15050505050565b60215481565b60268181548110610a99575f80fd5b905f5260205f2090600202015f91509050805f015490806001015f9054906101000a900460e01b905082565b5f60019054906101000a900473ffffffffffffffffffffffffffffffffffffffff1681565b60258054610af79061445e565b80601f0160208091040260200160405190810160405280929190818152602001828054610b239061445e565b8015610b6e5780601f10610b4557610100808354040283529160200191610b6e565b820191905f5260205f20905b815481529060010190602001808311610b5157829003601f168201915b505050505081565b610b7f81611ea1565b50505f610bdc828060600190610b959190614798565b8080601f0160208091040260200160405190810160405280939291908181526020018383808284375f81840152601f19601f82011690508083019250505050505050612237565b9150505f610c47838060600190610bf39190614798565b8080601f0160208091040260200160405190810160405280939291908181526020018383808284375f81840152601f19601f82011690508083019250505050505050600184610c4291906147fa565b61224c565b90505f610c538261243f565b90505f610c74610c6f5f6020856125059092919063ffffffff16565b6125c7565b90505f610ca1610c9c6020808651610c8c91906147fa565b866125059092919063ffffffff16565b6125c7565b5f1c90505f60275f8481526020019081526020015f205490505f8103610cfc576040517f08c379a0000000000000000000000000000000000000000000000000000000008152600401610cf390614877565b60405180910390fd5b5f610d58888060800190610d109190614798565b8080601f0160208091040260200160405190810160405280939291908181526020018383808284375f81840152601f19601f820116905080830192505050505050505f612641565b90505f610d6682600161276f565b90505f60258054610d769061445e565b905090505f610d905f83856125059092919063ffffffff16565b9050610e248160258054610da39061445e565b80601f0160208091040260200160405190810160405280929190818152602001828054610dcf9061445e565b8015610e1a5780601f10610df157610100808354040283529160200191610e1a565b820191905f5260205f20905b815481529060010190602001808311610dfd57829003601f168201915b505050505061299c565b610e63576040517f08c379a0000000000000000000000000000000000000000000000000000000008152600401610e5a906148df565b60405180910390fd5b5f60285f600188610e7491906147fa565b81526020019081526020015f205490505f5f821480610e9b5750610e9788612ab4565b8214155b905080610edd576040517f08c379a0000000000000000000000000000000000000000000000000000000008152600401610ed490614947565b60405180910390fd5b600180896103e88110610ef357610ef261414f565b5b602091828204019190066101000a81548160ff0219169083151502179055507ff918cdaebea74c5a8c3b02d7404c162f507551b158202cedcba9b6a74eabdff288604051610f41919061391e565b60405180910390a150505050505050505050505050565b610f60612ac9565b610f695f612b50565b565b610f7483611ea1565b50505f610fd2848060400190610f8a9190614798565b8080601f0160208091040260200160405190810160405280939291908181526020018383808284375f81840152601f19601f8201169050808301925050505050505084612b8d565b90505f610fde82612d80565b90505f610fea83612d9b565b90505f602685815481106110015761100061414f565b5b905f5260205f2090600202016040518060400160405290815f8201548152602001600182015f9054906101000a900460e01b7bffffffffffffffffffffffffffffffffffffffffffffffffffffffff19167bffffffffffffffffffffffffffffffffffffffffffffffffffffffff191681525050905082815f01511480156110ca5750817bffffffffffffffffffffffffffffffffffffffffffffffffffffffff191681602001517bffffffffffffffffffffffffffffffffffffffffffffffffffffffff1916145b611109576040517f08c379a0000000000000000000000000000000000000000000000000000000008152600401611100906149af565b60405180910390fd5b5f61116488806060019061111d9190614798565b8080601f0160208091040260200160405190810160405280939291908181526020018383808284375f81840152601f19601f82011690508083019250505050505050612237565b9150505f6111cf89806060019061117b9190614798565b8080601f0160208091040260200160405190810160405280939291908181526020018383808284375f81840152601f19601f820116905080830192505050505050506001846111ca91906147fa565b61224c565b90505f6111db8261243f565b90505f6111e7826125c7565b5f1c90506111f481612ab4565b60285f8b81526020019081526020015f20819055507feedf47c2f61b040827944fd45e44ef6d742354b34e1af7dd99a56f444ec79347898260405161123a9291906149cd565b60405180910390a15050505050505050505050565b5f602680549050905090565b5f611264612db7565b90508073ffffffffffffffffffffffffffffffffffffffff16611285611c4b565b73ffffffffffffffffffffffffffffffffffffffff16146112dd57806040517f118cdaa70000000000000000000000000000000000000000000000000000000081526004016112d49190613c88565b60405180910390fd5b6112e681612b50565b50565b602154341461132d576040517f08c379a000000000000000000000000000000000000000000000000000000000815260040161132490614131565b60405180910390fd5b5f6040518060400160405280848152602001837bffffffffffffffffffffffffffffffffffffffffffffffffffffffff191681525090505f6026805490509050602682908060018154018082558091505060019003905f5260205f2090600202015f909190919091505f820151815f01556020820151816001015f6101000a81548163ffffffff021916908360e01c021790555050507f3311a04a346a103ac115cca33028a2bc82f1964805860d0d3fc84a2772496ada8282426040516113f693929190614225565b60405180910390a150505050565b602480546114119061445e565b80601f016020809104026020016040519081016040528092919081815260200182805461143d9061445e565b80156114885780601f1061145f57610100808354040283529160200191611488565b820191905f5260205f20905b81548152906001019060200180831161146b57829003601f168201915b505050505081565b5f5f61149a612dbe565b9050805f015f9054906101000a900473ffffffffffffffffffffffffffffffffffffffff1691505090565b602380546114d29061445e565b80601f01602080910402602001604051908101604052809291908181526020018280546114fe9061445e565b80156115495780601f1061152057610100808354040283529160200191611549565b820191905f5260205f20905b81548152906001019060200180831161152c57829003601f168201915b505050505081565b611559612ac9565b805f60016101000a81548173ffffffffffffffffffffffffffffffffffffffff021916908373ffffffffffffffffffffffffffffffffffffffff1602179055507ffbe5b6cbafb274f445d7fed869dc77a838d8243a22c460de156560e8857cad035f60019054906101000a900473ffffffffffffffffffffffffffffffffffffffff16826040516115eb9291906146f2565b60405180910390a150565b6001816103e88110611606575f80fd5b60209182820401919006915054906101000a900460ff1681565b6028602052805f5260405f205f915090505481565b73deaddeaddeaddeaddeaddeaddeaddeaddeaddead81565b5f60019054906101000a900473ffffffffffffffffffffffffffffffffffffffff1673ffffffffffffffffffffffffffffffffffffffff163373ffffffffffffffffffffffffffffffffffffffff16146116dc576040517f08c379a00000000000000000000000000000000000000000000000000000000081526004016116d390614a3e565b60405180910390fd5b5f5f6116e783611ea1565b915091506001811461172e576040517f08c379a000000000000000000000000000000000000000000000000000000000815260040161172590614aa6565b60405180910390fd5b5f611800845f016020810190611744919061417c565b8580604001906117549190614798565b8080601f0160208091040260200160405190810160405280939291908181526020018383808284375f81840152601f19601f820116905080830192505050505050508680606001906117a69190614798565b8080601f0160208091040260200160405190810160405280939291908181526020018383808284375f81840152601f19601f820116905080830192505050505050508760a00160208101906117fb919061417c565b612de5565b90505f60275f8381526020019081526020015f205414611855576040517f08c379a000000000000000000000000000000000000000000000000000000000815260040161184c90614b0e565b60405180910390fd5b60225f815461186390614b2c565b91905081905560275f8381526020019081526020015f20819055505f6118da8580608001906118929190614798565b8080601f0160208091040260200160405190810160405280939291908181526020018383808284375f81840152601f19601f820116905080830192505050505050505f612641565b90505f6118e682612237565b9150506003811461192c576040517f08c379a000000000000000000000000000000000000000000000000000000000815260040161192390614bbd565b60405180910390fd5b5f61193883600161276f565b90505f602380546119489061445e565b905090505f6119625f83856125059092919063ffffffff16565b90506119f681602380546119759061445e565b80601f01602080910402602001604051908101604052809291908181526020018280546119a19061445e565b80156119ec5780601f106119c3576101008083540402835291602001916119ec565b820191905f5260205f20905b8154815290600101906020018083116119cf57829003601f168201915b505050505061299c565b611a35576040517f08c379a0000000000000000000000000000000000000000000000000000000008152600401611a2c90614c25565b60405180910390fd5b5f611a7360248054611a469061445e565b90508551611a5491906147fa565b60248054611a619061445e565b9050866125059092919063ffffffff16565b9050611b078160248054611a869061445e565b80601f0160208091040260200160405190810160405280929190818152602001828054611ab29061445e565b8015611afd5780601f10611ad457610100808354040283529160200191611afd565b820191905f5260205f20905b815481529060010190602001808311611ae057829003601f168201915b505050505061299c565b611b46576040517f08c379a0000000000000000000000000000000000000000000000000000000008152600401611b3d90614c8d565b60405180910390fd5b5f611b5085612e1e565b90507fa82453ca34121b3ecb910d957824e27c5dc6465315949facd15fb728864900588a898342602254604051611b8b959493929190614cab565b60405180910390a15f8173ffffffffffffffffffffffffffffffffffffffff16602154604051611bba90614d29565b5f6040518083038185875af1925050503d805f8114611bf4576040519150601f19603f3d011682016040523d82523d5f602084013e611bf9565b606091505b5050905080611c3d576040517f08c379a0000000000000000000000000000000000000000000000000000000008152600401611c3490614d87565b60405180910390fd5b505050505050505050505050565b5f5f611c55612e60565b9050805f015f9054906101000a900473ffffffffffffffffffffffffffffffffffffffff1691505090565b73310000000000000000000000000000000000000181565b611ca0612ac9565b5f8282905003611ce5576040517f08c379a0000000000000000000000000000000000000000000000000000000008152600401611cdc906143dc565b60405180910390fd5b818160259182611cf6929190614625565b507f8578c80bdea3ff51431011ed88db9cb415de2cf64f9ed5e7137288268cbdeb2c8282604051611d28929190614da5565b60405180910390a15050565b611d3c612ac9565b5f611d45612e60565b905081815f015f6101000a81548173ffffffffffffffffffffffffffffffffffffffff021916908373ffffffffffffffffffffffffffffffffffffffff1602179055508173ffffffffffffffffffffffffffffffffffffffff16611da7611490565b73ffffffffffffffffffffffffffffffffffffffff167f38d16b8cac22d99fc7c124b9cd0de2d3fa1faef420bfe791d8c362d765e2270060405160405180910390a35050565b611df5612ac9565b5f8484905003611e3a576040517f08c379a0000000000000000000000000000000000000000000000000000000008152600401611e31906143dc565b60405180910390fd5b838360239182611e4b929190614625565b50818160249182611e5d929190614625565b507f80bd1fdfe157286ce420ee763f91748455b249605748e5df12dad9844402bafc84848484604051611e939493929190614753565b60405180910390a150505050565b5f5f5f611f14845f016020810190611eb9919061417c565b856020016020810190611ecc9190614e1c565b868060400190611edc9190614798565b888060600190611eec9190614798565b8a8060800190611efc9190614798565b8c60a0016020810190611f0f919061417c565b612e87565b9050611f70848060400190611f299190614798565b8080601f0160208091040260200160405190810160405280939291908181526020018383808284375f81840152601f19601f82011690508083019250505050505050612ecf565b611faf576040517f08c379a0000000000000000000000000000000000000000000000000000000008152600401611fa690614e91565b60405180910390fd5b612009848060600190611fc29190614798565b8080601f0160208091040260200160405190810160405280939291908181526020018383808284375f81840152601f19601f82011690508083019250505050505050612fbd565b612048576040517f08c379a000000000000000000000000000000000000000000000000000000000815260040161203f90614ef9565b60405180910390fd5b5f6120a385806040019061205c9190614798565b8080601f0160208091040260200160405190810160405280939291908181526020018383808284375f81840152601f19601f82011690508083019250505050505050612237565b9150506121018580608001906120b99190614798565b8080601f0160208091040260200160405190810160405280939291908181526020018383808284375f81840152601f19601f82011690508083019250505050505050826130ab565b612140576040517f08c379a000000000000000000000000000000000000000000000000000000000815260040161213790614f87565b60405180910390fd5b73310000000000000000000000000000000000000173ffffffffffffffffffffffffffffffffffffffff16634ffd344a8660e0013584888060c001906121869190614798565b8a61010001356040518663ffffffff1660e01b81526004016121ac959493929190614fa5565b602060405180830381865afa1580156121c7573d5f5f3e3d5ffd5b505050506040513d601f19601f820116820180604052508101906121eb919061501b565b61222a576040517f08c379a000000000000000000000000000000000000000000000000000000000815260040161222190615090565b60405180910390fd5b8181935093505050915091565b5f5f612243835f613148565b91509150915091565b60605f5f61225985612237565b80925081935050507fffffffffffffffffffffffffffffffffffffffffffffffffffffffffffffffff82036122c3576040517f08c379a00000000000000000000000000000000000000000000000000000000081526004016122ba9061511e565b60405180910390fd5b808410612305576040517f08c379a00000000000000000000000000000000000000000000000000000000081526004016122fc90615186565b60405180910390fd5b5f5f90505f83600161231791906141a7565b90505f5f90505b868110156123af5761233088836132bf565b92507fffffffffffffffffffffffffffffffffffffffffffffffffffffffffffffffff8303612394576040517f08c379a000000000000000000000000000000000000000000000000000000000815260040161238b906151ee565b60405180910390fd5b82826123a091906141a7565b9150808060010191505061231e565b506123ba87826132bf565b91507fffffffffffffffffffffffffffffffffffffffffffffffffffffffffffffffff820361241e576040517f08c379a0000000000000000000000000000000000000000000000000000000008152600401612415906151ee565b60405180910390fd5b6124338183896125059092919063ffffffff16565b94505050505092915050565b60607f6a00000000000000000000000000000000000000000000000000000000000000826009815181106124765761247561414f565b5b602001015160f81c60f81b7effffffffffffffffffffffffffffffffffffffffffffffffffffffffffffff1916146124be5760405180602001604052805f8152509050612500565b5f82600a815181106124d3576124d261414f565b5b602001015160f81c60f81b90506124fc600b8260f81c60ff16856125059092919063ffffffff16565b9150505b919050565b60605f82036125245760405180602001604052805f81525090506125c0565b5f828461253191906141a7565b90508381118015612543575080855110155b612582576040517f08c379a000000000000000000000000000000000000000000000000000000000815260040161257990615256565b60405180910390fd5b604051915082604083010160405282825283850182038460208701018481015b808210156125bb578151838301526020820191506125a2565b505050505b9392505050565b5f5f8251036125da575f5f1b905061263c565b5f825190506020811115612623576040517f08c379a000000000000000000000000000000000000000000000000000000000815260040161261a906152e4565b60405180910390fd5b5f6020840151925081602003905082600882021c925050505b919050565b60605f5f90505f5f90505f5f90505b848110156126e1576126628683613391565b92507fffffffffffffffffffffffffffffffffffffffffffffffffffffffffffffffff83036126c6576040517f08c379a00000000000000000000000000000000000000000000000000000000081526004016126bd9061534c565b60405180910390fd5b82826126d291906141a7565b91508080600101915050612650565b506126ec8582613391565b91507fffffffffffffffffffffffffffffffffffffffffffffffffffffffffffffffff8203612750576040517f08c379a00000000000000000000000000000000000000000000000000000000081526004016127479061534c565b60405180910390fd5b6127658183876125059092919063ffffffff16565b9250505092915050565b60605f5f61277c85612237565b80925081935050507fffffffffffffffffffffffffffffffffffffffffffffffffffffffffffffffff82036127e6576040517f08c379a00000000000000000000000000000000000000000000000000000000081526004016127dd9061511e565b60405180910390fd5b808410612828576040517f08c379a000000000000000000000000000000000000000000000000000000000815260040161281f906153b4565b60405180910390fd5b5f5f90505f83600161283a91906141a7565b90505f5f90505b868110156128ef576128538883613148565b80945081965050507fffffffffffffffffffffffffffffffffffffffffffffffffffffffffffffffff83036128bd576040517f08c379a00000000000000000000000000000000000000000000000000000000081526004016128b49061541c565b60405180910390fd5b828560016128cb91906141a7565b6128d591906141a7565b826128e091906141a7565b91508080600101915050612841565b506128fa8782613148565b80935081955050507fffffffffffffffffffffffffffffffffffffffffffffffffffffffffffffffff8203612964576040517f08c379a000000000000000000000000000000000000000000000000000000000815260040161295b9061541c565b60405180910390fd5b612990816001868561297691906141a7565b61298091906141a7565b896125059092919063ffffffff16565b94505050505092915050565b5f5f83519050825181146129b3575f915050612aae565b5f602090505f5f5b8383116129ec578287015191508286015190506020830192508082146129e7575f945050505050612aae565b6129bb565b5f6020846129fa91906147fa565b90505b84811015612aa457868181518110612a1857612a1761414f565b5b602001015160f81c60f81b7effffffffffffffffffffffffffffffffffffffffffffffffffffffffffffff1916888281518110612a5857612a5761414f565b5b602001015160f81c60f81b7effffffffffffffffffffffffffffffffffffffffffffffffffffffffffffff191614612a97575f95505050505050612aae565b80806001019150506129fd565b5060019450505050505b92915050565b5f600182612ac291906141a7565b9050919050565b612ad1612db7565b73ffffffffffffffffffffffffffffffffffffffff16612aef611490565b73ffffffffffffffffffffffffffffffffffffffff1614612b4e57612b12612db7565b6040517f118cdaa7000000000000000000000000000000000000000000000000000000008152600401612b459190613c88565b60405180910390fd5b565b5f612b59612e60565b9050805f015f6101000a81549073ffffffffffffffffffffffffffffffffffffffff0219169055612b89826134c7565b5050565b60605f5f612b9a85612237565b80925081935050507fffffffffffffffffffffffffffffffffffffffffffffffffffffffffffffffff8203612c04576040517f08c379a0000000000000000000000000000000000000000000000000000000008152600401612bfb9061511e565b60405180910390fd5b808410612c46576040517f08c379a0000000000000000000000000000000000000000000000000000000008152600401612c3d906153b4565b60405180910390fd5b5f5f90505f836001612c5891906141a7565b90505f5f90505b86811015612cf057612c718883613598565b92507fffffffffffffffffffffffffffffffffffffffffffffffffffffffffffffffff8303612cd5576040517f08c379a0000000000000000000000000000000000000000000000000000000008152600401612ccc90615484565b60405180910390fd5b8282612ce191906141a7565b91508080600101915050612c5f565b50612cfb8782613598565b91507fffffffffffffffffffffffffffffffffffffffffffffffffffffffffffffffff8203612d5f576040517f08c379a0000000000000000000000000000000000000000000000000000000008152600401612d5690615484565b60405180910390fd5b612d748183896125059092919063ffffffff16565b94505050505092915050565b5f612d945f8361362d90919063ffffffff16565b9050919050565b5f612db060208361363d90919063ffffffff16565b9050919050565b5f33905090565b5f7f9016d09d72d40fdae2fd8ceac6b6234c7706214fd39c1cd1e609a0528c199300905090565b5f612e1485858585604051602001612e0094939291906154f2565b604051602081830303815290604052613650565b9050949350505050565b5f5f60238054612e2d9061445e565b905090505f612e48826014866125059092919063ffffffff16565b612e5190615585565b90508060601c92505050919050565b5f7f237e158222e3e6968b72b9db0d8043aacf074ad9f650f0d1606b4d82ee432c00905090565b5f612ec08a8a8a8a8a8a8a8a8a604051602001612eac9998979695949392919061562f565b604051602081830303815290604052613650565b90509998505050505050505050565b5f5f5f612edb84612237565b80925081935050505f811480612f1057507fffffffffffffffffffffffffffffffffffffffffffffffffffffffffffffffff82145b15612f1f575f92505050612fb8565b5f826001612f2d91906141a7565b90505f5f90505b82811015612fad5785518210612f50575f945050505050612fb8565b5f612f5b8784613598565b90507fffffffffffffffffffffffffffffffffffffffffffffffffffffffffffffffff8103612f91575f95505050505050612fb8565b8083612f9d91906141a7565b9250508080600101915050612f34565b508451811493505050505b919050565b5f5f5f612fc984612237565b80925081935050505f811480612ffe57507fffffffffffffffffffffffffffffffffffffffffffffffffffffffffffffffff82145b1561300d575f925050506130a6565b5f82600161301b91906141a7565b90505f5f90505b8281101561309b578551821061303e575f9450505050506130a6565b5f61304987846132bf565b90507fffffffffffffffffffffffffffffffffffffffffffffffffffffffffffffffff810361307f575f955050505050506130a6565b808361308b91906141a7565b9250508080600101915050613022565b508451811493505050505b919050565b5f5f82036130bb575f9050613142565b5f5f90505f5f90505b8381101561313957845182106130de575f92505050613142565b5f6130e98684613391565b90507fffffffffffffffffffffffffffffffffffffffffffffffffffffffffffffffff810361311d575f9350505050613142565b808361312991906141a7565b92505080806001019150506130c4565b50835181149150505b92915050565b5f5f5f6131558585613673565b90505f8160ff1603613193575f8585815181106131755761317461414f565b5b602001015160f81c60f81b60f81c8060ff16905092509250506132b8565b838160016131a191906156a4565b60ff166131ae91906141a7565b855110156131e2577fffffffffffffffffffffffffffffffffffffffffffffffffffffffffffffffff5f92509250506132b8565b5f60028260ff16036132235761321861321086600161320191906141a7565b8861371a90919063ffffffff16565b60f01c61372d565b61ffff1690506132a9565b60048260ff16036132655761325861325086600161324191906141a7565b8861363d90919063ffffffff16565b60e01c613748565b63ffffffff1690506132a8565b60088260ff16036132a75761329a61329286600161328391906141a7565b8861378d90919063ffffffff16565b60c01c6137a0565b67ffffffffffffffff1690505b5b5b81818160ff1691509350935050505b9250929050565b5f8160096132cd91906141a7565b835110156132fd577fffffffffffffffffffffffffffffffffffffffffffffffffffffffffffffffff905061338b565b5f5f6133158585600861331091906141a7565b613148565b80925081935050507fffffffffffffffffffffffffffffffffffffffffffffffffffffffffffffffff820361336e577fffffffffffffffffffffffffffffffffffffffffffffffffffffffffffffffff9250505061338b565b8082600961337c91906141a7565b61338691906141a7565b925050505b92915050565b5f5f5f61339e8585613148565b80925081935050507fffffffffffffffffffffffffffffffffffffffffffffffffffffffffffffffff82036133f7577fffffffffffffffffffffffffffffffffffffffffffffffffffffffffffffffff925050506134c1565b5f5f83600161340691906141a7565b90505f5f90505b838110156134b85761342a88838961342591906141a7565b613148565b80945081965050507fffffffffffffffffffffffffffffffffffffffffffffffffffffffffffffffff8303613486577fffffffffffffffffffffffffffffffffffffffffffffffffffffffffffffffff955050505050506134c1565b8285600161349491906141a7565b61349e91906141a7565b826134a991906141a7565b9150808060010191505061340d565b50809450505050505b92915050565b5f6134d0612dbe565b90505f815f015f9054906101000a900473ffffffffffffffffffffffffffffffffffffffff16905082825f015f6101000a81548173ffffffffffffffffffffffffffffffffffffffff021916908373ffffffffffffffffffffffffffffffffffffffff1602179055508273ffffffffffffffffffffffffffffffffffffffff168173ffffffffffffffffffffffffffffffffffffffff167f8be0079c531659141344cd1fd0a4f28419497f9722a3daafe3b4186f6b6457e060405160405180910390a3505050565b5f5f5f6135a5858561382e565b80925081935050507fffffffffffffffffffffffffffffffffffffffffffffffffffffffffffffffff82036135fe577fffffffffffffffffffffffffffffffffffffffffffffffffffffffffffffffff92505050613627565b60048183602561360e91906141a7565b61361891906141a7565b61362291906141a7565b925050505b92915050565b5f81602084010151905092915050565b5f613648838361362d565b905092915050565b5f60205f83516020850160025afa5060205f60205f60025afa505f519050919050565b5f60ff8383815181106136895761368861414f565b5b602001015160f81c60f81b60f81c60ff16036136a85760089050613714565b60fe8383815181106136bd576136bc61414f565b5b602001015160f81c60f81b60f81c60ff16036136dc5760049050613714565b60fd8383815181106136f1576136f061414f565b5b602001015160f81c60f81b60f81c60ff16036137105760029050613714565b5f90505b92915050565b5f613725838361362d565b905092915050565b5f60088261ffff16901c60088361ffff16901b179050919050565b5f819050600862ff00ff821663ffffffff16901b62ff00ff60088363ffffffff16901c1617905060108163ffffffff16901b60108263ffffffff16901c179050919050565b5f613798838361362d565b905092915050565b5f819050600866ff00ff00ff00ff821667ffffffffffffffff16901b66ff00ff00ff00ff60088367ffffffffffffffff16901c16179050601065ffff0000ffff821667ffffffffffffffff16901b65ffff0000ffff60108367ffffffffffffffff16901c1617905060208167ffffffffffffffff16901b60208267ffffffffffffffff16901c179050919050565b5f5f82602561383d91906141a7565b84511015613870577fffffffffffffffffffffffffffffffffffffffffffffffffffffffffffffffff5f91509150613899565b5f5f6138888660248761388391906141a7565b613148565b809250819350505081819350935050505b9250929050565b5f5ffd5b5f5ffd5b5f819050919050565b6138ba816138a8565b81146138c4575f5ffd5b50565b5f813590506138d5816138b1565b92915050565b5f602082840312156138f0576138ef6138a0565b5b5f6138fd848285016138c7565b91505092915050565b5f819050919050565b61391881613906565b82525050565b5f6020820190506139315f83018461390f565b92915050565b5f8115159050919050565b61394b81613937565b82525050565b5f6020820190506139645f830184613942565b92915050565b5f5ffd5b5f5ffd5b5f5ffd5b5f5f83601f84011261398b5761398a61396a565b5b8235905067ffffffffffffffff8111156139a8576139a761396e565b5b6020830191508360208202830111156139c4576139c3613972565b5b9250929050565b5f5f83601f8401126139e0576139df61396a565b5b8235905067ffffffffffffffff8111156139fd576139fc61396e565b5b602083019150836020820283011115613a1957613a18613972565b5b9250929050565b5f5f5f5f60408587031215613a3857613a376138a0565b5b5f85013567ffffffffffffffff811115613a5557613a546138a4565b5b613a6187828801613976565b9450945050602085013567ffffffffffffffff811115613a8457613a836138a4565b5b613a90878288016139cb565b925092505092959194509250565b5f5f83601f840112613ab357613ab261396a565b5b8235905067ffffffffffffffff811115613ad057613acf61396e565b5b602083019150836001820283011115613aec57613aeb613972565b5b9250929050565b613afc81613906565b8114613b06575f5ffd5b50565b5f81359050613b1781613af3565b92915050565b5f5f5f5f5f60608688031215613b3657613b356138a0565b5b5f86013567ffffffffffffffff811115613b5357613b526138a4565b5b613b5f88828901613a9e565b9550955050602086013567ffffffffffffffff811115613b8257613b816138a4565b5b613b8e88828901613a9e565b93509350506040613ba188828901613b09565b9150509295509295909350565b5f60208284031215613bc357613bc26138a0565b5b5f613bd084828501613b09565b91505092915050565b613be2816138a8565b82525050565b5f7fffffffff0000000000000000000000000000000000000000000000000000000082169050919050565b613c1c81613be8565b82525050565b5f604082019050613c355f830185613bd9565b613c426020830184613c13565b9392505050565b5f73ffffffffffffffffffffffffffffffffffffffff82169050919050565b5f613c7282613c49565b9050919050565b613c8281613c68565b82525050565b5f602082019050613c9b5f830184613c79565b92915050565b5f81519050919050565b5f82825260208201905092915050565b8281835e5f83830152505050565b5f601f19601f8301169050919050565b5f613ce382613ca1565b613ced8185613cab565b9350613cfd818560208601613cbb565b613d0681613cc9565b840191505092915050565b5f6020820190508181035f830152613d298184613cd9565b905092915050565b5f5ffd5b5f6101208284031215613d4b57613d4a613d31565b5b81905092915050565b5f60208284031215613d6957613d686138a0565b5b5f82013567ffffffffffffffff811115613d8657613d856138a4565b5b613d9284828501613d35565b91505092915050565b5f5f5f60608486031215613db257613db16138a0565b5b5f84013567ffffffffffffffff811115613dcf57613dce6138a4565b5b613ddb86828701613d35565b9350506020613dec86828701613b09565b9250506040613dfd86828701613b09565b9150509250925092565b613e1081613be8565b8114613e1a575f5ffd5b50565b5f81359050613e2b81613e07565b92915050565b5f5f60408385031215613e4757613e466138a0565b5b5f613e54858286016138c7565b9250506020613e6585828601613e1d565b9150509250929050565b613e7881613c68565b8114613e82575f5ffd5b50565b5f81359050613e9381613e6f565b92915050565b5f60208284031215613eae57613ead6138a0565b5b5f613ebb84828501613e85565b91505092915050565b5f819050919050565b5f613ee7613ee2613edd84613c49565b613ec4565b613c49565b9050919050565b5f613ef882613ecd565b9050919050565b5f613f0982613eee565b9050919050565b613f1981613eff565b82525050565b5f602082019050613f325f830184613f10565b92915050565b5f5f60208385031215613f4e57613f4d6138a0565b5b5f83013567ffffffffffffffff811115613f6b57613f6a6138a4565b5b613f7785828601613a9e565b92509250509250929050565b5f5f5f5f60408587031215613f9b57613f9a6138a0565b5b5f85013567ffffffffffffffff811115613fb857613fb76138a4565b5b613fc487828801613a9e565b9450945050602085013567ffffffffffffffff811115613fe757613fe66138a4565b5b613ff387828801613a9e565b925092505092959194509250565b5f82825260208201905092915050565b7f4c656e677468206d69736d6174636800000000000000000000000000000000005f82015250565b5f614045600f83614001565b915061405082614011565b602082019050919050565b5f6020820190508181035f83015261407281614039565b9050919050565b7f4e487b71000000000000000000000000000000000000000000000000000000005f52601160045260245ffd5b5f6140b082613906565b91506140bb83613906565b92508282026140c981613906565b915082820484148315176140e0576140df614079565b5b5092915050565b7f496e76616c696420776974686472617720616d6f756e740000000000000000005f82015250565b5f61411b601783614001565b9150614126826140e7565b602082019050919050565b5f6020820190508181035f8301526141488161410f565b9050919050565b7f4e487b71000000000000000000000000000000000000000000000000000000005f52603260045260245ffd5b5f60208284031215614191576141906138a0565b5b5f61419e84828501613e1d565b91505092915050565b5f6141b182613906565b91506141bc83613906565b92508282019050808211156141d4576141d3614079565b5b92915050565b6141e3816138a8565b82525050565b6141f281613be8565b82525050565b604082015f82015161420c5f8501826141da565b50602082015161421f60208501826141e9565b50505050565b5f6080820190506142385f8301866141f8565b614245604083018561390f565b614252606083018461390f565b949350505050565b7f63616c6c6572206973206e6f74207468652073797374656d2063616c6c6572005f82015250565b5f61428e601f83614001565b91506142998261425a565b602082019050919050565b5f6020820190508181035f8301526142bb81614282565b9050919050565b7f436f6e747261637420697320616c726561647920696e697469616c697a6564005f82015250565b5f6142f6601f83614001565b9150614301826142c2565b602082019050919050565b5f6020820190508181035f830152614323816142ea565b9050919050565b7f4465706f73697420616d6f756e742063616e6e6f7420626520300000000000005f82015250565b5f61435e601a83614001565b91506143698261432a565b602082019050919050565b5f6020820190508181035f83015261438b81614352565b9050919050565b7f4465706f736974207363726970742063616e6e6f7420626520656d70747900005f82015250565b5f6143c6601e83614001565b91506143d182614392565b602082019050919050565b5f6020820190508181035f8301526143f3816143ba565b9050919050565b5f82905092915050565b7f4e487b71000000000000000000000000000000000000000000000000000000005f52604160045260245ffd5b7f4e487b71000000000000000000000000000000000000000000000000000000005f52602260045260245ffd5b5f600282049050600182168061447557607f821691505b60208210810361448857614487614431565b5b50919050565b5f819050815f5260205f209050919050565b5f6020601f8301049050919050565b5f82821b905092915050565b5f600883026144ea7fffffffffffffffffffffffffffffffffffffffffffffffffffffffffffffffff826144af565b6144f486836144af565b95508019841693508086168417925050509392505050565b5f61452661452161451c84613906565b613ec4565b613906565b9050919050565b5f819050919050565b61453f8361450c565b61455361454b8261452d565b8484546144bb565b825550505050565b5f5f905090565b61456a61455b565b614575818484614536565b505050565b5b818110156145985761458d5f82614562565b60018101905061457b565b5050565b601f8211156145dd576145ae8161448e565b6145b7846144a0565b810160208510156145c6578190505b6145da6145d2856144a0565b83018261457a565b50505b505050565b5f82821c905092915050565b5f6145fd5f19846008026145e2565b1980831691505092915050565b5f61461583836145ee565b9150826002028217905092915050565b61462f83836143fa565b67ffffffffffffffff81111561464857614647614404565b5b614652825461445e565b61465d82828561459c565b5f601f83116001811461468a575f8415614678578287013590505b614682858261460a565b8655506146e9565b601f1984166146988661448e565b5f5b828110156146bf5784890135825560018201915060208501945060208101905061469a565b868310156146dc57848901356146d8601f8916826145ee565b8355505b6001600288020188555050505b50505050505050565b5f6040820190506147055f830185613c79565b6147126020830184613c79565b9392505050565b828183375f83830152505050565b5f6147328385613cab565b935061473f838584614719565b61474883613cc9565b840190509392505050565b5f6040820190508181035f83015261476c818688614727565b90508181036020830152614781818486614727565b905095945050505050565b5f5ffd5b5f5ffd5b5f5ffd5b5f5f833560016020038436030381126147b4576147b361478c565b5b80840192508235915067ffffffffffffffff8211156147d6576147d5614790565b5b6020830192506001820236038313156147f2576147f1614794565b5b509250929050565b5f61480482613906565b915061480f83613906565b925082820390508181111561482757614826614079565b5b92915050565b7f4465706f73697420646f206e6f742065786973740000000000000000000000005f82015250565b5f614861601483614001565b915061486c8261482d565b602082019050919050565b5f6020820190508181035f83015261488e81614855565b9050919050565b7f496e76616c696420736c6173684f7254616b65207363726970740000000000005f82015250565b5f6148c9601a83614001565b91506148d482614895565b602082019050919050565b5f6020820190508181035f8301526148f6816148bd565b9050919050565b7f4f70657261746f72206973206e6f74206d616c6963696f7573000000000000005f82015250565b5f614931601983614001565b915061493c826148fd565b602082019050919050565b5f6020820190508181035f83015261495e81614925565b9050919050565b7f6e6f74206d61746368696e67205554584f0000000000000000000000000000005f82015250565b5f614999601183614001565b91506149a482614965565b602082019050919050565b5f6020820190508181035f8301526149c68161498d565b9050919050565b5f6040820190506149e05f83018561390f565b6149ed602083018461390f565b9392505050565b7f63616c6c6572206973206e6f7420746865206f70657261746f720000000000005f82015250565b5f614a28601a83614001565b9150614a33826149f4565b602082019050919050565b5f6020820190508181035f830152614a5581614a1c565b9050919050565b7f4f6e6c79206f6e6520696e70757420616c6c6f776564000000000000000000005f82015250565b5f614a90601683614001565b9150614a9b82614a5c565b602082019050919050565b5f6020820190508181035f830152614abd81614a84565b9050919050565b7f7478496420616c7265616479207370656e7400000000000000000000000000005f82015250565b5f614af8601283614001565b9150614b0382614ac4565b602082019050919050565b5f6020820190508181035f830152614b2581614aec565b9050919050565b5f614b3682613906565b91507fffffffffffffffffffffffffffffffffffffffffffffffffffffffffffffffff8203614b6857614b67614079565b5b600182019050919050565b7f496e76616c6964207769746e657373206974656d7300000000000000000000005f82015250565b5f614ba7601583614001565b9150614bb282614b73565b602082019050919050565b5f6020820190508181035f830152614bd481614b9b565b9050919050565b7f496e76616c6964206465706f73697420736372697074000000000000000000005f82015250565b5f614c0f601683614001565b9150614c1a82614bdb565b602082019050919050565b5f6020820190508181035f830152614c3c81614c03565b9050919050565b7f496e76616c6964207363726970742073756666697800000000000000000000005f82015250565b5f614c77601583614001565b9150614c8282614c43565b602082019050919050565b5f6020820190508181035f830152614ca481614c6b565b9050919050565b5f60a082019050614cbe5f830188613bd9565b614ccb6020830187613bd9565b614cd86040830186613c79565b614ce5606083018561390f565b614cf2608083018461390f565b9695505050505050565b5f81905092915050565b50565b5f614d145f83614cfc565b9150614d1f82614d06565b5f82019050919050565b5f614d3382614d09565b9150819050919050565b7f5472616e73666572206661696c656400000000000000000000000000000000005f82015250565b5f614d71600f83614001565b9150614d7c82614d3d565b602082019050919050565b5f6020820190508181035f830152614d9e81614d65565b9050919050565b5f6020820190508181035f830152614dbe818486614727565b90509392505050565b5f7fffff00000000000000000000000000000000000000000000000000000000000082169050919050565b614dfb81614dc7565b8114614e05575f5ffd5b50565b5f81359050614e1681614df2565b92915050565b5f60208284031215614e3157614e306138a0565b5b5f614e3e84828501614e08565b91505092915050565b7f56696e206973206e6f742070726f7065726c7920666f726d61747465640000005f82015250565b5f614e7b601d83614001565b9150614e8682614e47565b602082019050919050565b5f6020820190508181035f830152614ea881614e6f565b9050919050565b7f566f7574206973206e6f742070726f7065726c7920666f726d617474656400005f82015250565b5f614ee3601e83614001565b9150614eee82614eaf565b602082019050919050565b5f6020820190508181035f830152614f1081614ed7565b9050919050565b7f5769746e657373206973206e6f742070726f7065726c7920666f726d617474655f8201527f6400000000000000000000000000000000000000000000000000000000000000602082015250565b5f614f71602183614001565b9150614f7c82614f17565b604082019050919050565b5f6020820190508181035f830152614f9e81614f65565b9050919050565b5f608082019050614fb85f83018861390f565b614fc56020830187613bd9565b8181036040830152614fd8818587614727565b9050614fe7606083018461390f565b9695505050505050565b614ffa81613937565b8114615004575f5ffd5b50565b5f8151905061501581614ff1565b92915050565b5f602082840312156150305761502f6138a0565b5b5f61503d84828501615007565b91505092915050565b7f5472616e73616374696f6e206973206e6f7420696e20626c6f636b00000000005f82015250565b5f61507a601b83614001565b915061508582615046565b602082019050919050565b5f6020820190508181035f8301526150a78161506e565b9050919050565b7f52656164206f76657272756e20647572696e6720566172496e742070617273695f8201527f6e67000000000000000000000000000000000000000000000000000000000000602082015250565b5f615108602283614001565b9150615113826150ae565b604082019050919050565b5f6020820190508181035f830152615135816150fc565b9050919050565b7f566f75742072656164206f76657272756e0000000000000000000000000000005f82015250565b5f615170601183614001565b915061517b8261513c565b602082019050919050565b5f6020820190508181035f83015261519d81615164565b9050919050565b7f42616420566172496e7420696e207363726970745075626b65790000000000005f82015250565b5f6151d8601a83614001565b91506151e3826151a4565b602082019050919050565b5f6020820190508181035f830152615205816151cc565b9050919050565b7f536c696365206f7574206f6620626f756e6473000000000000000000000000005f82015250565b5f615240601383614001565b915061524b8261520c565b602082019050919050565b5f6020820190508181035f83015261526d81615234565b9050919050565b7f42797465732063616e6e6f74206265206d6f7265207468616e203332206279745f8201527f6573000000000000000000000000000000000000000000000000000000000000602082015250565b5f6152ce602283614001565b91506152d982615274565b604082019050919050565b5f6020820190508181035f8301526152fb816152c2565b9050919050565b7f42616420566172496e7420696e207769746e65737300000000000000000000005f82015250565b5f615336601583614001565b915061534182615302565b602082019050919050565b5f6020820190508181035f8301526153638161532a565b9050919050565b7f56696e2072656164206f76657272756e000000000000000000000000000000005f82015250565b5f61539e601083614001565b91506153a98261536a565b602082019050919050565b5f6020820190508181035f8301526153cb81615392565b9050919050565b7f42616420566172496e7420696e206974656d00000000000000000000000000005f82015250565b5f615406601283614001565b9150615411826153d2565b602082019050919050565b5f6020820190508181035f830152615433816153fa565b9050919050565b7f42616420566172496e7420696e207363726970745369670000000000000000005f82015250565b5f61546e601783614001565b91506154798261543a565b602082019050919050565b5f6020820190508181035f83015261549b81615462565b9050919050565b5f819050919050565b6154bc6154b782613be8565b6154a2565b82525050565b5f6154cc82613ca1565b6154d68185614cfc565b93506154e6818560208601613cbb565b80840191505092915050565b5f6154fd82876154ab565b60048201915061550d82866154c2565b915061551982856154c2565b915061552582846154ab565b60048201915081905095945050505050565b5f819050602082019050919050565b5f7fffffffffffffffffffffffffffffffffffffffff00000000000000000000000082169050919050565b5f61557c8251615546565b80915050919050565b5f61558f82613ca1565b8261559984615537565b90506155a481615571565b925060148210156155e4576155df7fffffffffffffffffffffffffffffffffffffffff000000000000000000000000836014036008026144af565b831692505b5050919050565b5f819050919050565b61560561560082614dc7565b6155eb565b82525050565b5f6156168385614cfc565b9350615623838584614719565b82840190509392505050565b5f61563a828c6154ab565b60048201915061564a828b6155f4565b60028201915061565b82898b61560b565b915061566882878961560b565b915061567582858761560b565b915061568182846154ab565b6004820191508190509a9950505050505050505050565b5f60ff82169050919050565b5f6156ae82615698565b91506156b983615698565b9250828201905060ff8111156156d2576156d1614079565b5b9291505056","linkReferences":{}},"methodIdentifiers":{"LIGHT_CLIENT()":"e613ae00","SYSTEM_CALLER()":"d761753e","acceptOwnership()":"79ba5097","batchWithdraw(bytes32[],bytes4[])":"19854623","declareWithdrawFiller((bytes4,bytes2,bytes,bytes,bytes,bytes4,bytes,uint256,uint256),uint256,uint256)":"74ab4a83","deposit((bytes4,bytes2,bytes,bytes,bytes,bytes4,bytes,uint256,uint256))":"dd95c7c6","depositAmount()":"419759f5","getWithdrawalCount()":"781952a8","initialize(bytes,bytes,uint256)":"41260137","initialized()":"158ef93e","isOperatorMalicious(uint256)":"bafa9eb2","markMaliciousOperator((bytes4,bytes2,bytes,bytes,bytes,bytes4,bytes,uint256,uint256))":"5e3cc740","operator()":"570ca735","owner()":"8da5cb5b","pendingOwner()":"e30c3978","renounceOwnership()":"715018a6","scriptPrefix()":"a41c5cf3","scriptSuffix()":"87f8bf56","setDepositScript(bytes,bytes)":"f8e655d2","setOperator(address)":"b3ab15fb","setSlashOrTakeScript(bytes)":"f119a9bd","slashOrTakeScript()":"5d3e3176","transferOwnership(address)":"f2fde38b","txIdToDepositId(bytes32)":"11e53a01","withdraw(bytes32,bytes4)":"8786dba7","withdrawFillers(uint256)":"c045577b","withdrawalUTXOs(uint256)":"471ba1e3"},"id":46}