{"abi":[{"type":"function","name":"CODESEP_POS","inputs":[],"outputs":[{"name":"","type":"bytes","internalType":"bytes"}],"stateMutability":"view"},{"type":"function","name":"EPOCH","inputs":[],"outputs":[{"name":"","type":"bytes","internalType":"bytes"}],"stateMutability":"view"},{"type":"function","name":"INPUT_INDEX","inputs":[],"outputs":[{"name":"","type":"bytes","internalType":"bytes"}],"stateMutability":"view"},{"type":"function","name":"KEY_VERSION","inputs":[],"outputs":[{"name":"","type":"bytes","internalType":"bytes"}],"stateMutability":"view"},{"type":"function","name":"LIGHT_CLIENT","inputs":[],"outputs":[{"name":"","type":"address","internalType":"contract BitcoinLightClient"}],"stateMutability":"view"},{"type":"function","name":"SCHNORR_VERIFIER_PRECOMPILE","inputs":[],"outputs":[{"name":"","type":"address","internalType":"address"}],"stateMutability":"view"},{"type":"function","name":"SIGHASH_ALL_HASH_TYPE","inputs":[],"outputs":[{"name":"","type":"bytes","internalType":"bytes"}],"stateMutability":"view"},{"type":"function","name":"SIGHASH_SINGLE_ANYONECANPAY_HASH_TYPE","inputs":[],"outputs":[{"name":"","type":"bytes","internalType":"bytes"}],"stateMutability":"view"},{"type":"function","name":"SPEND_TYPE_EXT","inputs":[],"outputs":[{"name":"","type":"bytes","internalType":"bytes"}],"stateMutability":"view"},{"type":"function","name":"SPEND_TYPE_NO_EXT","inputs":[],"outputs":[{"name":"","type":"bytes","internalType":"bytes"}],"stateMutability":"view"},{"type":"function","name":"SYSTEM_CALLER","inputs":[],"outputs":[{"name":"","type":"address","internalType":"address"}],"stateMutability":"view"},{"type":"function","name":"acceptOwnership","inputs":[],"outputs":[],"stateMutability":"nonpayable"},{"type":"function","name":"batchWithdraw","inputs":[{"name":"txIds","type":"bytes32[]","internalType":"bytes32[]"},{"name":"outputIds","type":"bytes4[]","internalType":"bytes4[]"}],"outputs":[],"stateMutability":"payable"},{"type":"function","name":"deposit","inputs":[{"name":"moveTx","type":"tuple","internalType":"struct Bridge.Transaction","components":[{"name":"version","type":"bytes4","internalType":"bytes4"},{"name":"flag","type":"bytes2","internalType":"bytes2"},{"name":"vin","type":"bytes","internalType":"bytes"},{"name":"vout","type":"bytes","internalType":"bytes"},{"name":"witness","type":"bytes","internalType":"bytes"},{"name":"locktime","type":"bytes4","internalType":"bytes4"}]},{"name":"proof","type":"tuple","internalType":"struct Bridge.MerkleProof","components":[{"name":"intermediateNodes","type":"bytes","internalType":"bytes"},{"name":"blockHeight","type":"uint256","internalType":"uint256"},{"name":"index","type":"uint256","internalType":"uint256"}]},{"name":"shaScriptPubkeys","type":"bytes32","internalType":"bytes32"}],"outputs":[],"stateMutability":"nonpayable"},{"type":"function","name":"depositAmount","inputs":[],"outputs":[{"name":"","type":"uint256","internalType":"uint256"}],"stateMutability":"view"},{"type":"function","name":"depositPrefix","inputs":[],"outputs":[{"name":"","type":"bytes","internalType":"bytes"}],"stateMutability":"view"},{"type":"function","name":"depositSuffix","inputs":[],"outputs":[{"name":"","type":"bytes","internalType":"bytes"}],"stateMutability":"view"},{"type":"function","name":"depositTxIds","inputs":[{"name":"","type":"uint256","internalType":"uint256"}],"outputs":[{"name":"","type":"bytes32","internalType":"bytes32"}],"stateMutability":"view"},{"type":"function","name":"failedDepositVault","inputs":[],"outputs":[{"name":"","type":"address","internalType":"address"}],"stateMutability":"view"},{"type":"function","name":"getAggregatedKey","inputs":[],"outputs":[{"name":"","type":"bytes","internalType":"bytes"}],"stateMutability":"view"},{"type":"function","name":"getWithdrawalCount","inputs":[],"outputs":[{"name":"","type":"uint256","internalType":"uint256"}],"stateMutability":"view"},{"type":"function","name":"initialize","inputs":[{"name":"_depositPrefix","type":"bytes","internalType":"bytes"},{"name":"_depositSuffix","type":"bytes","internalType":"bytes"},{"name":"_depositAmount","type":"uint256","internalType":"uint256"}],"outputs":[],"stateMutability":"nonpayable"},{"type":"function","name":"initialized","inputs":[],"outputs":[{"name":"","type":"bool","internalType":"bool"}],"stateMutability":"view"},{"type":"function","name":"operator","inputs":[],"outputs":[{"name":"","type":"address","internalType":"address"}],"stateMutability":"view"},{"type":"function","name":"owner","inputs":[],"outputs":[{"name":"","type":"address","internalType":"address"}],"stateMutability":"view"},{"type":"function","name":"pendingOwner","inputs":[],"outputs":[{"name":"","type":"address","internalType":"address"}],"stateMutability":"view"},{"type":"function","name":"processedTxIds","inputs":[{"name":"","type":"bytes32","internalType":"bytes32"}],"outputs":[{"name":"","type":"bool","internalType":"bool"}],"stateMutability":"view"},{"type":"function","name":"renounceOwnership","inputs":[],"outputs":[],"stateMutability":"nonpayable"},{"type":"function","name":"replaceDeposit","inputs":[{"name":"replaceTx","type":"tuple","internalType":"struct Bridge.Transaction","components":[{"name":"version","type":"bytes4","internalType":"bytes4"},{"name":"flag","type":"bytes2","internalType":"bytes2"},{"name":"vin","type":"bytes","internalType":"bytes"},{"name":"vout","type":"bytes","internalType":"bytes"},{"name":"witness","type":"bytes","internalType":"bytes"},{"name":"locktime","type":"bytes4","internalType":"bytes4"}]},{"name":"proof","type":"tuple","internalType":"struct Bridge.MerkleProof","components":[{"name":"intermediateNodes","type":"bytes","internalType":"bytes"},{"name":"blockHeight","type":"uint256","internalType":"uint256"},{"name":"index","type":"uint256","internalType":"uint256"}]},{"name":"idToReplace","type":"uint256","internalType":"uint256"},{"name":"shaScriptPubkeys","type":"bytes32","internalType":"bytes32"}],"outputs":[],"stateMutability":"nonpayable"},{"type":"function","name":"replacePrefix","inputs":[],"outputs":[{"name":"","type":"bytes","internalType":"bytes"}],"stateMutability":"view"},{"type":"function","name":"replaceSuffix","inputs":[],"outputs":[{"name":"","type":"bytes","internalType":"bytes"}],"stateMutability":"view"},{"type":"function","name":"safeWithdraw","inputs":[{"name":"prepareTx","type":"tuple","internalType":"struct Bridge.Transaction","components":[{"name":"version","type":"bytes4","internalType":"bytes4"},{"name":"flag","type":"bytes2","internalType":"bytes2"},{"name":"vin","type":"bytes","internalType":"bytes"},{"name":"vout","type":"bytes","internalType":"bytes"},{"name":"witness","type":"bytes","internalType":"bytes"},{"name":"locktime","type":"bytes4","internalType":"bytes4"}]},{"name":"prepareProof","type":"tuple","internalType":"struct Bridge.MerkleProof","components":[{"name":"intermediateNodes","type":"bytes","internalType":"bytes"},{"name":"blockHeight","type":"uint256","internalType":"uint256"},{"name":"index","type":"uint256","internalType":"uint256"}]},{"name":"payoutTx","type":"tuple","internalType":"struct Bridge.Transaction","components":[{"name":"version","type":"bytes4","internalType":"bytes4"},{"name":"flag","type":"bytes2","internalType":"bytes2"},{"name":"vin","type":"bytes","internalType":"bytes"},{"name":"vout","type":"bytes","internalType":"bytes"},{"name":"witness","type":"bytes","internalType":"bytes"},{"name":"locktime","type":"bytes4","internalType":"bytes4"}]},{"name":"blockHeader","type":"bytes","internalType":"bytes"},{"name":"withdrawalAddressPubKey","type":"bytes","internalType":"bytes"}],"outputs":[],"stateMutability":"payable"},{"type":"function","name":"setDepositScript","inputs":[{"name":"_depositPrefix","type":"bytes","internalType":"bytes"},{"name":"_depositSuffix","type":"bytes","internalType":"bytes"}],"outputs":[],"stateMutability":"nonpayable"},{"type":"function","name":"setFailedDepositVault","inputs":[{"name":"_failedDepositVault","type":"address","internalType":"address"}],"outputs":[],"stateMutability":"nonpayable"},{"type":"function","name":"setOperator","inputs":[{"name":"_operator","type":"address","internalType":"address"}],"outputs":[],"stateMutability":"nonpayable"},{"type":"function","name":"setReplaceScript","inputs":[{"name":"_replacePrefix","type":"bytes","internalType":"bytes"},{"name":"_replaceSuffix","type":"bytes","internalType":"bytes"}],"outputs":[],"stateMutability":"nonpayable"},{"type":"function","name":"transferOwnership","inputs":[{"name":"newOwner","type":"address","internalType":"address"}],"outputs":[],"stateMutability":"nonpayable"},{"type":"function","name":"withdraw","inputs":[{"name":"txId","type":"bytes32","internalType":"bytes32"},{"name":"outputId","type":"bytes4","internalType":"bytes4"}],"outputs":[],"stateMutability":"payable"},{"type":"function","name":"withdrawalUTXOs","inputs":[{"name":"","type":"uint256","internalType":"uint256"}],"outputs":[{"name":"txId","type":"bytes32","internalType":"bytes32"},{"name":"outputId","type":"bytes4","internalType":"bytes4"}],"stateMutability":"view"},{"type":"event","name":"Deposit","inputs":[{"name":"wtxId","type":"bytes32","indexed":false,"internalType":"bytes32"},{"name":"txId","type":"bytes32","indexed":false,"internalType":"bytes32"},{"name":"recipient","type":"address","indexed":false,"internalType":"address"},{"name":"timestamp","type":"uint256","indexed":false,"internalType":"uint256"},{"name":"depositId","type":"uint256","indexed":false,"internalType":"uint256"}],"anonymous":false},{"type":"event","name":"DepositReplaced","inputs":[{"name":"index","type":"uint256","indexed":false,"internalType":"uint256"},{"name":"oldTxId","type":"bytes32","indexed":false,"internalType":"bytes32"},{"name":"newTxId","type":"bytes32","indexed":false,"internalType":"bytes32"}],"anonymous":false},{"type":"event","name":"DepositScriptUpdate","inputs":[{"name":"depositPrefix","type":"bytes","indexed":false,"internalType":"bytes"},{"name":"depositSuffix","type":"bytes","indexed":false,"internalType":"bytes"}],"anonymous":false},{"type":"event","name":"DepositTransferFailed","inputs":[{"name":"wtxId","type":"bytes32","indexed":false,"internalType":"bytes32"},{"name":"txId","type":"bytes32","indexed":false,"internalType":"bytes32"},{"name":"recipient","type":"address","indexed":false,"internalType":"address"},{"name":"timestamp","type":"uint256","indexed":false,"internalType":"uint256"},{"name":"depositId","type":"uint256","indexed":false,"internalType":"uint256"}],"anonymous":false},{"type":"event","name":"FailedDepositVaultUpdated","inputs":[{"name":"oldVault","type":"address","indexed":false,"internalType":"address"},{"name":"newVault","type":"address","indexed":false,"internalType":"address"}],"anonymous":false},{"type":"event","name":"Initialized","inputs":[{"name":"version","type":"uint64","indexed":false,"internalType":"uint64"}],"anonymous":false},{"type":"event","name":"OperatorUpdated","inputs":[{"name":"oldOperator","type":"address","indexed":false,"internalType":"address"},{"name":"newOperator","type":"address","indexed":false,"internalType":"address"}],"anonymous":false},{"type":"event","name":"OwnershipTransferStarted","inputs":[{"name":"previousOwner","type":"address","indexed":true,"internalType":"address"},{"name":"newOwner","type":"address","indexed":true,"internalType":"address"}],"anonymous":false},{"type":"event","name":"OwnershipTransferred","inputs":[{"name":"previousOwner","type":"address","indexed":true,"internalType":"address"},{"name":"newOwner","type":"address","indexed":true,"internalType":"address"}],"anonymous":false},{"type":"event","name":"ReplaceScriptUpdate","inputs":[{"name":"replacePrefix","type":"bytes","indexed":false,"internalType":"bytes"},{"name":"replaceSuffix","type":"bytes","indexed":false,"internalType":"bytes"}],"anonymous":false},{"type":"event","name":"SafeWithdrawal","inputs":[{"name":"payoutTx","type":"tuple","indexed":false,"internalType":"struct Bridge.Transaction","components":[{"name":"version","type":"bytes4","internalType":"bytes4"},{"name":"flag","type":"bytes2","internalType":"bytes2"},{"name":"vin","type":"bytes","internalType":"bytes"},{"name":"vout","type":"bytes","internalType":"bytes"},{"name":"witness","type":"bytes","internalType":"bytes"},{"name":"locktime","type":"bytes4","internalType":"bytes4"}]},{"name":"spentUtxo","type":"tuple","indexed":false,"internalType":"struct Bridge.UTXO","components":[{"name":"txId","type":"bytes32","internalType":"bytes32"},{"name":"outputId","type":"bytes4","internalType":"bytes4"}]},{"name":"index","type":"uint256","indexed":false,"internalType":"uint256"}],"anonymous":false},{"type":"event","name":"Withdrawal","inputs":[{"name":"utxo","type":"tuple","indexed":false,"internalType":"struct Bridge.UTXO","components":[{"name":"txId","type":"bytes32","internalType":"bytes32"},{"name":"outputId","type":"bytes4","internalType":"bytes4"}]},{"name":"index","type":"uint256","indexed":false,"internalType":"uint256"},{"name":"timestamp","type":"uint256","indexed":false,"internalType":"uint256"}],"anonymous":false},{"type":"error","name":"InvalidInitialization","inputs":[]},{"type":"error","name":"NotInitializing","inputs":[]},{"type":"error","name":"OwnableInvalidOwner","inputs":[{"name":"owner","type":"address","internalType":"address"}]},{"type":"error","name":"OwnableUnauthorizedAccount","inputs":[{"name":"account","type":"address","internalType":"address"}]}],"bytecode":{"object":"0x608080604052346015576149f1908161001a8239f35b5f80fdfe60806040526004361015610011575f80fd5b5f3560e01c80630659216714610275578063092ac5d4146101f85780630bd89ab7146101f85780631369ac3e146101f8578063158ef93e14610270578063198546231461026b57806323dacd29146102665780632594f107146102615780633c918b6c1461025c5780634126013714610257578063419759f514610252578063428bcd351461024d5780634379caa514610248578063471ba1e314610243578063570ca7351461023e5780635b4f894d146102395780636b0b5a94146102345780636cf7d6411461022f578063715018a61461022a578063781952a81461022557806379ba5097146102205780637ec9732a1461021b57806385fb7151146102165780638752b6b2146102115780638786dba71461020c5780638da5cb5b146102075780639072f747146102025780639a4f308d146101fd578063a0dc2758146101f8578063a670e7ed146101f3578063b2497e70146101ee578063b3ab15fb146101e9578063d761753e146101e4578063e30c3978146101df578063e613ae00146101da578063f2fde38b146101d5578063f42cb4fc146101d0578063f8e655d2146101cb5763fb11d7b9146101c6575f80fd5b611956565b61180a565b6117ef565b611776565b611754565b611720565b6116f2565b61166f565b611654565b611609565b6103aa565b6115ed565b61153a565b6114b2565b61148d565b611455565b61139d565b6111d7565b6110dd565b6110c0565b611043565b611028565b610f3f565b610f24565b610c4d565b610bf6565b610bc7565b610bac565b610b74565b61092a565b6108da565b6105ba565b610583565b610426565b6103d5565b6102ab565b634e487b7160e01b5f52603260045260245ffd5b6008548110156102a65760085f5260205f2001905f90565b61027a565b346102fb5760203660031901126102fb576004356008548110156102fb5760209060085f527ff3f7a9fe364faab93b216da50a3214154f22a0a2b415b23a84c8169e8b636ee30154604051908152f35b5f80fd5b634e487b7160e01b5f52604160045260245ffd5b90601f801991011681019081106001600160401b0382111761033457604052565b6102ff565b60405190610348604083610313565b565b6001600160401b03811161033457601f01601f191660200190565b60405190610374604083610313565b600182525f6020830152565b602060409281835280519182918282860152018484015e5f828201840152601f01601f1916010190565b346102fb575f3660031901126102fb576103d16103c5610365565b60405191829182610380565b0390f35b346102fb575f3660031901126102fb57602060ff5f54166040519015158152f35b9181601f840112156102fb578235916001600160401b0383116102fb576020808501948460051b0101116102fb57565b60403660031901126102fb576004356001600160401b0381116102fb576104519036906004016103f6565b6024356001600160401b0381116102fb576104709036906004016103f6565b929083830361052d5761048f61048884600154611a5b565b3414611a73565b600754935f5b84811061049e57005b807f3311a04a346a103ac115cca33028a2bc82f1964805860d0d3fc84a2772496ada6104cd6001938888611abf565b356105006104e46104df85888a611abf565b611acf565b6104ec610339565b9283526001600160e01b0319166020830152565b61050981611ad9565b610513838a611b78565b610524604051928392429184611b85565b0390a101610495565b60405162461bcd60e51b815260206004820152600f60248201526e098cadccee8d040dad2e6dac2e8c6d608b1b6044820152606490fd5b60405190610573604083610313565b60018252600160f91b6020830152565b346102fb575f3660031901126102fb576103d16103c5610564565b908160c09103126102fb5790565b908160609103126102fb5790565b346102fb5760803660031901126102fb576004356001600160401b0381116102fb576105ea90369060040161059e565b6024356001600160401b0381116102fb576106099036906004016105ac565b906044356064355f5490929060081c6001600160a01b031633036108955761074e6108909161067b7f4d7c644a48da4c7857af62a00bad9806f0388564f22955ed846d938c244047f0966106606008548710611bb6565b61067561066e600554610c78565b1515611bf2565b826132ea565b5050604081016107386107486106a361069e6106978587611c3e565b36916114e6565b6134dd565b9761074060608601956107126106d96106bf6106978a85611c3e565b6106d36106cc8b86611c3e565b9050611c70565b906135ae565b936106f26106ed6106976080860186611c3e565b6138f9565b9c8d6106fd85611acf565b9060a086019761070c89611acf565b93613a2a565b61073061072861072183611acf565b9783611c3e565b989092611c3e565b959093611acf565b9636916114e6565b9236916114e6565b91613cbd565b610779610774610770610769845f52600960205260405f2090565b5460ff1690565b1590565b611c9a565b61079b61078e825f52600960205260405f2090565b805460ff19166001179055565b61087361086b6107e96107ba6107b08761028e565b90549060031b1c90565b966107ce856107c88961028e565b90611ce6565b6107e460036107dc8361463a565b905014611d03565b613d4e565b6108666108616108596107fd600554610c78565b610848610843610835610811600654610c78565b9361082f89516108298761082485611b40565b611b78565b14611d47565b88613636565b61083d610cb0565b90613edc565b611d8b565b610853818651611c8d565b8561387b565b61083d610d65565b611dd7565b613f87565b948514611e23565b604051938493846040919493926060820195825260208201520152565b0390a1005b60405162461bcd60e51b815260206004820152601a60248201527f63616c6c6572206973206e6f7420746865206f70657261746f720000000000006044820152606490fd5b346102fb575f3660031901126102fb576103d16103c56108f8610dfa565b613684565b9181601f840112156102fb578235916001600160401b0383116102fb57602083818601950101116102fb57565b346102fb5760603660031901126102fb576004356001600160401b0381116102fb5761095a9036906004016108fd565b6024356001600160401b0381116102fb576109799036906004016108fd565b9092906044359073deaddeaddeaddeaddeaddeaddeaddeaddeaddead3303610b2f5760ff5f5416610aea577f80bd1fdfe157286ce420ee763f91748455b249605748e5df12dad9844402bafc94610a0c836109d8610aa8951515611e79565b6109e3871515611ec5565b6109f3600160ff195f5416175f55565b6109fd8787612000565b610a0784846120e1565b600155565b5f8054610100600160a81b03191674deaddeaddeaddeaddeaddeaddeaddeaddeaddead00179055600280546001600160a01b0319166007603160981b011790557ffbe5b6cbafb274f445d7fed869dc77a838d8243a22c460de156560e8857cad0360405180610a99819073deaddeaddeaddeaddeaddeaddeaddeaddeaddead602060408401935f81520152565b0390a1604051948594856122ab565b0390a1604080515f81526007603160981b0160208201527f79250b96878fd457364d1c1b77a660973c4f4ab67bda5e2fdb42caaa4d515f9d9181908101610890565b60405162461bcd60e51b815260206004820152601f60248201527f436f6e747261637420697320616c726561647920696e697469616c697a6564006044820152606490fd5b60405162461bcd60e51b815260206004820152601f60248201527f63616c6c6572206973206e6f74207468652073797374656d2063616c6c6572006044820152606490fd5b346102fb575f3660031901126102fb576020600154604051908152f35b60405190610ba0604083610313565b600482525f6020830152565b346102fb575f3660031901126102fb576103d16103c5610b91565b346102fb5760203660031901126102fb576004355f526009602052602060ff60405f2054166040519015158152f35b346102fb5760203660031901126102fb576004356007548110156102fb576007548110156102a65760409060075f5260205f209060011b016001815491015460e01b825191825263ffffffff60e01b166020820152f35b346102fb575f3660031901126102fb575f5460405160089190911c6001600160a01b03168152602090f35b90600182811c92168015610ca6575b6020831014610c9257565b634e487b7160e01b5f52602260045260245ffd5b91607f1691610c87565b604051905f8260055491610cc383610c78565b8083529260018116908115610d465750600114610ce7575b61034892500383610313565b5060055f90815290917f036b6384b5eca791c62761152d0c79bb0604c104a5fb6f4eb0703f3154bb3db05b818310610d2a57505090602061034892820101610cdb565b6020919350806001915483858901015201910190918492610d12565b6020925061034894915060ff191682840152151560051b820101610cdb565b604051905f8260065491610d7883610c78565b8083529260018116908115610d465750600114610d9b5761034892500383610313565b5060065f90815290917ff652222313e28459528d920b65115c16c04f3efc82aaedc97be59f3f377c0d3f5b818310610dde57505090602061034892820101610cdb565b6020919350806001915483858901015201910190918492610dc6565b604051905f8260035491610e0d83610c78565b8083529260018116908115610d465750600114610e305761034892500383610313565b5060035f90815290917fc2575a0e9e593c00f959f8c92f12db2869c3395a3b0502d05e2516446f71f85b5b818310610e7357505090602061034892820101610cdb565b6020919350806001915483858901015201910190918492610e5b565b604051905f8260045491610ea283610c78565b8083529260018116908115610d465750600114610ec55761034892500383610313565b5060045f90815290917f8a35acfbc15ff81a39ae7d344fd709f28e8600b4aa8c65c6b64bfe7fe36bd19b5b818310610f0857505090602061034892820101610cdb565b6020919350806001915483858901015201910190918492610ef0565b346102fb575f3660031901126102fb576103d16103c5610dfa565b346102fb575f3660031901126102fb576040515f600554610f5f81610c78565b8084529060018116908115610fe55750600114610f87575b6103d1836103c581850382610313565b60055f9081527f036b6384b5eca791c62761152d0c79bb0604c104a5fb6f4eb0703f3154bb3db0939250905b808210610fcb575090915081016020016103c5610f77565b919260018160209254838588010152019101909291610fb3565b60ff191660208086019190915291151560051b840190910191506103c59050610f77565b60405190611018604083610313565b60018252608360f81b6020830152565b346102fb575f3660031901126102fb576103d16103c5611009565b346102fb575f3660031901126102fb5761105b613ffa565b5f5160206149d15f395f51905f5280546001600160a01b03199081169091555f5160206149b15f395f51905f52805491821690555f906001600160a01b03167f8be0079c531659141344cd1fd0a4f28419497f9722a3daafe3b4186f6b6457e08280a3005b346102fb575f3660031901126102fb576020600754604051908152f35b346102fb575f3660031901126102fb575f5160206149d15f395f51905f5254336001600160a01b0390911603611174575f5160206149d15f395f51905f5280546001600160a01b03199081169091555f5160206149b15f395f51905f5280543392811683179091556001600160a01b03167f8be0079c531659141344cd1fd0a4f28419497f9722a3daafe3b4186f6b6457e05f80a3005b63118cdaa760e01b5f523360045260245ffd5b60406003198201126102fb576004356001600160401b0381116102fb57816111b1916004016108fd565b92909291602435906001600160401b0382116102fb576111d3916004016108fd565b9091565b346102fb576111e536611187565b6111f0939193613ffa565b8215611336576001600160401b0383116103345761121883611213600554610c78565b611f11565b5f93601f841160011461129057906108909161126b85807f6c9ac69a5e351d3e7ac9be95040d29a264d1ce6a409ca9f042c64c66c3f2a23a985f91611285575b508160011b915f199060031b1c19161790565b6005555b61127982826121b6565b604051948594856122ab565b90508601355f611258565b60055f52601f1984167f036b6384b5eca791c62761152d0c79bb0604c104a5fb6f4eb0703f3154bb3db0905f5b81811061131e5750907f6c9ac69a5e351d3e7ac9be95040d29a264d1ce6a409ca9f042c64c66c3f2a23a968661089095949310611305575b5050600185811b0160055561126f565b8501355f19600388901b60f8161c191690555f806112f5565b858801358355602097880197600190930192016112bd565b60405162461bcd60e51b815260206004820152601e60248201527f5265706c616365207363726970742063616e6e6f7420626520656d70747900006044820152606490fd5b60209060031901126102fb576004356001600160a01b03811681036102fb5790565b346102fb576113ab3661137b565b6113b3613ffa565b6001600160a01b03811690811561141e57600280546001600160a01b031981169093179055604080516001600160a01b0393841681529290911660208301527f79250b96878fd457364d1c1b77a660973c4f4ab67bda5e2fdb42caaa4d515f9d919081908101610890565b60405162461bcd60e51b815260206004820152600f60248201526e496e76616c6964206164647265737360881b6044820152606490fd5b346102fb575f3660031901126102fb576103d16103c5610e8f565b6001600160e01b03198116036102fb57565b359061034882611470565b60403660031901126102fb576114b06024356004356114ab82611470565b6122d2565b005b346102fb575f3660031901126102fb575f5160206149b15f395f51905f52546040516001600160a01b039091168152602090f35b9291926114f28261034a565b916115006040519384610313565b8294818452818301116102fb578281602093845f960137010152565b9080601f830112156102fb57816020611537933591016114e6565b90565b60a03660031901126102fb576004356001600160401b0381116102fb5761156590369060040161059e565b6024356001600160401b0381116102fb576115849036906004016105ac565b906044356001600160401b0381116102fb576115a490369060040161059e565b6064356001600160401b0381116102fb576115c39036906004016108fd565b91608435946001600160401b0386116102fb576115e76114b096369060040161151c565b94612a54565b346102fb575f3660031901126102fb5760206040516102008152f35b346102fb575f3660031901126102fb576002546040516001600160a01b039091168152602090f35b60405190611640604083610313565b600482526001600160e01b03196020830152565b346102fb575f3660031901126102fb576103d16103c5611631565b346102fb577ffbe5b6cbafb274f445d7fed869dc77a838d8243a22c460de156560e8857cad0361169e3661137b565b6116a6613ffa565b5f8054610100600160a81b031916600883811b610100600160a81b03169190911791829055604080519290911c6001600160a01b03908116835290921660208201529081908101610890565b346102fb575f3660031901126102fb57602060405173deaddeaddeaddeaddeaddeaddeaddeaddeaddead8152f35b346102fb575f3660031901126102fb575f5160206149d15f395f51905f52546040516001600160a01b039091168152602090f35b346102fb575f3660031901126102fb576040516001603160981b018152602090f35b346102fb576117843661137b565b61178c613ffa565b5f5160206149d15f395f51905f5280546001600160a01b0319166001600160a01b039283169081179091555f5160206149b15f395f51905f52549091167f38d16b8cac22d99fc7c124b9cd0de2d3fa1faef420bfe791d8c362d765e227005f80a3005b346102fb575f3660031901126102fb576103d16103c5610d65565b346102fb5761181836611187565b611823939193613ffa565b61182e831515611ec5565b6001600160401b038311610334576118508361184b600354610c78565b611f61565b5f93601f84116001146118b05790610890916118a285807f80bd1fdfe157286ce420ee763f91748455b249605748e5df12dad9844402bafc985f9161128557508160011b915f199060031b1c19161790565b6003555b61127982826120e1565b60035f52601f1984167fc2575a0e9e593c00f959f8c92f12db2869c3395a3b0502d05e2516446f71f85b905f5b81811061193e5750907f80bd1fdfe157286ce420ee763f91748455b249605748e5df12dad9844402bafc968661089095949310611925575b5050600185811b016003556118a6565b8501355f19600388901b60f8161c191690555f80611915565b858801358355602097880197600190930192016118dd565b346102fb5760603660031901126102fb576004356001600160401b0381116102fb5761198690369060040161059e565b6024356001600160401b0381116102fb576119a59036906004016105ac565b6044359073deaddeaddeaddeaddeaddeaddeaddeaddeaddead33148015611a2e575b156119d5576114b0926130b2565b60405162461bcd60e51b815260206004820152602b60248201527f63616c6c6572206973206e6f74207468652073797374656d2063616c6c65722060448201526a37b91037b832b930ba37b960a91b6064820152608490fd5b505f543360089190911c6001600160a01b0316146119c7565b634e487b7160e01b5f52601160045260245ffd5b81810292918115918404141715611a6e57565b611a47565b15611a7a57565b60405162461bcd60e51b815260206004820152601760248201527f496e76616c696420776974686472617720616d6f756e740000000000000000006044820152606490fd5b91908110156102a65760051b0190565b3561153781611470565b600754600160401b81101561033457600181016007556007548110156102a65760075f5260011b7fa66cc928b5edb82af9bd49922954155ab7b0942694bea4ce44661d9a8736c688016001602091835181550191015160e01c63ffffffff19825416179055565b9060208201809211611a6e57565b9060148201809211611a6e57565b9060018201809211611a6e57565b6001019081600111611a6e57565b91908201809211611a6e57565b606091949392611bad826080810197602090805183528163ffffffff60e01b91015116910152565b60408201520152565b15611bbd57565b60405162461bcd60e51b815260206004820152600d60248201526c092dcecc2d8d2c840d2dcc8caf609b1b6044820152606490fd5b15611bf957565b60405162461bcd60e51b815260206004820152601960248201527f5265706c61636520736372697074206973206e6f7420736574000000000000006044820152606490fd5b903590601e19813603018212156102fb57018035906001600160401b0382116102fb576020019181360383136102fb57565b5f19810191908211611a6e57565b601f19810191908211611a6e57565b91908203918211611a6e57565b15611ca157565b60405162461bcd60e51b815260206004820152601c60248201527f7478496420616c7265616479207573656420746f207265706c616365000000006044820152606490fd5b91611cff9183549060031b91821b915f19901b19161790565b9055565b15611d0a57565b60405162461bcd60e51b8152602060048201526015602482015274496e76616c6964207769746e657373206974656d7360581b6044820152606490fd5b15611d4e57565b60405162461bcd60e51b8152602060048201526015602482015274092dcecc2d8d2c840e6c6e4d2e0e840d8cadccee8d605b1b6044820152606490fd5b15611d9257565b60405162461bcd60e51b815260206004820152601d60248201527f496e76616c6964207265706c61636520736372697074207072656669780000006044820152606490fd5b15611dde57565b60405162461bcd60e51b815260206004820152601d60248201527f496e76616c6964207265706c61636520736372697074207375666669780000006044820152606490fd5b15611e2a57565b606460405162461bcd60e51b815260206004820152602060248201527f496e76616c6964207478496420746f207265706c6163652070726f76696465646044820152fd5b6115376108f8610dfa565b15611e8057565b60405162461bcd60e51b815260206004820152601a60248201527f4465706f73697420616d6f756e742063616e6e6f7420626520300000000000006044820152606490fd5b15611ecc57565b60405162461bcd60e51b815260206004820152601e60248201527f4465706f736974207363726970742063616e6e6f7420626520656d70747900006044820152606490fd5b601f8111611f1d575050565b60055f5260205f20906020601f840160051c83019310611f57575b601f0160051c01905b818110611f4c575050565b5f8155600101611f41565b9091508190611f38565b601f8111611f6d575050565b60035f5260205f20906020601f840160051c83019310611fa7575b601f0160051c01905b818110611f9c575050565b5f8155600101611f91565b9091508190611f88565b601f8211611fbe57505050565b5f5260205f20906020601f840160051c83019310611ff6575b601f0160051c01905b818110611feb575050565b5f8155600101611fe0565b9091508190611fd7565b91906001600160401b038111610334576120268161201f600354610c78565b6003611fb1565b5f601f821160011461206457819061205493945f92612059575b50508160011b915f199060031b1c19161790565b600355565b013590505f80612040565b60035f52601f198216937fc2575a0e9e593c00f959f8c92f12db2869c3395a3b0502d05e2516446f71f85b915f5b8681106120c957508360019596106120b0575b505050811b01600355565b01355f19600384901b60f8161c191690555f80806120a5565b90926020600181928686013581550194019101612092565b91906001600160401b0381116103345761210781612100600454610c78565b6004611fb1565b5f601f821160011461213957819061213493945f926120595750508160011b915f199060031b1c19161790565b600455565b60045f52601f198216937f8a35acfbc15ff81a39ae7d344fd709f28e8600b4aa8c65c6b64bfe7fe36bd19b915f5b86811061219e5750836001959610612185575b505050811b01600455565b01355f19600384901b60f8161c191690555f808061217a565b90926020600181928686013581550194019101612167565b91906001600160401b038111610334576121dc816121d5600654610c78565b6006611fb1565b5f601f821160011461220e57819061220993945f926120595750508160011b915f199060031b1c19161790565b600655565b60065f52601f198216937ff652222313e28459528d920b65115c16c04f3efc82aaedc97be59f3f377c0d3f915f5b868110612273575083600195961061225a575b505050811b01600655565b01355f19600384901b60f8161c191690555f808061224f565b9092602060018192868601358155019401910161223c565b908060209392818452848401375f828201840152601f01601f1916010190565b92906122c490611537959360408652604086019161228b565b92602081850391015261228b565b906122e06001543414611a73565b6040519060408201928284106001600160401b03851117610334577f3311a04a346a103ac115cca33028a2bc82f1964805860d0d3fc84a2772496ada93604052825263ffffffff60e01b16602082015260075461233c82611ad9565b61234d604051928392429184611b85565b0390a1565b1561235957565b60405162461bcd60e51b815260206004820152601d60248201527f56696e206973206e6f742070726f7065726c7920666f726d61747465640000006044820152606490fd5b156123a557565b60405162461bcd60e51b815260206004820152601e60248201527f566f7574206973206e6f742070726f7065726c7920666f726d617474656400006044820152606490fd5b908160209103126102fb575180151581036102fb5790565b9796959192612439946080969461242b938b5260208b015260a060408b015260a08a019161228b565b91878303606089015261228b565b930152565b6040513d5f823e3d90fd5b1561245057565b60405162461bcd60e51b815260206004820152601b60248201527f5472616e73616374696f6e206973206e6f7420696e20626c6f636b00000000006044820152606490fd5b1561249c57565b60405162461bcd60e51b8152602060048201526024808201527f5061796f75742076696e206973206e6f742070726f7065726c7920666f726d616044820152631d1d195960e21b6064820152608490fd5b156124f457565b60405162461bcd60e51b815260206004820152602860248201527f5061796f75742076696e2073686f756c6420686176652065786163746c79206f6044820152671b99481a5b9c1d5d60c21b6064820152608490fd5b1561255157565b60405162461bcd60e51b815260206004820152602a60248201527f5061796f757420766f75742073686f756c6420686176652065786163746c79206044820152691bdb99481bdd5d1c1d5d60b21b6064820152608490fd5b156125b057565b60405162461bcd60e51b815260206004820152602560248201527f5061796f757420766f7574206973206e6f742070726f7065726c7920666f726d604482015264185d1d195960da1b6064820152608490fd5b1561260a57565b60405162461bcd60e51b815260206004820152602860248201527f5061796f7574207769746e657373206973206e6f742070726f7065726c7920666044820152671bdc9b585d1d195960c21b6064820152608490fd5b1561266757565b60405162461bcd60e51b815260206004820152602360248201527f496e76616c6964207061796f7574206f757470757420736372697074207075626044820152626b657960e81b6064820152608490fd5b156126bf57565b60405162461bcd60e51b8152602060048201526012602482015271125b9d985b1a59081cdc195b9d081d1e125960721b6044820152606490fd5b1561270057565b60405162461bcd60e51b815260206004820152601b60248201527f496e76616c6964207370656e74206f7574707574206c656e67746800000000006044820152606490fd5b60405190612754604083610313565b60018252601160f91b6020830152565b1561276b57565b60405162461bcd60e51b815260206004820152602960248201527f496e76616c6964207370656e74206f757470757420736372697074207075626b6044820152680caf240d8cadccee8d60bb1b6064820152608490fd5b604051906127d1604083610313565b6002825261028960f51b6020830152565b156127e957565b60405162461bcd60e51b815260206004820152602160248201527f5370656e74206f7574707574206973206e6f7420612050325452206f757470756044820152601d60fa1b6064820152608490fd5b805191908290602001825e015f815290565b6128a6979360249b99979561287161288d9561286b8f9a9695600896612838565b90612838565b6001600160e01b03199283168152911660048201520190612838565b9182526001600160e01b03191660208201520190612838565b6001600160e01b0319909216825260048201520190565b604051906128cc604083610313565b600a8252690a8c2e0a6d2ced0c2e6d60b31b6020830152565b156128ec57565b60405162461bcd60e51b8152602060048201526011602482015270496e76616c6964207369676e617475726560781b6044820152606490fd5b6001600160f01b03198116036102fb57565b9035601e19823603018112156102fb5701602081359101916001600160401b0382116102fb5781360383136102fb57565b612a506060929594939560808352803561298181611470565b6001600160e01b0319166080840152602081013561299e81612925565b61ffff60f01b1660a0840152612a30612a1e60a0612a176129f76129d96129c86040880188612937565b60c0808c01526101408b019161228b565b6129e58a880188612937565b8a8303607f190160e08c01529061228b565b612a046080870187612937565b898303607f19016101008b01529061228b565b9301611482565b6001600160e01b031916610120850152565b8651602084810191909152909601516001600160e01b0319166040830152565b0152565b94919092602061074095612b1095612adb612ad28a612a8a612a85612a80610697604085018095611c3e565b61401a565b612352565b60a06107488d606081019d8e612ab3612aae612aa96106978487611c3e565b614092565b61239e565b610738612ac9612ac285611acf565b9785611c3e565b98909285611c3e565b96909401611acf565b96879260408584013593612aef8180611c3e565b929091013592604051988997889763cd4cc08f60e01b895260048901612402565b03816001603160981b015afa8015612e9c57612b33915f91612ea1575b50612449565b60408101612b418183611c3e565b3690612b4c926114e6565b612b559061401a565b612b5e90612495565b612b688183611c3e565b3690612b73926114e6565b612b7c9061463a565b60608401979150612b8d8885611c3e565b3690612b98926114e6565b612ba19061463a565b91612baf91506001146124ed565b600114612bbb9061254a565b612bc58784611c3e565b3690612bd0926114e6565b612bd990614092565b612be2906125a9565b6080830191612bf18385611c3e565b3690612bfc926114e6565b612c0590614101565b612c0e90612603565b612c189084611c3e565b3690612c23926114e6565b612c2c906134dd565b96612c379084611c3e565b3690612c42926114e6565b612c4b906141dc565b91612c569084611c3e565b3690612c61926114e6565b612c6a906138f9565b93612c74836136cd565b90612c7e91613edc565b612c8790612660565b6020870151948514612c98906126b8565b60408701516001600160e01b03191695612cb191611c3e565b3690612cbc926114e6565b8560e01c612cee90600881811c62ff00ff1691901b63ff00ff001617601081811b63ffff00001691901c61ffff161790565b63ffffffff16612cfd91614269565b8051602b14612d0b906126f9565b612d1481613716565b612d1c612745565b612d2591613edc565b612d2e90612764565b612d378161375f565b612d3f6127c2565b612d4891613edc565b612d51906127e2565b612d5a816137a8565b6045909701516001600160e01b03191691604051809160208201612d7d91612838565b03601f1981018252612d8f9082610313565b604051612d9d818093612838565b03905a915f916002602094fa15612e9c57610348967fd77102e5369b5b1a9db1972cb3de26ee79abc69de5cde41eeaa67fe3939c1c5594612e5b612e51612e4b87612e3e8b612e308e612e669b612e619b5f5192612df9610365565b95612e02611009565b98612e1860a0612e1183611acf565b9201611acf565b612e20610365565b916040519b8c9a60208c0161284a565b03601f198101835282610313565b612e466128bd565b6142d5565b92613dfe565b6106d38151611c70565b9161433d565b6128e5565b612e6e610339565b8381526001600160e01b03198516602082015290612e9460075460405193849384612968565b0390a16122d2565b61243e565b612ec3915060203d602011612ec9575b612ebb8183610313565b8101906123ea565b5f612b2d565b503d612eb1565b15612ed757565b60405162461bcd60e51b815260206004820152601660248201527513db9b1e481bdb99481a5b9c1d5d08185b1b1bddd95960521b6044820152606490fd5b15612f1c57565b60405162461bcd60e51b81526020600482015260126024820152711d1e125908185b1c9958591e481cdc195b9d60721b6044820152606490fd5b600854600160401b81101561033457600181016008556008548110156102a65760085f527ff3f7a9fe364faab93b216da50a3214154f22a0a2b415b23a84c8169e8b636ee30155565b15612fa657565b60405162461bcd60e51b8152602060048201526016602482015275125b9d985b1a590819195c1bdcda5d081cd8dc9a5c1d60521b6044820152606490fd5b15612feb57565b60405162461bcd60e51b8152602060048201526015602482015274092dcecc2d8d2c840e6c6e4d2e0e840e6eaccccd2f605b1b6044820152606490fd5b3d15613052573d906130398261034a565b916130476040519384610313565b82523d5f602084013e565b606090565b1561305e57565b60405162461bcd60e51b815260206004820152602660248201527f4661696c656420746f2073656e6420746f206661696c6564206465706f736974604482015265081d985d5b1d60d21b6064820152608490fd5b61312d6130ee613187926130d46130cc60019796836132ea565b909714612ed0565b604081016107386107486106a361069e6106978587611c3e565b9261310f61310a610770610769875f52600960205260405f2090565b612f15565b61312461078e855f52600960205260405f2090565b6107ce84612f56565b61318261317d613175613141600354610c78565b610848613170613168613155600454610c78565b9361082f89516108298761082485611b4e565b61083d610dfa565b612f9f565b61083d610e8f565b612fe4565b614415565b905f808080600154865af161319a613028565b50613237576132087fabd361bc68da04a386a8de9d0fb3044cca0856cbd86e9e4a63237e015b3e4bb9936131cf600854611c70565b6040805192835260208301949094526001600160a01b0390941692810192909252426060830152608082019290925290819060a0820190565b0390a16103485f80808061322360025460018060a01b031690565b600154905af1613231613028565b50613057565b61234d7fa82453ca34121b3ecb910d957824e27c5dc6465315949facd15fb72886490058936131cf600854611c70565b3561153781612925565b1561327857565b60405162461bcd60e51b815260206004820152602160248201527f5769746e657373206973206e6f742070726f7065726c7920666f726d617474656044820152601960fa1b6064820152608490fd5b95949361243992606094928852602088015260806040880152608087019161228b565b91906132f583611acf565b9061330260208501613267565b93604081016133118183611c3e565b94909660608401956133238786611c3e565b608087019a916133338c89611c3e565b94909361334260a08b01611acf565b9661334c986144c2565b936133578284611c3e565b3690613362926114e6565b61336b9061401a565b61337490612352565b61337e9083611c3e565b3690613389926114e6565b61339290614092565b61339b9061239e565b6133a59082611c3e565b36906133b0926114e6565b6133b99061463a565b956133c691508692611c3e565b36906133d1926114e6565b906133db91614141565b6133e490613271565b6020810135906133f48180611c3e565b604080516327fe9a2560e11b815294859461341a949201359291908790600487016132c7565b6001603160981b0191839103815a93602094fa8015612e9c57613443915f91612ea15750612449565b9190565b1561344e57565b60405162461bcd60e51b815260206004820152602260248201527f52656164206f76657272756e20647572696e6720566172496e742070617273696044820152616e6760f01b6064820152608490fd5b156134a557565b60405162461bcd60e51b815260206004820152601060248201526f2b34b7103932b0b21037bb32b9393ab760811b6044820152606490fd5b6135006134e98261463a565b9091906134f95f19841415613447565b151561349e565b60010180600111611a6e576135158183614533565b905f198214613527576115379261387b565b60405162461bcd60e51b815260206004820152601760248201527f42616420566172496e7420696e207363726970745369670000000000000000006044820152606490fd5b1561357357565b60405162461bcd60e51b8152602060048201526013602482015272536c696365206f7574206f6620626f756e647360681b6044820152606490fd5b919091821561361f578260010180600111611a6e578060016135d892119081613613575b5061356c565b60405192604081850101604052808452602182850391818401930101915b82811061360257505050565b80518282015f1901526020016135f6565b9050825110155f6135d2565b509050604051613630602082610313565b5f815290565b919091821561361f5761364c838251101561356c565b60405192604081850101604052808452602082850391818401930101915b82811061367657505050565b80518282015260200161366a565b9061369360228351101561356c565b6040519160608301604052602083528083036042602283019201915b8281106136bb57505050565b805182820160011901526020016136af565b906136dc602b8351101561356c565b604051916062830160405260228352808303604b602983019201915b82811061370457505050565b805182820160081901526020016136f8565b9061372560098351101561356c565b6040519160418301604052600183528083036029602883019201915b82811061374d57505050565b80518282016007190152602001613741565b9061376e600b8351101561356c565b604051916042830160405260028352808303602b602983019201915b82811061379657505050565b8051828201600819015260200161378a565b906137b7602b8351101561356c565b604051916060830160405260208352808303604b602b83019201915b8281106137df57505050565b8051828201600a1901526020016137d3565b9061380060408351101561356c565b6040519160808301604052604083528083036060602083019201915b82811061382857505050565b80518282015260200161381c565b9061384560248351101561356c565b6040519160648301604052602483528083036044602083019201915b82811061386d57505050565b805182820152602001613861565b92919081156138e757818101808211611a6e5780826138a1921190816138db575061356c565b604051936040838601016040528285520190602082850391818401930101915b8281106138cd57505050565b8051828201526020016138c1565b9050855110155f6135d2565b50509050604051613630602082610313565b6139035f82614572565b5f198114613915575f6115379261387b565b60405162461bcd60e51b815260206004820152601560248201527442616420566172496e7420696e207769746e65737360581b6044820152606490fd5b8051600110156102a65760210190565b8051601f10156102a657603f0190565b9081518110156102a6570160200190565b600190611537939260ff60f81b1681520190612838565b604051906139a9604083610313565b60078252662a30b82632b0b360c91b6020830152565b9661286b966115379f9e9c989660a89661286b9f9c956139eb9060209f9a61286b90613a209f98612838565b6001600160e01b0319978816815296166004870152600886015260288501526048840152606883015260888201520190612838565b9081520190612838565b91949390929360205f613a4b613a3f86613836565b60405191828092612838565b039060025afa15612e9c575f519060205f613b32612e30613a3f613b14613b04613a8b613a7f6001546402540be400900490565b6001600160401b031690565b65ffff0000ffff67ffffffffffff000067ff00ff00ff00ff008360081c9360081b169264ff000000ff65ffff0000ff0065ffffffffffff67ffffffffffffff00871666ff00ff00ff00ff85161760101c16951691161760101b1691161767ffffffff0000000063ffffffff8260201c169160201b161790565b60c01b6001600160c01b03191690565b6040519283918783016008916001600160401b0360c01b1681520190565b039060025afa15612e9c5760205f613b7b612e30613a3f613b60845199604563ffffffff60e01b9101511690565b60405192839187830160049163ffffffff60e01b1681520190565b039060025afa15612e9c5760205f613ba4612e30613a3f83519960405192839187830190612838565b039060025afa15612e9c575f5193613bbb88613d4e565b607f60f91b613bc98a613e44565b613bd290613952565b516001600160f81b031916604051928392613bf1921660208401613983565b03601f1981018252613c039082610313565b613c0b61399a565b90613c15916142d5565b91613c1e610365565b95613c27610365565b97613c30610564565b92613c39610b91565b94613c42610365565b97613c4b611631565b996040519d8e9d60208f019d613c609e6139bf565b03601f1981018252613c729082610313565b613c7a6128bd565b90613c84916142d5565b90613c8e90613dfe565b8051613c9990611c70565b613ca2916135ae565b613caa611e6e565b91613cb49261433d565b610348906128e5565b60049061153794613ced613d08949561286b60405197889563ffffffff60e01b1660208701526024860190612838565b9063ffffffff60e01b16815203601b19810184520182610313565b61460c565b15613d1457565b60405162461bcd60e51b815260206004820152601260248201527142616420566172496e7420696e206974656d60701b6044820152606490fd5b90613d73613d5b8361463a565b909190613d6b5f19841415613447565b60011061349e565b60010180600111611a6e57915f925b60018410613db857611537929350613db2613dad613da08385614796565b6108245f19821415613d0d565b611b5c565b9161387b565b613dc28183614796565b9190613dd15f19841415613d0d565b806001019283600111611a6e576001910101809211611a6e57600191613df691611b78565b930192613d82565b613e0a6134e98261463a565b6001019081600111611a6e57613e208282614796565b9290613e2f5f19851415613d0d565b8301809311611a6e57613db261153793611b5c565b90613e69613e518361463a565b909190613e615f19841415613447565b60021061349e565b60010180600111611a6e57915f925b60028410613e9657611537929350613db2613dad613da08385614796565b613ea08183614796565b9190613eaf5f19841415613d0d565b806001019283600111611a6e576001910101809211611a6e57600191613ed491611b78565b930192613e78565b9081519181518303613f805760205b83811115613f6557613efc90611c7e565b838110613f0c5750505050600190565b613f27613f198284613972565b516001600160f81b03191690565b613f44613f37613f198487613972565b6001600160f81b03191690565b6001600160f81b031990911603613f5d57600101613efc565b505050505f90565b818101518382015160209092019114613eeb57505050505f90565b5050505f90565b613f92600554610c78565b60208101808211611a6e578082613fb092119081613fee575061356c565b604051916060830160405260208352018082036040602083019201915b828110613fe05750505061153790614857565b805182820152602001613fcd565b9050835110155f6135d2565b5f5160206149b15f395f51905f52546001600160a01b0316330361117457565b6140238161463a565b919082158015614088575b613f805760010180600111611a6e57915f905b80821061404f575050511490565b90928251811015613f5d576140648184614533565b5f19811461407f578101809111611a6e579260010190614041565b50505050505f90565b505f19811461402e565b61409b8161463a565b9190821580156140f7575b613f805760010180600111611a6e57915f905b8082106140c7575050511490565b90928251811015613f5d576140dc81846148c7565b5f19811461407f578101809111611a6e5792600101906140b9565b505f1981146140a6565b5f905f5b600181106141135750511490565b918151811015613f80576141278183614572565b5f198114613f5d578101809111611a6e5791600101614105565b811561418a575f915f905b80821061415a575050511490565b90928251811015613f5d5761416f8184614572565b5f19811461407f578101809111611a6e57926001019061414c565b50505f90565b1561419757565b60405162461bcd60e51b815260206004820152601a60248201527f42616420566172496e7420696e207363726970745075626b65790000000000006044820152606490fd5b6141e58161463a565b9091906141f55f19841415613447565b1561423057600161420861153793611b6a565b9061422b575b61421881836148c7565b916142265f19841415614190565b61387b565b61420e565b60405162461bcd60e51b81526020600482015260116024820152702b37baba103932b0b21037bb32b9393ab760791b6044820152606490fd5b9190916142758161463a565b6142825f19831415613447565b8410156142305761429290611b6a565b5f935b8085106142ad575061153792935061421881836148c7565b906142cc816142be600193866148c7565b906108245f19831415614190565b94019390614295565b5f6142e860209260405191828092612838565b039060025afa15612e9c575f61431c602092613a3f8351612e30604051938285938985015260408401526060830190612838565b039060025afa15612e9c575f5190565b91613a206115379493602093612838565b91909181516040811490811561440a575b50156143c5575f9261437861436385946137f1565b91612e3060405193849260208401968761432c565b51906102005afa614387613028565b816143b9575b81614396575090565b600160f81b91506001600160f81b0319906143b490613f1990613962565b161490565b8051602014915061438d565b60405162461bcd60e51b815260206004820152601860248201527f496e76616c6964207369676e6174757265206c656e67746800000000000000006044820152606490fd5b60419150145f61434e565b614420600354610c78565b60148101808211611a6e57808261443e92119081613fee575061356c565b604051916054830160405260148352018082036034602083019201915b8281106144b45750505060208151910151906bffffffffffffffffffffffff198216916014821061448f575b505060601c90565b6bffffffffffffffffffffffff1960149290920360031b82901b161690505f80614487565b80518282015260200161445b565b969483869482949a9896939a6040519b8c9b63ffffffff60e01b1660208d015261ffff60f01b1660248c015260268b0137880191602683015f81523701602601915f83528237019063ffffffff60e01b16815203601b198101825260040161452a9082610313565b6115379061460c565b9061453d91614915565b5f19821461456b57816025019182602511611a6e570160258101809211611a6e57602901809111611a6e5790565b50505f1990565b9061457d8183614796565b92905f1981146146035760010180600111611a6e579291905f915b8383106145a6575050505090565b90919293808201808311611a6e576145be9084614796565b91905f1983146145f757806001019283600111611a6e576001910101809211611a6e576001916145ed91611b78565b9493019190614598565b505050505050505f1990565b505050505f1990565b5f602091828151910160025afa5060205f818160025afa505f5190565b60ff166001019060ff8211611a6e57565b906146455f83614947565b9160ff8316928315614773576146695f610824614663855194614629565b60ff1690565b1161476a575f600284036146c057506146b96146a66146a06115379361468e5f611b6a565b01602001516001600160f01b03191690565b60f01c90565b61ff0060ff8260081c169160081b161790565b61ffff1690565b6004840361472a57506147216146f76146f1611537936146df5f611b6a565b01602001516001600160e01b03191690565b60e01c90565b600881811c62ff00ff1691901b63ff00ff001617601081811b63ffff00001691901c61ffff161790565b63ffffffff1690565b92906008821461473957509190565b611537919350613a8b614764613a7f926147525f611b6a565b01602001516001600160c01b03191690565b60c01c90565b505f1991505f90565b5061478d919250613f195f61478792613972565b60f81c90565b9060ff5f921690565b9190916147a38382614947565b9260ff8416938415614843576147c182610824614663865194614629565b11614838575f600285036147e657506146a66146a06115379361468e6146b994611b6a565b6004850361480557506146f76146f1611537936146df61472194611b6a565b93919060088314614817575b50509190565b614830929450614764613a7f92614752613a8b93611b6a565b915f80614811565b505f1992505f919050565b5061478d929350613f199061478792613972565b805190811561418a576020821161487757602001519060200360031b1c90565b60405162461bcd60e51b815260206004820152602260248201527f42797465732063616e6e6f74206265206d6f7265207468616e20333220627974604482015261657360f01b6064820152608490fd5b908151816009019081600911611a6e571061456b5760080180600811611a6e576148f091614796565b905f19811461456b57806009019182600911611a6e576009910101809111611a6e5790565b908151816025019081602511611a6e571061493e5760248101809111611a6e576111d391614796565b505f19915f9150565b9060ff6149548284613972565b5160f81c146149a95760fe60ff61496b8385613972565b8160f81b90511660f81c16146149a25761498960ff9160fd93613972565b8160f81b90511660f81c161461499d575f90565b600290565b5050600490565b505060089056fe9016d09d72d40fdae2fd8ceac6b6234c7706214fd39c1cd1e609a0528c199300237e158222e3e6968b72b9db0d8043aacf074ad9f650f0d1606b4d82ee432c00","linkReferences":{}},"methodIdentifiers":{"CODESEP_POS()":"b2497e70","EPOCH()":"a0dc2758","INPUT_INDEX()":"428bcd35","KEY_VERSION()":"1369ac3e","LIGHT_CLIENT()":"e613ae00","SCHNORR_VERIFIER_PRECOMPILE()":"9a4f308d","SIGHASH_ALL_HASH_TYPE()":"0bd89ab7","SIGHASH_SINGLE_ANYONECANPAY_HASH_TYPE()":"6cf7d641","SPEND_TYPE_EXT()":"23dacd29","SPEND_TYPE_NO_EXT()":"092ac5d4","SYSTEM_CALLER()":"d761753e","acceptOwnership()":"79ba5097","batchWithdraw(bytes32[],bytes4[])":"19854623","deposit((bytes4,bytes2,bytes,bytes,bytes,bytes4),(bytes,uint256,uint256),bytes32)":"fb11d7b9","depositAmount()":"419759f5","depositPrefix()":"5b4f894d","depositSuffix()":"8752b6b2","depositTxIds(uint256)":"06592167","failedDepositVault()":"a670e7ed","getAggregatedKey()":"3c918b6c","getWithdrawalCount()":"781952a8","initialize(bytes,bytes,uint256)":"41260137","initialized()":"158ef93e","operator()":"570ca735","owner()":"8da5cb5b","pendingOwner()":"e30c3978","processedTxIds(bytes32)":"4379caa5","renounceOwnership()":"715018a6","replaceDeposit((bytes4,bytes2,bytes,bytes,bytes,bytes4),(bytes,uint256,uint256),uint256,bytes32)":"2594f107","replacePrefix()":"6b0b5a94","replaceSuffix()":"f42cb4fc","safeWithdraw((bytes4,bytes2,bytes,bytes,bytes,bytes4),(bytes,uint256,uint256),(bytes4,bytes2,bytes,bytes,bytes,bytes4),bytes,bytes)":"9072f747","setDepositScript(bytes,bytes)":"f8e655d2","setFailedDepositVault(address)":"85fb7151","setOperator(address)":"b3ab15fb","setReplaceScript(bytes,bytes)":"7ec9732a","transferOwnership(address)":"f2fde38b","withdraw(bytes32,bytes4)":"8786dba7","withdrawalUTXOs(uint256)":"471ba1e3"},"id":45}