{"abi":[{"type":"function","name":"SYSTEM_CALLER","inputs":[],"outputs":[{"name":"","type":"address","internalType":"address"}],"stateMutability":"view"},{"type":"function","name":"blockHashes","inputs":[{"name":"","type":"uint256","internalType":"uint256"}],"outputs":[{"name":"","type":"bytes32","internalType":"bytes32"}],"stateMutability":"view"},{"type":"function","name":"blockNumber","inputs":[],"outputs":[{"name":"","type":"uint256","internalType":"uint256"}],"stateMutability":"view"},{"type":"function","name":"coinbaseDepths","inputs":[{"name":"","type":"bytes32","internalType":"bytes32"}],"outputs":[{"name":"","type":"uint256","internalType":"uint256"}],"stateMutability":"view"},{"type":"function","name":"getBlockHash","inputs":[{"name":"_blockNumber","type":"uint256","internalType":"uint256"}],"outputs":[{"name":"","type":"bytes32","internalType":"bytes32"}],"stateMutability":"view"},{"type":"function","name":"getWitnessRootByHash","inputs":[{"name":"_blockHash","type":"bytes32","internalType":"bytes32"}],"outputs":[{"name":"","type":"bytes32","internalType":"bytes32"}],"stateMutability":"view"},{"type":"function","name":"getWitnessRootByNumber","inputs":[{"name":"_blockNumber","type":"uint256","internalType":"uint256"}],"outputs":[{"name":"","type":"bytes32","internalType":"bytes32"}],"stateMutability":"view"},{"type":"function","name":"initializeBlockNumber","inputs":[{"name":"_blockNumber","type":"uint256","internalType":"uint256"}],"outputs":[],"stateMutability":"nonpayable"},{"type":"function","name":"setBlockInfo","inputs":[{"name":"_blockHash","type":"bytes32","internalType":"bytes32"},{"name":"_witnessRoot","type":"bytes32","internalType":"bytes32"}],"outputs":[],"stateMutability":"nonpayable"},{"type":"function","name":"setBlockInfo","inputs":[{"name":"_blockHash","type":"bytes32","internalType":"bytes32"},{"name":"_witnessRoot","type":"bytes32","internalType":"bytes32"},{"name":"_coinbaseDepth","type":"uint256","internalType":"uint256"}],"outputs":[],"stateMutability":"nonpayable"},{"type":"function","name":"verifyInclusion","inputs":[{"name":"_blockNumber","type":"uint256","internalType":"uint256"},{"name":"_wtxId","type":"bytes32","internalType":"bytes32"},{"name":"_proof","type":"bytes","internalType":"bytes"},{"name":"_index","type":"uint256","internalType":"uint256"}],"outputs":[{"name":"","type":"bool","internalType":"bool"}],"stateMutability":"view"},{"type":"function","name":"verifyInclusion","inputs":[{"name":"_blockHash","type":"bytes32","internalType":"bytes32"},{"name":"_wtxId","type":"bytes32","internalType":"bytes32"},{"name":"_proof","type":"bytes","internalType":"bytes"},{"name":"_index","type":"uint256","internalType":"uint256"}],"outputs":[{"name":"","type":"bool","internalType":"bool"}],"stateMutability":"view"},{"type":"function","name":"verifyInclusionByTxId","inputs":[{"name":"_blockNumber","type":"uint256","internalType":"uint256"},{"name":"_txId","type":"bytes32","internalType":"bytes32"},{"name":"_blockHeader","type":"bytes","internalType":"bytes"},{"name":"_proof","type":"bytes","internalType":"bytes"},{"name":"_index","type":"uint256","internalType":"uint256"}],"outputs":[{"name":"","type":"bool","internalType":"bool"}],"stateMutability":"view"},{"type":"function","name":"witnessRoots","inputs":[{"name":"","type":"bytes32","internalType":"bytes32"}],"outputs":[{"name":"","type":"bytes32","internalType":"bytes32"}],"stateMutability":"view"},{"type":"event","name":"BlockInfoAdded","inputs":[{"name":"blockNumber","type":"uint256","indexed":false,"internalType":"uint256"},{"name":"blockHash","type":"bytes32","indexed":false,"internalType":"bytes32"},{"name":"merkleRoot","type":"bytes32","indexed":false,"internalType":"bytes32"},{"name":"coinbaseDepth","type":"uint256","indexed":false,"internalType":"uint256"}],"anonymous":false},{"type":"event","name":"BlockInfoAddedOld","inputs":[{"name":"blockNumber","type":"uint256","indexed":false,"internalType":"uint256"},{"name":"blockHash","type":"bytes32","indexed":false,"internalType":"bytes32"},{"name":"merkleRoot","type":"bytes32","indexed":false,"internalType":"bytes32"}],"anonymous":false}],"bytecode":{"object":"0x6080604052348015600e575f5ffd5b50610ad08061001c5f395ff3fe608060405234801561000f575f5ffd5b50600436106100e5575f3560e01c8063a91d8b3d11610088578063d269a03e11610063578063d269a03e1461020a578063d5ba11fa1461021d578063d761753e14610230578063ee82ac5e14610263575f5ffd5b8063a91d8b3d146101b9578063abb068d6146101d8578063cd4cc08f146101f7575f5ffd5b806334cdf78d116100c357806334cdf78d146101435780634ffd344a1461016257806357e871e71461018557806361b207e21461018d575f5ffd5b80630466efc4146100e95780630e27bc111461011b5780631f57833314610130575b5f5ffd5b6101086100f73660046108b7565b5f9081526002602052604090205490565b6040519081526020015b60405180910390f35b61012e6101293660046108ce565b610282565b005b61012e61013e3660046108b7565b61037b565b6101086101513660046108b7565b60016020525f908152604090205481565b610175610170366004610933565b6103f7565b6040519015158152602001610112565b6101085f5481565b61010861019b3660046108b7565b5f908152600160209081526040808320548352600290915290205490565b6101086101c73660046108b7565b60026020525f908152604090205481565b6101086101e63660046108b7565b60036020525f908152604090205481565b610175610205366004610989565b61041c565b610175610218366004610933565b6105a2565b61012e61022b366004610a13565b6105b0565b61024b73deaddeaddeaddeaddeaddeaddeaddeaddeaddead81565b6040516001600160a01b039091168152602001610112565b6101086102713660046108b7565b5f9081526001602052604090205490565b3373deaddeaddeaddeaddeaddeaddeaddeaddeaddead146102be5760405162461bcd60e51b81526004016102b590610a3c565b60405180910390fd5b5f8054908190036103035760405162461bcd60e51b815260206004820152600f60248201526e139bdd081a5b9a5d1a585b1a5e9959608a1b60448201526064016102b5565b5f818152600160208190526040909120849055610321908290610a87565b5f9081558381526002602090815260409182902084905581518381529081018590529081018390527f87071b99941c479317961cac97dfdb285d86f27155d4d9673a478ad5225459cd9060600160405180910390a1505050565b3373deaddeaddeaddeaddeaddeaddeaddeaddeaddead146103ae5760405162461bcd60e51b81526004016102b590610a3c565b5f54156103f35760405162461bcd60e51b8152602060048201526013602482015272105b1c9958591e481a5b9a5d1a585b1a5e9959606a1b60448201526064016102b5565b5f55565b5f8581526001602052604081205461041290868686866106b2565b9695505050505050565b5f5f61045c87878080601f0160208091040260200160405190810160405280939291908181526020018383808284375f9201919091525061076c92505050565b5f8a81526001602052604090205490915081146104b25760405162461bcd60e51b815260206004820152601460248201527324b73b30b634b210313637b1b5903432b0b232b960611b60448201526064016102b5565b5f818152600360209081526040909120546104cc91610a9a565b84146105115760405162461bcd60e51b8152602060048201526014602482015273092dcecc2d8d2c840e0e4dedecc40d8cadccee8d60631b60448201526064016102b5565b5f61055088888080601f0160208091040260200160405190810160405280939291908181526020018383808284375f9201919091525061078e92505050565b9050610594898288888080601f0160208091040260200160405190810160405280939291908181526020018383808284375f920191909152508a925061079c915050565b9a9950505050505050505050565b5f61041286868686866106b2565b3373deaddeaddeaddeaddeaddeaddeaddeaddeaddead146105e35760405162461bcd60e51b81526004016102b590610a3c565b5f8054908190036106285760405162461bcd60e51b815260206004820152600f60248201526e139bdd081a5b9a5d1a585b1a5e9959608a1b60448201526064016102b5565b5f818152600160208190526040909120859055610646908290610a87565b5f90815584815260026020908152604080832086905560038252918290208490558151838152908101869052908101849052606081018390527f4975e407627f5c539dcd7c961396db91c315f4421c3b0023ba1bcf2e9e9b41f19060800160405180910390a150505050565b5f8581526003602090815260408220546106cb91610a9a565b83146107105760405162461bcd60e51b8152602060048201526014602482015273092dcecc2d8d2c840e0e4dedecc40d8cadccee8d60631b60448201526064016102b5565b5f86815260026020908152604091829020548251601f870183900483028101830190935285835291610761918891849189908990819084018382808284375f9201919091525089925061079c915050565b979650505050505050565b5f60205f83516020850160025afa5060205f60205f60025afa50505f51919050565b60448101515f905b92915050565b5f83851480156107aa575081155b80156107b557508251155b156107c2575060016107d1565b6107ce858486856107d9565b90505b949350505050565b5f602084516107e89190610ab1565b156107f457505f6107d1565b83515f0361080357505f6107d1565b81855f5b86518110156108715761081b600284610ab1565b60010361083f576108386108328883016020015190565b8361087e565b9150610858565b610855826108508984016020015190565b61087e565b91505b60019290921c9161086a602082610a87565b9050610807565b5090931495945050505050565b5f6108898383610890565b9392505050565b5f825f528160205260205f60405f60025afa5060205f60205f60025afa50505f5192915050565b5f602082840312156108c7575f5ffd5b5035919050565b5f5f604083850312156108df575f5ffd5b50508035926020909101359150565b5f5f83601f8401126108fe575f5ffd5b50813567ffffffffffffffff811115610915575f5ffd5b60208301915083602082850101111561092c575f5ffd5b9250929050565b5f5f5f5f5f60808688031215610947575f5ffd5b8535945060208601359350604086013567ffffffffffffffff81111561096b575f5ffd5b610977888289016108ee565b96999598509660600135949350505050565b5f5f5f5f5f5f5f60a0888a03121561099f575f5ffd5b8735965060208801359550604088013567ffffffffffffffff8111156109c3575f5ffd5b6109cf8a828b016108ee565b909650945050606088013567ffffffffffffffff8111156109ee575f5ffd5b6109fa8a828b016108ee565b989b979a50959894979596608090950135949350505050565b5f5f5f60608486031215610a25575f5ffd5b505081359360208301359350604090920135919050565b6020808252601f908201527f63616c6c6572206973206e6f74207468652073797374656d2063616c6c657200604082015260600190565b634e487b7160e01b5f52601160045260245ffd5b8082018082111561079657610796610a73565b808202811582820484141761079657610796610a73565b5f82610acb57634e487b7160e01b5f52601260045260245ffd5b50069056","linkReferences":{}},"methodIdentifiers":{"SYSTEM_CALLER()":"d761753e","blockHashes(uint256)":"34cdf78d","blockNumber()":"57e871e7","coinbaseDepths(bytes32)":"abb068d6","getBlockHash(uint256)":"ee82ac5e","getWitnessRootByHash(bytes32)":"0466efc4","getWitnessRootByNumber(uint256)":"61b207e2","initializeBlockNumber(uint256)":"1f578333","setBlockInfo(bytes32,bytes32)":"0e27bc11","setBlockInfo(bytes32,bytes32,uint256)":"d5ba11fa","verifyInclusion(bytes32,bytes32,bytes,uint256)":"d269a03e","verifyInclusion(uint256,bytes32,bytes,uint256)":"4ffd344a","verifyInclusionByTxId(uint256,bytes32,bytes,bytes,uint256)":"cd4cc08f","witnessRoots(bytes32)":"a91d8b3d"},"id":42}