{"abi":[{"type":"function","name":"SYSTEM_CALLER","inputs":[],"outputs":[{"name":"","type":"address","internalType":"address"}],"stateMutability":"view"},{"type":"function","name":"blockHashes","inputs":[{"name":"","type":"uint256","internalType":"uint256"}],"outputs":[{"name":"","type":"bytes32","internalType":"bytes32"}],"stateMutability":"view"},{"type":"function","name":"blockNumber","inputs":[],"outputs":[{"name":"","type":"uint256","internalType":"uint256"}],"stateMutability":"view"},{"type":"function","name":"coinbaseDepths","inputs":[{"name":"","type":"bytes32","internalType":"bytes32"}],"outputs":[{"name":"","type":"uint256","internalType":"uint256"}],"stateMutability":"view"},{"type":"function","name":"getBlockHash","inputs":[{"name":"_blockNumber","type":"uint256","internalType":"uint256"}],"outputs":[{"name":"","type":"bytes32","internalType":"bytes32"}],"stateMutability":"view"},{"type":"function","name":"getWitnessRootByHash","inputs":[{"name":"_blockHash","type":"bytes32","internalType":"bytes32"}],"outputs":[{"name":"","type":"bytes32","internalType":"bytes32"}],"stateMutability":"view"},{"type":"function","name":"getWitnessRootByNumber","inputs":[{"name":"_blockNumber","type":"uint256","internalType":"uint256"}],"outputs":[{"name":"","type":"bytes32","internalType":"bytes32"}],"stateMutability":"view"},{"type":"function","name":"initializeBlockNumber","inputs":[{"name":"_blockNumber","type":"uint256","internalType":"uint256"}],"outputs":[],"stateMutability":"nonpayable"},{"type":"function","name":"setBlockInfo","inputs":[{"name":"_blockHash","type":"bytes32","internalType":"bytes32"},{"name":"_witnessRoot","type":"bytes32","internalType":"bytes32"}],"outputs":[],"stateMutability":"nonpayable"},{"type":"function","name":"setBlockInfo","inputs":[{"name":"_blockHash","type":"bytes32","internalType":"bytes32"},{"name":"_witnessRoot","type":"bytes32","internalType":"bytes32"},{"name":"_coinbaseDepth","type":"uint256","internalType":"uint256"}],"outputs":[],"stateMutability":"nonpayable"},{"type":"function","name":"verifyInclusion","inputs":[{"name":"_blockNumber","type":"uint256","internalType":"uint256"},{"name":"_wtxId","type":"bytes32","internalType":"bytes32"},{"name":"_proof","type":"bytes","internalType":"bytes"},{"name":"_index","type":"uint256","internalType":"uint256"}],"outputs":[{"name":"","type":"bool","internalType":"bool"}],"stateMutability":"view"},{"type":"function","name":"verifyInclusion","inputs":[{"name":"_blockHash","type":"bytes32","internalType":"bytes32"},{"name":"_wtxId","type":"bytes32","internalType":"bytes32"},{"name":"_proof","type":"bytes","internalType":"bytes"},{"name":"_index","type":"uint256","internalType":"uint256"}],"outputs":[{"name":"","type":"bool","internalType":"bool"}],"stateMutability":"view"},{"type":"function","name":"verifyInclusionByTxId","inputs":[{"name":"_blockNumber","type":"uint256","internalType":"uint256"},{"name":"_txId","type":"bytes32","internalType":"bytes32"},{"name":"_blockHeader","type":"bytes","internalType":"bytes"},{"name":"_proof","type":"bytes","internalType":"bytes"},{"name":"_index","type":"uint256","internalType":"uint256"}],"outputs":[{"name":"","type":"bool","internalType":"bool"}],"stateMutability":"view"},{"type":"function","name":"witnessRoots","inputs":[{"name":"","type":"bytes32","internalType":"bytes32"}],"outputs":[{"name":"","type":"bytes32","internalType":"bytes32"}],"stateMutability":"view"},{"type":"event","name":"BlockInfoAdded","inputs":[{"name":"blockNumber","type":"uint256","indexed":false,"internalType":"uint256"},{"name":"blockHash","type":"bytes32","indexed":false,"internalType":"bytes32"},{"name":"merkleRoot","type":"bytes32","indexed":false,"internalType":"bytes32"},{"name":"coinbaseDepth","type":"uint256","indexed":false,"internalType":"uint256"}],"anonymous":false},{"type":"event","name":"BlockInfoAddedOld","inputs":[{"name":"blockNumber","type":"uint256","indexed":false,"internalType":"uint256"},{"name":"blockHash","type":"bytes32","indexed":false,"internalType":"bytes32"},{"name":"merkleRoot","type":"bytes32","indexed":false,"internalType":"bytes32"}],"anonymous":false}],"bytecode":{"object":"0x6080604052348015600e575f5ffd5b5061138e8061001c5f395ff3fe608060405234801561000f575f5ffd5b50600436106100e8575f3560e01c8063a91d8b3d1161008a578063d269a03e11610064578063d269a03e14610292578063d5ba11fa146102c2578063d761753e146102de578063ee82ac5e146102fc576100e8565b8063a91d8b3d14610202578063abb068d614610232578063cd4cc08f14610262576100e8565b806334cdf78d116100c657806334cdf78d146101545780634ffd344a1461018457806357e871e7146101b457806361b207e2146101d2576100e8565b80630466efc4146100ec5780630e27bc111461011c5780631f57833314610138575b5f5ffd5b61010660048036038101906101019190610bee565b61032c565b6040516101139190610c28565b60405180910390f35b61013660048036038101906101319190610c41565b610346565b005b610152600480360381019061014d9190610cb2565b61048d565b005b61016e60048036038101906101699190610cb2565b61055b565b60405161017b9190610c28565b60405180910390f35b61019e60048036038101906101999190610d3e565b610570565b6040516101ab9190610ddc565b60405180910390f35b6101bc61059a565b6040516101c99190610e04565b60405180910390f35b6101ec60048036038101906101e79190610cb2565b61059f565b6040516101f99190610c28565b60405180910390f35b61021c60048036038101906102179190610bee565b6105ca565b6040516102299190610c28565b60405180910390f35b61024c60048036038101906102479190610bee565b6105df565b6040516102599190610e04565b60405180910390f35b61027c60048036038101906102779190610e1d565b6105f4565b6040516102899190610ddc565b60405180910390f35b6102ac60048036038101906102a79190610ed4565b6107a6565b6040516102b99190610ddc565b60405180910390f35b6102dc60048036038101906102d79190610f58565b6107bf565b005b6102e661091f565b6040516102f39190610fe7565b60405180910390f35b61031660048036038101906103119190610cb2565b610937565b6040516103239190610c28565b60405180910390f35b5f60025f8381526020019081526020015f20549050919050565b73deaddeaddeaddeaddeaddeaddeaddeaddeaddead73ffffffffffffffffffffffffffffffffffffffff163373ffffffffffffffffffffffffffffffffffffffff16146103c8576040517f08c379a00000000000000000000000000000000000000000000000000000000081526004016103bf9061105a565b60405180910390fd5b5f5f5490505f810361040f576040517f08c379a0000000000000000000000000000000000000000000000000000000008152600401610406906110c2565b60405180910390fd5b8260015f8381526020019081526020015f2081905550600181610432919061110d565b5f819055508160025f8581526020019081526020015f20819055507f87071b99941c479317961cac97dfdb285d86f27155d4d9673a478ad5225459cd81848460405161048093929190611140565b60405180910390a1505050565b73deaddeaddeaddeaddeaddeaddeaddeaddeaddead73ffffffffffffffffffffffffffffffffffffffff163373ffffffffffffffffffffffffffffffffffffffff161461050f576040517f08c379a00000000000000000000000000000000000000000000000000000000081526004016105069061105a565b60405180910390fd5b5f5f5414610552576040517f08c379a0000000000000000000000000000000000000000000000000000000008152600401610549906111bf565b60405180910390fd5b805f8190555050565b6001602052805f5260405f205f915090505481565b5f61058f60015f8881526020019081526020015f205486868686610951565b905095945050505050565b5f5481565b5f60025f60015f8581526020019081526020015f205481526020019081526020015f20549050919050565b6002602052805f5260405f205f915090505481565b6003602052805f5260405f205f915090505481565b5f5f61064287878080601f0160208091040260200160405190810160405280939291908181526020018383808284375f81840152601f19601f82011690508083019250505050505050610a24565b90508060015f8b81526020019081526020015f205414610697576040517f08c379a000000000000000000000000000000000000000000000000000000000815260040161068e90611227565b60405180910390fd5b602060035f8381526020019081526020015f20546106b59190611245565b85859050146106f9576040517f08c379a00000000000000000000000000000000000000000000000000000000081526004016106f0906112d0565b60405180910390fd5b5f61074688888080601f0160208091040260200160405190810160405280939291908181526020018383808284375f81840152601f19601f82011690508083019250505050505050610a47565b9050610797898288888080601f0160208091040260200160405190810160405280939291908181526020018383808284375f81840152601f19601f8201169050808301925050505050505087610a63565b92505050979650505050505050565b5f6107b48686868686610951565b905095945050505050565b73deaddeaddeaddeaddeaddeaddeaddeaddeaddead73ffffffffffffffffffffffffffffffffffffffff163373ffffffffffffffffffffffffffffffffffffffff1614610841576040517f08c379a00000000000000000000000000000000000000000000000000000000081526004016108389061105a565b60405180910390fd5b5f5f5490505f8103610888576040517f08c379a000000000000000000000000000000000000000000000000000000000815260040161087f906110c2565b60405180910390fd5b8360015f8381526020019081526020015f20819055506001816108ab919061110d565b5f819055508260025f8681526020019081526020015f20819055508160035f8681526020019081526020015f20819055507f4975e407627f5c539dcd7c961396db91c315f4421c3b0023ba1bcf2e9e9b41f18185858560405161091194939291906112ee565b60405180910390a150505050565b73deaddeaddeaddeaddeaddeaddeaddeaddeaddead81565b5f60015f8381526020019081526020015f20549050919050565b5f602060035f8881526020019081526020015f20546109709190611245565b84849050146109b4576040517f08c379a00000000000000000000000000000000000000000000000000000000081526004016109ab906112d0565b60405180910390fd5b5f60025f8881526020019081526020015f20549050610a18868287878080601f0160208091040260200160405190810160405280939291908181526020018383808284375f81840152601f19601f8201169050808301925050505050505086610a63565b91505095945050505050565b5f60205f83516020850160025afa5060205f60205f60025afa505f519050919050565b5f610a5c602483610aa390919063ffffffff16565b9050919050565b5f8385148015610a7257505f82145b8015610a7e57505f8351145b15610a8c5760019050610a9b565b610a9885848685610ab3565b90505b949350505050565b5f81602084010151905092915050565b5f5f60208551610ac3919061135e565b14610ad0575f9050610b70565b5f845103610ae0575f9050610b70565b5f8290505f8690505f5f90505b8651811015610b67576001600284610b05919061135e565b03610b2d57610b26610b208289610aa390919063ffffffff16565b83610b78565b9150610b4c565b610b4982610b44838a610aa390919063ffffffff16565b610b78565b91505b600183901c9250602081610b60919061110d565b9050610aed565b50848114925050505b949350505050565b5f610b838383610b8b565b905092915050565b5f825f528160205260205f60405f60025afa5060205f60205f60025afa505f51905092915050565b5f5ffd5b5f5ffd5b5f819050919050565b610bcd81610bbb565b8114610bd7575f5ffd5b50565b5f81359050610be881610bc4565b92915050565b5f60208284031215610c0357610c02610bb3565b5b5f610c1084828501610bda565b91505092915050565b610c2281610bbb565b82525050565b5f602082019050610c3b5f830184610c19565b92915050565b5f5f60408385031215610c5757610c56610bb3565b5b5f610c6485828601610bda565b9250506020610c7585828601610bda565b9150509250929050565b5f819050919050565b610c9181610c7f565b8114610c9b575f5ffd5b50565b5f81359050610cac81610c88565b92915050565b5f60208284031215610cc757610cc6610bb3565b5b5f610cd484828501610c9e565b91505092915050565b5f5ffd5b5f5ffd5b5f5ffd5b5f5f83601f840112610cfe57610cfd610cdd565b5b8235905067ffffffffffffffff811115610d1b57610d1a610ce1565b5b602083019150836001820283011115610d3757610d36610ce5565b5b9250929050565b5f5f5f5f5f60808688031215610d5757610d56610bb3565b5b5f610d6488828901610c9e565b9550506020610d7588828901610bda565b945050604086013567ffffffffffffffff811115610d9657610d95610bb7565b5b610da288828901610ce9565b93509350506060610db588828901610c9e565b9150509295509295909350565b5f8115159050919050565b610dd681610dc2565b82525050565b5f602082019050610def5f830184610dcd565b92915050565b610dfe81610c7f565b82525050565b5f602082019050610e175f830184610df5565b92915050565b5f5f5f5f5f5f5f60a0888a031215610e3857610e37610bb3565b5b5f610e458a828b01610c9e565b9750506020610e568a828b01610bda565b965050604088013567ffffffffffffffff811115610e7757610e76610bb7565b5b610e838a828b01610ce9565b9550955050606088013567ffffffffffffffff811115610ea657610ea5610bb7565b5b610eb28a828b01610ce9565b93509350506080610ec58a828b01610c9e565b91505092959891949750929550565b5f5f5f5f5f60808688031215610eed57610eec610bb3565b5b5f610efa88828901610bda565b9550506020610f0b88828901610bda565b945050604086013567ffffffffffffffff811115610f2c57610f2b610bb7565b5b610f3888828901610ce9565b93509350506060610f4b88828901610c9e565b9150509295509295909350565b5f5f5f60608486031215610f6f57610f6e610bb3565b5b5f610f7c86828701610bda565b9350506020610f8d86828701610bda565b9250506040610f9e86828701610c9e565b9150509250925092565b5f73ffffffffffffffffffffffffffffffffffffffff82169050919050565b5f610fd182610fa8565b9050919050565b610fe181610fc7565b82525050565b5f602082019050610ffa5f830184610fd8565b92915050565b5f82825260208201905092915050565b7f63616c6c6572206973206e6f74207468652073797374656d2063616c6c6572005f82015250565b5f611044601f83611000565b915061104f82611010565b602082019050919050565b5f6020820190508181035f83015261107181611038565b9050919050565b7f4e6f7420696e697469616c697a656400000000000000000000000000000000005f82015250565b5f6110ac600f83611000565b91506110b782611078565b602082019050919050565b5f6020820190508181035f8301526110d9816110a0565b9050919050565b7f4e487b71000000000000000000000000000000000000000000000000000000005f52601160045260245ffd5b5f61111782610c7f565b915061112283610c7f565b925082820190508082111561113a576111396110e0565b5b92915050565b5f6060820190506111535f830186610df5565b6111606020830185610c19565b61116d6040830184610c19565b949350505050565b7f416c726561647920696e697469616c697a6564000000000000000000000000005f82015250565b5f6111a9601383611000565b91506111b482611175565b602082019050919050565b5f6020820190508181035f8301526111d68161119d565b9050919050565b7f496e76616c696420626c6f636b206865616465720000000000000000000000005f82015250565b5f611211601483611000565b915061121c826111dd565b602082019050919050565b5f6020820190508181035f83015261123e81611205565b9050919050565b5f61124f82610c7f565b915061125a83610c7f565b925082820261126881610c7f565b9150828204841483151761127f5761127e6110e0565b5b5092915050565b7f496e76616c69642070726f6f66206c656e6774680000000000000000000000005f82015250565b5f6112ba601483611000565b91506112c582611286565b602082019050919050565b5f6020820190508181035f8301526112e7816112ae565b9050919050565b5f6080820190506113015f830187610df5565b61130e6020830186610c19565b61131b6040830185610c19565b6113286060830184610df5565b95945050505050565b7f4e487b71000000000000000000000000000000000000000000000000000000005f52601260045260245ffd5b5f61136882610c7f565b915061137383610c7f565b92508261138357611382611331565b5b82820690509291505056","linkReferences":{}},"methodIdentifiers":{"SYSTEM_CALLER()":"d761753e","blockHashes(uint256)":"34cdf78d","blockNumber()":"57e871e7","coinbaseDepths(bytes32)":"abb068d6","getBlockHash(uint256)":"ee82ac5e","getWitnessRootByHash(bytes32)":"0466efc4","getWitnessRootByNumber(uint256)":"61b207e2","initializeBlockNumber(uint256)":"1f578333","setBlockInfo(bytes32,bytes32)":"0e27bc11","setBlockInfo(bytes32,bytes32,uint256)":"d5ba11fa","verifyInclusion(bytes32,bytes32,bytes,uint256)":"d269a03e","verifyInclusion(uint256,bytes32,bytes,uint256)":"4ffd344a","verifyInclusionByTxId(uint256,bytes32,bytes,bytes,uint256)":"cd4cc08f","witnessRoots(bytes32)":"a91d8b3d"},"id":45}