{"abi":[{"type":"function","name":"SYSTEM_CALLER","inputs":[],"outputs":[{"name":"","type":"address","internalType":"address"}],"stateMutability":"view"},{"type":"function","name":"blockHashes","inputs":[{"name":"","type":"uint256","internalType":"uint256"}],"outputs":[{"name":"","type":"bytes32","internalType":"bytes32"}],"stateMutability":"view"},{"type":"function","name":"blockNumber","inputs":[],"outputs":[{"name":"","type":"uint256","internalType":"uint256"}],"stateMutability":"view"},{"type":"function","name":"coinbaseDepths","inputs":[{"name":"","type":"bytes32","internalType":"bytes32"}],"outputs":[{"name":"","type":"uint256","internalType":"uint256"}],"stateMutability":"view"},{"type":"function","name":"getBlockHash","inputs":[{"name":"_blockNumber","type":"uint256","internalType":"uint256"}],"outputs":[{"name":"","type":"bytes32","internalType":"bytes32"}],"stateMutability":"view"},{"type":"function","name":"getWitnessRootByHash","inputs":[{"name":"_blockHash","type":"bytes32","internalType":"bytes32"}],"outputs":[{"name":"","type":"bytes32","internalType":"bytes32"}],"stateMutability":"view"},{"type":"function","name":"getWitnessRootByNumber","inputs":[{"name":"_blockNumber","type":"uint256","internalType":"uint256"}],"outputs":[{"name":"","type":"bytes32","internalType":"bytes32"}],"stateMutability":"view"},{"type":"function","name":"initializeBlockNumber","inputs":[{"name":"_blockNumber","type":"uint256","internalType":"uint256"}],"outputs":[],"stateMutability":"nonpayable"},{"type":"function","name":"setBlockInfo","inputs":[{"name":"_blockHash","type":"bytes32","internalType":"bytes32"},{"name":"_witnessRoot","type":"bytes32","internalType":"bytes32"},{"name":"_coinbaseDepth","type":"uint256","internalType":"uint256"}],"outputs":[],"stateMutability":"nonpayable"},{"type":"function","name":"verifyInclusion","inputs":[{"name":"_blockNumber","type":"uint256","internalType":"uint256"},{"name":"_wtxId","type":"bytes32","internalType":"bytes32"},{"name":"_proof","type":"bytes","internalType":"bytes"},{"name":"_index","type":"uint256","internalType":"uint256"}],"outputs":[{"name":"","type":"bool","internalType":"bool"}],"stateMutability":"view"},{"type":"function","name":"verifyInclusion","inputs":[{"name":"_blockHash","type":"bytes32","internalType":"bytes32"},{"name":"_wtxId","type":"bytes32","internalType":"bytes32"},{"name":"_proof","type":"bytes","internalType":"bytes"},{"name":"_index","type":"uint256","internalType":"uint256"}],"outputs":[{"name":"","type":"bool","internalType":"bool"}],"stateMutability":"view"},{"type":"function","name":"verifyInclusionByTxId","inputs":[{"name":"_blockNumber","type":"uint256","internalType":"uint256"},{"name":"_txId","type":"bytes32","internalType":"bytes32"},{"name":"_blockHeader","type":"bytes","internalType":"bytes"},{"name":"_proof","type":"bytes","internalType":"bytes"},{"name":"_index","type":"uint256","internalType":"uint256"}],"outputs":[{"name":"","type":"bool","internalType":"bool"}],"stateMutability":"view"},{"type":"function","name":"witnessRoots","inputs":[{"name":"","type":"bytes32","internalType":"bytes32"}],"outputs":[{"name":"","type":"bytes32","internalType":"bytes32"}],"stateMutability":"view"},{"type":"event","name":"BlockInfoAdded","inputs":[{"name":"blockNumber","type":"uint256","indexed":false,"internalType":"uint256"},{"name":"blockHash","type":"bytes32","indexed":false,"internalType":"bytes32"},{"name":"merkleRoot","type":"bytes32","indexed":false,"internalType":"bytes32"},{"name":"coinbaseDepth","type":"uint256","indexed":false,"internalType":"uint256"}],"anonymous":false},{"type":"event","name":"BlockInfoAddedOld","inputs":[{"name":"blockNumber","type":"uint256","indexed":false,"internalType":"uint256"},{"name":"blockHash","type":"bytes32","indexed":false,"internalType":"bytes32"},{"name":"merkleRoot","type":"bytes32","indexed":false,"internalType":"bytes32"}],"anonymous":false}],"bytecode":{"object":"0x6080604052348015600e575f5ffd5b506109d08061001c5f395ff3fe608060405234801561000f575f5ffd5b50600436106100cb575f3560e01c8063a91d8b3d11610088578063d269a03e11610063578063d269a03e146101dd578063d5ba11fa146101f0578063d761753e14610203578063ee82ac5e14610236575f5ffd5b8063a91d8b3d1461018c578063abb068d6146101ab578063cd4cc08f146101ca575f5ffd5b80630466efc4146100cf5780631f5783331461010157806334cdf78d146101165780634ffd344a1461013557806357e871e71461015857806361b207e214610160575b5f5ffd5b6100ee6100dd36600461080e565b5f9081526002602052604090205490565b6040519081526020015b60405180910390f35b61011461010f36600461080e565b610255565b005b6100ee61012436600461080e565b60016020525f908152604090205481565b61014861014336600461086a565b610306565b60405190151581526020016100f8565b6100ee5f5481565b6100ee61016e36600461080e565b5f908152600160209081526040808320548352600290915290205490565b6100ee61019a36600461080e565b60026020525f908152604090205481565b6100ee6101b936600461080e565b60036020525f908152604090205481565b6101486101d83660046108c0565b61032b565b6101486101eb36600461086a565b6104b1565b6101146101fe36600461094a565b6104bf565b61021e73deaddeaddeaddeaddeaddeaddeaddeaddeaddead81565b6040516001600160a01b0390911681526020016100f8565b6100ee61024436600461080e565b5f9081526001602052604090205490565b3373deaddeaddeaddeaddeaddeaddeaddeaddeaddead146102bd5760405162461bcd60e51b815260206004820152601f60248201527f63616c6c6572206973206e6f74207468652073797374656d2063616c6c65720060448201526064015b60405180910390fd5b5f54156103025760405162461bcd60e51b8152602060048201526013602482015272105b1c9958591e481a5b9a5d1a585b1a5e9959606a1b60448201526064016102b4565b5f55565b5f8581526001602052604081205461032190868686866105f1565b9695505050505050565b5f5f61036b87878080601f0160208091040260200160405190810160405280939291908181526020018383808284375f920191909152506106ab92505050565b5f8a81526001602052604090205490915081146103c15760405162461bcd60e51b815260206004820152601460248201527324b73b30b634b210313637b1b5903432b0b232b960611b60448201526064016102b4565b5f818152600360209081526040909120546103db91610987565b84146104205760405162461bcd60e51b8152602060048201526014602482015273092dcecc2d8d2c840e0e4dedecc40d8cadccee8d60631b60448201526064016102b4565b5f61045f88888080601f0160208091040260200160405190810160405280939291908181526020018383808284375f920191909152506106cd92505050565b90506104a3898288888080601f0160208091040260200160405190810160405280939291908181526020018383808284375f920191909152508a92506106db915050565b9a9950505050505050505050565b5f61032186868686866105f1565b3373deaddeaddeaddeaddeaddeaddeaddeaddeaddead146105225760405162461bcd60e51b815260206004820152601f60248201527f63616c6c6572206973206e6f74207468652073797374656d2063616c6c65720060448201526064016102b4565b5f8054908190036105675760405162461bcd60e51b815260206004820152600f60248201526e139bdd081a5b9a5d1a585b1a5e9959608a1b60448201526064016102b4565b5f81815260016020819052604090912085905561058590829061099e565b5f90815584815260026020908152604080832086905560038252918290208490558151838152908101869052908101849052606081018390527f4975e407627f5c539dcd7c961396db91c315f4421c3b0023ba1bcf2e9e9b41f19060800160405180910390a150505050565b5f85815260036020908152604082205461060a91610987565b831461064f5760405162461bcd60e51b8152602060048201526014602482015273092dcecc2d8d2c840e0e4dedecc40d8cadccee8d60631b60448201526064016102b4565b5f86815260026020908152604091829020548251601f8701839004830281018301909352858352916106a0918891849189908990819084018382808284375f920191909152508992506106db915050565b979650505050505050565b5f60205f83516020850160025afa5060205f60205f60025afa50505f51919050565b60448101515f905b92915050565b5f83851480156106e9575081155b80156106f457508251155b1561070157506001610710565b61070d85848685610718565b90505b949350505050565b5f6020845161072791906109b1565b1561073357505f610710565b83515f0361074257505f610710565b81855f5b86518110156107c85761075a6002846109b1565b600103610796575f61076f8883016020015190565b9050828103610784575f945050505050610710565b61078e81846107d5565b9250506107af565b6107ac826107a78984016020015190565b6107d5565b91505b60019290921c916107c160208261099e565b9050610746565b5090931495945050505050565b5f6107e083836107e7565b9392505050565b5f825f528160205260205f60405f60025afa5060205f60205f60025afa50505f5192915050565b5f6020828403121561081e575f5ffd5b5035919050565b5f5f83601f840112610835575f5ffd5b50813567ffffffffffffffff81111561084c575f5ffd5b602083019150836020828501011115610863575f5ffd5b9250929050565b5f5f5f5f5f6080868803121561087e575f5ffd5b8535945060208601359350604086013567ffffffffffffffff8111156108a2575f5ffd5b6108ae88828901610825565b96999598509660600135949350505050565b5f5f5f5f5f5f5f60a0888a0312156108d6575f5ffd5b8735965060208801359550604088013567ffffffffffffffff8111156108fa575f5ffd5b6109068a828b01610825565b909650945050606088013567ffffffffffffffff811115610925575f5ffd5b6109318a828b01610825565b989b979a50959894979596608090950135949350505050565b5f5f5f6060848603121561095c575f5ffd5b505081359360208301359350604090920135919050565b634e487b7160e01b5f52601160045260245ffd5b80820281158282048414176106d5576106d5610973565b808201808211156106d5576106d5610973565b5f826109cb57634e487b7160e01b5f52601260045260245ffd5b50069056","linkReferences":{}},"methodIdentifiers":{"SYSTEM_CALLER()":"d761753e","blockHashes(uint256)":"34cdf78d","blockNumber()":"57e871e7","coinbaseDepths(bytes32)":"abb068d6","getBlockHash(uint256)":"ee82ac5e","getWitnessRootByHash(bytes32)":"0466efc4","getWitnessRootByNumber(uint256)":"61b207e2","initializeBlockNumber(uint256)":"1f578333","setBlockInfo(bytes32,bytes32,uint256)":"d5ba11fa","verifyInclusion(bytes32,bytes32,bytes,uint256)":"d269a03e","verifyInclusion(uint256,bytes32,bytes,uint256)":"4ffd344a","verifyInclusionByTxId(uint256,bytes32,bytes,bytes,uint256)":"cd4cc08f","witnessRoots(bytes32)":"a91d8b3d"},"id":9}